{
	"contracts/uniV2Pool.sol": {
		"Univ2Protocal": {
			"abi": [
				{
					"anonymous": false,
					"inputs": [
						{
							"indexed": true,
							"internalType": "address",
							"name": "previousOwner",
							"type": "address"
						},
						{
							"indexed": true,
							"internalType": "address",
							"name": "newOwner",
							"type": "address"
						}
					],
					"name": "OwnershipTransferred",
					"type": "event"
				},
				{
					"inputs": [
						{
							"internalType": "uint256",
							"name": "_aAmount",
							"type": "uint256"
						},
						{
							"internalType": "uint256",
							"name": "_bAmount",
							"type": "uint256"
						}
					],
					"name": "addLiquidity",
					"outputs": [
						{
							"internalType": "uint256",
							"name": "",
							"type": "uint256"
						},
						{
							"internalType": "uint256",
							"name": "",
							"type": "uint256"
						}
					],
					"stateMutability": "nonpayable",
					"type": "function"
				},
				{
					"inputs": [],
					"name": "owner",
					"outputs": [
						{
							"internalType": "address",
							"name": "",
							"type": "address"
						}
					],
					"stateMutability": "view",
					"type": "function"
				},
				{
					"inputs": [],
					"name": "queryPair",
					"outputs": [
						{
							"internalType": "address",
							"name": "",
							"type": "address"
						},
						{
							"internalType": "address",
							"name": "",
							"type": "address"
						}
					],
					"stateMutability": "view",
					"type": "function"
				},
				{
					"inputs": [],
					"name": "renounceOwnership",
					"outputs": [],
					"stateMutability": "nonpayable",
					"type": "function"
				},
				{
					"inputs": [
						{
							"internalType": "address",
							"name": "_a",
							"type": "address"
						},
						{
							"internalType": "address",
							"name": "_b",
							"type": "address"
						}
					],
					"name": "setCoinPair",
					"outputs": [],
					"stateMutability": "nonpayable",
					"type": "function"
				},
				{
					"inputs": [
						{
							"internalType": "address",
							"name": "_tokenIn",
							"type": "address"
						},
						{
							"internalType": "uint256",
							"name": "_amountIn",
							"type": "uint256"
						},
						{
							"internalType": "uint256",
							"name": "_amountOutMin",
							"type": "uint256"
						},
						{
							"internalType": "address",
							"name": "_to",
							"type": "address"
						}
					],
					"name": "swap",
					"outputs": [],
					"stateMutability": "nonpayable",
					"type": "function"
				},
				{
					"inputs": [
						{
							"internalType": "address",
							"name": "newOwner",
							"type": "address"
						}
					],
					"name": "transferOwnership",
					"outputs": [],
					"stateMutability": "nonpayable",
					"type": "function"
				}
			],
			"devdoc": {
				"kind": "dev",
				"methods": {
					"owner()": {
						"details": "Returns the address of the current owner."
					},
					"renounceOwnership()": {
						"details": "Leaves the contract without owner. It will not be possible to call `onlyOwner` functions anymore. Can only be called by the current owner. NOTE: Renouncing ownership will leave the contract without an owner, thereby removing any functionality that is only available to the owner."
					},
					"transferOwnership(address)": {
						"details": "Transfers ownership of the contract to a new account (`newOwner`). Can only be called by the current owner."
					}
				},
				"version": 1
			},
			"evm": {
				"assembly": "    /* \"contracts/uniV2Pool.sol\":279:3429  contract Univ2Protocal is Ownable{... */\n  mstore(0x40, 0x80)\n  callvalue\n  dup1\n  iszero\n  tag_1\n  jumpi\n  0x00\n  dup1\n  revert\ntag_1:\n  pop\n    /* \"@openzeppelin/contracts/access/Ownable.sol\":936:968  _transferOwnership(_msgSender()) */\n  tag_4\n    /* \"@openzeppelin/contracts/access/Ownable.sol\":955:967  _msgSender() */\n  tag_5\n    /* \"@openzeppelin/contracts/access/Ownable.sol\":955:965  _msgSender */\n  shl(0x20, tag_6)\n    /* \"@openzeppelin/contracts/access/Ownable.sol\":955:967  _msgSender() */\n  0x20\n  shr\n  jump\t// in\ntag_5:\n    /* \"@openzeppelin/contracts/access/Ownable.sol\":936:954  _transferOwnership */\n  shl(0x20, tag_7)\n    /* \"@openzeppelin/contracts/access/Ownable.sol\":936:968  _transferOwnership(_msgSender()) */\n  0x20\n  shr\n  jump\t// in\ntag_4:\n    /* \"contracts/uniV2Pool.sol\":279:3429  contract Univ2Protocal is Ownable{... */\n  jump(tag_8)\n    /* \"@openzeppelin/contracts/utils/Context.sol\":640:736  function _msgSender() internal view virtual returns (address) {... */\ntag_6:\n    /* \"@openzeppelin/contracts/utils/Context.sol\":693:700  address */\n  0x00\n    /* \"@openzeppelin/contracts/utils/Context.sol\":719:729  msg.sender */\n  caller\n    /* \"@openzeppelin/contracts/utils/Context.sol\":712:729  return msg.sender */\n  swap1\n  pop\n    /* \"@openzeppelin/contracts/utils/Context.sol\":640:736  function _msgSender() internal view virtual returns (address) {... */\n  swap1\n  jump\t// out\n    /* \"@openzeppelin/contracts/access/Ownable.sol\":2433:2620  function _transferOwnership(address newOwner) internal virtual {... */\ntag_7:\n    /* \"@openzeppelin/contracts/access/Ownable.sol\":2506:2522  address oldOwner */\n  0x00\n    /* \"@openzeppelin/contracts/access/Ownable.sol\":2525:2531  _owner */\n  dup1\n  0x00\n  swap1\n  sload\n  swap1\n  0x0100\n  exp\n  swap1\n  div\n  0xffffffffffffffffffffffffffffffffffffffff\n  and\n    /* \"@openzeppelin/contracts/access/Ownable.sol\":2506:2531  address oldOwner = _owner */\n  swap1\n  pop\n    /* \"@openzeppelin/contracts/access/Ownable.sol\":2550:2558  newOwner */\n  dup2\n    /* \"@openzeppelin/contracts/access/Ownable.sol\":2541:2547  _owner */\n  0x00\n  dup1\n    /* \"@openzeppelin/contracts/access/Ownable.sol\":2541:2558  _owner = newOwner */\n  0x0100\n  exp\n  dup2\n  sload\n  dup2\n  0xffffffffffffffffffffffffffffffffffffffff\n  mul\n  not\n  and\n  swap1\n  dup4\n  0xffffffffffffffffffffffffffffffffffffffff\n  and\n  mul\n  or\n  swap1\n  sstore\n  pop\n    /* \"@openzeppelin/contracts/access/Ownable.sol\":2604:2612  newOwner */\n  dup2\n    /* \"@openzeppelin/contracts/access/Ownable.sol\":2573:2613  OwnershipTransferred(oldOwner, newOwner) */\n  0xffffffffffffffffffffffffffffffffffffffff\n  and\n    /* \"@openzeppelin/contracts/access/Ownable.sol\":2594:2602  oldOwner */\n  dup2\n    /* \"@openzeppelin/contracts/access/Ownable.sol\":2573:2613  OwnershipTransferred(oldOwner, newOwner) */\n  0xffffffffffffffffffffffffffffffffffffffff\n  and\n  0x8be0079c531659141344cd1fd0a4f28419497f9722a3daafe3b4186f6b6457e0\n  mload(0x40)\n  mload(0x40)\n  dup1\n  swap2\n  sub\n  swap1\n  log3\n    /* \"@openzeppelin/contracts/access/Ownable.sol\":2433:2620  function _transferOwnership(address newOwner) internal virtual {... */\n  pop\n  pop\n  jump\t// out\n    /* \"contracts/uniV2Pool.sol\":279:3429  contract Univ2Protocal is Ownable{... */\ntag_8:\n  dataSize(sub_0)\n  dup1\n  dataOffset(sub_0)\n  0x00\n  codecopy\n  0x00\n  return\nstop\n\nsub_0: assembly {\n        /* \"contracts/uniV2Pool.sol\":279:3429  contract Univ2Protocal is Ownable{... */\n      mstore(0x40, 0x80)\n      callvalue\n      dup1\n      iszero\n      tag_1\n      jumpi\n      0x00\n      dup1\n      revert\n    tag_1:\n      pop\n      jumpi(tag_2, lt(calldatasize, 0x04))\n      shr(0xe0, calldataload(0x00))\n      dup1\n      0x8da5cb5b\n      gt\n      tag_10\n      jumpi\n      dup1\n      0x8da5cb5b\n      eq\n      tag_6\n      jumpi\n      dup1\n      0x9cd441da\n      eq\n      tag_7\n      jumpi\n      dup1\n      0xf2fde38b\n      eq\n      tag_8\n      jumpi\n      dup1\n      0xf3e6ea8a\n      eq\n      tag_9\n      jumpi\n      jump(tag_2)\n    tag_10:\n      dup1\n      0x1a727c26\n      eq\n      tag_3\n      jumpi\n      dup1\n      0x6f9632da\n      eq\n      tag_4\n      jumpi\n      dup1\n      0x715018a6\n      eq\n      tag_5\n      jumpi\n    tag_2:\n      0x00\n      dup1\n      revert\n        /* \"contracts/uniV2Pool.sol\":551:650  function queryPair() external view returns (address, address){... */\n    tag_3:\n      tag_11\n      tag_12\n      jump\t// in\n    tag_11:\n      mload(0x40)\n      tag_13\n      swap3\n      swap2\n      swap1\n      tag_14\n      jump\t// in\n    tag_13:\n      mload(0x40)\n      dup1\n      swap2\n      sub\n      swap1\n      return\n        /* \"contracts/uniV2Pool.sol\":435:545  function setCoinPair(address _a, address _b) external onlyOwner{... */\n    tag_4:\n      tag_15\n      0x04\n      dup1\n      calldatasize\n      sub\n      dup2\n      add\n      swap1\n      tag_16\n      swap2\n      swap1\n      tag_17\n      jump\t// in\n    tag_16:\n      tag_18\n      jump\t// in\n    tag_15:\n      stop\n        /* \"@openzeppelin/contracts/access/Ownable.sol\":1831:1932  function renounceOwnership() public virtual onlyOwner {... */\n    tag_5:\n      tag_19\n      tag_20\n      jump\t// in\n    tag_19:\n      stop\n        /* \"@openzeppelin/contracts/access/Ownable.sol\":1201:1286  function owner() public view virtual returns (address) {... */\n    tag_6:\n      tag_21\n      tag_22\n      jump\t// in\n    tag_21:\n      mload(0x40)\n      tag_23\n      swap2\n      swap1\n      tag_24\n      jump\t// in\n    tag_23:\n      mload(0x40)\n      dup1\n      swap2\n      sub\n      swap1\n      return\n        /* \"contracts/uniV2Pool.sol\":656:1341  function addLiquidity(uint256 _aAmount, uint256 _bAmount) external onlyOwner returns (uint256, uint256) {... */\n    tag_7:\n      tag_25\n      0x04\n      dup1\n      calldatasize\n      sub\n      dup2\n      add\n      swap1\n      tag_26\n      swap2\n      swap1\n      tag_27\n      jump\t// in\n    tag_26:\n      tag_28\n      jump\t// in\n    tag_25:\n      mload(0x40)\n      tag_29\n      swap3\n      swap2\n      swap1\n      tag_30\n      jump\t// in\n    tag_29:\n      mload(0x40)\n      dup1\n      swap2\n      sub\n      swap1\n      return\n        /* \"@openzeppelin/contracts/access/Ownable.sol\":2081:2279  function transferOwnership(address newOwner) public virtual onlyOwner {... */\n    tag_8:\n      tag_31\n      0x04\n      dup1\n      calldatasize\n      sub\n      dup2\n      add\n      swap1\n      tag_32\n      swap2\n      swap1\n      tag_33\n      jump\t// in\n    tag_32:\n      tag_34\n      jump\t// in\n    tag_31:\n      stop\n        /* \"contracts/uniV2Pool.sol\":1347:3253  function swap(address _tokenIn, uint256 _amountIn, uint256 _amountOutMin, address _to) external {... */\n    tag_9:\n      tag_35\n      0x04\n      dup1\n      calldatasize\n      sub\n      dup2\n      add\n      swap1\n      tag_36\n      swap2\n      swap1\n      tag_37\n      jump\t// in\n    tag_36:\n      tag_38\n      jump\t// in\n    tag_35:\n      stop\n        /* \"contracts/uniV2Pool.sol\":551:650  function queryPair() external view returns (address, address){... */\n    tag_12:\n        /* \"contracts/uniV2Pool.sol\":595:602  address */\n      0x00\n        /* \"contracts/uniV2Pool.sol\":604:611  address */\n      dup1\n        /* \"contracts/uniV2Pool.sol\":630:635  coinA */\n      0x03\n      0x00\n      swap1\n      sload\n      swap1\n      0x0100\n      exp\n      swap1\n      div\n      0xffffffffffffffffffffffffffffffffffffffff\n      and\n        /* \"contracts/uniV2Pool.sol\":637:642  coinB */\n      0x04\n      0x00\n      swap1\n      sload\n      swap1\n      0x0100\n      exp\n      swap1\n      div\n      0xffffffffffffffffffffffffffffffffffffffff\n      and\n        /* \"contracts/uniV2Pool.sol\":622:643  return (coinA, coinB) */\n      swap2\n      pop\n      swap2\n      pop\n        /* \"contracts/uniV2Pool.sol\":551:650  function queryPair() external view returns (address, address){... */\n      swap1\n      swap2\n      jump\t// out\n        /* \"contracts/uniV2Pool.sol\":435:545  function setCoinPair(address _a, address _b) external onlyOwner{... */\n    tag_18:\n        /* \"@openzeppelin/contracts/access/Ownable.sol\":1094:1107  _checkOwner() */\n      tag_41\n        /* \"@openzeppelin/contracts/access/Ownable.sol\":1094:1105  _checkOwner */\n      tag_42\n        /* \"@openzeppelin/contracts/access/Ownable.sol\":1094:1107  _checkOwner() */\n      jump\t// in\n    tag_41:\n        /* \"contracts/uniV2Pool.sol\":516:518  _a */\n      dup2\n        /* \"contracts/uniV2Pool.sol\":508:513  coinA */\n      0x03\n      0x00\n        /* \"contracts/uniV2Pool.sol\":508:518  coinA = _a */\n      0x0100\n      exp\n      dup2\n      sload\n      dup2\n      0xffffffffffffffffffffffffffffffffffffffff\n      mul\n      not\n      and\n      swap1\n      dup4\n      0xffffffffffffffffffffffffffffffffffffffff\n      and\n      mul\n      or\n      swap1\n      sstore\n      pop\n        /* \"contracts/uniV2Pool.sol\":536:538  _b */\n      dup1\n        /* \"contracts/uniV2Pool.sol\":528:533  coinB */\n      0x04\n      0x00\n        /* \"contracts/uniV2Pool.sol\":528:538  coinB = _b */\n      0x0100\n      exp\n      dup2\n      sload\n      dup2\n      0xffffffffffffffffffffffffffffffffffffffff\n      mul\n      not\n      and\n      swap1\n      dup4\n      0xffffffffffffffffffffffffffffffffffffffff\n      and\n      mul\n      or\n      swap1\n      sstore\n      pop\n        /* \"contracts/uniV2Pool.sol\":435:545  function setCoinPair(address _a, address _b) external onlyOwner{... */\n      pop\n      pop\n      jump\t// out\n        /* \"@openzeppelin/contracts/access/Ownable.sol\":1831:1932  function renounceOwnership() public virtual onlyOwner {... */\n    tag_20:\n        /* \"@openzeppelin/contracts/access/Ownable.sol\":1094:1107  _checkOwner() */\n      tag_45\n        /* \"@openzeppelin/contracts/access/Ownable.sol\":1094:1105  _checkOwner */\n      tag_42\n        /* \"@openzeppelin/contracts/access/Ownable.sol\":1094:1107  _checkOwner() */\n      jump\t// in\n    tag_45:\n        /* \"@openzeppelin/contracts/access/Ownable.sol\":1895:1925  _transferOwnership(address(0)) */\n      tag_47\n        /* \"@openzeppelin/contracts/access/Ownable.sol\":1922:1923  0 */\n      0x00\n        /* \"@openzeppelin/contracts/access/Ownable.sol\":1895:1913  _transferOwnership */\n      tag_48\n        /* \"@openzeppelin/contracts/access/Ownable.sol\":1895:1925  _transferOwnership(address(0)) */\n      jump\t// in\n    tag_47:\n        /* \"@openzeppelin/contracts/access/Ownable.sol\":1831:1932  function renounceOwnership() public virtual onlyOwner {... */\n      jump\t// out\n        /* \"@openzeppelin/contracts/access/Ownable.sol\":1201:1286  function owner() public view virtual returns (address) {... */\n    tag_22:\n        /* \"@openzeppelin/contracts/access/Ownable.sol\":1247:1254  address */\n      0x00\n        /* \"@openzeppelin/contracts/access/Ownable.sol\":1273:1279  _owner */\n      dup1\n      0x00\n      swap1\n      sload\n      swap1\n      0x0100\n      exp\n      swap1\n      div\n      0xffffffffffffffffffffffffffffffffffffffff\n      and\n        /* \"@openzeppelin/contracts/access/Ownable.sol\":1266:1279  return _owner */\n      swap1\n      pop\n        /* \"@openzeppelin/contracts/access/Ownable.sol\":1201:1286  function owner() public view virtual returns (address) {... */\n      swap1\n      jump\t// out\n        /* \"contracts/uniV2Pool.sol\":656:1341  function addLiquidity(uint256 _aAmount, uint256 _bAmount) external onlyOwner returns (uint256, uint256) {... */\n    tag_28:\n        /* \"contracts/uniV2Pool.sol\":742:749  uint256 */\n      0x00\n        /* \"contracts/uniV2Pool.sol\":751:758  uint256 */\n      dup1\n        /* \"@openzeppelin/contracts/access/Ownable.sol\":1094:1107  _checkOwner() */\n      tag_51\n        /* \"@openzeppelin/contracts/access/Ownable.sol\":1094:1105  _checkOwner */\n      tag_42\n        /* \"@openzeppelin/contracts/access/Ownable.sol\":1094:1107  _checkOwner() */\n      jump\t// in\n    tag_51:\n        /* \"contracts/uniV2Pool.sol\":837:842  coinA */\n      0x03\n      0x00\n      swap1\n      sload\n      swap1\n      0x0100\n      exp\n      swap1\n      div\n      0xffffffffffffffffffffffffffffffffffffffff\n      and\n        /* \"contracts/uniV2Pool.sol\":830:856  IERC20(coinA).transferFrom */\n      0xffffffffffffffffffffffffffffffffffffffff\n      and\n      0x23b872dd\n        /* \"contracts/uniV2Pool.sol\":857:867  msg.sender */\n      caller\n        /* \"contracts/uniV2Pool.sol\":877:881  this */\n      address\n        /* \"contracts/uniV2Pool.sol\":884:892  _aAmount */\n      dup8\n        /* \"contracts/uniV2Pool.sol\":830:893  IERC20(coinA).transferFrom(msg.sender, address(this), _aAmount) */\n      mload(0x40)\n      dup5\n      0xffffffff\n      and\n      0xe0\n      shl\n      dup2\n      mstore\n      0x04\n      add\n      tag_53\n      swap4\n      swap3\n      swap2\n      swap1\n      tag_54\n      jump\t// in\n    tag_53:\n      0x20\n      mload(0x40)\n      dup1\n      dup4\n      sub\n      dup2\n      0x00\n      dup8\n      dup1\n      extcodesize\n      iszero\n      dup1\n      iszero\n      tag_55\n      jumpi\n      0x00\n      dup1\n      revert\n    tag_55:\n      pop\n      gas\n      call\n      iszero\n      dup1\n      iszero\n      tag_57\n      jumpi\n      returndatasize\n      0x00\n      dup1\n      returndatacopy\n      revert(0x00, returndatasize)\n    tag_57:\n      pop\n      pop\n      pop\n      pop\n      mload(0x40)\n      returndatasize\n      not(0x1f)\n      0x1f\n      dup3\n      add\n      and\n      dup3\n      add\n      dup1\n      0x40\n      mstore\n      pop\n      dup2\n      add\n      swap1\n      tag_58\n      swap2\n      swap1\n      tag_59\n      jump\t// in\n    tag_58:\n      pop\n        /* \"contracts/uniV2Pool.sol\":970:975  coinB */\n      0x04\n      0x00\n      swap1\n      sload\n      swap1\n      0x0100\n      exp\n      swap1\n      div\n      0xffffffffffffffffffffffffffffffffffffffff\n      and\n        /* \"contracts/uniV2Pool.sol\":963:989  IERC20(coinB).transferFrom */\n      0xffffffffffffffffffffffffffffffffffffffff\n      and\n      0x23b872dd\n        /* \"contracts/uniV2Pool.sol\":990:1000  msg.sender */\n      caller\n        /* \"contracts/uniV2Pool.sol\":1010:1014  this */\n      address\n        /* \"contracts/uniV2Pool.sol\":1017:1025  _bAmount */\n      dup7\n        /* \"contracts/uniV2Pool.sol\":963:1026  IERC20(coinB).transferFrom(msg.sender, address(this), _bAmount) */\n      mload(0x40)\n      dup5\n      0xffffffff\n      and\n      0xe0\n      shl\n      dup2\n      mstore\n      0x04\n      add\n      tag_60\n      swap4\n      swap3\n      swap2\n      swap1\n      tag_54\n      jump\t// in\n    tag_60:\n      0x20\n      mload(0x40)\n      dup1\n      dup4\n      sub\n      dup2\n      0x00\n      dup8\n      dup1\n      extcodesize\n      iszero\n      dup1\n      iszero\n      tag_61\n      jumpi\n      0x00\n      dup1\n      revert\n    tag_61:\n      pop\n      gas\n      call\n      iszero\n      dup1\n      iszero\n      tag_63\n      jumpi\n      returndatasize\n      0x00\n      dup1\n      returndatacopy\n      revert(0x00, returndatasize)\n    tag_63:\n      pop\n      pop\n      pop\n      pop\n      mload(0x40)\n      returndatasize\n      not(0x1f)\n      0x1f\n      dup3\n      add\n      and\n      dup3\n      add\n      dup1\n      0x40\n      mstore\n      pop\n      dup2\n      add\n      swap1\n      tag_64\n      swap2\n      swap1\n      tag_59\n      jump\t// in\n    tag_64:\n      pop\n        /* \"contracts/uniV2Pool.sol\":1038:1051  bool successA */\n      0x00\n        /* \"contracts/uniV2Pool.sol\":1053:1065  uint256 resA */\n      dup1\n        /* \"contracts/uniV2Pool.sol\":1069:1103  SafeMath.tryAdd(aAmount, _aAmount) */\n      tag_65\n        /* \"contracts/uniV2Pool.sol\":1085:1092  aAmount */\n      sload(0x01)\n        /* \"contracts/uniV2Pool.sol\":1094:1102  _aAmount */\n      dup8\n        /* \"contracts/uniV2Pool.sol\":1069:1084  SafeMath.tryAdd */\n      tag_66\n        /* \"contracts/uniV2Pool.sol\":1069:1103  SafeMath.tryAdd(aAmount, _aAmount) */\n      jump\t// in\n    tag_65:\n        /* \"contracts/uniV2Pool.sol\":1037:1103  (bool successA, uint256 resA) = SafeMath.tryAdd(aAmount, _aAmount) */\n      swap2\n      pop\n      swap2\n      pop\n        /* \"contracts/uniV2Pool.sol\":1114:1127  bool successB */\n      0x00\n        /* \"contracts/uniV2Pool.sol\":1129:1141  uint256 resB */\n      dup1\n        /* \"contracts/uniV2Pool.sol\":1145:1179  SafeMath.tryAdd(bAmount, _bAmount) */\n      tag_67\n        /* \"contracts/uniV2Pool.sol\":1161:1168  bAmount */\n      sload(0x02)\n        /* \"contracts/uniV2Pool.sol\":1170:1178  _bAmount */\n      dup9\n        /* \"contracts/uniV2Pool.sol\":1145:1160  SafeMath.tryAdd */\n      tag_66\n        /* \"contracts/uniV2Pool.sol\":1145:1179  SafeMath.tryAdd(bAmount, _bAmount) */\n      jump\t// in\n    tag_67:\n        /* \"contracts/uniV2Pool.sol\":1113:1179  (bool successB, uint256 resB) = SafeMath.tryAdd(bAmount, _bAmount) */\n      swap2\n      pop\n      swap2\n      pop\n        /* \"contracts/uniV2Pool.sol\":1197:1205  successA */\n      dup4\n        /* \"contracts/uniV2Pool.sol\":1197:1217  successA && successB */\n      dup1\n      iszero\n      tag_68\n      jumpi\n      pop\n        /* \"contracts/uniV2Pool.sol\":1209:1217  successB */\n      dup2\n        /* \"contracts/uniV2Pool.sol\":1197:1217  successA && successB */\n    tag_68:\n        /* \"contracts/uniV2Pool.sol\":1189:1251  require(successA && successB, \"add fail , by SafeMath.tryAdd\") */\n      tag_69\n      jumpi\n      mload(0x40)\n      0x08c379a000000000000000000000000000000000000000000000000000000000\n      dup2\n      mstore\n      0x04\n      add\n      tag_70\n      swap1\n      tag_71\n      jump\t// in\n    tag_70:\n      mload(0x40)\n      dup1\n      swap2\n      sub\n      swap1\n      revert\n    tag_69:\n        /* \"contracts/uniV2Pool.sol\":1271:1275  resA */\n      dup3\n        /* \"contracts/uniV2Pool.sol\":1261:1268  aAmount */\n      0x01\n        /* \"contracts/uniV2Pool.sol\":1261:1275  aAmount = resA */\n      dup2\n      swap1\n      sstore\n      pop\n        /* \"contracts/uniV2Pool.sol\":1295:1299  resB */\n      dup1\n        /* \"contracts/uniV2Pool.sol\":1285:1292  bAmount */\n      0x02\n        /* \"contracts/uniV2Pool.sol\":1285:1299  bAmount = resB */\n      dup2\n      swap1\n      sstore\n      pop\n        /* \"contracts/uniV2Pool.sol\":1317:1324  aAmount */\n      sload(0x01)\n        /* \"contracts/uniV2Pool.sol\":1326:1333  bAmount */\n      sload(0x02)\n        /* \"contracts/uniV2Pool.sol\":1309:1334  return (aAmount, bAmount) */\n      swap6\n      pop\n      swap6\n      pop\n      pop\n      pop\n      pop\n      pop\n        /* \"contracts/uniV2Pool.sol\":656:1341  function addLiquidity(uint256 _aAmount, uint256 _bAmount) external onlyOwner returns (uint256, uint256) {... */\n      swap3\n      pop\n      swap3\n      swap1\n      pop\n      jump\t// out\n        /* \"@openzeppelin/contracts/access/Ownable.sol\":2081:2279  function transferOwnership(address newOwner) public virtual onlyOwner {... */\n    tag_34:\n        /* \"@openzeppelin/contracts/access/Ownable.sol\":1094:1107  _checkOwner() */\n      tag_73\n        /* \"@openzeppelin/contracts/access/Ownable.sol\":1094:1105  _checkOwner */\n      tag_42\n        /* \"@openzeppelin/contracts/access/Ownable.sol\":1094:1107  _checkOwner() */\n      jump\t// in\n    tag_73:\n        /* \"@openzeppelin/contracts/access/Ownable.sol\":2189:2190  0 */\n      0x00\n        /* \"@openzeppelin/contracts/access/Ownable.sol\":2169:2191  newOwner != address(0) */\n      0xffffffffffffffffffffffffffffffffffffffff\n      and\n        /* \"@openzeppelin/contracts/access/Ownable.sol\":2169:2177  newOwner */\n      dup2\n        /* \"@openzeppelin/contracts/access/Ownable.sol\":2169:2191  newOwner != address(0) */\n      0xffffffffffffffffffffffffffffffffffffffff\n      and\n      eq\n      iszero\n        /* \"@openzeppelin/contracts/access/Ownable.sol\":2161:2234  require(newOwner != address(0), \"Ownable: new owner is the zero address\") */\n      tag_75\n      jumpi\n      mload(0x40)\n      0x08c379a000000000000000000000000000000000000000000000000000000000\n      dup2\n      mstore\n      0x04\n      add\n      tag_76\n      swap1\n      tag_77\n      jump\t// in\n    tag_76:\n      mload(0x40)\n      dup1\n      swap2\n      sub\n      swap1\n      revert\n    tag_75:\n        /* \"@openzeppelin/contracts/access/Ownable.sol\":2244:2272  _transferOwnership(newOwner) */\n      tag_78\n        /* \"@openzeppelin/contracts/access/Ownable.sol\":2263:2271  newOwner */\n      dup2\n        /* \"@openzeppelin/contracts/access/Ownable.sol\":2244:2262  _transferOwnership */\n      tag_48\n        /* \"@openzeppelin/contracts/access/Ownable.sol\":2244:2272  _transferOwnership(newOwner) */\n      jump\t// in\n    tag_78:\n        /* \"@openzeppelin/contracts/access/Ownable.sol\":2081:2279  function transferOwnership(address newOwner) public virtual onlyOwner {... */\n      pop\n      jump\t// out\n        /* \"contracts/uniV2Pool.sol\":1347:3253  function swap(address _tokenIn, uint256 _amountIn, uint256 _amountOutMin, address _to) external {... */\n    tag_38:\n        /* \"contracts/uniV2Pool.sol\":1481:1482  0 */\n      0x00\n        /* \"contracts/uniV2Pool.sol\":1461:1483  _tokenIn != address(0) */\n      0xffffffffffffffffffffffffffffffffffffffff\n      and\n        /* \"contracts/uniV2Pool.sol\":1461:1469  _tokenIn */\n      dup5\n        /* \"contracts/uniV2Pool.sol\":1461:1483  _tokenIn != address(0) */\n      0xffffffffffffffffffffffffffffffffffffffff\n      and\n      eq\n      iszero\n        /* \"contracts/uniV2Pool.sol\":1453:1519  require(_tokenIn != address(0), \"tokenIn can not be zero address\") */\n      tag_80\n      jumpi\n      mload(0x40)\n      0x08c379a000000000000000000000000000000000000000000000000000000000\n      dup2\n      mstore\n      0x04\n      add\n      tag_81\n      swap1\n      tag_82\n      jump\t// in\n    tag_81:\n      mload(0x40)\n      dup1\n      swap2\n      sub\n      swap1\n      revert\n    tag_80:\n        /* \"contracts/uniV2Pool.sol\":1552:1553  0 */\n      0x00\n        /* \"contracts/uniV2Pool.sol\":1537:1554  _to != address(0) */\n      0xffffffffffffffffffffffffffffffffffffffff\n      and\n        /* \"contracts/uniV2Pool.sol\":1537:1540  _to */\n      dup2\n        /* \"contracts/uniV2Pool.sol\":1537:1554  _to != address(0) */\n      0xffffffffffffffffffffffffffffffffffffffff\n      and\n      eq\n      iszero\n        /* \"contracts/uniV2Pool.sol\":1529:1586  require(_to != address(0), \"_to can not be zero address\") */\n      tag_83\n      jumpi\n      mload(0x40)\n      0x08c379a000000000000000000000000000000000000000000000000000000000\n      dup2\n      mstore\n      0x04\n      add\n      tag_84\n      swap1\n      tag_85\n      jump\t// in\n    tag_84:\n      mload(0x40)\n      dup1\n      swap2\n      sub\n      swap1\n      revert\n    tag_83:\n        /* \"contracts/uniV2Pool.sol\":1616:1621  coinA */\n      0x03\n      0x00\n      swap1\n      sload\n      swap1\n      0x0100\n      exp\n      swap1\n      div\n      0xffffffffffffffffffffffffffffffffffffffff\n      and\n        /* \"contracts/uniV2Pool.sol\":1604:1621  _tokenIn == coinA */\n      0xffffffffffffffffffffffffffffffffffffffff\n      and\n        /* \"contracts/uniV2Pool.sol\":1604:1612  _tokenIn */\n      dup5\n        /* \"contracts/uniV2Pool.sol\":1604:1621  _tokenIn == coinA */\n      0xffffffffffffffffffffffffffffffffffffffff\n      and\n      eq\n        /* \"contracts/uniV2Pool.sol\":1604:1642  _tokenIn == coinA || _tokenIn == coinB */\n      dup1\n      tag_86\n      jumpi\n      pop\n        /* \"contracts/uniV2Pool.sol\":1637:1642  coinB */\n      0x04\n      0x00\n      swap1\n      sload\n      swap1\n      0x0100\n      exp\n      swap1\n      div\n      0xffffffffffffffffffffffffffffffffffffffff\n      and\n        /* \"contracts/uniV2Pool.sol\":1625:1642  _tokenIn == coinB */\n      0xffffffffffffffffffffffffffffffffffffffff\n      and\n        /* \"contracts/uniV2Pool.sol\":1625:1633  _tokenIn */\n      dup5\n        /* \"contracts/uniV2Pool.sol\":1625:1642  _tokenIn == coinB */\n      0xffffffffffffffffffffffffffffffffffffffff\n      and\n      eq\n        /* \"contracts/uniV2Pool.sol\":1604:1642  _tokenIn == coinA || _tokenIn == coinB */\n    tag_86:\n        /* \"contracts/uniV2Pool.sol\":1596:1685  require(_tokenIn == coinA || _tokenIn == coinB, \"tokenIn must be A or B that has be set\") */\n      tag_87\n      jumpi\n      mload(0x40)\n      0x08c379a000000000000000000000000000000000000000000000000000000000\n      dup2\n      mstore\n      0x04\n      add\n      tag_88\n      swap1\n      tag_89\n      jump\t// in\n    tag_88:\n      mload(0x40)\n      dup1\n      swap2\n      sub\n      swap1\n      revert\n    tag_87:\n        /* \"contracts/uniV2Pool.sol\":1739:1744  coinA */\n      0x03\n      0x00\n      swap1\n      sload\n      swap1\n      0x0100\n      exp\n      swap1\n      div\n      0xffffffffffffffffffffffffffffffffffffffff\n      and\n        /* \"contracts/uniV2Pool.sol\":1727:1744  _tokenIn == coinA */\n      0xffffffffffffffffffffffffffffffffffffffff\n      and\n        /* \"contracts/uniV2Pool.sol\":1727:1735  _tokenIn */\n      dup5\n        /* \"contracts/uniV2Pool.sol\":1727:1744  _tokenIn == coinA */\n      0xffffffffffffffffffffffffffffffffffffffff\n      and\n      eq\n        /* \"contracts/uniV2Pool.sol\":1723:3247  if (_tokenIn == coinA) {... */\n      iszero\n      tag_90\n      jumpi\n        /* \"contracts/uniV2Pool.sol\":1832:1837  coinA */\n      0x03\n      0x00\n      swap1\n      sload\n      swap1\n      0x0100\n      exp\n      swap1\n      div\n      0xffffffffffffffffffffffffffffffffffffffff\n      and\n        /* \"contracts/uniV2Pool.sol\":1825:1851  IERC20(coinA).transferFrom */\n      0xffffffffffffffffffffffffffffffffffffffff\n      and\n      0x23b872dd\n        /* \"contracts/uniV2Pool.sol\":1852:1862  msg.sender */\n      caller\n        /* \"contracts/uniV2Pool.sol\":1872:1876  this */\n      address\n        /* \"contracts/uniV2Pool.sol\":1879:1888  _amountIn */\n      dup7\n        /* \"contracts/uniV2Pool.sol\":1825:1889  IERC20(coinA).transferFrom(msg.sender, address(this), _amountIn) */\n      mload(0x40)\n      dup5\n      0xffffffff\n      and\n      0xe0\n      shl\n      dup2\n      mstore\n      0x04\n      add\n      tag_91\n      swap4\n      swap3\n      swap2\n      swap1\n      tag_54\n      jump\t// in\n    tag_91:\n      0x20\n      mload(0x40)\n      dup1\n      dup4\n      sub\n      dup2\n      0x00\n      dup8\n      dup1\n      extcodesize\n      iszero\n      dup1\n      iszero\n      tag_92\n      jumpi\n      0x00\n      dup1\n      revert\n    tag_92:\n      pop\n      gas\n      call\n      iszero\n      dup1\n      iszero\n      tag_94\n      jumpi\n      returndatasize\n      0x00\n      dup1\n      returndatacopy\n      revert(0x00, returndatasize)\n    tag_94:\n      pop\n      pop\n      pop\n      pop\n      mload(0x40)\n      returndatasize\n      not(0x1f)\n      0x1f\n      dup3\n      add\n      and\n      dup3\n      add\n      dup1\n      0x40\n      mstore\n      pop\n      dup2\n      add\n      swap1\n      tag_95\n      swap2\n      swap1\n      tag_59\n      jump\t// in\n    tag_95:\n      pop\n        /* \"contracts/uniV2Pool.sol\":1905:1917  bool success */\n      0x00\n        /* \"contracts/uniV2Pool.sol\":1919:1927  uint res */\n      dup1\n        /* \"contracts/uniV2Pool.sol\":1931:1966  SafeMath.tryAdd(aAmount, _amountIn) */\n      tag_96\n        /* \"contracts/uniV2Pool.sol\":1947:1954  aAmount */\n      sload(0x01)\n        /* \"contracts/uniV2Pool.sol\":1956:1965  _amountIn */\n      dup7\n        /* \"contracts/uniV2Pool.sol\":1931:1946  SafeMath.tryAdd */\n      tag_66\n        /* \"contracts/uniV2Pool.sol\":1931:1966  SafeMath.tryAdd(aAmount, _amountIn) */\n      jump\t// in\n    tag_96:\n        /* \"contracts/uniV2Pool.sol\":1904:1966  (bool success, uint res) = SafeMath.tryAdd(aAmount, _amountIn) */\n      swap2\n      pop\n      swap2\n      pop\n        /* \"contracts/uniV2Pool.sol\":1988:1995  success */\n      dup2\n        /* \"contracts/uniV2Pool.sol\":1980:2045  require(success, \"tokenIn amount add fail, source from safeMath\") */\n      tag_97\n      jumpi\n      mload(0x40)\n      0x08c379a000000000000000000000000000000000000000000000000000000000\n      dup2\n      mstore\n      0x04\n      add\n      tag_98\n      swap1\n      tag_99\n      jump\t// in\n    tag_98:\n      mload(0x40)\n      dup1\n      swap2\n      sub\n      swap1\n      revert\n    tag_97:\n        /* \"contracts/uniV2Pool.sol\":2069:2072  res */\n      dup1\n        /* \"contracts/uniV2Pool.sol\":2059:2066  aAmount */\n      0x01\n        /* \"contracts/uniV2Pool.sol\":2059:2072  aAmount = res */\n      dup2\n      swap1\n      sstore\n      pop\n        /* \"contracts/uniV2Pool.sol\":2087:2105  uint256 swapAmount */\n      0x00\n        /* \"contracts/uniV2Pool.sol\":2108:2148  Math.mulDiv(_amountIn, bAmount, aAmount) */\n      tag_100\n        /* \"contracts/uniV2Pool.sol\":2120:2129  _amountIn */\n      dup7\n        /* \"contracts/uniV2Pool.sol\":2131:2138  bAmount */\n      sload(0x02)\n        /* \"contracts/uniV2Pool.sol\":2140:2147  aAmount */\n      sload(0x01)\n        /* \"contracts/uniV2Pool.sol\":2108:2119  Math.mulDiv */\n      tag_101\n        /* \"contracts/uniV2Pool.sol\":2108:2148  Math.mulDiv(_amountIn, bAmount, aAmount) */\n      jump\t// in\n    tag_100:\n        /* \"contracts/uniV2Pool.sol\":2087:2148  uint256 swapAmount = Math.mulDiv(_amountIn, bAmount, aAmount) */\n      swap1\n      pop\n        /* \"contracts/uniV2Pool.sol\":2183:2196  _amountOutMin */\n      dup5\n        /* \"contracts/uniV2Pool.sol\":2170:2180  swapAmount */\n      dup2\n        /* \"contracts/uniV2Pool.sol\":2170:2196  swapAmount > _amountOutMin */\n      gt\n        /* \"contracts/uniV2Pool.sol\":2162:2234  require(swapAmount > _amountOutMin, \"amountOut less than _amountOutMin\") */\n      tag_102\n      jumpi\n      mload(0x40)\n      0x08c379a000000000000000000000000000000000000000000000000000000000\n      dup2\n      mstore\n      0x04\n      add\n      tag_103\n      swap1\n      tag_104\n      jump\t// in\n    tag_103:\n      mload(0x40)\n      dup1\n      swap2\n      sub\n      swap1\n      revert\n    tag_102:\n        /* \"contracts/uniV2Pool.sol\":2269:2276  bAmount */\n      sload(0x02)\n        /* \"contracts/uniV2Pool.sol\":2256:2266  swapAmount */\n      dup2\n        /* \"contracts/uniV2Pool.sol\":2256:2276  swapAmount < bAmount */\n      lt\n        /* \"contracts/uniV2Pool.sol\":2248:2307  require(swapAmount < bAmount, \"tokenOut amount not enough\") */\n      tag_105\n      jumpi\n      mload(0x40)\n      0x08c379a000000000000000000000000000000000000000000000000000000000\n      dup2\n      mstore\n      0x04\n      add\n      tag_106\n      swap1\n      tag_107\n      jump\t// in\n    tag_106:\n      mload(0x40)\n      dup1\n      swap2\n      sub\n      swap1\n      revert\n    tag_105:\n        /* \"contracts/uniV2Pool.sol\":2332:2342  swapAmount */\n      dup1\n        /* \"contracts/uniV2Pool.sol\":2321:2328  bAmount */\n      0x02\n      0x00\n        /* \"contracts/uniV2Pool.sol\":2321:2342  bAmount -= swapAmount */\n      dup3\n      dup3\n      sload\n      tag_108\n      swap2\n      swap1\n      tag_109\n      jump\t// in\n    tag_108:\n      swap3\n      pop\n      pop\n      dup2\n      swap1\n      sstore\n      pop\n        /* \"contracts/uniV2Pool.sol\":2426:2431  coinB */\n      0x04\n      0x00\n      swap1\n      sload\n      swap1\n      0x0100\n      exp\n      swap1\n      div\n      0xffffffffffffffffffffffffffffffffffffffff\n      and\n        /* \"contracts/uniV2Pool.sol\":2419:2441  IERC20(coinB).transfer */\n      0xffffffffffffffffffffffffffffffffffffffff\n      and\n      0xa9059cbb\n        /* \"contracts/uniV2Pool.sol\":2442:2445  _to */\n      dup6\n        /* \"contracts/uniV2Pool.sol\":2447:2457  swapAmount */\n      dup4\n        /* \"contracts/uniV2Pool.sol\":2419:2458  IERC20(coinB).transfer(_to, swapAmount) */\n      mload(0x40)\n      dup4\n      0xffffffff\n      and\n      0xe0\n      shl\n      dup2\n      mstore\n      0x04\n      add\n      tag_110\n      swap3\n      swap2\n      swap1\n      tag_111\n      jump\t// in\n    tag_110:\n      0x20\n      mload(0x40)\n      dup1\n      dup4\n      sub\n      dup2\n      0x00\n      dup8\n      dup1\n      extcodesize\n      iszero\n      dup1\n      iszero\n      tag_112\n      jumpi\n      0x00\n      dup1\n      revert\n    tag_112:\n      pop\n      gas\n      call\n      iszero\n      dup1\n      iszero\n      tag_114\n      jumpi\n      returndatasize\n      0x00\n      dup1\n      returndatacopy\n      revert(0x00, returndatasize)\n    tag_114:\n      pop\n      pop\n      pop\n      pop\n      mload(0x40)\n      returndatasize\n      not(0x1f)\n      0x1f\n      dup3\n      add\n      and\n      dup3\n      add\n      dup1\n      0x40\n      mstore\n      pop\n      dup2\n      add\n      swap1\n      tag_115\n      swap2\n      swap1\n      tag_59\n      jump\t// in\n    tag_115:\n      pop\n        /* \"contracts/uniV2Pool.sol\":1723:3247  if (_tokenIn == coinA) {... */\n      pop\n      pop\n      pop\n      jump(tag_116)\n    tag_90:\n        /* \"contracts/uniV2Pool.sol\":2517:2522  coinB */\n      0x04\n      0x00\n      swap1\n      sload\n      swap1\n      0x0100\n      exp\n      swap1\n      div\n      0xffffffffffffffffffffffffffffffffffffffff\n      and\n        /* \"contracts/uniV2Pool.sol\":2505:2522  _tokenIn == coinB */\n      0xffffffffffffffffffffffffffffffffffffffff\n      and\n        /* \"contracts/uniV2Pool.sol\":2505:2513  _tokenIn */\n      dup5\n        /* \"contracts/uniV2Pool.sol\":2505:2522  _tokenIn == coinB */\n      0xffffffffffffffffffffffffffffffffffffffff\n      and\n      eq\n        /* \"contracts/uniV2Pool.sol\":2501:3247  if (_tokenIn == coinB) {... */\n      iszero\n      tag_117\n      jumpi\n        /* \"contracts/uniV2Pool.sol\":2610:2615  coinA */\n      0x03\n      0x00\n      swap1\n      sload\n      swap1\n      0x0100\n      exp\n      swap1\n      div\n      0xffffffffffffffffffffffffffffffffffffffff\n      and\n        /* \"contracts/uniV2Pool.sol\":2603:2629  IERC20(coinA).transferFrom */\n      0xffffffffffffffffffffffffffffffffffffffff\n      and\n      0x23b872dd\n        /* \"contracts/uniV2Pool.sol\":2630:2640  msg.sender */\n      caller\n        /* \"contracts/uniV2Pool.sol\":2650:2654  this */\n      address\n        /* \"contracts/uniV2Pool.sol\":2657:2666  _amountIn */\n      dup7\n        /* \"contracts/uniV2Pool.sol\":2603:2667  IERC20(coinA).transferFrom(msg.sender, address(this), _amountIn) */\n      mload(0x40)\n      dup5\n      0xffffffff\n      and\n      0xe0\n      shl\n      dup2\n      mstore\n      0x04\n      add\n      tag_118\n      swap4\n      swap3\n      swap2\n      swap1\n      tag_54\n      jump\t// in\n    tag_118:\n      0x20\n      mload(0x40)\n      dup1\n      dup4\n      sub\n      dup2\n      0x00\n      dup8\n      dup1\n      extcodesize\n      iszero\n      dup1\n      iszero\n      tag_119\n      jumpi\n      0x00\n      dup1\n      revert\n    tag_119:\n      pop\n      gas\n      call\n      iszero\n      dup1\n      iszero\n      tag_121\n      jumpi\n      returndatasize\n      0x00\n      dup1\n      returndatacopy\n      revert(0x00, returndatasize)\n    tag_121:\n      pop\n      pop\n      pop\n      pop\n      mload(0x40)\n      returndatasize\n      not(0x1f)\n      0x1f\n      dup3\n      add\n      and\n      dup3\n      add\n      dup1\n      0x40\n      mstore\n      pop\n      dup2\n      add\n      swap1\n      tag_122\n      swap2\n      swap1\n      tag_59\n      jump\t// in\n    tag_122:\n      pop\n        /* \"contracts/uniV2Pool.sol\":2683:2695  bool success */\n      0x00\n        /* \"contracts/uniV2Pool.sol\":2697:2705  uint res */\n      dup1\n        /* \"contracts/uniV2Pool.sol\":2709:2744  SafeMath.tryAdd(bAmount, _amountIn) */\n      tag_123\n        /* \"contracts/uniV2Pool.sol\":2725:2732  bAmount */\n      sload(0x02)\n        /* \"contracts/uniV2Pool.sol\":2734:2743  _amountIn */\n      dup7\n        /* \"contracts/uniV2Pool.sol\":2709:2724  SafeMath.tryAdd */\n      tag_66\n        /* \"contracts/uniV2Pool.sol\":2709:2744  SafeMath.tryAdd(bAmount, _amountIn) */\n      jump\t// in\n    tag_123:\n        /* \"contracts/uniV2Pool.sol\":2682:2744  (bool success, uint res) = SafeMath.tryAdd(bAmount, _amountIn) */\n      swap2\n      pop\n      swap2\n      pop\n        /* \"contracts/uniV2Pool.sol\":2766:2773  success */\n      dup2\n        /* \"contracts/uniV2Pool.sol\":2758:2823  require(success, \"tokenIn amount add fail, source from safeMath\") */\n      tag_124\n      jumpi\n      mload(0x40)\n      0x08c379a000000000000000000000000000000000000000000000000000000000\n      dup2\n      mstore\n      0x04\n      add\n      tag_125\n      swap1\n      tag_99\n      jump\t// in\n    tag_125:\n      mload(0x40)\n      dup1\n      swap2\n      sub\n      swap1\n      revert\n    tag_124:\n        /* \"contracts/uniV2Pool.sol\":2847:2850  res */\n      dup1\n        /* \"contracts/uniV2Pool.sol\":2837:2844  bAmount */\n      0x02\n        /* \"contracts/uniV2Pool.sol\":2837:2850  bAmount = res */\n      dup2\n      swap1\n      sstore\n      pop\n        /* \"contracts/uniV2Pool.sol\":2865:2883  uint256 swapAmount */\n      0x00\n        /* \"contracts/uniV2Pool.sol\":2886:2926  Math.mulDiv(_amountIn, aAmount, bAmount) */\n      tag_126\n        /* \"contracts/uniV2Pool.sol\":2898:2907  _amountIn */\n      dup7\n        /* \"contracts/uniV2Pool.sol\":2909:2916  aAmount */\n      sload(0x01)\n        /* \"contracts/uniV2Pool.sol\":2918:2925  bAmount */\n      sload(0x02)\n        /* \"contracts/uniV2Pool.sol\":2886:2897  Math.mulDiv */\n      tag_101\n        /* \"contracts/uniV2Pool.sol\":2886:2926  Math.mulDiv(_amountIn, aAmount, bAmount) */\n      jump\t// in\n    tag_126:\n        /* \"contracts/uniV2Pool.sol\":2865:2926  uint256 swapAmount = Math.mulDiv(_amountIn, aAmount, bAmount) */\n      swap1\n      pop\n        /* \"contracts/uniV2Pool.sol\":2961:2974  _amountOutMin */\n      dup5\n        /* \"contracts/uniV2Pool.sol\":2948:2958  swapAmount */\n      dup2\n        /* \"contracts/uniV2Pool.sol\":2948:2974  swapAmount > _amountOutMin */\n      gt\n        /* \"contracts/uniV2Pool.sol\":2940:3012  require(swapAmount > _amountOutMin, \"amountOut less than _amountOutMin\") */\n      tag_127\n      jumpi\n      mload(0x40)\n      0x08c379a000000000000000000000000000000000000000000000000000000000\n      dup2\n      mstore\n      0x04\n      add\n      tag_128\n      swap1\n      tag_104\n      jump\t// in\n    tag_128:\n      mload(0x40)\n      dup1\n      swap2\n      sub\n      swap1\n      revert\n    tag_127:\n        /* \"contracts/uniV2Pool.sol\":3047:3054  aAmount */\n      sload(0x01)\n        /* \"contracts/uniV2Pool.sol\":3034:3044  swapAmount */\n      dup2\n        /* \"contracts/uniV2Pool.sol\":3034:3054  swapAmount < aAmount */\n      lt\n        /* \"contracts/uniV2Pool.sol\":3026:3085  require(swapAmount < aAmount, \"tokenOut amount not enough\") */\n      tag_129\n      jumpi\n      mload(0x40)\n      0x08c379a000000000000000000000000000000000000000000000000000000000\n      dup2\n      mstore\n      0x04\n      add\n      tag_130\n      swap1\n      tag_107\n      jump\t// in\n    tag_130:\n      mload(0x40)\n      dup1\n      swap2\n      sub\n      swap1\n      revert\n    tag_129:\n        /* \"contracts/uniV2Pool.sol\":3110:3120  swapAmount */\n      dup1\n        /* \"contracts/uniV2Pool.sol\":3099:3106  aAmount */\n      0x01\n      0x00\n        /* \"contracts/uniV2Pool.sol\":3099:3120  aAmount -= swapAmount */\n      dup3\n      dup3\n      sload\n      tag_131\n      swap2\n      swap1\n      tag_109\n      jump\t// in\n    tag_131:\n      swap3\n      pop\n      pop\n      dup2\n      swap1\n      sstore\n      pop\n        /* \"contracts/uniV2Pool.sol\":3204:3209  coinA */\n      0x03\n      0x00\n      swap1\n      sload\n      swap1\n      0x0100\n      exp\n      swap1\n      div\n      0xffffffffffffffffffffffffffffffffffffffff\n      and\n        /* \"contracts/uniV2Pool.sol\":3197:3219  IERC20(coinA).transfer */\n      0xffffffffffffffffffffffffffffffffffffffff\n      and\n      0xa9059cbb\n        /* \"contracts/uniV2Pool.sol\":3220:3223  _to */\n      dup6\n        /* \"contracts/uniV2Pool.sol\":3225:3235  swapAmount */\n      dup4\n        /* \"contracts/uniV2Pool.sol\":3197:3236  IERC20(coinA).transfer(_to, swapAmount) */\n      mload(0x40)\n      dup4\n      0xffffffff\n      and\n      0xe0\n      shl\n      dup2\n      mstore\n      0x04\n      add\n      tag_132\n      swap3\n      swap2\n      swap1\n      tag_111\n      jump\t// in\n    tag_132:\n      0x20\n      mload(0x40)\n      dup1\n      dup4\n      sub\n      dup2\n      0x00\n      dup8\n      dup1\n      extcodesize\n      iszero\n      dup1\n      iszero\n      tag_133\n      jumpi\n      0x00\n      dup1\n      revert\n    tag_133:\n      pop\n      gas\n      call\n      iszero\n      dup1\n      iszero\n      tag_135\n      jumpi\n      returndatasize\n      0x00\n      dup1\n      returndatacopy\n      revert(0x00, returndatasize)\n    tag_135:\n      pop\n      pop\n      pop\n      pop\n      mload(0x40)\n      returndatasize\n      not(0x1f)\n      0x1f\n      dup3\n      add\n      and\n      dup3\n      add\n      dup1\n      0x40\n      mstore\n      pop\n      dup2\n      add\n      swap1\n      tag_136\n      swap2\n      swap1\n      tag_59\n      jump\t// in\n    tag_136:\n      pop\n        /* \"contracts/uniV2Pool.sol\":2501:3247  if (_tokenIn == coinB) {... */\n      pop\n      pop\n      pop\n    tag_117:\n        /* \"contracts/uniV2Pool.sol\":1723:3247  if (_tokenIn == coinA) {... */\n    tag_116:\n        /* \"contracts/uniV2Pool.sol\":1347:3253  function swap(address _tokenIn, uint256 _amountIn, uint256 _amountOutMin, address _to) external {... */\n      pop\n      pop\n      pop\n      pop\n      jump\t// out\n        /* \"@openzeppelin/contracts/access/Ownable.sol\":1359:1489  function _checkOwner() internal view virtual {... */\n    tag_42:\n        /* \"@openzeppelin/contracts/access/Ownable.sol\":1433:1445  _msgSender() */\n      tag_138\n        /* \"@openzeppelin/contracts/access/Ownable.sol\":1433:1443  _msgSender */\n      tag_139\n        /* \"@openzeppelin/contracts/access/Ownable.sol\":1433:1445  _msgSender() */\n      jump\t// in\n    tag_138:\n        /* \"@openzeppelin/contracts/access/Ownable.sol\":1422:1445  owner() == _msgSender() */\n      0xffffffffffffffffffffffffffffffffffffffff\n      and\n        /* \"@openzeppelin/contracts/access/Ownable.sol\":1422:1429  owner() */\n      tag_140\n        /* \"@openzeppelin/contracts/access/Ownable.sol\":1422:1427  owner */\n      tag_22\n        /* \"@openzeppelin/contracts/access/Ownable.sol\":1422:1429  owner() */\n      jump\t// in\n    tag_140:\n        /* \"@openzeppelin/contracts/access/Ownable.sol\":1422:1445  owner() == _msgSender() */\n      0xffffffffffffffffffffffffffffffffffffffff\n      and\n      eq\n        /* \"@openzeppelin/contracts/access/Ownable.sol\":1414:1482  require(owner() == _msgSender(), \"Ownable: caller is not the owner\") */\n      tag_141\n      jumpi\n      mload(0x40)\n      0x08c379a000000000000000000000000000000000000000000000000000000000\n      dup2\n      mstore\n      0x04\n      add\n      tag_142\n      swap1\n      tag_143\n      jump\t// in\n    tag_142:\n      mload(0x40)\n      dup1\n      swap2\n      sub\n      swap1\n      revert\n    tag_141:\n        /* \"@openzeppelin/contracts/access/Ownable.sol\":1359:1489  function _checkOwner() internal view virtual {... */\n      jump\t// out\n        /* \"@openzeppelin/contracts/access/Ownable.sol\":2433:2620  function _transferOwnership(address newOwner) internal virtual {... */\n    tag_48:\n        /* \"@openzeppelin/contracts/access/Ownable.sol\":2506:2522  address oldOwner */\n      0x00\n        /* \"@openzeppelin/contracts/access/Ownable.sol\":2525:2531  _owner */\n      dup1\n      0x00\n      swap1\n      sload\n      swap1\n      0x0100\n      exp\n      swap1\n      div\n      0xffffffffffffffffffffffffffffffffffffffff\n      and\n        /* \"@openzeppelin/contracts/access/Ownable.sol\":2506:2531  address oldOwner = _owner */\n      swap1\n      pop\n        /* \"@openzeppelin/contracts/access/Ownable.sol\":2550:2558  newOwner */\n      dup2\n        /* \"@openzeppelin/contracts/access/Ownable.sol\":2541:2547  _owner */\n      0x00\n      dup1\n        /* \"@openzeppelin/contracts/access/Ownable.sol\":2541:2558  _owner = newOwner */\n      0x0100\n      exp\n      dup2\n      sload\n      dup2\n      0xffffffffffffffffffffffffffffffffffffffff\n      mul\n      not\n      and\n      swap1\n      dup4\n      0xffffffffffffffffffffffffffffffffffffffff\n      and\n      mul\n      or\n      swap1\n      sstore\n      pop\n        /* \"@openzeppelin/contracts/access/Ownable.sol\":2604:2612  newOwner */\n      dup2\n        /* \"@openzeppelin/contracts/access/Ownable.sol\":2573:2613  OwnershipTransferred(oldOwner, newOwner) */\n      0xffffffffffffffffffffffffffffffffffffffff\n      and\n        /* \"@openzeppelin/contracts/access/Ownable.sol\":2594:2602  oldOwner */\n      dup2\n        /* \"@openzeppelin/contracts/access/Ownable.sol\":2573:2613  OwnershipTransferred(oldOwner, newOwner) */\n      0xffffffffffffffffffffffffffffffffffffffff\n      and\n      0x8be0079c531659141344cd1fd0a4f28419497f9722a3daafe3b4186f6b6457e0\n      mload(0x40)\n      mload(0x40)\n      dup1\n      swap2\n      sub\n      swap1\n      log3\n        /* \"@openzeppelin/contracts/access/Ownable.sol\":2433:2620  function _transferOwnership(address newOwner) internal virtual {... */\n      pop\n      pop\n      jump\t// out\n        /* \"@openzeppelin/contracts/utils/math/SafeMath.sol\":641:857  function tryAdd(uint256 a, uint256 b) internal pure returns (bool, uint256) {... */\n    tag_66:\n        /* \"@openzeppelin/contracts/utils/math/SafeMath.sol\":702:706  bool */\n      0x00\n        /* \"@openzeppelin/contracts/utils/math/SafeMath.sol\":708:715  uint256 */\n      dup1\n        /* \"@openzeppelin/contracts/utils/math/SafeMath.sol\":751:760  uint256 c */\n      0x00\n        /* \"@openzeppelin/contracts/utils/math/SafeMath.sol\":767:768  b */\n      dup4\n        /* \"@openzeppelin/contracts/utils/math/SafeMath.sol\":763:764  a */\n      dup6\n        /* \"@openzeppelin/contracts/utils/math/SafeMath.sol\":763:768  a + b */\n      add\n        /* \"@openzeppelin/contracts/utils/math/SafeMath.sol\":751:768  uint256 c = a + b */\n      swap1\n      pop\n        /* \"@openzeppelin/contracts/utils/math/SafeMath.sol\":790:791  a */\n      dup5\n        /* \"@openzeppelin/contracts/utils/math/SafeMath.sol\":786:787  c */\n      dup2\n        /* \"@openzeppelin/contracts/utils/math/SafeMath.sol\":786:791  c < a */\n      lt\n        /* \"@openzeppelin/contracts/utils/math/SafeMath.sol\":782:810  if (c < a) return (false, 0) */\n      iszero\n      tag_146\n      jumpi\n        /* \"@openzeppelin/contracts/utils/math/SafeMath.sol\":801:806  false */\n      0x00\n        /* \"@openzeppelin/contracts/utils/math/SafeMath.sol\":808:809  0 */\n      dup1\n        /* \"@openzeppelin/contracts/utils/math/SafeMath.sol\":793:810  return (false, 0) */\n      swap3\n      pop\n      swap3\n      pop\n      pop\n      jump(tag_145)\n        /* \"@openzeppelin/contracts/utils/math/SafeMath.sol\":782:810  if (c < a) return (false, 0) */\n    tag_146:\n        /* \"@openzeppelin/contracts/utils/math/SafeMath.sol\":832:836  true */\n      0x01\n        /* \"@openzeppelin/contracts/utils/math/SafeMath.sol\":838:839  c */\n      dup2\n        /* \"@openzeppelin/contracts/utils/math/SafeMath.sol\":824:840  return (true, c) */\n      swap3\n      pop\n      swap3\n      pop\n      pop\n        /* \"@openzeppelin/contracts/utils/math/SafeMath.sol\":641:857  function tryAdd(uint256 a, uint256 b) internal pure returns (bool, uint256) {... */\n    tag_145:\n      swap3\n      pop\n      swap3\n      swap1\n      pop\n      jump\t// out\n        /* \"@openzeppelin/contracts/utils/math/Math.sol\":1667:5592  function mulDiv(... */\n    tag_101:\n        /* \"@openzeppelin/contracts/utils/math/Math.sol\":1779:1793  uint256 result */\n      0x00\n        /* \"@openzeppelin/contracts/utils/math/Math.sol\":2126:2139  uint256 prod0 */\n      dup1\n        /* \"@openzeppelin/contracts/utils/math/Math.sol\":2198:2211  uint256 prod1 */\n      0x00\n        /* \"@openzeppelin/contracts/utils/math/Math.sol\":2323:2324  0 */\n      dup1\n        /* \"@openzeppelin/contracts/utils/math/Math.sol\":2319:2325  not(0) */\n      not\n        /* \"@openzeppelin/contracts/utils/math/Math.sol\":2316:2317  y */\n      dup6\n        /* \"@openzeppelin/contracts/utils/math/Math.sol\":2313:2314  x */\n      dup8\n        /* \"@openzeppelin/contracts/utils/math/Math.sol\":2306:2326  mulmod(x, y, not(0)) */\n      mulmod\n        /* \"@openzeppelin/contracts/utils/math/Math.sol\":2359:2360  y */\n      dup6\n        /* \"@openzeppelin/contracts/utils/math/Math.sol\":2356:2357  x */\n      dup8\n        /* \"@openzeppelin/contracts/utils/math/Math.sol\":2352:2361  mul(x, y) */\n      mul\n        /* \"@openzeppelin/contracts/utils/math/Math.sol\":2343:2361  prod0 := mul(x, y) */\n      swap3\n      pop\n        /* \"@openzeppelin/contracts/utils/math/Math.sol\":2414:2419  prod0 */\n      dup3\n        /* \"@openzeppelin/contracts/utils/math/Math.sol\":2410:2412  mm */\n      dup2\n        /* \"@openzeppelin/contracts/utils/math/Math.sol\":2407:2420  lt(mm, prod0) */\n      lt\n        /* \"@openzeppelin/contracts/utils/math/Math.sol\":2399:2404  prod0 */\n      dup4\n        /* \"@openzeppelin/contracts/utils/math/Math.sol\":2395:2397  mm */\n      dup3\n        /* \"@openzeppelin/contracts/utils/math/Math.sol\":2391:2405  sub(mm, prod0) */\n      sub\n        /* \"@openzeppelin/contracts/utils/math/Math.sol\":2387:2421  sub(sub(mm, prod0), lt(mm, prod0)) */\n      sub\n        /* \"@openzeppelin/contracts/utils/math/Math.sol\":2378:2421  prod1 := sub(sub(mm, prod0), lt(mm, prod0)) */\n      swap2\n      pop\n        /* \"@openzeppelin/contracts/utils/math/Math.sol\":2278:2435  {... */\n      pop\n        /* \"@openzeppelin/contracts/utils/math/Math.sol\":2525:2526  0 */\n      0x00\n        /* \"@openzeppelin/contracts/utils/math/Math.sol\":2516:2521  prod1 */\n      dup2\n        /* \"@openzeppelin/contracts/utils/math/Math.sol\":2516:2526  prod1 == 0 */\n      eq\n        /* \"@openzeppelin/contracts/utils/math/Math.sol\":2512:2587  if (prod1 == 0) {... */\n      iszero\n      tag_148\n      jumpi\n        /* \"@openzeppelin/contracts/utils/math/Math.sol\":2561:2572  denominator */\n      dup4\n        /* \"@openzeppelin/contracts/utils/math/Math.sol\":2553:2558  prod0 */\n      dup3\n        /* \"@openzeppelin/contracts/utils/math/Math.sol\":2553:2572  prod0 / denominator */\n      dup2\n      tag_149\n      jumpi\n      mstore(0x00, 0x4e487b7100000000000000000000000000000000000000000000000000000000)\n      mstore(0x04, 0x12)\n      revert(0x00, 0x24)\n    tag_149:\n      div\n        /* \"@openzeppelin/contracts/utils/math/Math.sol\":2546:2572  return prod0 / denominator */\n      swap3\n      pop\n      pop\n      pop\n      jump(tag_147)\n        /* \"@openzeppelin/contracts/utils/math/Math.sol\":2512:2587  if (prod1 == 0) {... */\n    tag_148:\n        /* \"@openzeppelin/contracts/utils/math/Math.sol\":2711:2716  prod1 */\n      dup1\n        /* \"@openzeppelin/contracts/utils/math/Math.sol\":2697:2708  denominator */\n      dup5\n        /* \"@openzeppelin/contracts/utils/math/Math.sol\":2697:2716  denominator > prod1 */\n      gt\n        /* \"@openzeppelin/contracts/utils/math/Math.sol\":2689:2717  require(denominator > prod1) */\n      tag_150\n      jumpi\n      0x00\n      dup1\n      revert\n    tag_150:\n        /* \"@openzeppelin/contracts/utils/math/Math.sol\":2973:2990  uint256 remainder */\n      0x00\n        /* \"@openzeppelin/contracts/utils/math/Math.sol\":3108:3119  denominator */\n      dup5\n        /* \"@openzeppelin/contracts/utils/math/Math.sol\":3105:3106  y */\n      dup7\n        /* \"@openzeppelin/contracts/utils/math/Math.sol\":3102:3103  x */\n      dup9\n        /* \"@openzeppelin/contracts/utils/math/Math.sol\":3095:3120  mulmod(x, y, denominator) */\n      mulmod\n        /* \"@openzeppelin/contracts/utils/math/Math.sol\":3082:3120  remainder := mulmod(x, y, denominator) */\n      swap1\n      pop\n        /* \"@openzeppelin/contracts/utils/math/Math.sol\":3236:3241  prod0 */\n      dup3\n        /* \"@openzeppelin/contracts/utils/math/Math.sol\":3225:3234  remainder */\n      dup2\n        /* \"@openzeppelin/contracts/utils/math/Math.sol\":3222:3242  gt(remainder, prod0) */\n      gt\n        /* \"@openzeppelin/contracts/utils/math/Math.sol\":3215:3220  prod1 */\n      dup3\n        /* \"@openzeppelin/contracts/utils/math/Math.sol\":3211:3243  sub(prod1, gt(remainder, prod0)) */\n      sub\n        /* \"@openzeppelin/contracts/utils/math/Math.sol\":3202:3243  prod1 := sub(prod1, gt(remainder, prod0)) */\n      swap2\n      pop\n        /* \"@openzeppelin/contracts/utils/math/Math.sol\":3280:3289  remainder */\n      dup1\n        /* \"@openzeppelin/contracts/utils/math/Math.sol\":3273:3278  prod0 */\n      dup4\n        /* \"@openzeppelin/contracts/utils/math/Math.sol\":3269:3290  sub(prod0, remainder) */\n      sub\n        /* \"@openzeppelin/contracts/utils/math/Math.sol\":3260:3290  prod0 := sub(prod0, remainder) */\n      swap3\n      pop\n        /* \"@openzeppelin/contracts/utils/math/Math.sol\":3611:3623  uint256 twos */\n      0x00\n        /* \"@openzeppelin/contracts/utils/math/Math.sol\":3656:3657  1 */\n      0x01\n        /* \"@openzeppelin/contracts/utils/math/Math.sol\":3642:3653  denominator */\n      dup7\n        /* \"@openzeppelin/contracts/utils/math/Math.sol\":3641:3653  ~denominator */\n      not\n        /* \"@openzeppelin/contracts/utils/math/Math.sol\":3641:3657  ~denominator + 1 */\n      add\n        /* \"@openzeppelin/contracts/utils/math/Math.sol\":3626:3637  denominator */\n      dup7\n        /* \"@openzeppelin/contracts/utils/math/Math.sol\":3626:3658  denominator & (~denominator + 1) */\n      and\n        /* \"@openzeppelin/contracts/utils/math/Math.sol\":3611:3658  uint256 twos = denominator & (~denominator + 1) */\n      swap1\n      pop\n        /* \"@openzeppelin/contracts/utils/math/Math.sol\":3778:3782  twos */\n      dup1\n        /* \"@openzeppelin/contracts/utils/math/Math.sol\":3765:3776  denominator */\n      dup7\n        /* \"@openzeppelin/contracts/utils/math/Math.sol\":3761:3783  div(denominator, twos) */\n      div\n        /* \"@openzeppelin/contracts/utils/math/Math.sol\":3746:3783  denominator := div(denominator, twos) */\n      swap6\n      pop\n        /* \"@openzeppelin/contracts/utils/math/Math.sol\":3870:3874  twos */\n      dup1\n        /* \"@openzeppelin/contracts/utils/math/Math.sol\":3863:3868  prod0 */\n      dup5\n        /* \"@openzeppelin/contracts/utils/math/Math.sol\":3859:3875  div(prod0, twos) */\n      div\n        /* \"@openzeppelin/contracts/utils/math/Math.sol\":3850:3875  prod0 := div(prod0, twos) */\n      swap4\n      pop\n        /* \"@openzeppelin/contracts/utils/math/Math.sol\":4027:4028  1 */\n      0x01\n        /* \"@openzeppelin/contracts/utils/math/Math.sol\":4020:4024  twos */\n      dup2\n        /* \"@openzeppelin/contracts/utils/math/Math.sol\":4013:4017  twos */\n      dup3\n        /* \"@openzeppelin/contracts/utils/math/Math.sol\":4010:4011  0 */\n      0x00\n        /* \"@openzeppelin/contracts/utils/math/Math.sol\":4006:4018  sub(0, twos) */\n      sub\n        /* \"@openzeppelin/contracts/utils/math/Math.sol\":4002:4025  div(sub(0, twos), twos) */\n      div\n        /* \"@openzeppelin/contracts/utils/math/Math.sol\":3998:4029  add(div(sub(0, twos), twos), 1) */\n      add\n        /* \"@openzeppelin/contracts/utils/math/Math.sol\":3990:4029  twos := add(div(sub(0, twos), twos), 1) */\n      swap1\n      pop\n        /* \"@openzeppelin/contracts/utils/math/Math.sol\":4126:4130  twos */\n      dup1\n        /* \"@openzeppelin/contracts/utils/math/Math.sol\":4118:4123  prod1 */\n      dup4\n        /* \"@openzeppelin/contracts/utils/math/Math.sol\":4118:4130  prod1 * twos */\n      mul\n        /* \"@openzeppelin/contracts/utils/math/Math.sol\":4109:4130  prod0 |= prod1 * twos */\n      dup5\n      or\n      swap4\n      pop\n        /* \"@openzeppelin/contracts/utils/math/Math.sol\":4448:4463  uint256 inverse */\n      0x00\n        /* \"@openzeppelin/contracts/utils/math/Math.sol\":4486:4487  2 */\n      0x02\n        /* \"@openzeppelin/contracts/utils/math/Math.sol\":4471:4482  denominator */\n      dup8\n        /* \"@openzeppelin/contracts/utils/math/Math.sol\":4467:4468  3 */\n      0x03\n        /* \"@openzeppelin/contracts/utils/math/Math.sol\":4467:4482  3 * denominator */\n      mul\n        /* \"@openzeppelin/contracts/utils/math/Math.sol\":4466:4487  (3 * denominator) ^ 2 */\n      xor\n        /* \"@openzeppelin/contracts/utils/math/Math.sol\":4448:4487  uint256 inverse = (3 * denominator) ^ 2 */\n      swap1\n      pop\n        /* \"@openzeppelin/contracts/utils/math/Math.sol\":4733:4740  inverse */\n      dup1\n        /* \"@openzeppelin/contracts/utils/math/Math.sol\":4719:4730  denominator */\n      dup8\n        /* \"@openzeppelin/contracts/utils/math/Math.sol\":4719:4740  denominator * inverse */\n      mul\n        /* \"@openzeppelin/contracts/utils/math/Math.sol\":4715:4716  2 */\n      0x02\n        /* \"@openzeppelin/contracts/utils/math/Math.sol\":4715:4740  2 - denominator * inverse */\n      sub\n        /* \"@openzeppelin/contracts/utils/math/Math.sol\":4704:4740  inverse *= 2 - denominator * inverse */\n      dup2\n      mul\n      swap1\n      pop\n        /* \"@openzeppelin/contracts/utils/math/Math.sol\":4802:4809  inverse */\n      dup1\n        /* \"@openzeppelin/contracts/utils/math/Math.sol\":4788:4799  denominator */\n      dup8\n        /* \"@openzeppelin/contracts/utils/math/Math.sol\":4788:4809  denominator * inverse */\n      mul\n        /* \"@openzeppelin/contracts/utils/math/Math.sol\":4784:4785  2 */\n      0x02\n        /* \"@openzeppelin/contracts/utils/math/Math.sol\":4784:4809  2 - denominator * inverse */\n      sub\n        /* \"@openzeppelin/contracts/utils/math/Math.sol\":4773:4809  inverse *= 2 - denominator * inverse */\n      dup2\n      mul\n      swap1\n      pop\n        /* \"@openzeppelin/contracts/utils/math/Math.sol\":4872:4879  inverse */\n      dup1\n        /* \"@openzeppelin/contracts/utils/math/Math.sol\":4858:4869  denominator */\n      dup8\n        /* \"@openzeppelin/contracts/utils/math/Math.sol\":4858:4879  denominator * inverse */\n      mul\n        /* \"@openzeppelin/contracts/utils/math/Math.sol\":4854:4855  2 */\n      0x02\n        /* \"@openzeppelin/contracts/utils/math/Math.sol\":4854:4879  2 - denominator * inverse */\n      sub\n        /* \"@openzeppelin/contracts/utils/math/Math.sol\":4843:4879  inverse *= 2 - denominator * inverse */\n      dup2\n      mul\n      swap1\n      pop\n        /* \"@openzeppelin/contracts/utils/math/Math.sol\":4942:4949  inverse */\n      dup1\n        /* \"@openzeppelin/contracts/utils/math/Math.sol\":4928:4939  denominator */\n      dup8\n        /* \"@openzeppelin/contracts/utils/math/Math.sol\":4928:4949  denominator * inverse */\n      mul\n        /* \"@openzeppelin/contracts/utils/math/Math.sol\":4924:4925  2 */\n      0x02\n        /* \"@openzeppelin/contracts/utils/math/Math.sol\":4924:4949  2 - denominator * inverse */\n      sub\n        /* \"@openzeppelin/contracts/utils/math/Math.sol\":4913:4949  inverse *= 2 - denominator * inverse */\n      dup2\n      mul\n      swap1\n      pop\n        /* \"@openzeppelin/contracts/utils/math/Math.sol\":5012:5019  inverse */\n      dup1\n        /* \"@openzeppelin/contracts/utils/math/Math.sol\":4998:5009  denominator */\n      dup8\n        /* \"@openzeppelin/contracts/utils/math/Math.sol\":4998:5019  denominator * inverse */\n      mul\n        /* \"@openzeppelin/contracts/utils/math/Math.sol\":4994:4995  2 */\n      0x02\n        /* \"@openzeppelin/contracts/utils/math/Math.sol\":4994:5019  2 - denominator * inverse */\n      sub\n        /* \"@openzeppelin/contracts/utils/math/Math.sol\":4983:5019  inverse *= 2 - denominator * inverse */\n      dup2\n      mul\n      swap1\n      pop\n        /* \"@openzeppelin/contracts/utils/math/Math.sol\":5083:5090  inverse */\n      dup1\n        /* \"@openzeppelin/contracts/utils/math/Math.sol\":5069:5080  denominator */\n      dup8\n        /* \"@openzeppelin/contracts/utils/math/Math.sol\":5069:5090  denominator * inverse */\n      mul\n        /* \"@openzeppelin/contracts/utils/math/Math.sol\":5065:5066  2 */\n      0x02\n        /* \"@openzeppelin/contracts/utils/math/Math.sol\":5065:5090  2 - denominator * inverse */\n      sub\n        /* \"@openzeppelin/contracts/utils/math/Math.sol\":5054:5090  inverse *= 2 - denominator * inverse */\n      dup2\n      mul\n      swap1\n      pop\n        /* \"@openzeppelin/contracts/utils/math/Math.sol\":5541:5548  inverse */\n      dup1\n        /* \"@openzeppelin/contracts/utils/math/Math.sol\":5533:5538  prod0 */\n      dup6\n        /* \"@openzeppelin/contracts/utils/math/Math.sol\":5533:5548  prod0 * inverse */\n      mul\n        /* \"@openzeppelin/contracts/utils/math/Math.sol\":5524:5548  result = prod0 * inverse */\n      swap6\n      pop\n        /* \"@openzeppelin/contracts/utils/math/Math.sol\":5562:5575  return result */\n      pop\n      pop\n      pop\n      pop\n      pop\n        /* \"@openzeppelin/contracts/utils/math/Math.sol\":1667:5592  function mulDiv(... */\n    tag_147:\n      swap4\n      swap3\n      pop\n      pop\n      pop\n      jump\t// out\n        /* \"@openzeppelin/contracts/utils/Context.sol\":640:736  function _msgSender() internal view virtual returns (address) {... */\n    tag_139:\n        /* \"@openzeppelin/contracts/utils/Context.sol\":693:700  address */\n      0x00\n        /* \"@openzeppelin/contracts/utils/Context.sol\":719:729  msg.sender */\n      caller\n        /* \"@openzeppelin/contracts/utils/Context.sol\":712:729  return msg.sender */\n      swap1\n      pop\n        /* \"@openzeppelin/contracts/utils/Context.sol\":640:736  function _msgSender() internal view virtual returns (address) {... */\n      swap1\n      jump\t// out\n        /* \"#utility.yul\":7:146   */\n    tag_153:\n      0x00\n        /* \"#utility.yul\":91:97   */\n      dup2\n        /* \"#utility.yul\":78:98   */\n      calldataload\n        /* \"#utility.yul\":69:98   */\n      swap1\n      pop\n        /* \"#utility.yul\":107:140   */\n      tag_155\n        /* \"#utility.yul\":134:139   */\n      dup2\n        /* \"#utility.yul\":107:140   */\n      tag_156\n      jump\t// in\n    tag_155:\n        /* \"#utility.yul\":59:146   */\n      swap3\n      swap2\n      pop\n      pop\n      jump\t// out\n        /* \"#utility.yul\":152:289   */\n    tag_157:\n      0x00\n        /* \"#utility.yul\":237:243   */\n      dup2\n        /* \"#utility.yul\":231:244   */\n      mload\n        /* \"#utility.yul\":222:244   */\n      swap1\n      pop\n        /* \"#utility.yul\":253:283   */\n      tag_159\n        /* \"#utility.yul\":277:282   */\n      dup2\n        /* \"#utility.yul\":253:283   */\n      tag_160\n      jump\t// in\n    tag_159:\n        /* \"#utility.yul\":212:289   */\n      swap3\n      swap2\n      pop\n      pop\n      jump\t// out\n        /* \"#utility.yul\":295:434   */\n    tag_161:\n      0x00\n        /* \"#utility.yul\":379:385   */\n      dup2\n        /* \"#utility.yul\":366:386   */\n      calldataload\n        /* \"#utility.yul\":357:386   */\n      swap1\n      pop\n        /* \"#utility.yul\":395:428   */\n      tag_163\n        /* \"#utility.yul\":422:427   */\n      dup2\n        /* \"#utility.yul\":395:428   */\n      tag_164\n      jump\t// in\n    tag_163:\n        /* \"#utility.yul\":347:434   */\n      swap3\n      swap2\n      pop\n      pop\n      jump\t// out\n        /* \"#utility.yul\":440:702   */\n    tag_33:\n      0x00\n        /* \"#utility.yul\":548:550   */\n      0x20\n        /* \"#utility.yul\":536:545   */\n      dup3\n        /* \"#utility.yul\":527:534   */\n      dup5\n        /* \"#utility.yul\":523:546   */\n      sub\n        /* \"#utility.yul\":519:551   */\n      slt\n        /* \"#utility.yul\":516:518   */\n      iszero\n      tag_166\n      jumpi\n        /* \"#utility.yul\":564:565   */\n      0x00\n        /* \"#utility.yul\":561:562   */\n      dup1\n        /* \"#utility.yul\":554:566   */\n      revert\n        /* \"#utility.yul\":516:518   */\n    tag_166:\n        /* \"#utility.yul\":607:608   */\n      0x00\n        /* \"#utility.yul\":632:685   */\n      tag_167\n        /* \"#utility.yul\":677:684   */\n      dup5\n        /* \"#utility.yul\":668:674   */\n      dup3\n        /* \"#utility.yul\":657:666   */\n      dup6\n        /* \"#utility.yul\":653:675   */\n      add\n        /* \"#utility.yul\":632:685   */\n      tag_153\n      jump\t// in\n    tag_167:\n        /* \"#utility.yul\":622:685   */\n      swap2\n      pop\n        /* \"#utility.yul\":578:695   */\n      pop\n        /* \"#utility.yul\":506:702   */\n      swap3\n      swap2\n      pop\n      pop\n      jump\t// out\n        /* \"#utility.yul\":708:1115   */\n    tag_17:\n      0x00\n      dup1\n        /* \"#utility.yul\":833:835   */\n      0x40\n        /* \"#utility.yul\":821:830   */\n      dup4\n        /* \"#utility.yul\":812:819   */\n      dup6\n        /* \"#utility.yul\":808:831   */\n      sub\n        /* \"#utility.yul\":804:836   */\n      slt\n        /* \"#utility.yul\":801:803   */\n      iszero\n      tag_169\n      jumpi\n        /* \"#utility.yul\":849:850   */\n      0x00\n        /* \"#utility.yul\":846:847   */\n      dup1\n        /* \"#utility.yul\":839:851   */\n      revert\n        /* \"#utility.yul\":801:803   */\n    tag_169:\n        /* \"#utility.yul\":892:893   */\n      0x00\n        /* \"#utility.yul\":917:970   */\n      tag_170\n        /* \"#utility.yul\":962:969   */\n      dup6\n        /* \"#utility.yul\":953:959   */\n      dup3\n        /* \"#utility.yul\":942:951   */\n      dup7\n        /* \"#utility.yul\":938:960   */\n      add\n        /* \"#utility.yul\":917:970   */\n      tag_153\n      jump\t// in\n    tag_170:\n        /* \"#utility.yul\":907:970   */\n      swap3\n      pop\n        /* \"#utility.yul\":863:980   */\n      pop\n        /* \"#utility.yul\":1019:1021   */\n      0x20\n        /* \"#utility.yul\":1045:1098   */\n      tag_171\n        /* \"#utility.yul\":1090:1097   */\n      dup6\n        /* \"#utility.yul\":1081:1087   */\n      dup3\n        /* \"#utility.yul\":1070:1079   */\n      dup7\n        /* \"#utility.yul\":1066:1088   */\n      add\n        /* \"#utility.yul\":1045:1098   */\n      tag_153\n      jump\t// in\n    tag_171:\n        /* \"#utility.yul\":1035:1098   */\n      swap2\n      pop\n        /* \"#utility.yul\":990:1108   */\n      pop\n        /* \"#utility.yul\":791:1115   */\n      swap3\n      pop\n      swap3\n      swap1\n      pop\n      jump\t// out\n        /* \"#utility.yul\":1121:1819   */\n    tag_37:\n      0x00\n      dup1\n      0x00\n      dup1\n        /* \"#utility.yul\":1280:1283   */\n      0x80\n        /* \"#utility.yul\":1268:1277   */\n      dup6\n        /* \"#utility.yul\":1259:1266   */\n      dup8\n        /* \"#utility.yul\":1255:1278   */\n      sub\n        /* \"#utility.yul\":1251:1284   */\n      slt\n        /* \"#utility.yul\":1248:1250   */\n      iszero\n      tag_173\n      jumpi\n        /* \"#utility.yul\":1297:1298   */\n      0x00\n        /* \"#utility.yul\":1294:1295   */\n      dup1\n        /* \"#utility.yul\":1287:1299   */\n      revert\n        /* \"#utility.yul\":1248:1250   */\n    tag_173:\n        /* \"#utility.yul\":1340:1341   */\n      0x00\n        /* \"#utility.yul\":1365:1418   */\n      tag_174\n        /* \"#utility.yul\":1410:1417   */\n      dup8\n        /* \"#utility.yul\":1401:1407   */\n      dup3\n        /* \"#utility.yul\":1390:1399   */\n      dup9\n        /* \"#utility.yul\":1386:1408   */\n      add\n        /* \"#utility.yul\":1365:1418   */\n      tag_153\n      jump\t// in\n    tag_174:\n        /* \"#utility.yul\":1355:1418   */\n      swap5\n      pop\n        /* \"#utility.yul\":1311:1428   */\n      pop\n        /* \"#utility.yul\":1467:1469   */\n      0x20\n        /* \"#utility.yul\":1493:1546   */\n      tag_175\n        /* \"#utility.yul\":1538:1545   */\n      dup8\n        /* \"#utility.yul\":1529:1535   */\n      dup3\n        /* \"#utility.yul\":1518:1527   */\n      dup9\n        /* \"#utility.yul\":1514:1536   */\n      add\n        /* \"#utility.yul\":1493:1546   */\n      tag_161\n      jump\t// in\n    tag_175:\n        /* \"#utility.yul\":1483:1546   */\n      swap4\n      pop\n        /* \"#utility.yul\":1438:1556   */\n      pop\n        /* \"#utility.yul\":1595:1597   */\n      0x40\n        /* \"#utility.yul\":1621:1674   */\n      tag_176\n        /* \"#utility.yul\":1666:1673   */\n      dup8\n        /* \"#utility.yul\":1657:1663   */\n      dup3\n        /* \"#utility.yul\":1646:1655   */\n      dup9\n        /* \"#utility.yul\":1642:1664   */\n      add\n        /* \"#utility.yul\":1621:1674   */\n      tag_161\n      jump\t// in\n    tag_176:\n        /* \"#utility.yul\":1611:1674   */\n      swap3\n      pop\n        /* \"#utility.yul\":1566:1684   */\n      pop\n        /* \"#utility.yul\":1723:1725   */\n      0x60\n        /* \"#utility.yul\":1749:1802   */\n      tag_177\n        /* \"#utility.yul\":1794:1801   */\n      dup8\n        /* \"#utility.yul\":1785:1791   */\n      dup3\n        /* \"#utility.yul\":1774:1783   */\n      dup9\n        /* \"#utility.yul\":1770:1792   */\n      add\n        /* \"#utility.yul\":1749:1802   */\n      tag_153\n      jump\t// in\n    tag_177:\n        /* \"#utility.yul\":1739:1802   */\n      swap2\n      pop\n        /* \"#utility.yul\":1694:1812   */\n      pop\n        /* \"#utility.yul\":1238:1819   */\n      swap3\n      swap6\n      swap2\n      swap5\n      pop\n      swap3\n      pop\n      jump\t// out\n        /* \"#utility.yul\":1825:2103   */\n    tag_59:\n      0x00\n        /* \"#utility.yul\":1941:1943   */\n      0x20\n        /* \"#utility.yul\":1929:1938   */\n      dup3\n        /* \"#utility.yul\":1920:1927   */\n      dup5\n        /* \"#utility.yul\":1916:1939   */\n      sub\n        /* \"#utility.yul\":1912:1944   */\n      slt\n        /* \"#utility.yul\":1909:1911   */\n      iszero\n      tag_179\n      jumpi\n        /* \"#utility.yul\":1957:1958   */\n      0x00\n        /* \"#utility.yul\":1954:1955   */\n      dup1\n        /* \"#utility.yul\":1947:1959   */\n      revert\n        /* \"#utility.yul\":1909:1911   */\n    tag_179:\n        /* \"#utility.yul\":2000:2001   */\n      0x00\n        /* \"#utility.yul\":2025:2086   */\n      tag_180\n        /* \"#utility.yul\":2078:2085   */\n      dup5\n        /* \"#utility.yul\":2069:2075   */\n      dup3\n        /* \"#utility.yul\":2058:2067   */\n      dup6\n        /* \"#utility.yul\":2054:2076   */\n      add\n        /* \"#utility.yul\":2025:2086   */\n      tag_157\n      jump\t// in\n    tag_180:\n        /* \"#utility.yul\":2015:2086   */\n      swap2\n      pop\n        /* \"#utility.yul\":1971:2096   */\n      pop\n        /* \"#utility.yul\":1899:2103   */\n      swap3\n      swap2\n      pop\n      pop\n      jump\t// out\n        /* \"#utility.yul\":2109:2516   */\n    tag_27:\n      0x00\n      dup1\n        /* \"#utility.yul\":2234:2236   */\n      0x40\n        /* \"#utility.yul\":2222:2231   */\n      dup4\n        /* \"#utility.yul\":2213:2220   */\n      dup6\n        /* \"#utility.yul\":2209:2232   */\n      sub\n        /* \"#utility.yul\":2205:2237   */\n      slt\n        /* \"#utility.yul\":2202:2204   */\n      iszero\n      tag_182\n      jumpi\n        /* \"#utility.yul\":2250:2251   */\n      0x00\n        /* \"#utility.yul\":2247:2248   */\n      dup1\n        /* \"#utility.yul\":2240:2252   */\n      revert\n        /* \"#utility.yul\":2202:2204   */\n    tag_182:\n        /* \"#utility.yul\":2293:2294   */\n      0x00\n        /* \"#utility.yul\":2318:2371   */\n      tag_183\n        /* \"#utility.yul\":2363:2370   */\n      dup6\n        /* \"#utility.yul\":2354:2360   */\n      dup3\n        /* \"#utility.yul\":2343:2352   */\n      dup7\n        /* \"#utility.yul\":2339:2361   */\n      add\n        /* \"#utility.yul\":2318:2371   */\n      tag_161\n      jump\t// in\n    tag_183:\n        /* \"#utility.yul\":2308:2371   */\n      swap3\n      pop\n        /* \"#utility.yul\":2264:2381   */\n      pop\n        /* \"#utility.yul\":2420:2422   */\n      0x20\n        /* \"#utility.yul\":2446:2499   */\n      tag_184\n        /* \"#utility.yul\":2491:2498   */\n      dup6\n        /* \"#utility.yul\":2482:2488   */\n      dup3\n        /* \"#utility.yul\":2471:2480   */\n      dup7\n        /* \"#utility.yul\":2467:2489   */\n      add\n        /* \"#utility.yul\":2446:2499   */\n      tag_161\n      jump\t// in\n    tag_184:\n        /* \"#utility.yul\":2436:2499   */\n      swap2\n      pop\n        /* \"#utility.yul\":2391:2509   */\n      pop\n        /* \"#utility.yul\":2192:2516   */\n      swap3\n      pop\n      swap3\n      swap1\n      pop\n      jump\t// out\n        /* \"#utility.yul\":2522:2640   */\n    tag_185:\n        /* \"#utility.yul\":2609:2633   */\n      tag_187\n        /* \"#utility.yul\":2627:2632   */\n      dup2\n        /* \"#utility.yul\":2609:2633   */\n      tag_188\n      jump\t// in\n    tag_187:\n        /* \"#utility.yul\":2604:2607   */\n      dup3\n        /* \"#utility.yul\":2597:2634   */\n      mstore\n        /* \"#utility.yul\":2587:2640   */\n      pop\n      pop\n      jump\t// out\n        /* \"#utility.yul\":2646:3016   */\n    tag_189:\n      0x00\n        /* \"#utility.yul\":2809:2876   */\n      tag_191\n        /* \"#utility.yul\":2873:2875   */\n      0x26\n        /* \"#utility.yul\":2868:2871   */\n      dup4\n        /* \"#utility.yul\":2809:2876   */\n      tag_192\n      jump\t// in\n    tag_191:\n        /* \"#utility.yul\":2802:2876   */\n      swap2\n      pop\n        /* \"#utility.yul\":2906:2940   */\n      0x4f776e61626c653a206e6577206f776e657220697320746865207a65726f2061\n        /* \"#utility.yul\":2902:2903   */\n      0x00\n        /* \"#utility.yul\":2897:2900   */\n      dup4\n        /* \"#utility.yul\":2893:2904   */\n      add\n        /* \"#utility.yul\":2886:2941   */\n      mstore\n        /* \"#utility.yul\":2972:2980   */\n      0x6464726573730000000000000000000000000000000000000000000000000000\n        /* \"#utility.yul\":2967:2969   */\n      0x20\n        /* \"#utility.yul\":2962:2965   */\n      dup4\n        /* \"#utility.yul\":2958:2970   */\n      add\n        /* \"#utility.yul\":2951:2981   */\n      mstore\n        /* \"#utility.yul\":3007:3009   */\n      0x40\n        /* \"#utility.yul\":3002:3005   */\n      dup3\n        /* \"#utility.yul\":2998:3010   */\n      add\n        /* \"#utility.yul\":2991:3010   */\n      swap1\n      pop\n        /* \"#utility.yul\":2792:3016   */\n      swap2\n      swap1\n      pop\n      jump\t// out\n        /* \"#utility.yul\":3022:3349   */\n    tag_193:\n      0x00\n        /* \"#utility.yul\":3185:3252   */\n      tag_195\n        /* \"#utility.yul\":3249:3251   */\n      0x1d\n        /* \"#utility.yul\":3244:3247   */\n      dup4\n        /* \"#utility.yul\":3185:3252   */\n      tag_192\n      jump\t// in\n    tag_195:\n        /* \"#utility.yul\":3178:3252   */\n      swap2\n      pop\n        /* \"#utility.yul\":3282:3313   */\n      0x616464206661696c202c20627920536166654d6174682e747279416464000000\n        /* \"#utility.yul\":3278:3279   */\n      0x00\n        /* \"#utility.yul\":3273:3276   */\n      dup4\n        /* \"#utility.yul\":3269:3280   */\n      add\n        /* \"#utility.yul\":3262:3314   */\n      mstore\n        /* \"#utility.yul\":3340:3342   */\n      0x20\n        /* \"#utility.yul\":3335:3338   */\n      dup3\n        /* \"#utility.yul\":3331:3343   */\n      add\n        /* \"#utility.yul\":3324:3343   */\n      swap1\n      pop\n        /* \"#utility.yul\":3168:3349   */\n      swap2\n      swap1\n      pop\n      jump\t// out\n        /* \"#utility.yul\":3355:3720   */\n    tag_196:\n      0x00\n        /* \"#utility.yul\":3518:3585   */\n      tag_198\n        /* \"#utility.yul\":3582:3584   */\n      0x21\n        /* \"#utility.yul\":3577:3580   */\n      dup4\n        /* \"#utility.yul\":3518:3585   */\n      tag_192\n      jump\t// in\n    tag_198:\n        /* \"#utility.yul\":3511:3585   */\n      swap2\n      pop\n        /* \"#utility.yul\":3615:3649   */\n      0x616d6f756e744f7574206c657373207468616e205f616d6f756e744f75744d69\n        /* \"#utility.yul\":3611:3612   */\n      0x00\n        /* \"#utility.yul\":3606:3609   */\n      dup4\n        /* \"#utility.yul\":3602:3613   */\n      add\n        /* \"#utility.yul\":3595:3650   */\n      mstore\n        /* \"#utility.yul\":3681:3684   */\n      0x6e00000000000000000000000000000000000000000000000000000000000000\n        /* \"#utility.yul\":3676:3678   */\n      0x20\n        /* \"#utility.yul\":3671:3674   */\n      dup4\n        /* \"#utility.yul\":3667:3679   */\n      add\n        /* \"#utility.yul\":3660:3685   */\n      mstore\n        /* \"#utility.yul\":3711:3713   */\n      0x40\n        /* \"#utility.yul\":3706:3709   */\n      dup3\n        /* \"#utility.yul\":3702:3714   */\n      add\n        /* \"#utility.yul\":3695:3714   */\n      swap1\n      pop\n        /* \"#utility.yul\":3501:3720   */\n      swap2\n      swap1\n      pop\n      jump\t// out\n        /* \"#utility.yul\":3726:4056   */\n    tag_199:\n      0x00\n        /* \"#utility.yul\":3889:3956   */\n      tag_201\n        /* \"#utility.yul\":3953:3955   */\n      0x20\n        /* \"#utility.yul\":3948:3951   */\n      dup4\n        /* \"#utility.yul\":3889:3956   */\n      tag_192\n      jump\t// in\n    tag_201:\n        /* \"#utility.yul\":3882:3956   */\n      swap2\n      pop\n        /* \"#utility.yul\":3986:4020   */\n      0x4f776e61626c653a2063616c6c6572206973206e6f7420746865206f776e6572\n        /* \"#utility.yul\":3982:3983   */\n      0x00\n        /* \"#utility.yul\":3977:3980   */\n      dup4\n        /* \"#utility.yul\":3973:3984   */\n      add\n        /* \"#utility.yul\":3966:4021   */\n      mstore\n        /* \"#utility.yul\":4047:4049   */\n      0x20\n        /* \"#utility.yul\":4042:4045   */\n      dup3\n        /* \"#utility.yul\":4038:4050   */\n      add\n        /* \"#utility.yul\":4031:4050   */\n      swap1\n      pop\n        /* \"#utility.yul\":3872:4056   */\n      swap2\n      swap1\n      pop\n      jump\t// out\n        /* \"#utility.yul\":4062:4439   */\n    tag_202:\n      0x00\n        /* \"#utility.yul\":4225:4292   */\n      tag_204\n        /* \"#utility.yul\":4289:4291   */\n      0x2d\n        /* \"#utility.yul\":4284:4287   */\n      dup4\n        /* \"#utility.yul\":4225:4292   */\n      tag_192\n      jump\t// in\n    tag_204:\n        /* \"#utility.yul\":4218:4292   */\n      swap2\n      pop\n        /* \"#utility.yul\":4322:4356   */\n      0x746f6b656e496e20616d6f756e7420616464206661696c2c20736f7572636520\n        /* \"#utility.yul\":4318:4319   */\n      0x00\n        /* \"#utility.yul\":4313:4316   */\n      dup4\n        /* \"#utility.yul\":4309:4320   */\n      add\n        /* \"#utility.yul\":4302:4357   */\n      mstore\n        /* \"#utility.yul\":4388:4403   */\n      0x66726f6d20736166654d61746800000000000000000000000000000000000000\n        /* \"#utility.yul\":4383:4385   */\n      0x20\n        /* \"#utility.yul\":4378:4381   */\n      dup4\n        /* \"#utility.yul\":4374:4386   */\n      add\n        /* \"#utility.yul\":4367:4404   */\n      mstore\n        /* \"#utility.yul\":4430:4432   */\n      0x40\n        /* \"#utility.yul\":4425:4428   */\n      dup3\n        /* \"#utility.yul\":4421:4433   */\n      add\n        /* \"#utility.yul\":4414:4433   */\n      swap1\n      pop\n        /* \"#utility.yul\":4208:4439   */\n      swap2\n      swap1\n      pop\n      jump\t// out\n        /* \"#utility.yul\":4445:4815   */\n    tag_205:\n      0x00\n        /* \"#utility.yul\":4608:4675   */\n      tag_207\n        /* \"#utility.yul\":4672:4674   */\n      0x26\n        /* \"#utility.yul\":4667:4670   */\n      dup4\n        /* \"#utility.yul\":4608:4675   */\n      tag_192\n      jump\t// in\n    tag_207:\n        /* \"#utility.yul\":4601:4675   */\n      swap2\n      pop\n        /* \"#utility.yul\":4705:4739   */\n      0x746f6b656e496e206d7573742062652041206f72204220746861742068617320\n        /* \"#utility.yul\":4701:4702   */\n      0x00\n        /* \"#utility.yul\":4696:4699   */\n      dup4\n        /* \"#utility.yul\":4692:4703   */\n      add\n        /* \"#utility.yul\":4685:4740   */\n      mstore\n        /* \"#utility.yul\":4771:4779   */\n      0x6265207365740000000000000000000000000000000000000000000000000000\n        /* \"#utility.yul\":4766:4768   */\n      0x20\n        /* \"#utility.yul\":4761:4764   */\n      dup4\n        /* \"#utility.yul\":4757:4769   */\n      add\n        /* \"#utility.yul\":4750:4780   */\n      mstore\n        /* \"#utility.yul\":4806:4808   */\n      0x40\n        /* \"#utility.yul\":4801:4804   */\n      dup3\n        /* \"#utility.yul\":4797:4809   */\n      add\n        /* \"#utility.yul\":4790:4809   */\n      swap1\n      pop\n        /* \"#utility.yul\":4591:4815   */\n      swap2\n      swap1\n      pop\n      jump\t// out\n        /* \"#utility.yul\":4821:5145   */\n    tag_208:\n      0x00\n        /* \"#utility.yul\":4984:5051   */\n      tag_210\n        /* \"#utility.yul\":5048:5050   */\n      0x1a\n        /* \"#utility.yul\":5043:5046   */\n      dup4\n        /* \"#utility.yul\":4984:5051   */\n      tag_192\n      jump\t// in\n    tag_210:\n        /* \"#utility.yul\":4977:5051   */\n      swap2\n      pop\n        /* \"#utility.yul\":5081:5109   */\n      0x746f6b656e4f757420616d6f756e74206e6f7420656e6f756768000000000000\n        /* \"#utility.yul\":5077:5078   */\n      0x00\n        /* \"#utility.yul\":5072:5075   */\n      dup4\n        /* \"#utility.yul\":5068:5079   */\n      add\n        /* \"#utility.yul\":5061:5110   */\n      mstore\n        /* \"#utility.yul\":5136:5138   */\n      0x20\n        /* \"#utility.yul\":5131:5134   */\n      dup3\n        /* \"#utility.yul\":5127:5139   */\n      add\n        /* \"#utility.yul\":5120:5139   */\n      swap1\n      pop\n        /* \"#utility.yul\":4967:5145   */\n      swap2\n      swap1\n      pop\n      jump\t// out\n        /* \"#utility.yul\":5151:5476   */\n    tag_211:\n      0x00\n        /* \"#utility.yul\":5314:5381   */\n      tag_213\n        /* \"#utility.yul\":5378:5380   */\n      0x1b\n        /* \"#utility.yul\":5373:5376   */\n      dup4\n        /* \"#utility.yul\":5314:5381   */\n      tag_192\n      jump\t// in\n    tag_213:\n        /* \"#utility.yul\":5307:5381   */\n      swap2\n      pop\n        /* \"#utility.yul\":5411:5440   */\n      0x5f746f2063616e206e6f74206265207a65726f20616464726573730000000000\n        /* \"#utility.yul\":5407:5408   */\n      0x00\n        /* \"#utility.yul\":5402:5405   */\n      dup4\n        /* \"#utility.yul\":5398:5409   */\n      add\n        /* \"#utility.yul\":5391:5441   */\n      mstore\n        /* \"#utility.yul\":5467:5469   */\n      0x20\n        /* \"#utility.yul\":5462:5465   */\n      dup3\n        /* \"#utility.yul\":5458:5470   */\n      add\n        /* \"#utility.yul\":5451:5470   */\n      swap1\n      pop\n        /* \"#utility.yul\":5297:5476   */\n      swap2\n      swap1\n      pop\n      jump\t// out\n        /* \"#utility.yul\":5482:5811   */\n    tag_214:\n      0x00\n        /* \"#utility.yul\":5645:5712   */\n      tag_216\n        /* \"#utility.yul\":5709:5711   */\n      0x1f\n        /* \"#utility.yul\":5704:5707   */\n      dup4\n        /* \"#utility.yul\":5645:5712   */\n      tag_192\n      jump\t// in\n    tag_216:\n        /* \"#utility.yul\":5638:5712   */\n      swap2\n      pop\n        /* \"#utility.yul\":5742:5775   */\n      0x746f6b656e496e2063616e206e6f74206265207a65726f206164647265737300\n        /* \"#utility.yul\":5738:5739   */\n      0x00\n        /* \"#utility.yul\":5733:5736   */\n      dup4\n        /* \"#utility.yul\":5729:5740   */\n      add\n        /* \"#utility.yul\":5722:5776   */\n      mstore\n        /* \"#utility.yul\":5802:5804   */\n      0x20\n        /* \"#utility.yul\":5797:5800   */\n      dup3\n        /* \"#utility.yul\":5793:5805   */\n      add\n        /* \"#utility.yul\":5786:5805   */\n      swap1\n      pop\n        /* \"#utility.yul\":5628:5811   */\n      swap2\n      swap1\n      pop\n      jump\t// out\n        /* \"#utility.yul\":5817:5935   */\n    tag_217:\n        /* \"#utility.yul\":5904:5928   */\n      tag_219\n        /* \"#utility.yul\":5922:5927   */\n      dup2\n        /* \"#utility.yul\":5904:5928   */\n      tag_220\n      jump\t// in\n    tag_219:\n        /* \"#utility.yul\":5899:5902   */\n      dup3\n        /* \"#utility.yul\":5892:5929   */\n      mstore\n        /* \"#utility.yul\":5882:5935   */\n      pop\n      pop\n      jump\t// out\n        /* \"#utility.yul\":5941:6163   */\n    tag_24:\n      0x00\n        /* \"#utility.yul\":6072:6074   */\n      0x20\n        /* \"#utility.yul\":6061:6070   */\n      dup3\n        /* \"#utility.yul\":6057:6075   */\n      add\n        /* \"#utility.yul\":6049:6075   */\n      swap1\n      pop\n        /* \"#utility.yul\":6085:6156   */\n      tag_222\n        /* \"#utility.yul\":6153:6154   */\n      0x00\n        /* \"#utility.yul\":6142:6151   */\n      dup4\n        /* \"#utility.yul\":6138:6155   */\n      add\n        /* \"#utility.yul\":6129:6135   */\n      dup5\n        /* \"#utility.yul\":6085:6156   */\n      tag_185\n      jump\t// in\n    tag_222:\n        /* \"#utility.yul\":6039:6163   */\n      swap3\n      swap2\n      pop\n      pop\n      jump\t// out\n        /* \"#utility.yul\":6169:6501   */\n    tag_14:\n      0x00\n        /* \"#utility.yul\":6328:6330   */\n      0x40\n        /* \"#utility.yul\":6317:6326   */\n      dup3\n        /* \"#utility.yul\":6313:6331   */\n      add\n        /* \"#utility.yul\":6305:6331   */\n      swap1\n      pop\n        /* \"#utility.yul\":6341:6412   */\n      tag_224\n        /* \"#utility.yul\":6409:6410   */\n      0x00\n        /* \"#utility.yul\":6398:6407   */\n      dup4\n        /* \"#utility.yul\":6394:6411   */\n      add\n        /* \"#utility.yul\":6385:6391   */\n      dup6\n        /* \"#utility.yul\":6341:6412   */\n      tag_185\n      jump\t// in\n    tag_224:\n        /* \"#utility.yul\":6422:6494   */\n      tag_225\n        /* \"#utility.yul\":6490:6492   */\n      0x20\n        /* \"#utility.yul\":6479:6488   */\n      dup4\n        /* \"#utility.yul\":6475:6493   */\n      add\n        /* \"#utility.yul\":6466:6472   */\n      dup5\n        /* \"#utility.yul\":6422:6494   */\n      tag_185\n      jump\t// in\n    tag_225:\n        /* \"#utility.yul\":6295:6501   */\n      swap4\n      swap3\n      pop\n      pop\n      pop\n      jump\t// out\n        /* \"#utility.yul\":6507:6949   */\n    tag_54:\n      0x00\n        /* \"#utility.yul\":6694:6696   */\n      0x60\n        /* \"#utility.yul\":6683:6692   */\n      dup3\n        /* \"#utility.yul\":6679:6697   */\n      add\n        /* \"#utility.yul\":6671:6697   */\n      swap1\n      pop\n        /* \"#utility.yul\":6707:6778   */\n      tag_227\n        /* \"#utility.yul\":6775:6776   */\n      0x00\n        /* \"#utility.yul\":6764:6773   */\n      dup4\n        /* \"#utility.yul\":6760:6777   */\n      add\n        /* \"#utility.yul\":6751:6757   */\n      dup7\n        /* \"#utility.yul\":6707:6778   */\n      tag_185\n      jump\t// in\n    tag_227:\n        /* \"#utility.yul\":6788:6860   */\n      tag_228\n        /* \"#utility.yul\":6856:6858   */\n      0x20\n        /* \"#utility.yul\":6845:6854   */\n      dup4\n        /* \"#utility.yul\":6841:6859   */\n      add\n        /* \"#utility.yul\":6832:6838   */\n      dup6\n        /* \"#utility.yul\":6788:6860   */\n      tag_185\n      jump\t// in\n    tag_228:\n        /* \"#utility.yul\":6870:6942   */\n      tag_229\n        /* \"#utility.yul\":6938:6940   */\n      0x40\n        /* \"#utility.yul\":6927:6936   */\n      dup4\n        /* \"#utility.yul\":6923:6941   */\n      add\n        /* \"#utility.yul\":6914:6920   */\n      dup5\n        /* \"#utility.yul\":6870:6942   */\n      tag_217\n      jump\t// in\n    tag_229:\n        /* \"#utility.yul\":6661:6949   */\n      swap5\n      swap4\n      pop\n      pop\n      pop\n      pop\n      jump\t// out\n        /* \"#utility.yul\":6955:7287   */\n    tag_111:\n      0x00\n        /* \"#utility.yul\":7114:7116   */\n      0x40\n        /* \"#utility.yul\":7103:7112   */\n      dup3\n        /* \"#utility.yul\":7099:7117   */\n      add\n        /* \"#utility.yul\":7091:7117   */\n      swap1\n      pop\n        /* \"#utility.yul\":7127:7198   */\n      tag_231\n        /* \"#utility.yul\":7195:7196   */\n      0x00\n        /* \"#utility.yul\":7184:7193   */\n      dup4\n        /* \"#utility.yul\":7180:7197   */\n      add\n        /* \"#utility.yul\":7171:7177   */\n      dup6\n        /* \"#utility.yul\":7127:7198   */\n      tag_185\n      jump\t// in\n    tag_231:\n        /* \"#utility.yul\":7208:7280   */\n      tag_232\n        /* \"#utility.yul\":7276:7278   */\n      0x20\n        /* \"#utility.yul\":7265:7274   */\n      dup4\n        /* \"#utility.yul\":7261:7279   */\n      add\n        /* \"#utility.yul\":7252:7258   */\n      dup5\n        /* \"#utility.yul\":7208:7280   */\n      tag_217\n      jump\t// in\n    tag_232:\n        /* \"#utility.yul\":7081:7287   */\n      swap4\n      swap3\n      pop\n      pop\n      pop\n      jump\t// out\n        /* \"#utility.yul\":7293:7712   */\n    tag_77:\n      0x00\n        /* \"#utility.yul\":7497:7499   */\n      0x20\n        /* \"#utility.yul\":7486:7495   */\n      dup3\n        /* \"#utility.yul\":7482:7500   */\n      add\n        /* \"#utility.yul\":7474:7500   */\n      swap1\n      pop\n        /* \"#utility.yul\":7546:7555   */\n      dup2\n        /* \"#utility.yul\":7540:7544   */\n      dup2\n        /* \"#utility.yul\":7536:7556   */\n      sub\n        /* \"#utility.yul\":7532:7533   */\n      0x00\n        /* \"#utility.yul\":7521:7530   */\n      dup4\n        /* \"#utility.yul\":7517:7534   */\n      add\n        /* \"#utility.yul\":7510:7557   */\n      mstore\n        /* \"#utility.yul\":7574:7705   */\n      tag_234\n        /* \"#utility.yul\":7700:7704   */\n      dup2\n        /* \"#utility.yul\":7574:7705   */\n      tag_189\n      jump\t// in\n    tag_234:\n        /* \"#utility.yul\":7566:7705   */\n      swap1\n      pop\n        /* \"#utility.yul\":7464:7712   */\n      swap2\n      swap1\n      pop\n      jump\t// out\n        /* \"#utility.yul\":7718:8137   */\n    tag_71:\n      0x00\n        /* \"#utility.yul\":7922:7924   */\n      0x20\n        /* \"#utility.yul\":7911:7920   */\n      dup3\n        /* \"#utility.yul\":7907:7925   */\n      add\n        /* \"#utility.yul\":7899:7925   */\n      swap1\n      pop\n        /* \"#utility.yul\":7971:7980   */\n      dup2\n        /* \"#utility.yul\":7965:7969   */\n      dup2\n        /* \"#utility.yul\":7961:7981   */\n      sub\n        /* \"#utility.yul\":7957:7958   */\n      0x00\n        /* \"#utility.yul\":7946:7955   */\n      dup4\n        /* \"#utility.yul\":7942:7959   */\n      add\n        /* \"#utility.yul\":7935:7982   */\n      mstore\n        /* \"#utility.yul\":7999:8130   */\n      tag_236\n        /* \"#utility.yul\":8125:8129   */\n      dup2\n        /* \"#utility.yul\":7999:8130   */\n      tag_193\n      jump\t// in\n    tag_236:\n        /* \"#utility.yul\":7991:8130   */\n      swap1\n      pop\n        /* \"#utility.yul\":7889:8137   */\n      swap2\n      swap1\n      pop\n      jump\t// out\n        /* \"#utility.yul\":8143:8562   */\n    tag_104:\n      0x00\n        /* \"#utility.yul\":8347:8349   */\n      0x20\n        /* \"#utility.yul\":8336:8345   */\n      dup3\n        /* \"#utility.yul\":8332:8350   */\n      add\n        /* \"#utility.yul\":8324:8350   */\n      swap1\n      pop\n        /* \"#utility.yul\":8396:8405   */\n      dup2\n        /* \"#utility.yul\":8390:8394   */\n      dup2\n        /* \"#utility.yul\":8386:8406   */\n      sub\n        /* \"#utility.yul\":8382:8383   */\n      0x00\n        /* \"#utility.yul\":8371:8380   */\n      dup4\n        /* \"#utility.yul\":8367:8384   */\n      add\n        /* \"#utility.yul\":8360:8407   */\n      mstore\n        /* \"#utility.yul\":8424:8555   */\n      tag_238\n        /* \"#utility.yul\":8550:8554   */\n      dup2\n        /* \"#utility.yul\":8424:8555   */\n      tag_196\n      jump\t// in\n    tag_238:\n        /* \"#utility.yul\":8416:8555   */\n      swap1\n      pop\n        /* \"#utility.yul\":8314:8562   */\n      swap2\n      swap1\n      pop\n      jump\t// out\n        /* \"#utility.yul\":8568:8987   */\n    tag_143:\n      0x00\n        /* \"#utility.yul\":8772:8774   */\n      0x20\n        /* \"#utility.yul\":8761:8770   */\n      dup3\n        /* \"#utility.yul\":8757:8775   */\n      add\n        /* \"#utility.yul\":8749:8775   */\n      swap1\n      pop\n        /* \"#utility.yul\":8821:8830   */\n      dup2\n        /* \"#utility.yul\":8815:8819   */\n      dup2\n        /* \"#utility.yul\":8811:8831   */\n      sub\n        /* \"#utility.yul\":8807:8808   */\n      0x00\n        /* \"#utility.yul\":8796:8805   */\n      dup4\n        /* \"#utility.yul\":8792:8809   */\n      add\n        /* \"#utility.yul\":8785:8832   */\n      mstore\n        /* \"#utility.yul\":8849:8980   */\n      tag_240\n        /* \"#utility.yul\":8975:8979   */\n      dup2\n        /* \"#utility.yul\":8849:8980   */\n      tag_199\n      jump\t// in\n    tag_240:\n        /* \"#utility.yul\":8841:8980   */\n      swap1\n      pop\n        /* \"#utility.yul\":8739:8987   */\n      swap2\n      swap1\n      pop\n      jump\t// out\n        /* \"#utility.yul\":8993:9412   */\n    tag_99:\n      0x00\n        /* \"#utility.yul\":9197:9199   */\n      0x20\n        /* \"#utility.yul\":9186:9195   */\n      dup3\n        /* \"#utility.yul\":9182:9200   */\n      add\n        /* \"#utility.yul\":9174:9200   */\n      swap1\n      pop\n        /* \"#utility.yul\":9246:9255   */\n      dup2\n        /* \"#utility.yul\":9240:9244   */\n      dup2\n        /* \"#utility.yul\":9236:9256   */\n      sub\n        /* \"#utility.yul\":9232:9233   */\n      0x00\n        /* \"#utility.yul\":9221:9230   */\n      dup4\n        /* \"#utility.yul\":9217:9234   */\n      add\n        /* \"#utility.yul\":9210:9257   */\n      mstore\n        /* \"#utility.yul\":9274:9405   */\n      tag_242\n        /* \"#utility.yul\":9400:9404   */\n      dup2\n        /* \"#utility.yul\":9274:9405   */\n      tag_202\n      jump\t// in\n    tag_242:\n        /* \"#utility.yul\":9266:9405   */\n      swap1\n      pop\n        /* \"#utility.yul\":9164:9412   */\n      swap2\n      swap1\n      pop\n      jump\t// out\n        /* \"#utility.yul\":9418:9837   */\n    tag_89:\n      0x00\n        /* \"#utility.yul\":9622:9624   */\n      0x20\n        /* \"#utility.yul\":9611:9620   */\n      dup3\n        /* \"#utility.yul\":9607:9625   */\n      add\n        /* \"#utility.yul\":9599:9625   */\n      swap1\n      pop\n        /* \"#utility.yul\":9671:9680   */\n      dup2\n        /* \"#utility.yul\":9665:9669   */\n      dup2\n        /* \"#utility.yul\":9661:9681   */\n      sub\n        /* \"#utility.yul\":9657:9658   */\n      0x00\n        /* \"#utility.yul\":9646:9655   */\n      dup4\n        /* \"#utility.yul\":9642:9659   */\n      add\n        /* \"#utility.yul\":9635:9682   */\n      mstore\n        /* \"#utility.yul\":9699:9830   */\n      tag_244\n        /* \"#utility.yul\":9825:9829   */\n      dup2\n        /* \"#utility.yul\":9699:9830   */\n      tag_205\n      jump\t// in\n    tag_244:\n        /* \"#utility.yul\":9691:9830   */\n      swap1\n      pop\n        /* \"#utility.yul\":9589:9837   */\n      swap2\n      swap1\n      pop\n      jump\t// out\n        /* \"#utility.yul\":9843:10262   */\n    tag_107:\n      0x00\n        /* \"#utility.yul\":10047:10049   */\n      0x20\n        /* \"#utility.yul\":10036:10045   */\n      dup3\n        /* \"#utility.yul\":10032:10050   */\n      add\n        /* \"#utility.yul\":10024:10050   */\n      swap1\n      pop\n        /* \"#utility.yul\":10096:10105   */\n      dup2\n        /* \"#utility.yul\":10090:10094   */\n      dup2\n        /* \"#utility.yul\":10086:10106   */\n      sub\n        /* \"#utility.yul\":10082:10083   */\n      0x00\n        /* \"#utility.yul\":10071:10080   */\n      dup4\n        /* \"#utility.yul\":10067:10084   */\n      add\n        /* \"#utility.yul\":10060:10107   */\n      mstore\n        /* \"#utility.yul\":10124:10255   */\n      tag_246\n        /* \"#utility.yul\":10250:10254   */\n      dup2\n        /* \"#utility.yul\":10124:10255   */\n      tag_208\n      jump\t// in\n    tag_246:\n        /* \"#utility.yul\":10116:10255   */\n      swap1\n      pop\n        /* \"#utility.yul\":10014:10262   */\n      swap2\n      swap1\n      pop\n      jump\t// out\n        /* \"#utility.yul\":10268:10687   */\n    tag_85:\n      0x00\n        /* \"#utility.yul\":10472:10474   */\n      0x20\n        /* \"#utility.yul\":10461:10470   */\n      dup3\n        /* \"#utility.yul\":10457:10475   */\n      add\n        /* \"#utility.yul\":10449:10475   */\n      swap1\n      pop\n        /* \"#utility.yul\":10521:10530   */\n      dup2\n        /* \"#utility.yul\":10515:10519   */\n      dup2\n        /* \"#utility.yul\":10511:10531   */\n      sub\n        /* \"#utility.yul\":10507:10508   */\n      0x00\n        /* \"#utility.yul\":10496:10505   */\n      dup4\n        /* \"#utility.yul\":10492:10509   */\n      add\n        /* \"#utility.yul\":10485:10532   */\n      mstore\n        /* \"#utility.yul\":10549:10680   */\n      tag_248\n        /* \"#utility.yul\":10675:10679   */\n      dup2\n        /* \"#utility.yul\":10549:10680   */\n      tag_211\n      jump\t// in\n    tag_248:\n        /* \"#utility.yul\":10541:10680   */\n      swap1\n      pop\n        /* \"#utility.yul\":10439:10687   */\n      swap2\n      swap1\n      pop\n      jump\t// out\n        /* \"#utility.yul\":10693:11112   */\n    tag_82:\n      0x00\n        /* \"#utility.yul\":10897:10899   */\n      0x20\n        /* \"#utility.yul\":10886:10895   */\n      dup3\n        /* \"#utility.yul\":10882:10900   */\n      add\n        /* \"#utility.yul\":10874:10900   */\n      swap1\n      pop\n        /* \"#utility.yul\":10946:10955   */\n      dup2\n        /* \"#utility.yul\":10940:10944   */\n      dup2\n        /* \"#utility.yul\":10936:10956   */\n      sub\n        /* \"#utility.yul\":10932:10933   */\n      0x00\n        /* \"#utility.yul\":10921:10930   */\n      dup4\n        /* \"#utility.yul\":10917:10934   */\n      add\n        /* \"#utility.yul\":10910:10957   */\n      mstore\n        /* \"#utility.yul\":10974:11105   */\n      tag_250\n        /* \"#utility.yul\":11100:11104   */\n      dup2\n        /* \"#utility.yul\":10974:11105   */\n      tag_214\n      jump\t// in\n    tag_250:\n        /* \"#utility.yul\":10966:11105   */\n      swap1\n      pop\n        /* \"#utility.yul\":10864:11112   */\n      swap2\n      swap1\n      pop\n      jump\t// out\n        /* \"#utility.yul\":11118:11450   */\n    tag_30:\n      0x00\n        /* \"#utility.yul\":11277:11279   */\n      0x40\n        /* \"#utility.yul\":11266:11275   */\n      dup3\n        /* \"#utility.yul\":11262:11280   */\n      add\n        /* \"#utility.yul\":11254:11280   */\n      swap1\n      pop\n        /* \"#utility.yul\":11290:11361   */\n      tag_252\n        /* \"#utility.yul\":11358:11359   */\n      0x00\n        /* \"#utility.yul\":11347:11356   */\n      dup4\n        /* \"#utility.yul\":11343:11360   */\n      add\n        /* \"#utility.yul\":11334:11340   */\n      dup6\n        /* \"#utility.yul\":11290:11361   */\n      tag_217\n      jump\t// in\n    tag_252:\n        /* \"#utility.yul\":11371:11443   */\n      tag_253\n        /* \"#utility.yul\":11439:11441   */\n      0x20\n        /* \"#utility.yul\":11428:11437   */\n      dup4\n        /* \"#utility.yul\":11424:11442   */\n      add\n        /* \"#utility.yul\":11415:11421   */\n      dup5\n        /* \"#utility.yul\":11371:11443   */\n      tag_217\n      jump\t// in\n    tag_253:\n        /* \"#utility.yul\":11244:11450   */\n      swap4\n      swap3\n      pop\n      pop\n      pop\n      jump\t// out\n        /* \"#utility.yul\":11456:11625   */\n    tag_192:\n      0x00\n        /* \"#utility.yul\":11574:11580   */\n      dup3\n        /* \"#utility.yul\":11569:11572   */\n      dup3\n        /* \"#utility.yul\":11562:11581   */\n      mstore\n        /* \"#utility.yul\":11614:11618   */\n      0x20\n        /* \"#utility.yul\":11609:11612   */\n      dup3\n        /* \"#utility.yul\":11605:11619   */\n      add\n        /* \"#utility.yul\":11590:11619   */\n      swap1\n      pop\n        /* \"#utility.yul\":11552:11625   */\n      swap3\n      swap2\n      pop\n      pop\n      jump\t// out\n        /* \"#utility.yul\":11631:11822   */\n    tag_109:\n      0x00\n        /* \"#utility.yul\":11691:11711   */\n      tag_256\n        /* \"#utility.yul\":11709:11710   */\n      dup3\n        /* \"#utility.yul\":11691:11711   */\n      tag_220\n      jump\t// in\n    tag_256:\n        /* \"#utility.yul\":11686:11711   */\n      swap2\n      pop\n        /* \"#utility.yul\":11725:11745   */\n      tag_257\n        /* \"#utility.yul\":11743:11744   */\n      dup4\n        /* \"#utility.yul\":11725:11745   */\n      tag_220\n      jump\t// in\n    tag_257:\n        /* \"#utility.yul\":11720:11745   */\n      swap3\n      pop\n        /* \"#utility.yul\":11764:11765   */\n      dup3\n        /* \"#utility.yul\":11761:11762   */\n      dup3\n        /* \"#utility.yul\":11758:11766   */\n      lt\n        /* \"#utility.yul\":11755:11757   */\n      iszero\n      tag_258\n      jumpi\n        /* \"#utility.yul\":11769:11787   */\n      tag_259\n      tag_260\n      jump\t// in\n    tag_259:\n        /* \"#utility.yul\":11755:11757   */\n    tag_258:\n        /* \"#utility.yul\":11814:11815   */\n      dup3\n        /* \"#utility.yul\":11811:11812   */\n      dup3\n        /* \"#utility.yul\":11807:11816   */\n      sub\n        /* \"#utility.yul\":11799:11816   */\n      swap1\n      pop\n        /* \"#utility.yul\":11676:11822   */\n      swap3\n      swap2\n      pop\n      pop\n      jump\t// out\n        /* \"#utility.yul\":11828:11924   */\n    tag_188:\n      0x00\n        /* \"#utility.yul\":11894:11918   */\n      tag_262\n        /* \"#utility.yul\":11912:11917   */\n      dup3\n        /* \"#utility.yul\":11894:11918   */\n      tag_263\n      jump\t// in\n    tag_262:\n        /* \"#utility.yul\":11883:11918   */\n      swap1\n      pop\n        /* \"#utility.yul\":11873:11924   */\n      swap2\n      swap1\n      pop\n      jump\t// out\n        /* \"#utility.yul\":11930:12020   */\n    tag_264:\n      0x00\n        /* \"#utility.yul\":12007:12012   */\n      dup2\n        /* \"#utility.yul\":12000:12013   */\n      iszero\n        /* \"#utility.yul\":11993:12014   */\n      iszero\n        /* \"#utility.yul\":11982:12014   */\n      swap1\n      pop\n        /* \"#utility.yul\":11972:12020   */\n      swap2\n      swap1\n      pop\n      jump\t// out\n        /* \"#utility.yul\":12026:12152   */\n    tag_263:\n      0x00\n        /* \"#utility.yul\":12103:12145   */\n      0xffffffffffffffffffffffffffffffffffffffff\n        /* \"#utility.yul\":12096:12101   */\n      dup3\n        /* \"#utility.yul\":12092:12146   */\n      and\n        /* \"#utility.yul\":12081:12146   */\n      swap1\n      pop\n        /* \"#utility.yul\":12071:12152   */\n      swap2\n      swap1\n      pop\n      jump\t// out\n        /* \"#utility.yul\":12158:12235   */\n    tag_220:\n      0x00\n        /* \"#utility.yul\":12224:12229   */\n      dup2\n        /* \"#utility.yul\":12213:12229   */\n      swap1\n      pop\n        /* \"#utility.yul\":12203:12235   */\n      swap2\n      swap1\n      pop\n      jump\t// out\n        /* \"#utility.yul\":12241:12421   */\n    tag_260:\n        /* \"#utility.yul\":12289:12366   */\n      0x4e487b7100000000000000000000000000000000000000000000000000000000\n        /* \"#utility.yul\":12286:12287   */\n      0x00\n        /* \"#utility.yul\":12279:12367   */\n      mstore\n        /* \"#utility.yul\":12386:12390   */\n      0x11\n        /* \"#utility.yul\":12383:12384   */\n      0x04\n        /* \"#utility.yul\":12376:12391   */\n      mstore\n        /* \"#utility.yul\":12410:12414   */\n      0x24\n        /* \"#utility.yul\":12407:12408   */\n      0x00\n        /* \"#utility.yul\":12400:12415   */\n      revert\n        /* \"#utility.yul\":12427:12549   */\n    tag_156:\n        /* \"#utility.yul\":12500:12524   */\n      tag_270\n        /* \"#utility.yul\":12518:12523   */\n      dup2\n        /* \"#utility.yul\":12500:12524   */\n      tag_188\n      jump\t// in\n    tag_270:\n        /* \"#utility.yul\":12493:12498   */\n      dup2\n        /* \"#utility.yul\":12490:12525   */\n      eq\n        /* \"#utility.yul\":12480:12482   */\n      tag_271\n      jumpi\n        /* \"#utility.yul\":12539:12540   */\n      0x00\n        /* \"#utility.yul\":12536:12537   */\n      dup1\n        /* \"#utility.yul\":12529:12541   */\n      revert\n        /* \"#utility.yul\":12480:12482   */\n    tag_271:\n        /* \"#utility.yul\":12470:12549   */\n      pop\n      jump\t// out\n        /* \"#utility.yul\":12555:12671   */\n    tag_160:\n        /* \"#utility.yul\":12625:12646   */\n      tag_273\n        /* \"#utility.yul\":12640:12645   */\n      dup2\n        /* \"#utility.yul\":12625:12646   */\n      tag_264\n      jump\t// in\n    tag_273:\n        /* \"#utility.yul\":12618:12623   */\n      dup2\n        /* \"#utility.yul\":12615:12647   */\n      eq\n        /* \"#utility.yul\":12605:12607   */\n      tag_274\n      jumpi\n        /* \"#utility.yul\":12661:12662   */\n      0x00\n        /* \"#utility.yul\":12658:12659   */\n      dup1\n        /* \"#utility.yul\":12651:12663   */\n      revert\n        /* \"#utility.yul\":12605:12607   */\n    tag_274:\n        /* \"#utility.yul\":12595:12671   */\n      pop\n      jump\t// out\n        /* \"#utility.yul\":12677:12799   */\n    tag_164:\n        /* \"#utility.yul\":12750:12774   */\n      tag_276\n        /* \"#utility.yul\":12768:12773   */\n      dup2\n        /* \"#utility.yul\":12750:12774   */\n      tag_220\n      jump\t// in\n    tag_276:\n        /* \"#utility.yul\":12743:12748   */\n      dup2\n        /* \"#utility.yul\":12740:12775   */\n      eq\n        /* \"#utility.yul\":12730:12732   */\n      tag_277\n      jumpi\n        /* \"#utility.yul\":12789:12790   */\n      0x00\n        /* \"#utility.yul\":12786:12787   */\n      dup1\n        /* \"#utility.yul\":12779:12791   */\n      revert\n        /* \"#utility.yul\":12730:12732   */\n    tag_277:\n        /* \"#utility.yul\":12720:12799   */\n      pop\n      jump\t// out\n\n    auxdata: 0xa26469706673582212205c95ebe9fa515f09316e1e6056233ee294736cf5ce777a5aca6bb823ebf0e5ee64736f6c63430008000033\n}\n",
				"bytecode": {
					"linkReferences": {},
					"object": "608060405234801561001057600080fd5b5061002d61002261003260201b60201c565b61003a60201b60201c565b6100fe565b600033905090565b60008060009054906101000a900473ffffffffffffffffffffffffffffffffffffffff169050816000806101000a81548173ffffffffffffffffffffffffffffffffffffffff021916908373ffffffffffffffffffffffffffffffffffffffff1602179055508173ffffffffffffffffffffffffffffffffffffffff168173ffffffffffffffffffffffffffffffffffffffff167f8be0079c531659141344cd1fd0a4f28419497f9722a3daafe3b4186f6b6457e060405160405180910390a35050565b6116538061010d6000396000f3fe608060405234801561001057600080fd5b506004361061007d5760003560e01c80638da5cb5b1161005b5780638da5cb5b146100c75780639cd441da146100e5578063f2fde38b14610116578063f3e6ea8a146101325761007d565b80631a727c26146100825780636f9632da146100a1578063715018a6146100bd575b600080fd5b61008a61014e565b60405161009892919061134a565b60405180910390f35b6100bb60048036038101906100b69190610f35565b61019f565b005b6100c561022d565b005b6100cf610241565b6040516100dc919061132f565b60405180910390f35b6100ff60048036038101906100fa9190610ffd565b61026a565b60405161010d9291906114f3565b60405180910390f35b610130600480360381019061012b9190610f0c565b61046b565b005b61014c60048036038101906101479190610f71565b6104ef565b005b600080600360009054906101000a900473ffffffffffffffffffffffffffffffffffffffff16600460009054906101000a900473ffffffffffffffffffffffffffffffffffffffff16915091509091565b6101a7610c52565b81600360006101000a81548173ffffffffffffffffffffffffffffffffffffffff021916908373ffffffffffffffffffffffffffffffffffffffff16021790555080600460006101000a81548173ffffffffffffffffffffffffffffffffffffffff021916908373ffffffffffffffffffffffffffffffffffffffff1602179055505050565b610235610c52565b61023f6000610cd0565b565b60008060009054906101000a900473ffffffffffffffffffffffffffffffffffffffff16905090565b600080610275610c52565b600360009054906101000a900473ffffffffffffffffffffffffffffffffffffffff1673ffffffffffffffffffffffffffffffffffffffff166323b872dd3330876040518463ffffffff1660e01b81526004016102d493929190611373565b602060405180830381600087803b1580156102ee57600080fd5b505af1158015610302573d6000803e3d6000fd5b505050506040513d601f19601f820116820180604052508101906103269190610fd4565b50600460009054906101000a900473ffffffffffffffffffffffffffffffffffffffff1673ffffffffffffffffffffffffffffffffffffffff166323b872dd3330866040518463ffffffff1660e01b815260040161038693929190611373565b602060405180830381600087803b1580156103a057600080fd5b505af11580156103b4573d6000803e3d6000fd5b505050506040513d601f19601f820116820180604052508101906103d89190610fd4565b506000806103e860015487610d94565b915091506000806103fb60025488610d94565b915091508380156104095750815b610448576040517f08c379a000000000000000000000000000000000000000000000000000000000815260040161043f906113f3565b60405180910390fd5b826001819055508060028190555060015460025495509550505050509250929050565b610473610c52565b600073ffffffffffffffffffffffffffffffffffffffff168173ffffffffffffffffffffffffffffffffffffffff1614156104e3576040517f08c379a00000000000000000000000000000000000000000000000000000000081526004016104da906113d3565b60405180910390fd5b6104ec81610cd0565b50565b600073ffffffffffffffffffffffffffffffffffffffff168473ffffffffffffffffffffffffffffffffffffffff16141561055f576040517f08c379a0000000000000000000000000000000000000000000000000000000008152600401610556906114d3565b60405180910390fd5b600073ffffffffffffffffffffffffffffffffffffffff168173ffffffffffffffffffffffffffffffffffffffff1614156105cf576040517f08c379a00000000000000000000000000000000000000000000000000000000081526004016105c6906114b3565b60405180910390fd5b600360009054906101000a900473ffffffffffffffffffffffffffffffffffffffff1673ffffffffffffffffffffffffffffffffffffffff168473ffffffffffffffffffffffffffffffffffffffff1614806106785750600460009054906101000a900473ffffffffffffffffffffffffffffffffffffffff1673ffffffffffffffffffffffffffffffffffffffff168473ffffffffffffffffffffffffffffffffffffffff16145b6106b7576040517f08c379a00000000000000000000000000000000000000000000000000000000081526004016106ae90611473565b60405180910390fd5b600360009054906101000a900473ffffffffffffffffffffffffffffffffffffffff1673ffffffffffffffffffffffffffffffffffffffff168473ffffffffffffffffffffffffffffffffffffffff16141561098357600360009054906101000a900473ffffffffffffffffffffffffffffffffffffffff1673ffffffffffffffffffffffffffffffffffffffff166323b872dd3330866040518463ffffffff1660e01b815260040161076c93929190611373565b602060405180830381600087803b15801561078657600080fd5b505af115801561079a573d6000803e3d6000fd5b505050506040513d601f19601f820116820180604052508101906107be9190610fd4565b506000806107ce60015486610d94565b9150915081610812576040517f08c379a000000000000000000000000000000000000000000000000000000000815260040161080990611453565b60405180910390fd5b80600181905550600061082a86600254600154610dc3565b905084811161086e576040517f08c379a000000000000000000000000000000000000000000000000000000000815260040161086590611413565b60405180910390fd5b60025481106108b2576040517f08c379a00000000000000000000000000000000000000000000000000000000081526004016108a990611493565b60405180910390fd5b80600260008282546108c4919061152d565b92505081905550600460009054906101000a900473ffffffffffffffffffffffffffffffffffffffff1673ffffffffffffffffffffffffffffffffffffffff1663a9059cbb85836040518363ffffffff1660e01b81526004016109289291906113aa565b602060405180830381600087803b15801561094257600080fd5b505af1158015610956573d6000803e3d6000fd5b505050506040513d601f19601f8201168201806040525081019061097a9190610fd4565b50505050610c4c565b600460009054906101000a900473ffffffffffffffffffffffffffffffffffffffff1673ffffffffffffffffffffffffffffffffffffffff168473ffffffffffffffffffffffffffffffffffffffff161415610c4b57600360009054906101000a900473ffffffffffffffffffffffffffffffffffffffff1673ffffffffffffffffffffffffffffffffffffffff166323b872dd3330866040518463ffffffff1660e01b8152600401610a3893929190611373565b602060405180830381600087803b158015610a5257600080fd5b505af1158015610a66573d6000803e3d6000fd5b505050506040513d601f19601f82011682018060405250810190610a8a9190610fd4565b50600080610a9a60025486610d94565b9150915081610ade576040517f08c379a0000000000000000000000000000000000000000000000000000000008152600401610ad590611453565b60405180910390fd5b806002819055506000610af686600154600254610dc3565b9050848111610b3a576040517f08c379a0000000000000000000000000000000000000000000000000000000008152600401610b3190611413565b60405180910390fd5b6001548110610b7e576040517f08c379a0000000000000000000000000000000000000000000000000000000008152600401610b7590611493565b60405180910390fd5b8060016000828254610b90919061152d565b92505081905550600360009054906101000a900473ffffffffffffffffffffffffffffffffffffffff1673ffffffffffffffffffffffffffffffffffffffff1663a9059cbb85836040518363ffffffff1660e01b8152600401610bf49291906113aa565b602060405180830381600087803b158015610c0e57600080fd5b505af1158015610c22573d6000803e3d6000fd5b505050506040513d601f19601f82011682018060405250810190610c469190610fd4565b505050505b5b50505050565b610c5a610ec5565b73ffffffffffffffffffffffffffffffffffffffff16610c78610241565b73ffffffffffffffffffffffffffffffffffffffff1614610cce576040517f08c379a0000000000000000000000000000000000000000000000000000000008152600401610cc590611433565b60405180910390fd5b565b60008060009054906101000a900473ffffffffffffffffffffffffffffffffffffffff169050816000806101000a81548173ffffffffffffffffffffffffffffffffffffffff021916908373ffffffffffffffffffffffffffffffffffffffff1602179055508173ffffffffffffffffffffffffffffffffffffffff168173ffffffffffffffffffffffffffffffffffffffff167f8be0079c531659141344cd1fd0a4f28419497f9722a3daafe3b4186f6b6457e060405160405180910390a35050565b6000806000838501905084811015610db3576000809250925050610dbc565b60018192509250505b9250929050565b600080600080198587098587029250828110838203039150506000811415610e2557838281610e1b577f4e487b7100000000000000000000000000000000000000000000000000000000600052601260045260246000fd5b0492505050610ebe565b808411610e3157600080fd5b60008486880990508281118203915080830392506000600186190186169050808604955080840493506001818260000304019050808302841793506000600287600302189050808702600203810290508087026002038102905080870260020381029050808702600203810290508087026002038102905080870260020381029050808502955050505050505b9392505050565b600033905090565b600081359050610edc816115d8565b92915050565b600081519050610ef1816115ef565b92915050565b600081359050610f0681611606565b92915050565b600060208284031215610f1e57600080fd5b6000610f2c84828501610ecd565b91505092915050565b60008060408385031215610f4857600080fd5b6000610f5685828601610ecd565b9250506020610f6785828601610ecd565b9150509250929050565b60008060008060808587031215610f8757600080fd5b6000610f9587828801610ecd565b9450506020610fa687828801610ef7565b9350506040610fb787828801610ef7565b9250506060610fc887828801610ecd565b91505092959194509250565b600060208284031215610fe657600080fd5b6000610ff484828501610ee2565b91505092915050565b6000806040838503121561101057600080fd5b600061101e85828601610ef7565b925050602061102f85828601610ef7565b9150509250929050565b61104281611561565b82525050565b600061105560268361151c565b91507f4f776e61626c653a206e6577206f776e657220697320746865207a65726f206160008301527f64647265737300000000000000000000000000000000000000000000000000006020830152604082019050919050565b60006110bb601d8361151c565b91507f616464206661696c202c20627920536166654d6174682e7472794164640000006000830152602082019050919050565b60006110fb60218361151c565b91507f616d6f756e744f7574206c657373207468616e205f616d6f756e744f75744d6960008301527f6e000000000000000000000000000000000000000000000000000000000000006020830152604082019050919050565b600061116160208361151c565b91507f4f776e61626c653a2063616c6c6572206973206e6f7420746865206f776e65726000830152602082019050919050565b60006111a1602d8361151c565b91507f746f6b656e496e20616d6f756e7420616464206661696c2c20736f757263652060008301527f66726f6d20736166654d617468000000000000000000000000000000000000006020830152604082019050919050565b600061120760268361151c565b91507f746f6b656e496e206d7573742062652041206f7220422074686174206861732060008301527f62652073657400000000000000000000000000000000000000000000000000006020830152604082019050919050565b600061126d601a8361151c565b91507f746f6b656e4f757420616d6f756e74206e6f7420656e6f7567680000000000006000830152602082019050919050565b60006112ad601b8361151c565b91507f5f746f2063616e206e6f74206265207a65726f206164647265737300000000006000830152602082019050919050565b60006112ed601f8361151c565b91507f746f6b656e496e2063616e206e6f74206265207a65726f2061646472657373006000830152602082019050919050565b6113298161159f565b82525050565b60006020820190506113446000830184611039565b92915050565b600060408201905061135f6000830185611039565b61136c6020830184611039565b9392505050565b60006060820190506113886000830186611039565b6113956020830185611039565b6113a26040830184611320565b949350505050565b60006040820190506113bf6000830185611039565b6113cc6020830184611320565b9392505050565b600060208201905081810360008301526113ec81611048565b9050919050565b6000602082019050818103600083015261140c816110ae565b9050919050565b6000602082019050818103600083015261142c816110ee565b9050919050565b6000602082019050818103600083015261144c81611154565b9050919050565b6000602082019050818103600083015261146c81611194565b9050919050565b6000602082019050818103600083015261148c816111fa565b9050919050565b600060208201905081810360008301526114ac81611260565b9050919050565b600060208201905081810360008301526114cc816112a0565b9050919050565b600060208201905081810360008301526114ec816112e0565b9050919050565b60006040820190506115086000830185611320565b6115156020830184611320565b9392505050565b600082825260208201905092915050565b60006115388261159f565b91506115438361159f565b925082821015611556576115556115a9565b5b828203905092915050565b600061156c8261157f565b9050919050565b60008115159050919050565b600073ffffffffffffffffffffffffffffffffffffffff82169050919050565b6000819050919050565b7f4e487b7100000000000000000000000000000000000000000000000000000000600052601160045260246000fd5b6115e181611561565b81146115ec57600080fd5b50565b6115f881611573565b811461160357600080fd5b50565b61160f8161159f565b811461161a57600080fd5b5056fea26469706673582212205c95ebe9fa515f09316e1e6056233ee294736cf5ce777a5aca6bb823ebf0e5ee64736f6c63430008000033",
					"opcodes": "PUSH1 0x80 PUSH1 0x40 MSTORE CALLVALUE DUP1 ISZERO PUSH2 0x10 JUMPI PUSH1 0x0 DUP1 REVERT JUMPDEST POP PUSH2 0x2D PUSH2 0x22 PUSH2 0x32 PUSH1 0x20 SHL PUSH1 0x20 SHR JUMP JUMPDEST PUSH2 0x3A PUSH1 0x20 SHL PUSH1 0x20 SHR JUMP JUMPDEST PUSH2 0xFE JUMP JUMPDEST PUSH1 0x0 CALLER SWAP1 POP SWAP1 JUMP JUMPDEST PUSH1 0x0 DUP1 PUSH1 0x0 SWAP1 SLOAD SWAP1 PUSH2 0x100 EXP SWAP1 DIV PUSH20 0xFFFFFFFFFFFFFFFFFFFFFFFFFFFFFFFFFFFFFFFF AND SWAP1 POP DUP2 PUSH1 0x0 DUP1 PUSH2 0x100 EXP DUP2 SLOAD DUP2 PUSH20 0xFFFFFFFFFFFFFFFFFFFFFFFFFFFFFFFFFFFFFFFF MUL NOT AND SWAP1 DUP4 PUSH20 0xFFFFFFFFFFFFFFFFFFFFFFFFFFFFFFFFFFFFFFFF AND MUL OR SWAP1 SSTORE POP DUP2 PUSH20 0xFFFFFFFFFFFFFFFFFFFFFFFFFFFFFFFFFFFFFFFF AND DUP2 PUSH20 0xFFFFFFFFFFFFFFFFFFFFFFFFFFFFFFFFFFFFFFFF AND PUSH32 0x8BE0079C531659141344CD1FD0A4F28419497F9722A3DAAFE3B4186F6B6457E0 PUSH1 0x40 MLOAD PUSH1 0x40 MLOAD DUP1 SWAP2 SUB SWAP1 LOG3 POP POP JUMP JUMPDEST PUSH2 0x1653 DUP1 PUSH2 0x10D PUSH1 0x0 CODECOPY PUSH1 0x0 RETURN INVALID PUSH1 0x80 PUSH1 0x40 MSTORE CALLVALUE DUP1 ISZERO PUSH2 0x10 JUMPI PUSH1 0x0 DUP1 REVERT JUMPDEST POP PUSH1 0x4 CALLDATASIZE LT PUSH2 0x7D JUMPI PUSH1 0x0 CALLDATALOAD PUSH1 0xE0 SHR DUP1 PUSH4 0x8DA5CB5B GT PUSH2 0x5B JUMPI DUP1 PUSH4 0x8DA5CB5B EQ PUSH2 0xC7 JUMPI DUP1 PUSH4 0x9CD441DA EQ PUSH2 0xE5 JUMPI DUP1 PUSH4 0xF2FDE38B EQ PUSH2 0x116 JUMPI DUP1 PUSH4 0xF3E6EA8A EQ PUSH2 0x132 JUMPI PUSH2 0x7D JUMP JUMPDEST DUP1 PUSH4 0x1A727C26 EQ PUSH2 0x82 JUMPI DUP1 PUSH4 0x6F9632DA EQ PUSH2 0xA1 JUMPI DUP1 PUSH4 0x715018A6 EQ PUSH2 0xBD JUMPI JUMPDEST PUSH1 0x0 DUP1 REVERT JUMPDEST PUSH2 0x8A PUSH2 0x14E JUMP JUMPDEST PUSH1 0x40 MLOAD PUSH2 0x98 SWAP3 SWAP2 SWAP1 PUSH2 0x134A JUMP JUMPDEST PUSH1 0x40 MLOAD DUP1 SWAP2 SUB SWAP1 RETURN JUMPDEST PUSH2 0xBB PUSH1 0x4 DUP1 CALLDATASIZE SUB DUP2 ADD SWAP1 PUSH2 0xB6 SWAP2 SWAP1 PUSH2 0xF35 JUMP JUMPDEST PUSH2 0x19F JUMP JUMPDEST STOP JUMPDEST PUSH2 0xC5 PUSH2 0x22D JUMP JUMPDEST STOP JUMPDEST PUSH2 0xCF PUSH2 0x241 JUMP JUMPDEST PUSH1 0x40 MLOAD PUSH2 0xDC SWAP2 SWAP1 PUSH2 0x132F JUMP JUMPDEST PUSH1 0x40 MLOAD DUP1 SWAP2 SUB SWAP1 RETURN JUMPDEST PUSH2 0xFF PUSH1 0x4 DUP1 CALLDATASIZE SUB DUP2 ADD SWAP1 PUSH2 0xFA SWAP2 SWAP1 PUSH2 0xFFD JUMP JUMPDEST PUSH2 0x26A JUMP JUMPDEST PUSH1 0x40 MLOAD PUSH2 0x10D SWAP3 SWAP2 SWAP1 PUSH2 0x14F3 JUMP JUMPDEST PUSH1 0x40 MLOAD DUP1 SWAP2 SUB SWAP1 RETURN JUMPDEST PUSH2 0x130 PUSH1 0x4 DUP1 CALLDATASIZE SUB DUP2 ADD SWAP1 PUSH2 0x12B SWAP2 SWAP1 PUSH2 0xF0C JUMP JUMPDEST PUSH2 0x46B JUMP JUMPDEST STOP JUMPDEST PUSH2 0x14C PUSH1 0x4 DUP1 CALLDATASIZE SUB DUP2 ADD SWAP1 PUSH2 0x147 SWAP2 SWAP1 PUSH2 0xF71 JUMP JUMPDEST PUSH2 0x4EF JUMP JUMPDEST STOP JUMPDEST PUSH1 0x0 DUP1 PUSH1 0x3 PUSH1 0x0 SWAP1 SLOAD SWAP1 PUSH2 0x100 EXP SWAP1 DIV PUSH20 0xFFFFFFFFFFFFFFFFFFFFFFFFFFFFFFFFFFFFFFFF AND PUSH1 0x4 PUSH1 0x0 SWAP1 SLOAD SWAP1 PUSH2 0x100 EXP SWAP1 DIV PUSH20 0xFFFFFFFFFFFFFFFFFFFFFFFFFFFFFFFFFFFFFFFF AND SWAP2 POP SWAP2 POP SWAP1 SWAP2 JUMP JUMPDEST PUSH2 0x1A7 PUSH2 0xC52 JUMP JUMPDEST DUP2 PUSH1 0x3 PUSH1 0x0 PUSH2 0x100 EXP DUP2 SLOAD DUP2 PUSH20 0xFFFFFFFFFFFFFFFFFFFFFFFFFFFFFFFFFFFFFFFF MUL NOT AND SWAP1 DUP4 PUSH20 0xFFFFFFFFFFFFFFFFFFFFFFFFFFFFFFFFFFFFFFFF AND MUL OR SWAP1 SSTORE POP DUP1 PUSH1 0x4 PUSH1 0x0 PUSH2 0x100 EXP DUP2 SLOAD DUP2 PUSH20 0xFFFFFFFFFFFFFFFFFFFFFFFFFFFFFFFFFFFFFFFF MUL NOT AND SWAP1 DUP4 PUSH20 0xFFFFFFFFFFFFFFFFFFFFFFFFFFFFFFFFFFFFFFFF AND MUL OR SWAP1 SSTORE POP POP POP JUMP JUMPDEST PUSH2 0x235 PUSH2 0xC52 JUMP JUMPDEST PUSH2 0x23F PUSH1 0x0 PUSH2 0xCD0 JUMP JUMPDEST JUMP JUMPDEST PUSH1 0x0 DUP1 PUSH1 0x0 SWAP1 SLOAD SWAP1 PUSH2 0x100 EXP SWAP1 DIV PUSH20 0xFFFFFFFFFFFFFFFFFFFFFFFFFFFFFFFFFFFFFFFF AND SWAP1 POP SWAP1 JUMP JUMPDEST PUSH1 0x0 DUP1 PUSH2 0x275 PUSH2 0xC52 JUMP JUMPDEST PUSH1 0x3 PUSH1 0x0 SWAP1 SLOAD SWAP1 PUSH2 0x100 EXP SWAP1 DIV PUSH20 0xFFFFFFFFFFFFFFFFFFFFFFFFFFFFFFFFFFFFFFFF AND PUSH20 0xFFFFFFFFFFFFFFFFFFFFFFFFFFFFFFFFFFFFFFFF AND PUSH4 0x23B872DD CALLER ADDRESS DUP8 PUSH1 0x40 MLOAD DUP5 PUSH4 0xFFFFFFFF AND PUSH1 0xE0 SHL DUP2 MSTORE PUSH1 0x4 ADD PUSH2 0x2D4 SWAP4 SWAP3 SWAP2 SWAP1 PUSH2 0x1373 JUMP JUMPDEST PUSH1 0x20 PUSH1 0x40 MLOAD DUP1 DUP4 SUB DUP2 PUSH1 0x0 DUP8 DUP1 EXTCODESIZE ISZERO DUP1 ISZERO PUSH2 0x2EE JUMPI PUSH1 0x0 DUP1 REVERT JUMPDEST POP GAS CALL ISZERO DUP1 ISZERO PUSH2 0x302 JUMPI RETURNDATASIZE PUSH1 0x0 DUP1 RETURNDATACOPY RETURNDATASIZE PUSH1 0x0 REVERT JUMPDEST POP POP POP POP PUSH1 0x40 MLOAD RETURNDATASIZE PUSH1 0x1F NOT PUSH1 0x1F DUP3 ADD AND DUP3 ADD DUP1 PUSH1 0x40 MSTORE POP DUP2 ADD SWAP1 PUSH2 0x326 SWAP2 SWAP1 PUSH2 0xFD4 JUMP JUMPDEST POP PUSH1 0x4 PUSH1 0x0 SWAP1 SLOAD SWAP1 PUSH2 0x100 EXP SWAP1 DIV PUSH20 0xFFFFFFFFFFFFFFFFFFFFFFFFFFFFFFFFFFFFFFFF AND PUSH20 0xFFFFFFFFFFFFFFFFFFFFFFFFFFFFFFFFFFFFFFFF AND PUSH4 0x23B872DD CALLER ADDRESS DUP7 PUSH1 0x40 MLOAD DUP5 PUSH4 0xFFFFFFFF AND PUSH1 0xE0 SHL DUP2 MSTORE PUSH1 0x4 ADD PUSH2 0x386 SWAP4 SWAP3 SWAP2 SWAP1 PUSH2 0x1373 JUMP JUMPDEST PUSH1 0x20 PUSH1 0x40 MLOAD DUP1 DUP4 SUB DUP2 PUSH1 0x0 DUP8 DUP1 EXTCODESIZE ISZERO DUP1 ISZERO PUSH2 0x3A0 JUMPI PUSH1 0x0 DUP1 REVERT JUMPDEST POP GAS CALL ISZERO DUP1 ISZERO PUSH2 0x3B4 JUMPI RETURNDATASIZE PUSH1 0x0 DUP1 RETURNDATACOPY RETURNDATASIZE PUSH1 0x0 REVERT JUMPDEST POP POP POP POP PUSH1 0x40 MLOAD RETURNDATASIZE PUSH1 0x1F NOT PUSH1 0x1F DUP3 ADD AND DUP3 ADD DUP1 PUSH1 0x40 MSTORE POP DUP2 ADD SWAP1 PUSH2 0x3D8 SWAP2 SWAP1 PUSH2 0xFD4 JUMP JUMPDEST POP PUSH1 0x0 DUP1 PUSH2 0x3E8 PUSH1 0x1 SLOAD DUP8 PUSH2 0xD94 JUMP JUMPDEST SWAP2 POP SWAP2 POP PUSH1 0x0 DUP1 PUSH2 0x3FB PUSH1 0x2 SLOAD DUP9 PUSH2 0xD94 JUMP JUMPDEST SWAP2 POP SWAP2 POP DUP4 DUP1 ISZERO PUSH2 0x409 JUMPI POP DUP2 JUMPDEST PUSH2 0x448 JUMPI PUSH1 0x40 MLOAD PUSH32 0x8C379A000000000000000000000000000000000000000000000000000000000 DUP2 MSTORE PUSH1 0x4 ADD PUSH2 0x43F SWAP1 PUSH2 0x13F3 JUMP JUMPDEST PUSH1 0x40 MLOAD DUP1 SWAP2 SUB SWAP1 REVERT JUMPDEST DUP3 PUSH1 0x1 DUP2 SWAP1 SSTORE POP DUP1 PUSH1 0x2 DUP2 SWAP1 SSTORE POP PUSH1 0x1 SLOAD PUSH1 0x2 SLOAD SWAP6 POP SWAP6 POP POP POP POP POP SWAP3 POP SWAP3 SWAP1 POP JUMP JUMPDEST PUSH2 0x473 PUSH2 0xC52 JUMP JUMPDEST PUSH1 0x0 PUSH20 0xFFFFFFFFFFFFFFFFFFFFFFFFFFFFFFFFFFFFFFFF AND DUP2 PUSH20 0xFFFFFFFFFFFFFFFFFFFFFFFFFFFFFFFFFFFFFFFF AND EQ ISZERO PUSH2 0x4E3 JUMPI PUSH1 0x40 MLOAD PUSH32 0x8C379A000000000000000000000000000000000000000000000000000000000 DUP2 MSTORE PUSH1 0x4 ADD PUSH2 0x4DA SWAP1 PUSH2 0x13D3 JUMP JUMPDEST PUSH1 0x40 MLOAD DUP1 SWAP2 SUB SWAP1 REVERT JUMPDEST PUSH2 0x4EC DUP2 PUSH2 0xCD0 JUMP JUMPDEST POP JUMP JUMPDEST PUSH1 0x0 PUSH20 0xFFFFFFFFFFFFFFFFFFFFFFFFFFFFFFFFFFFFFFFF AND DUP5 PUSH20 0xFFFFFFFFFFFFFFFFFFFFFFFFFFFFFFFFFFFFFFFF AND EQ ISZERO PUSH2 0x55F JUMPI PUSH1 0x40 MLOAD PUSH32 0x8C379A000000000000000000000000000000000000000000000000000000000 DUP2 MSTORE PUSH1 0x4 ADD PUSH2 0x556 SWAP1 PUSH2 0x14D3 JUMP JUMPDEST PUSH1 0x40 MLOAD DUP1 SWAP2 SUB SWAP1 REVERT JUMPDEST PUSH1 0x0 PUSH20 0xFFFFFFFFFFFFFFFFFFFFFFFFFFFFFFFFFFFFFFFF AND DUP2 PUSH20 0xFFFFFFFFFFFFFFFFFFFFFFFFFFFFFFFFFFFFFFFF AND EQ ISZERO PUSH2 0x5CF JUMPI PUSH1 0x40 MLOAD PUSH32 0x8C379A000000000000000000000000000000000000000000000000000000000 DUP2 MSTORE PUSH1 0x4 ADD PUSH2 0x5C6 SWAP1 PUSH2 0x14B3 JUMP JUMPDEST PUSH1 0x40 MLOAD DUP1 SWAP2 SUB SWAP1 REVERT JUMPDEST PUSH1 0x3 PUSH1 0x0 SWAP1 SLOAD SWAP1 PUSH2 0x100 EXP SWAP1 DIV PUSH20 0xFFFFFFFFFFFFFFFFFFFFFFFFFFFFFFFFFFFFFFFF AND PUSH20 0xFFFFFFFFFFFFFFFFFFFFFFFFFFFFFFFFFFFFFFFF AND DUP5 PUSH20 0xFFFFFFFFFFFFFFFFFFFFFFFFFFFFFFFFFFFFFFFF AND EQ DUP1 PUSH2 0x678 JUMPI POP PUSH1 0x4 PUSH1 0x0 SWAP1 SLOAD SWAP1 PUSH2 0x100 EXP SWAP1 DIV PUSH20 0xFFFFFFFFFFFFFFFFFFFFFFFFFFFFFFFFFFFFFFFF AND PUSH20 0xFFFFFFFFFFFFFFFFFFFFFFFFFFFFFFFFFFFFFFFF AND DUP5 PUSH20 0xFFFFFFFFFFFFFFFFFFFFFFFFFFFFFFFFFFFFFFFF AND EQ JUMPDEST PUSH2 0x6B7 JUMPI PUSH1 0x40 MLOAD PUSH32 0x8C379A000000000000000000000000000000000000000000000000000000000 DUP2 MSTORE PUSH1 0x4 ADD PUSH2 0x6AE SWAP1 PUSH2 0x1473 JUMP JUMPDEST PUSH1 0x40 MLOAD DUP1 SWAP2 SUB SWAP1 REVERT JUMPDEST PUSH1 0x3 PUSH1 0x0 SWAP1 SLOAD SWAP1 PUSH2 0x100 EXP SWAP1 DIV PUSH20 0xFFFFFFFFFFFFFFFFFFFFFFFFFFFFFFFFFFFFFFFF AND PUSH20 0xFFFFFFFFFFFFFFFFFFFFFFFFFFFFFFFFFFFFFFFF AND DUP5 PUSH20 0xFFFFFFFFFFFFFFFFFFFFFFFFFFFFFFFFFFFFFFFF AND EQ ISZERO PUSH2 0x983 JUMPI PUSH1 0x3 PUSH1 0x0 SWAP1 SLOAD SWAP1 PUSH2 0x100 EXP SWAP1 DIV PUSH20 0xFFFFFFFFFFFFFFFFFFFFFFFFFFFFFFFFFFFFFFFF AND PUSH20 0xFFFFFFFFFFFFFFFFFFFFFFFFFFFFFFFFFFFFFFFF AND PUSH4 0x23B872DD CALLER ADDRESS DUP7 PUSH1 0x40 MLOAD DUP5 PUSH4 0xFFFFFFFF AND PUSH1 0xE0 SHL DUP2 MSTORE PUSH1 0x4 ADD PUSH2 0x76C SWAP4 SWAP3 SWAP2 SWAP1 PUSH2 0x1373 JUMP JUMPDEST PUSH1 0x20 PUSH1 0x40 MLOAD DUP1 DUP4 SUB DUP2 PUSH1 0x0 DUP8 DUP1 EXTCODESIZE ISZERO DUP1 ISZERO PUSH2 0x786 JUMPI PUSH1 0x0 DUP1 REVERT JUMPDEST POP GAS CALL ISZERO DUP1 ISZERO PUSH2 0x79A JUMPI RETURNDATASIZE PUSH1 0x0 DUP1 RETURNDATACOPY RETURNDATASIZE PUSH1 0x0 REVERT JUMPDEST POP POP POP POP PUSH1 0x40 MLOAD RETURNDATASIZE PUSH1 0x1F NOT PUSH1 0x1F DUP3 ADD AND DUP3 ADD DUP1 PUSH1 0x40 MSTORE POP DUP2 ADD SWAP1 PUSH2 0x7BE SWAP2 SWAP1 PUSH2 0xFD4 JUMP JUMPDEST POP PUSH1 0x0 DUP1 PUSH2 0x7CE PUSH1 0x1 SLOAD DUP7 PUSH2 0xD94 JUMP JUMPDEST SWAP2 POP SWAP2 POP DUP2 PUSH2 0x812 JUMPI PUSH1 0x40 MLOAD PUSH32 0x8C379A000000000000000000000000000000000000000000000000000000000 DUP2 MSTORE PUSH1 0x4 ADD PUSH2 0x809 SWAP1 PUSH2 0x1453 JUMP JUMPDEST PUSH1 0x40 MLOAD DUP1 SWAP2 SUB SWAP1 REVERT JUMPDEST DUP1 PUSH1 0x1 DUP2 SWAP1 SSTORE POP PUSH1 0x0 PUSH2 0x82A DUP7 PUSH1 0x2 SLOAD PUSH1 0x1 SLOAD PUSH2 0xDC3 JUMP JUMPDEST SWAP1 POP DUP5 DUP2 GT PUSH2 0x86E JUMPI PUSH1 0x40 MLOAD PUSH32 0x8C379A000000000000000000000000000000000000000000000000000000000 DUP2 MSTORE PUSH1 0x4 ADD PUSH2 0x865 SWAP1 PUSH2 0x1413 JUMP JUMPDEST PUSH1 0x40 MLOAD DUP1 SWAP2 SUB SWAP1 REVERT JUMPDEST PUSH1 0x2 SLOAD DUP2 LT PUSH2 0x8B2 JUMPI PUSH1 0x40 MLOAD PUSH32 0x8C379A000000000000000000000000000000000000000000000000000000000 DUP2 MSTORE PUSH1 0x4 ADD PUSH2 0x8A9 SWAP1 PUSH2 0x1493 JUMP JUMPDEST PUSH1 0x40 MLOAD DUP1 SWAP2 SUB SWAP1 REVERT JUMPDEST DUP1 PUSH1 0x2 PUSH1 0x0 DUP3 DUP3 SLOAD PUSH2 0x8C4 SWAP2 SWAP1 PUSH2 0x152D JUMP JUMPDEST SWAP3 POP POP DUP2 SWAP1 SSTORE POP PUSH1 0x4 PUSH1 0x0 SWAP1 SLOAD SWAP1 PUSH2 0x100 EXP SWAP1 DIV PUSH20 0xFFFFFFFFFFFFFFFFFFFFFFFFFFFFFFFFFFFFFFFF AND PUSH20 0xFFFFFFFFFFFFFFFFFFFFFFFFFFFFFFFFFFFFFFFF AND PUSH4 0xA9059CBB DUP6 DUP4 PUSH1 0x40 MLOAD DUP4 PUSH4 0xFFFFFFFF AND PUSH1 0xE0 SHL DUP2 MSTORE PUSH1 0x4 ADD PUSH2 0x928 SWAP3 SWAP2 SWAP1 PUSH2 0x13AA JUMP JUMPDEST PUSH1 0x20 PUSH1 0x40 MLOAD DUP1 DUP4 SUB DUP2 PUSH1 0x0 DUP8 DUP1 EXTCODESIZE ISZERO DUP1 ISZERO PUSH2 0x942 JUMPI PUSH1 0x0 DUP1 REVERT JUMPDEST POP GAS CALL ISZERO DUP1 ISZERO PUSH2 0x956 JUMPI RETURNDATASIZE PUSH1 0x0 DUP1 RETURNDATACOPY RETURNDATASIZE PUSH1 0x0 REVERT JUMPDEST POP POP POP POP PUSH1 0x40 MLOAD RETURNDATASIZE PUSH1 0x1F NOT PUSH1 0x1F DUP3 ADD AND DUP3 ADD DUP1 PUSH1 0x40 MSTORE POP DUP2 ADD SWAP1 PUSH2 0x97A SWAP2 SWAP1 PUSH2 0xFD4 JUMP JUMPDEST POP POP POP POP PUSH2 0xC4C JUMP JUMPDEST PUSH1 0x4 PUSH1 0x0 SWAP1 SLOAD SWAP1 PUSH2 0x100 EXP SWAP1 DIV PUSH20 0xFFFFFFFFFFFFFFFFFFFFFFFFFFFFFFFFFFFFFFFF AND PUSH20 0xFFFFFFFFFFFFFFFFFFFFFFFFFFFFFFFFFFFFFFFF AND DUP5 PUSH20 0xFFFFFFFFFFFFFFFFFFFFFFFFFFFFFFFFFFFFFFFF AND EQ ISZERO PUSH2 0xC4B JUMPI PUSH1 0x3 PUSH1 0x0 SWAP1 SLOAD SWAP1 PUSH2 0x100 EXP SWAP1 DIV PUSH20 0xFFFFFFFFFFFFFFFFFFFFFFFFFFFFFFFFFFFFFFFF AND PUSH20 0xFFFFFFFFFFFFFFFFFFFFFFFFFFFFFFFFFFFFFFFF AND PUSH4 0x23B872DD CALLER ADDRESS DUP7 PUSH1 0x40 MLOAD DUP5 PUSH4 0xFFFFFFFF AND PUSH1 0xE0 SHL DUP2 MSTORE PUSH1 0x4 ADD PUSH2 0xA38 SWAP4 SWAP3 SWAP2 SWAP1 PUSH2 0x1373 JUMP JUMPDEST PUSH1 0x20 PUSH1 0x40 MLOAD DUP1 DUP4 SUB DUP2 PUSH1 0x0 DUP8 DUP1 EXTCODESIZE ISZERO DUP1 ISZERO PUSH2 0xA52 JUMPI PUSH1 0x0 DUP1 REVERT JUMPDEST POP GAS CALL ISZERO DUP1 ISZERO PUSH2 0xA66 JUMPI RETURNDATASIZE PUSH1 0x0 DUP1 RETURNDATACOPY RETURNDATASIZE PUSH1 0x0 REVERT JUMPDEST POP POP POP POP PUSH1 0x40 MLOAD RETURNDATASIZE PUSH1 0x1F NOT PUSH1 0x1F DUP3 ADD AND DUP3 ADD DUP1 PUSH1 0x40 MSTORE POP DUP2 ADD SWAP1 PUSH2 0xA8A SWAP2 SWAP1 PUSH2 0xFD4 JUMP JUMPDEST POP PUSH1 0x0 DUP1 PUSH2 0xA9A PUSH1 0x2 SLOAD DUP7 PUSH2 0xD94 JUMP JUMPDEST SWAP2 POP SWAP2 POP DUP2 PUSH2 0xADE JUMPI PUSH1 0x40 MLOAD PUSH32 0x8C379A000000000000000000000000000000000000000000000000000000000 DUP2 MSTORE PUSH1 0x4 ADD PUSH2 0xAD5 SWAP1 PUSH2 0x1453 JUMP JUMPDEST PUSH1 0x40 MLOAD DUP1 SWAP2 SUB SWAP1 REVERT JUMPDEST DUP1 PUSH1 0x2 DUP2 SWAP1 SSTORE POP PUSH1 0x0 PUSH2 0xAF6 DUP7 PUSH1 0x1 SLOAD PUSH1 0x2 SLOAD PUSH2 0xDC3 JUMP JUMPDEST SWAP1 POP DUP5 DUP2 GT PUSH2 0xB3A JUMPI PUSH1 0x40 MLOAD PUSH32 0x8C379A000000000000000000000000000000000000000000000000000000000 DUP2 MSTORE PUSH1 0x4 ADD PUSH2 0xB31 SWAP1 PUSH2 0x1413 JUMP JUMPDEST PUSH1 0x40 MLOAD DUP1 SWAP2 SUB SWAP1 REVERT JUMPDEST PUSH1 0x1 SLOAD DUP2 LT PUSH2 0xB7E JUMPI PUSH1 0x40 MLOAD PUSH32 0x8C379A000000000000000000000000000000000000000000000000000000000 DUP2 MSTORE PUSH1 0x4 ADD PUSH2 0xB75 SWAP1 PUSH2 0x1493 JUMP JUMPDEST PUSH1 0x40 MLOAD DUP1 SWAP2 SUB SWAP1 REVERT JUMPDEST DUP1 PUSH1 0x1 PUSH1 0x0 DUP3 DUP3 SLOAD PUSH2 0xB90 SWAP2 SWAP1 PUSH2 0x152D JUMP JUMPDEST SWAP3 POP POP DUP2 SWAP1 SSTORE POP PUSH1 0x3 PUSH1 0x0 SWAP1 SLOAD SWAP1 PUSH2 0x100 EXP SWAP1 DIV PUSH20 0xFFFFFFFFFFFFFFFFFFFFFFFFFFFFFFFFFFFFFFFF AND PUSH20 0xFFFFFFFFFFFFFFFFFFFFFFFFFFFFFFFFFFFFFFFF AND PUSH4 0xA9059CBB DUP6 DUP4 PUSH1 0x40 MLOAD DUP4 PUSH4 0xFFFFFFFF AND PUSH1 0xE0 SHL DUP2 MSTORE PUSH1 0x4 ADD PUSH2 0xBF4 SWAP3 SWAP2 SWAP1 PUSH2 0x13AA JUMP JUMPDEST PUSH1 0x20 PUSH1 0x40 MLOAD DUP1 DUP4 SUB DUP2 PUSH1 0x0 DUP8 DUP1 EXTCODESIZE ISZERO DUP1 ISZERO PUSH2 0xC0E JUMPI PUSH1 0x0 DUP1 REVERT JUMPDEST POP GAS CALL ISZERO DUP1 ISZERO PUSH2 0xC22 JUMPI RETURNDATASIZE PUSH1 0x0 DUP1 RETURNDATACOPY RETURNDATASIZE PUSH1 0x0 REVERT JUMPDEST POP POP POP POP PUSH1 0x40 MLOAD RETURNDATASIZE PUSH1 0x1F NOT PUSH1 0x1F DUP3 ADD AND DUP3 ADD DUP1 PUSH1 0x40 MSTORE POP DUP2 ADD SWAP1 PUSH2 0xC46 SWAP2 SWAP1 PUSH2 0xFD4 JUMP JUMPDEST POP POP POP POP JUMPDEST JUMPDEST POP POP POP POP JUMP JUMPDEST PUSH2 0xC5A PUSH2 0xEC5 JUMP JUMPDEST PUSH20 0xFFFFFFFFFFFFFFFFFFFFFFFFFFFFFFFFFFFFFFFF AND PUSH2 0xC78 PUSH2 0x241 JUMP JUMPDEST PUSH20 0xFFFFFFFFFFFFFFFFFFFFFFFFFFFFFFFFFFFFFFFF AND EQ PUSH2 0xCCE JUMPI PUSH1 0x40 MLOAD PUSH32 0x8C379A000000000000000000000000000000000000000000000000000000000 DUP2 MSTORE PUSH1 0x4 ADD PUSH2 0xCC5 SWAP1 PUSH2 0x1433 JUMP JUMPDEST PUSH1 0x40 MLOAD DUP1 SWAP2 SUB SWAP1 REVERT JUMPDEST JUMP JUMPDEST PUSH1 0x0 DUP1 PUSH1 0x0 SWAP1 SLOAD SWAP1 PUSH2 0x100 EXP SWAP1 DIV PUSH20 0xFFFFFFFFFFFFFFFFFFFFFFFFFFFFFFFFFFFFFFFF AND SWAP1 POP DUP2 PUSH1 0x0 DUP1 PUSH2 0x100 EXP DUP2 SLOAD DUP2 PUSH20 0xFFFFFFFFFFFFFFFFFFFFFFFFFFFFFFFFFFFFFFFF MUL NOT AND SWAP1 DUP4 PUSH20 0xFFFFFFFFFFFFFFFFFFFFFFFFFFFFFFFFFFFFFFFF AND MUL OR SWAP1 SSTORE POP DUP2 PUSH20 0xFFFFFFFFFFFFFFFFFFFFFFFFFFFFFFFFFFFFFFFF AND DUP2 PUSH20 0xFFFFFFFFFFFFFFFFFFFFFFFFFFFFFFFFFFFFFFFF AND PUSH32 0x8BE0079C531659141344CD1FD0A4F28419497F9722A3DAAFE3B4186F6B6457E0 PUSH1 0x40 MLOAD PUSH1 0x40 MLOAD DUP1 SWAP2 SUB SWAP1 LOG3 POP POP JUMP JUMPDEST PUSH1 0x0 DUP1 PUSH1 0x0 DUP4 DUP6 ADD SWAP1 POP DUP5 DUP2 LT ISZERO PUSH2 0xDB3 JUMPI PUSH1 0x0 DUP1 SWAP3 POP SWAP3 POP POP PUSH2 0xDBC JUMP JUMPDEST PUSH1 0x1 DUP2 SWAP3 POP SWAP3 POP POP JUMPDEST SWAP3 POP SWAP3 SWAP1 POP JUMP JUMPDEST PUSH1 0x0 DUP1 PUSH1 0x0 DUP1 NOT DUP6 DUP8 MULMOD DUP6 DUP8 MUL SWAP3 POP DUP3 DUP2 LT DUP4 DUP3 SUB SUB SWAP2 POP POP PUSH1 0x0 DUP2 EQ ISZERO PUSH2 0xE25 JUMPI DUP4 DUP3 DUP2 PUSH2 0xE1B JUMPI PUSH32 0x4E487B7100000000000000000000000000000000000000000000000000000000 PUSH1 0x0 MSTORE PUSH1 0x12 PUSH1 0x4 MSTORE PUSH1 0x24 PUSH1 0x0 REVERT JUMPDEST DIV SWAP3 POP POP POP PUSH2 0xEBE JUMP JUMPDEST DUP1 DUP5 GT PUSH2 0xE31 JUMPI PUSH1 0x0 DUP1 REVERT JUMPDEST PUSH1 0x0 DUP5 DUP7 DUP9 MULMOD SWAP1 POP DUP3 DUP2 GT DUP3 SUB SWAP2 POP DUP1 DUP4 SUB SWAP3 POP PUSH1 0x0 PUSH1 0x1 DUP7 NOT ADD DUP7 AND SWAP1 POP DUP1 DUP7 DIV SWAP6 POP DUP1 DUP5 DIV SWAP4 POP PUSH1 0x1 DUP2 DUP3 PUSH1 0x0 SUB DIV ADD SWAP1 POP DUP1 DUP4 MUL DUP5 OR SWAP4 POP PUSH1 0x0 PUSH1 0x2 DUP8 PUSH1 0x3 MUL XOR SWAP1 POP DUP1 DUP8 MUL PUSH1 0x2 SUB DUP2 MUL SWAP1 POP DUP1 DUP8 MUL PUSH1 0x2 SUB DUP2 MUL SWAP1 POP DUP1 DUP8 MUL PUSH1 0x2 SUB DUP2 MUL SWAP1 POP DUP1 DUP8 MUL PUSH1 0x2 SUB DUP2 MUL SWAP1 POP DUP1 DUP8 MUL PUSH1 0x2 SUB DUP2 MUL SWAP1 POP DUP1 DUP8 MUL PUSH1 0x2 SUB DUP2 MUL SWAP1 POP DUP1 DUP6 MUL SWAP6 POP POP POP POP POP POP JUMPDEST SWAP4 SWAP3 POP POP POP JUMP JUMPDEST PUSH1 0x0 CALLER SWAP1 POP SWAP1 JUMP JUMPDEST PUSH1 0x0 DUP2 CALLDATALOAD SWAP1 POP PUSH2 0xEDC DUP2 PUSH2 0x15D8 JUMP JUMPDEST SWAP3 SWAP2 POP POP JUMP JUMPDEST PUSH1 0x0 DUP2 MLOAD SWAP1 POP PUSH2 0xEF1 DUP2 PUSH2 0x15EF JUMP JUMPDEST SWAP3 SWAP2 POP POP JUMP JUMPDEST PUSH1 0x0 DUP2 CALLDATALOAD SWAP1 POP PUSH2 0xF06 DUP2 PUSH2 0x1606 JUMP JUMPDEST SWAP3 SWAP2 POP POP JUMP JUMPDEST PUSH1 0x0 PUSH1 0x20 DUP3 DUP5 SUB SLT ISZERO PUSH2 0xF1E JUMPI PUSH1 0x0 DUP1 REVERT JUMPDEST PUSH1 0x0 PUSH2 0xF2C DUP5 DUP3 DUP6 ADD PUSH2 0xECD JUMP JUMPDEST SWAP2 POP POP SWAP3 SWAP2 POP POP JUMP JUMPDEST PUSH1 0x0 DUP1 PUSH1 0x40 DUP4 DUP6 SUB SLT ISZERO PUSH2 0xF48 JUMPI PUSH1 0x0 DUP1 REVERT JUMPDEST PUSH1 0x0 PUSH2 0xF56 DUP6 DUP3 DUP7 ADD PUSH2 0xECD JUMP JUMPDEST SWAP3 POP POP PUSH1 0x20 PUSH2 0xF67 DUP6 DUP3 DUP7 ADD PUSH2 0xECD JUMP JUMPDEST SWAP2 POP POP SWAP3 POP SWAP3 SWAP1 POP JUMP JUMPDEST PUSH1 0x0 DUP1 PUSH1 0x0 DUP1 PUSH1 0x80 DUP6 DUP8 SUB SLT ISZERO PUSH2 0xF87 JUMPI PUSH1 0x0 DUP1 REVERT JUMPDEST PUSH1 0x0 PUSH2 0xF95 DUP8 DUP3 DUP9 ADD PUSH2 0xECD JUMP JUMPDEST SWAP5 POP POP PUSH1 0x20 PUSH2 0xFA6 DUP8 DUP3 DUP9 ADD PUSH2 0xEF7 JUMP JUMPDEST SWAP4 POP POP PUSH1 0x40 PUSH2 0xFB7 DUP8 DUP3 DUP9 ADD PUSH2 0xEF7 JUMP JUMPDEST SWAP3 POP POP PUSH1 0x60 PUSH2 0xFC8 DUP8 DUP3 DUP9 ADD PUSH2 0xECD JUMP JUMPDEST SWAP2 POP POP SWAP3 SWAP6 SWAP2 SWAP5 POP SWAP3 POP JUMP JUMPDEST PUSH1 0x0 PUSH1 0x20 DUP3 DUP5 SUB SLT ISZERO PUSH2 0xFE6 JUMPI PUSH1 0x0 DUP1 REVERT JUMPDEST PUSH1 0x0 PUSH2 0xFF4 DUP5 DUP3 DUP6 ADD PUSH2 0xEE2 JUMP JUMPDEST SWAP2 POP POP SWAP3 SWAP2 POP POP JUMP JUMPDEST PUSH1 0x0 DUP1 PUSH1 0x40 DUP4 DUP6 SUB SLT ISZERO PUSH2 0x1010 JUMPI PUSH1 0x0 DUP1 REVERT JUMPDEST PUSH1 0x0 PUSH2 0x101E DUP6 DUP3 DUP7 ADD PUSH2 0xEF7 JUMP JUMPDEST SWAP3 POP POP PUSH1 0x20 PUSH2 0x102F DUP6 DUP3 DUP7 ADD PUSH2 0xEF7 JUMP JUMPDEST SWAP2 POP POP SWAP3 POP SWAP3 SWAP1 POP JUMP JUMPDEST PUSH2 0x1042 DUP2 PUSH2 0x1561 JUMP JUMPDEST DUP3 MSTORE POP POP JUMP JUMPDEST PUSH1 0x0 PUSH2 0x1055 PUSH1 0x26 DUP4 PUSH2 0x151C JUMP JUMPDEST SWAP2 POP PUSH32 0x4F776E61626C653A206E6577206F776E657220697320746865207A65726F2061 PUSH1 0x0 DUP4 ADD MSTORE PUSH32 0x6464726573730000000000000000000000000000000000000000000000000000 PUSH1 0x20 DUP4 ADD MSTORE PUSH1 0x40 DUP3 ADD SWAP1 POP SWAP2 SWAP1 POP JUMP JUMPDEST PUSH1 0x0 PUSH2 0x10BB PUSH1 0x1D DUP4 PUSH2 0x151C JUMP JUMPDEST SWAP2 POP PUSH32 0x616464206661696C202C20627920536166654D6174682E747279416464000000 PUSH1 0x0 DUP4 ADD MSTORE PUSH1 0x20 DUP3 ADD SWAP1 POP SWAP2 SWAP1 POP JUMP JUMPDEST PUSH1 0x0 PUSH2 0x10FB PUSH1 0x21 DUP4 PUSH2 0x151C JUMP JUMPDEST SWAP2 POP PUSH32 0x616D6F756E744F7574206C657373207468616E205F616D6F756E744F75744D69 PUSH1 0x0 DUP4 ADD MSTORE PUSH32 0x6E00000000000000000000000000000000000000000000000000000000000000 PUSH1 0x20 DUP4 ADD MSTORE PUSH1 0x40 DUP3 ADD SWAP1 POP SWAP2 SWAP1 POP JUMP JUMPDEST PUSH1 0x0 PUSH2 0x1161 PUSH1 0x20 DUP4 PUSH2 0x151C JUMP JUMPDEST SWAP2 POP PUSH32 0x4F776E61626C653A2063616C6C6572206973206E6F7420746865206F776E6572 PUSH1 0x0 DUP4 ADD MSTORE PUSH1 0x20 DUP3 ADD SWAP1 POP SWAP2 SWAP1 POP JUMP JUMPDEST PUSH1 0x0 PUSH2 0x11A1 PUSH1 0x2D DUP4 PUSH2 0x151C JUMP JUMPDEST SWAP2 POP PUSH32 0x746F6B656E496E20616D6F756E7420616464206661696C2C20736F7572636520 PUSH1 0x0 DUP4 ADD MSTORE PUSH32 0x66726F6D20736166654D61746800000000000000000000000000000000000000 PUSH1 0x20 DUP4 ADD MSTORE PUSH1 0x40 DUP3 ADD SWAP1 POP SWAP2 SWAP1 POP JUMP JUMPDEST PUSH1 0x0 PUSH2 0x1207 PUSH1 0x26 DUP4 PUSH2 0x151C JUMP JUMPDEST SWAP2 POP PUSH32 0x746F6B656E496E206D7573742062652041206F72204220746861742068617320 PUSH1 0x0 DUP4 ADD MSTORE PUSH32 0x6265207365740000000000000000000000000000000000000000000000000000 PUSH1 0x20 DUP4 ADD MSTORE PUSH1 0x40 DUP3 ADD SWAP1 POP SWAP2 SWAP1 POP JUMP JUMPDEST PUSH1 0x0 PUSH2 0x126D PUSH1 0x1A DUP4 PUSH2 0x151C JUMP JUMPDEST SWAP2 POP PUSH32 0x746F6B656E4F757420616D6F756E74206E6F7420656E6F756768000000000000 PUSH1 0x0 DUP4 ADD MSTORE PUSH1 0x20 DUP3 ADD SWAP1 POP SWAP2 SWAP1 POP JUMP JUMPDEST PUSH1 0x0 PUSH2 0x12AD PUSH1 0x1B DUP4 PUSH2 0x151C JUMP JUMPDEST SWAP2 POP PUSH32 0x5F746F2063616E206E6F74206265207A65726F20616464726573730000000000 PUSH1 0x0 DUP4 ADD MSTORE PUSH1 0x20 DUP3 ADD SWAP1 POP SWAP2 SWAP1 POP JUMP JUMPDEST PUSH1 0x0 PUSH2 0x12ED PUSH1 0x1F DUP4 PUSH2 0x151C JUMP JUMPDEST SWAP2 POP PUSH32 0x746F6B656E496E2063616E206E6F74206265207A65726F206164647265737300 PUSH1 0x0 DUP4 ADD MSTORE PUSH1 0x20 DUP3 ADD SWAP1 POP SWAP2 SWAP1 POP JUMP JUMPDEST PUSH2 0x1329 DUP2 PUSH2 0x159F JUMP JUMPDEST DUP3 MSTORE POP POP JUMP JUMPDEST PUSH1 0x0 PUSH1 0x20 DUP3 ADD SWAP1 POP PUSH2 0x1344 PUSH1 0x0 DUP4 ADD DUP5 PUSH2 0x1039 JUMP JUMPDEST SWAP3 SWAP2 POP POP JUMP JUMPDEST PUSH1 0x0 PUSH1 0x40 DUP3 ADD SWAP1 POP PUSH2 0x135F PUSH1 0x0 DUP4 ADD DUP6 PUSH2 0x1039 JUMP JUMPDEST PUSH2 0x136C PUSH1 0x20 DUP4 ADD DUP5 PUSH2 0x1039 JUMP JUMPDEST SWAP4 SWAP3 POP POP POP JUMP JUMPDEST PUSH1 0x0 PUSH1 0x60 DUP3 ADD SWAP1 POP PUSH2 0x1388 PUSH1 0x0 DUP4 ADD DUP7 PUSH2 0x1039 JUMP JUMPDEST PUSH2 0x1395 PUSH1 0x20 DUP4 ADD DUP6 PUSH2 0x1039 JUMP JUMPDEST PUSH2 0x13A2 PUSH1 0x40 DUP4 ADD DUP5 PUSH2 0x1320 JUMP JUMPDEST SWAP5 SWAP4 POP POP POP POP JUMP JUMPDEST PUSH1 0x0 PUSH1 0x40 DUP3 ADD SWAP1 POP PUSH2 0x13BF PUSH1 0x0 DUP4 ADD DUP6 PUSH2 0x1039 JUMP JUMPDEST PUSH2 0x13CC PUSH1 0x20 DUP4 ADD DUP5 PUSH2 0x1320 JUMP JUMPDEST SWAP4 SWAP3 POP POP POP JUMP JUMPDEST PUSH1 0x0 PUSH1 0x20 DUP3 ADD SWAP1 POP DUP2 DUP2 SUB PUSH1 0x0 DUP4 ADD MSTORE PUSH2 0x13EC DUP2 PUSH2 0x1048 JUMP JUMPDEST SWAP1 POP SWAP2 SWAP1 POP JUMP JUMPDEST PUSH1 0x0 PUSH1 0x20 DUP3 ADD SWAP1 POP DUP2 DUP2 SUB PUSH1 0x0 DUP4 ADD MSTORE PUSH2 0x140C DUP2 PUSH2 0x10AE JUMP JUMPDEST SWAP1 POP SWAP2 SWAP1 POP JUMP JUMPDEST PUSH1 0x0 PUSH1 0x20 DUP3 ADD SWAP1 POP DUP2 DUP2 SUB PUSH1 0x0 DUP4 ADD MSTORE PUSH2 0x142C DUP2 PUSH2 0x10EE JUMP JUMPDEST SWAP1 POP SWAP2 SWAP1 POP JUMP JUMPDEST PUSH1 0x0 PUSH1 0x20 DUP3 ADD SWAP1 POP DUP2 DUP2 SUB PUSH1 0x0 DUP4 ADD MSTORE PUSH2 0x144C DUP2 PUSH2 0x1154 JUMP JUMPDEST SWAP1 POP SWAP2 SWAP1 POP JUMP JUMPDEST PUSH1 0x0 PUSH1 0x20 DUP3 ADD SWAP1 POP DUP2 DUP2 SUB PUSH1 0x0 DUP4 ADD MSTORE PUSH2 0x146C DUP2 PUSH2 0x1194 JUMP JUMPDEST SWAP1 POP SWAP2 SWAP1 POP JUMP JUMPDEST PUSH1 0x0 PUSH1 0x20 DUP3 ADD SWAP1 POP DUP2 DUP2 SUB PUSH1 0x0 DUP4 ADD MSTORE PUSH2 0x148C DUP2 PUSH2 0x11FA JUMP JUMPDEST SWAP1 POP SWAP2 SWAP1 POP JUMP JUMPDEST PUSH1 0x0 PUSH1 0x20 DUP3 ADD SWAP1 POP DUP2 DUP2 SUB PUSH1 0x0 DUP4 ADD MSTORE PUSH2 0x14AC DUP2 PUSH2 0x1260 JUMP JUMPDEST SWAP1 POP SWAP2 SWAP1 POP JUMP JUMPDEST PUSH1 0x0 PUSH1 0x20 DUP3 ADD SWAP1 POP DUP2 DUP2 SUB PUSH1 0x0 DUP4 ADD MSTORE PUSH2 0x14CC DUP2 PUSH2 0x12A0 JUMP JUMPDEST SWAP1 POP SWAP2 SWAP1 POP JUMP JUMPDEST PUSH1 0x0 PUSH1 0x20 DUP3 ADD SWAP1 POP DUP2 DUP2 SUB PUSH1 0x0 DUP4 ADD MSTORE PUSH2 0x14EC DUP2 PUSH2 0x12E0 JUMP JUMPDEST SWAP1 POP SWAP2 SWAP1 POP JUMP JUMPDEST PUSH1 0x0 PUSH1 0x40 DUP3 ADD SWAP1 POP PUSH2 0x1508 PUSH1 0x0 DUP4 ADD DUP6 PUSH2 0x1320 JUMP JUMPDEST PUSH2 0x1515 PUSH1 0x20 DUP4 ADD DUP5 PUSH2 0x1320 JUMP JUMPDEST SWAP4 SWAP3 POP POP POP JUMP JUMPDEST PUSH1 0x0 DUP3 DUP3 MSTORE PUSH1 0x20 DUP3 ADD SWAP1 POP SWAP3 SWAP2 POP POP JUMP JUMPDEST PUSH1 0x0 PUSH2 0x1538 DUP3 PUSH2 0x159F JUMP JUMPDEST SWAP2 POP PUSH2 0x1543 DUP4 PUSH2 0x159F JUMP JUMPDEST SWAP3 POP DUP3 DUP3 LT ISZERO PUSH2 0x1556 JUMPI PUSH2 0x1555 PUSH2 0x15A9 JUMP JUMPDEST JUMPDEST DUP3 DUP3 SUB SWAP1 POP SWAP3 SWAP2 POP POP JUMP JUMPDEST PUSH1 0x0 PUSH2 0x156C DUP3 PUSH2 0x157F JUMP JUMPDEST SWAP1 POP SWAP2 SWAP1 POP JUMP JUMPDEST PUSH1 0x0 DUP2 ISZERO ISZERO SWAP1 POP SWAP2 SWAP1 POP JUMP JUMPDEST PUSH1 0x0 PUSH20 0xFFFFFFFFFFFFFFFFFFFFFFFFFFFFFFFFFFFFFFFF DUP3 AND SWAP1 POP SWAP2 SWAP1 POP JUMP JUMPDEST PUSH1 0x0 DUP2 SWAP1 POP SWAP2 SWAP1 POP JUMP JUMPDEST PUSH32 0x4E487B7100000000000000000000000000000000000000000000000000000000 PUSH1 0x0 MSTORE PUSH1 0x11 PUSH1 0x4 MSTORE PUSH1 0x24 PUSH1 0x0 REVERT JUMPDEST PUSH2 0x15E1 DUP2 PUSH2 0x1561 JUMP JUMPDEST DUP2 EQ PUSH2 0x15EC JUMPI PUSH1 0x0 DUP1 REVERT JUMPDEST POP JUMP JUMPDEST PUSH2 0x15F8 DUP2 PUSH2 0x1573 JUMP JUMPDEST DUP2 EQ PUSH2 0x1603 JUMPI PUSH1 0x0 DUP1 REVERT JUMPDEST POP JUMP JUMPDEST PUSH2 0x160F DUP2 PUSH2 0x159F JUMP JUMPDEST DUP2 EQ PUSH2 0x161A JUMPI PUSH1 0x0 DUP1 REVERT JUMPDEST POP JUMP INVALID LOG2 PUSH5 0x6970667358 0x22 SLT KECCAK256 0x5C SWAP6 0xEB 0xE9 STATICCALL MLOAD 0x5F MULMOD BALANCE PUSH15 0x1E6056233EE294736CF5CE777A5ACA PUSH12 0xB823EBF0E5EE64736F6C6343 STOP ADDMOD STOP STOP CALLER "
				},
				"gasEstimates": {
					"creation": {
						"codeDepositCost": "1143000",
						"executionCost": "infinite",
						"totalCost": "infinite"
					},
					"external": {
						"addLiquidity(uint256,uint256)": "infinite",
						"owner()": "1222",
						"queryPair()": "infinite",
						"renounceOwnership()": "24443",
						"setCoinPair(address,address)": "infinite",
						"swap(address,uint256,uint256,address)": "infinite",
						"transferOwnership(address)": "24791"
					},
					"internal": {
						"_checkInit()": "infinite"
					}
				},
				"methodIdentifiers": {
					"addLiquidity(uint256,uint256)": "9cd441da",
					"owner()": "8da5cb5b",
					"queryPair()": "1a727c26",
					"renounceOwnership()": "715018a6",
					"setCoinPair(address,address)": "6f9632da",
					"swap(address,uint256,uint256,address)": "f3e6ea8a",
					"transferOwnership(address)": "f2fde38b"
				}
			},
			"storageLayout": {
				"storage": [
					{
						"astId": 7,
						"contract": "contracts/uniV2Pool.sol:Univ2Protocal",
						"label": "_owner",
						"offset": 0,
						"slot": "0",
						"type": "t_address"
					},
					{
						"astId": 1399,
						"contract": "contracts/uniV2Pool.sol:Univ2Protocal",
						"label": "aAmount",
						"offset": 0,
						"slot": "1",
						"type": "t_uint256"
					},
					{
						"astId": 1401,
						"contract": "contracts/uniV2Pool.sol:Univ2Protocal",
						"label": "bAmount",
						"offset": 0,
						"slot": "2",
						"type": "t_uint256"
					},
					{
						"astId": 1403,
						"contract": "contracts/uniV2Pool.sol:Univ2Protocal",
						"label": "coinA",
						"offset": 0,
						"slot": "3",
						"type": "t_address"
					},
					{
						"astId": 1405,
						"contract": "contracts/uniV2Pool.sol:Univ2Protocal",
						"label": "coinB",
						"offset": 0,
						"slot": "4",
						"type": "t_address"
					}
				],
				"types": {
					"t_address": {
						"encoding": "inplace",
						"label": "address",
						"numberOfBytes": "20"
					},
					"t_uint256": {
						"encoding": "inplace",
						"label": "uint256",
						"numberOfBytes": "32"
					}
				}
			},
			"userdoc": {
				"kind": "user",
				"methods": {},
				"version": 1
			}
		}
	}
}