{
	"contracts/Bank.sol": {
		"Bank": {
			"abi": [
				{
					"anonymous": false,
					"inputs": [
						{
							"indexed": true,
							"internalType": "address",
							"name": "previousOwner",
							"type": "address"
						},
						{
							"indexed": true,
							"internalType": "address",
							"name": "newOwner",
							"type": "address"
						}
					],
					"name": "OwnershipTransferred",
					"type": "event"
				},
				{
					"inputs": [
						{
							"internalType": "address",
							"name": "user",
							"type": "address"
						}
					],
					"name": "check",
					"outputs": [
						{
							"internalType": "uint256",
							"name": "",
							"type": "uint256"
						}
					],
					"stateMutability": "view",
					"type": "function"
				},
				{
					"inputs": [],
					"name": "owner",
					"outputs": [
						{
							"internalType": "address",
							"name": "",
							"type": "address"
						}
					],
					"stateMutability": "view",
					"type": "function"
				},
				{
					"inputs": [],
					"name": "renounceOwnership",
					"outputs": [],
					"stateMutability": "nonpayable",
					"type": "function"
				},
				{
					"inputs": [],
					"name": "save",
					"outputs": [
						{
							"internalType": "bool",
							"name": "",
							"type": "bool"
						}
					],
					"stateMutability": "payable",
					"type": "function"
				},
				{
					"inputs": [
						{
							"internalType": "address",
							"name": "newOwner",
							"type": "address"
						}
					],
					"name": "transferOwnership",
					"outputs": [],
					"stateMutability": "nonpayable",
					"type": "function"
				},
				{
					"inputs": [
						{
							"internalType": "uint256",
							"name": "amount",
							"type": "uint256"
						}
					],
					"name": "withdrawal",
					"outputs": [
						{
							"internalType": "bool",
							"name": "",
							"type": "bool"
						}
					],
					"stateMutability": "nonpayable",
					"type": "function"
				}
			],
			"devdoc": {
				"kind": "dev",
				"methods": {
					"owner()": {
						"details": "Returns the address of the current owner."
					},
					"renounceOwnership()": {
						"details": "Leaves the contract without owner. It will not be possible to call `onlyOwner` functions anymore. Can only be called by the current owner. NOTE: Renouncing ownership will leave the contract without an owner, thereby removing any functionality that is only available to the owner."
					},
					"transferOwnership(address)": {
						"details": "Transfers ownership of the contract to a new account (`newOwner`). Can only be called by the current owner."
					}
				},
				"version": 1
			},
			"evm": {
				"assembly": "    /* \"contracts/Bank.sol\":110:873  contract Bank is Ownable{... */\n  mstore(0x40, 0x80)\n  callvalue\n  dup1\n  iszero\n  tag_1\n  jumpi\n  0x00\n  dup1\n  revert\ntag_1:\n  pop\n    /* \"@openzeppelin/contracts/access/Ownable.sol\":936:968  _transferOwnership(_msgSender()) */\n  tag_4\n    /* \"@openzeppelin/contracts/access/Ownable.sol\":955:967  _msgSender() */\n  tag_5\n    /* \"@openzeppelin/contracts/access/Ownable.sol\":955:965  _msgSender */\n  shl(0x20, tag_6)\n    /* \"@openzeppelin/contracts/access/Ownable.sol\":955:967  _msgSender() */\n  0x20\n  shr\n  jump\t// in\ntag_5:\n    /* \"@openzeppelin/contracts/access/Ownable.sol\":936:954  _transferOwnership */\n  shl(0x20, tag_7)\n    /* \"@openzeppelin/contracts/access/Ownable.sol\":936:968  _transferOwnership(_msgSender()) */\n  0x20\n  shr\n  jump\t// in\ntag_4:\n    /* \"contracts/Bank.sol\":110:873  contract Bank is Ownable{... */\n  jump(tag_8)\n    /* \"@openzeppelin/contracts/utils/Context.sol\":640:736  function _msgSender() internal view virtual returns (address) {... */\ntag_6:\n    /* \"@openzeppelin/contracts/utils/Context.sol\":693:700  address */\n  0x00\n    /* \"@openzeppelin/contracts/utils/Context.sol\":719:729  msg.sender */\n  caller\n    /* \"@openzeppelin/contracts/utils/Context.sol\":712:729  return msg.sender */\n  swap1\n  pop\n    /* \"@openzeppelin/contracts/utils/Context.sol\":640:736  function _msgSender() internal view virtual returns (address) {... */\n  swap1\n  jump\t// out\n    /* \"@openzeppelin/contracts/access/Ownable.sol\":2433:2620  function _transferOwnership(address newOwner) internal virtual {... */\ntag_7:\n    /* \"@openzeppelin/contracts/access/Ownable.sol\":2506:2522  address oldOwner */\n  0x00\n    /* \"@openzeppelin/contracts/access/Ownable.sol\":2525:2531  _owner */\n  dup1\n  0x00\n  swap1\n  sload\n  swap1\n  0x0100\n  exp\n  swap1\n  div\n  0xffffffffffffffffffffffffffffffffffffffff\n  and\n    /* \"@openzeppelin/contracts/access/Ownable.sol\":2506:2531  address oldOwner = _owner */\n  swap1\n  pop\n    /* \"@openzeppelin/contracts/access/Ownable.sol\":2550:2558  newOwner */\n  dup2\n    /* \"@openzeppelin/contracts/access/Ownable.sol\":2541:2547  _owner */\n  0x00\n  dup1\n    /* \"@openzeppelin/contracts/access/Ownable.sol\":2541:2558  _owner = newOwner */\n  0x0100\n  exp\n  dup2\n  sload\n  dup2\n  0xffffffffffffffffffffffffffffffffffffffff\n  mul\n  not\n  and\n  swap1\n  dup4\n  0xffffffffffffffffffffffffffffffffffffffff\n  and\n  mul\n  or\n  swap1\n  sstore\n  pop\n    /* \"@openzeppelin/contracts/access/Ownable.sol\":2604:2612  newOwner */\n  dup2\n    /* \"@openzeppelin/contracts/access/Ownable.sol\":2573:2613  OwnershipTransferred(oldOwner, newOwner) */\n  0xffffffffffffffffffffffffffffffffffffffff\n  and\n    /* \"@openzeppelin/contracts/access/Ownable.sol\":2594:2602  oldOwner */\n  dup2\n    /* \"@openzeppelin/contracts/access/Ownable.sol\":2573:2613  OwnershipTransferred(oldOwner, newOwner) */\n  0xffffffffffffffffffffffffffffffffffffffff\n  and\n  0x8be0079c531659141344cd1fd0a4f28419497f9722a3daafe3b4186f6b6457e0\n  mload(0x40)\n  mload(0x40)\n  dup1\n  swap2\n  sub\n  swap1\n  log3\n    /* \"@openzeppelin/contracts/access/Ownable.sol\":2433:2620  function _transferOwnership(address newOwner) internal virtual {... */\n  pop\n  pop\n  jump\t// out\n    /* \"contracts/Bank.sol\":110:873  contract Bank is Ownable{... */\ntag_8:\n  dataSize(sub_0)\n  dup1\n  dataOffset(sub_0)\n  0x00\n  codecopy\n  0x00\n  return\nstop\n\nsub_0: assembly {\n        /* \"contracts/Bank.sol\":110:873  contract Bank is Ownable{... */\n      mstore(0x40, 0x80)\n      jumpi(tag_1, lt(calldatasize, 0x04))\n      shr(0xe0, calldataload(0x00))\n      dup1\n      0x42dad49e\n      eq\n      tag_2\n      jumpi\n      dup1\n      0x715018a6\n      eq\n      tag_3\n      jumpi\n      dup1\n      0x835fc6ca\n      eq\n      tag_4\n      jumpi\n      dup1\n      0x8da5cb5b\n      eq\n      tag_5\n      jumpi\n      dup1\n      0xc23697a8\n      eq\n      tag_6\n      jumpi\n      dup1\n      0xf2fde38b\n      eq\n      tag_7\n      jumpi\n    tag_1:\n      0x00\n      dup1\n      revert\n        /* \"contracts/Bank.sol\":181:367  function save () external payable returns (bool) {... */\n    tag_2:\n      tag_8\n      tag_9\n      jump\t// in\n    tag_8:\n      mload(0x40)\n      tag_10\n      swap2\n      swap1\n      tag_11\n      jump\t// in\n    tag_10:\n      mload(0x40)\n      dup1\n      swap2\n      sub\n      swap1\n      return\n        /* \"@openzeppelin/contracts/access/Ownable.sol\":1831:1932  function renounceOwnership() public virtual onlyOwner {... */\n    tag_3:\n      callvalue\n      dup1\n      iszero\n      tag_12\n      jumpi\n      0x00\n      dup1\n      revert\n    tag_12:\n      pop\n      tag_13\n      tag_14\n      jump\t// in\n    tag_13:\n      stop\n        /* \"contracts/Bank.sol\":484:865  function withdrawal(uint256 amount) external returns (bool){... */\n    tag_4:\n      callvalue\n      dup1\n      iszero\n      tag_15\n      jumpi\n      0x00\n      dup1\n      revert\n    tag_15:\n      pop\n      tag_16\n      0x04\n      dup1\n      calldatasize\n      sub\n      dup2\n      add\n      swap1\n      tag_17\n      swap2\n      swap1\n      tag_18\n      jump\t// in\n    tag_17:\n      tag_19\n      jump\t// in\n    tag_16:\n      mload(0x40)\n      tag_20\n      swap2\n      swap1\n      tag_11\n      jump\t// in\n    tag_20:\n      mload(0x40)\n      dup1\n      swap2\n      sub\n      swap1\n      return\n        /* \"@openzeppelin/contracts/access/Ownable.sol\":1201:1286  function owner() public view virtual returns (address) {... */\n    tag_5:\n      callvalue\n      dup1\n      iszero\n      tag_21\n      jumpi\n      0x00\n      dup1\n      revert\n    tag_21:\n      pop\n      tag_22\n      tag_23\n      jump\t// in\n    tag_22:\n      mload(0x40)\n      tag_24\n      swap2\n      swap1\n      tag_25\n      jump\t// in\n    tag_24:\n      mload(0x40)\n      dup1\n      swap2\n      sub\n      swap1\n      return\n        /* \"contracts/Bank.sol\":373:478  function check(address user) view external onlyOwner returns (uint256){... */\n    tag_6:\n      callvalue\n      dup1\n      iszero\n      tag_26\n      jumpi\n      0x00\n      dup1\n      revert\n    tag_26:\n      pop\n      tag_27\n      0x04\n      dup1\n      calldatasize\n      sub\n      dup2\n      add\n      swap1\n      tag_28\n      swap2\n      swap1\n      tag_29\n      jump\t// in\n    tag_28:\n      tag_30\n      jump\t// in\n    tag_27:\n      mload(0x40)\n      tag_31\n      swap2\n      swap1\n      tag_32\n      jump\t// in\n    tag_31:\n      mload(0x40)\n      dup1\n      swap2\n      sub\n      swap1\n      return\n        /* \"@openzeppelin/contracts/access/Ownable.sol\":2081:2279  function transferOwnership(address newOwner) public virtual onlyOwner {... */\n    tag_7:\n      callvalue\n      dup1\n      iszero\n      tag_33\n      jumpi\n      0x00\n      dup1\n      revert\n    tag_33:\n      pop\n      tag_34\n      0x04\n      dup1\n      calldatasize\n      sub\n      dup2\n      add\n      swap1\n      tag_35\n      swap2\n      swap1\n      tag_29\n      jump\t// in\n    tag_35:\n      tag_36\n      jump\t// in\n    tag_34:\n      stop\n        /* \"contracts/Bank.sol\":181:367  function save () external payable returns (bool) {... */\n    tag_9:\n        /* \"contracts/Bank.sol\":224:228  bool */\n      0x00\n        /* \"contracts/Bank.sol\":240:254  uint256 amount */\n      dup1\n        /* \"contracts/Bank.sol\":257:262  funds */\n      0x01\n        /* \"contracts/Bank.sol\":257:274  funds[msg.sender] */\n      0x00\n        /* \"contracts/Bank.sol\":263:273  msg.sender */\n      caller\n        /* \"contracts/Bank.sol\":257:274  funds[msg.sender] */\n      0xffffffffffffffffffffffffffffffffffffffff\n      and\n      0xffffffffffffffffffffffffffffffffffffffff\n      and\n      dup2\n      mstore\n      0x20\n      add\n      swap1\n      dup2\n      mstore\n      0x20\n      add\n      0x00\n      keccak256\n      sload\n        /* \"contracts/Bank.sol\":240:274  uint256 amount = funds[msg.sender] */\n      swap1\n      pop\n        /* \"contracts/Bank.sol\":294:303  msg.value */\n      callvalue\n        /* \"contracts/Bank.sol\":284:303  amount += msg.value */\n      dup2\n      tag_38\n      swap2\n      swap1\n      tag_39\n      jump\t// in\n    tag_38:\n      swap1\n      pop\n        /* \"contracts/Bank.sol\":333:339  amount */\n      dup1\n        /* \"contracts/Bank.sol\":313:318  funds */\n      0x01\n        /* \"contracts/Bank.sol\":313:330  funds[msg.sender] */\n      0x00\n        /* \"contracts/Bank.sol\":319:329  msg.sender */\n      caller\n        /* \"contracts/Bank.sol\":313:330  funds[msg.sender] */\n      0xffffffffffffffffffffffffffffffffffffffff\n      and\n      0xffffffffffffffffffffffffffffffffffffffff\n      and\n      dup2\n      mstore\n      0x20\n      add\n      swap1\n      dup2\n      mstore\n      0x20\n      add\n      0x00\n      keccak256\n        /* \"contracts/Bank.sol\":313:339  funds[msg.sender] = amount */\n      dup2\n      swap1\n      sstore\n      pop\n        /* \"contracts/Bank.sol\":356:360  true */\n      0x01\n        /* \"contracts/Bank.sol\":349:360  return true */\n      swap2\n      pop\n      pop\n        /* \"contracts/Bank.sol\":181:367  function save () external payable returns (bool) {... */\n      swap1\n      jump\t// out\n        /* \"@openzeppelin/contracts/access/Ownable.sol\":1831:1932  function renounceOwnership() public virtual onlyOwner {... */\n    tag_14:\n        /* \"@openzeppelin/contracts/access/Ownable.sol\":1094:1107  _checkOwner() */\n      tag_41\n        /* \"@openzeppelin/contracts/access/Ownable.sol\":1094:1105  _checkOwner */\n      tag_42\n        /* \"@openzeppelin/contracts/access/Ownable.sol\":1094:1107  _checkOwner() */\n      jump\t// in\n    tag_41:\n        /* \"@openzeppelin/contracts/access/Ownable.sol\":1895:1925  _transferOwnership(address(0)) */\n      tag_44\n        /* \"@openzeppelin/contracts/access/Ownable.sol\":1922:1923  0 */\n      0x00\n        /* \"@openzeppelin/contracts/access/Ownable.sol\":1895:1913  _transferOwnership */\n      tag_45\n        /* \"@openzeppelin/contracts/access/Ownable.sol\":1895:1925  _transferOwnership(address(0)) */\n      jump\t// in\n    tag_44:\n        /* \"@openzeppelin/contracts/access/Ownable.sol\":1831:1932  function renounceOwnership() public virtual onlyOwner {... */\n      jump\t// out\n        /* \"contracts/Bank.sol\":484:865  function withdrawal(uint256 amount) external returns (bool){... */\n    tag_19:\n        /* \"contracts/Bank.sol\":538:542  bool */\n      0x00\n        /* \"contracts/Bank.sol\":553:568  uint256 current */\n      dup1\n        /* \"contracts/Bank.sol\":571:576  funds */\n      0x01\n        /* \"contracts/Bank.sol\":571:588  funds[msg.sender] */\n      0x00\n        /* \"contracts/Bank.sol\":577:587  msg.sender */\n      caller\n        /* \"contracts/Bank.sol\":571:588  funds[msg.sender] */\n      0xffffffffffffffffffffffffffffffffffffffff\n      and\n      0xffffffffffffffffffffffffffffffffffffffff\n      and\n      dup2\n      mstore\n      0x20\n      add\n      swap1\n      dup2\n      mstore\n      0x20\n      add\n      0x00\n      keccak256\n      sload\n        /* \"contracts/Bank.sol\":553:588  uint256 current = funds[msg.sender] */\n      swap1\n      pop\n        /* \"contracts/Bank.sol\":617:623  amount */\n      dup3\n        /* \"contracts/Bank.sol\":606:613  current */\n      dup2\n        /* \"contracts/Bank.sol\":606:623  current >= amount */\n      lt\n      iszero\n        /* \"contracts/Bank.sol\":598:646  require(current >= amount, 'balance not enough') */\n      tag_47\n      jumpi\n      mload(0x40)\n      0x08c379a000000000000000000000000000000000000000000000000000000000\n      dup2\n      mstore\n      0x04\n      add\n      tag_48\n      swap1\n      tag_49\n      jump\t// in\n    tag_48:\n      mload(0x40)\n      dup1\n      swap2\n      sub\n      swap1\n      revert\n    tag_47:\n        /* \"contracts/Bank.sol\":657:669  bool success */\n      0x00\n        /* \"contracts/Bank.sol\":674:684  msg.sender */\n      caller\n        /* \"contracts/Bank.sol\":674:689  msg.sender.call */\n      0xffffffffffffffffffffffffffffffffffffffff\n      and\n        /* \"contracts/Bank.sol\":697:703  amount */\n      dup5\n        /* \"contracts/Bank.sol\":674:708  msg.sender.call{value: amount}(\"\") */\n      mload(0x40)\n      tag_50\n      swap1\n      tag_51\n      jump\t// in\n    tag_50:\n      0x00\n      mload(0x40)\n      dup1\n      dup4\n      sub\n      dup2\n      dup6\n      dup8\n      gas\n      call\n      swap3\n      pop\n      pop\n      pop\n      returndatasize\n      dup1\n      0x00\n      dup2\n      eq\n      tag_54\n      jumpi\n      mload(0x40)\n      swap2\n      pop\n      and(add(returndatasize, 0x3f), not(0x1f))\n      dup3\n      add\n      0x40\n      mstore\n      returndatasize\n      dup3\n      mstore\n      returndatasize\n      0x00\n      0x20\n      dup5\n      add\n      returndatacopy\n      jump(tag_53)\n    tag_54:\n      0x60\n      swap2\n      pop\n    tag_53:\n      pop\n        /* \"contracts/Bank.sol\":656:708  (bool success, )= msg.sender.call{value: amount}(\"\") */\n      pop\n      swap1\n      pop\n        /* \"contracts/Bank.sol\":722:729  success */\n      dup1\n        /* \"contracts/Bank.sol\":718:859  if (success) {... */\n      iszero\n      tag_55\n      jumpi\n        /* \"contracts/Bank.sol\":775:781  amount */\n      dup4\n        /* \"contracts/Bank.sol\":765:772  current */\n      dup3\n        /* \"contracts/Bank.sol\":765:781  current - amount */\n      tag_56\n      swap2\n      swap1\n      tag_57\n      jump\t// in\n    tag_56:\n        /* \"contracts/Bank.sol\":745:750  funds */\n      0x01\n        /* \"contracts/Bank.sol\":745:762  funds[msg.sender] */\n      0x00\n        /* \"contracts/Bank.sol\":751:761  msg.sender */\n      caller\n        /* \"contracts/Bank.sol\":745:762  funds[msg.sender] */\n      0xffffffffffffffffffffffffffffffffffffffff\n      and\n      0xffffffffffffffffffffffffffffffffffffffff\n      and\n      dup2\n      mstore\n      0x20\n      add\n      swap1\n      dup2\n      mstore\n      0x20\n      add\n      0x00\n      keccak256\n        /* \"contracts/Bank.sol\":745:781  funds[msg.sender] = current - amount */\n      dup2\n      swap1\n      sstore\n      pop\n        /* \"contracts/Bank.sol\":802:806  true */\n      0x01\n        /* \"contracts/Bank.sol\":795:806  return true */\n      swap3\n      pop\n      pop\n      pop\n      jump(tag_46)\n        /* \"contracts/Bank.sol\":718:859  if (success) {... */\n    tag_55:\n        /* \"contracts/Bank.sol\":843:848  false */\n      0x00\n        /* \"contracts/Bank.sol\":836:848  return false */\n      swap3\n      pop\n      pop\n      pop\n        /* \"contracts/Bank.sol\":484:865  function withdrawal(uint256 amount) external returns (bool){... */\n    tag_46:\n      swap2\n      swap1\n      pop\n      jump\t// out\n        /* \"@openzeppelin/contracts/access/Ownable.sol\":1201:1286  function owner() public view virtual returns (address) {... */\n    tag_23:\n        /* \"@openzeppelin/contracts/access/Ownable.sol\":1247:1254  address */\n      0x00\n        /* \"@openzeppelin/contracts/access/Ownable.sol\":1273:1279  _owner */\n      dup1\n      0x00\n      swap1\n      sload\n      swap1\n      0x0100\n      exp\n      swap1\n      div\n      0xffffffffffffffffffffffffffffffffffffffff\n      and\n        /* \"@openzeppelin/contracts/access/Ownable.sol\":1266:1279  return _owner */\n      swap1\n      pop\n        /* \"@openzeppelin/contracts/access/Ownable.sol\":1201:1286  function owner() public view virtual returns (address) {... */\n      swap1\n      jump\t// out\n        /* \"contracts/Bank.sol\":373:478  function check(address user) view external onlyOwner returns (uint256){... */\n    tag_30:\n        /* \"contracts/Bank.sol\":435:442  uint256 */\n      0x00\n        /* \"@openzeppelin/contracts/access/Ownable.sol\":1094:1107  _checkOwner() */\n      tag_61\n        /* \"@openzeppelin/contracts/access/Ownable.sol\":1094:1105  _checkOwner */\n      tag_42\n        /* \"@openzeppelin/contracts/access/Ownable.sol\":1094:1107  _checkOwner() */\n      jump\t// in\n    tag_61:\n        /* \"contracts/Bank.sol\":460:465  funds */\n      0x01\n        /* \"contracts/Bank.sol\":460:471  funds[user] */\n      0x00\n        /* \"contracts/Bank.sol\":466:470  user */\n      dup4\n        /* \"contracts/Bank.sol\":460:471  funds[user] */\n      0xffffffffffffffffffffffffffffffffffffffff\n      and\n      0xffffffffffffffffffffffffffffffffffffffff\n      and\n      dup2\n      mstore\n      0x20\n      add\n      swap1\n      dup2\n      mstore\n      0x20\n      add\n      0x00\n      keccak256\n      sload\n        /* \"contracts/Bank.sol\":453:471  return funds[user] */\n      swap1\n      pop\n        /* \"contracts/Bank.sol\":373:478  function check(address user) view external onlyOwner returns (uint256){... */\n      swap2\n      swap1\n      pop\n      jump\t// out\n        /* \"@openzeppelin/contracts/access/Ownable.sol\":2081:2279  function transferOwnership(address newOwner) public virtual onlyOwner {... */\n    tag_36:\n        /* \"@openzeppelin/contracts/access/Ownable.sol\":1094:1107  _checkOwner() */\n      tag_64\n        /* \"@openzeppelin/contracts/access/Ownable.sol\":1094:1105  _checkOwner */\n      tag_42\n        /* \"@openzeppelin/contracts/access/Ownable.sol\":1094:1107  _checkOwner() */\n      jump\t// in\n    tag_64:\n        /* \"@openzeppelin/contracts/access/Ownable.sol\":2189:2190  0 */\n      0x00\n        /* \"@openzeppelin/contracts/access/Ownable.sol\":2169:2191  newOwner != address(0) */\n      0xffffffffffffffffffffffffffffffffffffffff\n      and\n        /* \"@openzeppelin/contracts/access/Ownable.sol\":2169:2177  newOwner */\n      dup2\n        /* \"@openzeppelin/contracts/access/Ownable.sol\":2169:2191  newOwner != address(0) */\n      0xffffffffffffffffffffffffffffffffffffffff\n      and\n      eq\n      iszero\n        /* \"@openzeppelin/contracts/access/Ownable.sol\":2161:2234  require(newOwner != address(0), \"Ownable: new owner is the zero address\") */\n      tag_66\n      jumpi\n      mload(0x40)\n      0x08c379a000000000000000000000000000000000000000000000000000000000\n      dup2\n      mstore\n      0x04\n      add\n      tag_67\n      swap1\n      tag_68\n      jump\t// in\n    tag_67:\n      mload(0x40)\n      dup1\n      swap2\n      sub\n      swap1\n      revert\n    tag_66:\n        /* \"@openzeppelin/contracts/access/Ownable.sol\":2244:2272  _transferOwnership(newOwner) */\n      tag_69\n        /* \"@openzeppelin/contracts/access/Ownable.sol\":2263:2271  newOwner */\n      dup2\n        /* \"@openzeppelin/contracts/access/Ownable.sol\":2244:2262  _transferOwnership */\n      tag_45\n        /* \"@openzeppelin/contracts/access/Ownable.sol\":2244:2272  _transferOwnership(newOwner) */\n      jump\t// in\n    tag_69:\n        /* \"@openzeppelin/contracts/access/Ownable.sol\":2081:2279  function transferOwnership(address newOwner) public virtual onlyOwner {... */\n      pop\n      jump\t// out\n        /* \"@openzeppelin/contracts/access/Ownable.sol\":1359:1489  function _checkOwner() internal view virtual {... */\n    tag_42:\n        /* \"@openzeppelin/contracts/access/Ownable.sol\":1433:1445  _msgSender() */\n      tag_71\n        /* \"@openzeppelin/contracts/access/Ownable.sol\":1433:1443  _msgSender */\n      tag_72\n        /* \"@openzeppelin/contracts/access/Ownable.sol\":1433:1445  _msgSender() */\n      jump\t// in\n    tag_71:\n        /* \"@openzeppelin/contracts/access/Ownable.sol\":1422:1445  owner() == _msgSender() */\n      0xffffffffffffffffffffffffffffffffffffffff\n      and\n        /* \"@openzeppelin/contracts/access/Ownable.sol\":1422:1429  owner() */\n      tag_73\n        /* \"@openzeppelin/contracts/access/Ownable.sol\":1422:1427  owner */\n      tag_23\n        /* \"@openzeppelin/contracts/access/Ownable.sol\":1422:1429  owner() */\n      jump\t// in\n    tag_73:\n        /* \"@openzeppelin/contracts/access/Ownable.sol\":1422:1445  owner() == _msgSender() */\n      0xffffffffffffffffffffffffffffffffffffffff\n      and\n      eq\n        /* \"@openzeppelin/contracts/access/Ownable.sol\":1414:1482  require(owner() == _msgSender(), \"Ownable: caller is not the owner\") */\n      tag_74\n      jumpi\n      mload(0x40)\n      0x08c379a000000000000000000000000000000000000000000000000000000000\n      dup2\n      mstore\n      0x04\n      add\n      tag_75\n      swap1\n      tag_76\n      jump\t// in\n    tag_75:\n      mload(0x40)\n      dup1\n      swap2\n      sub\n      swap1\n      revert\n    tag_74:\n        /* \"@openzeppelin/contracts/access/Ownable.sol\":1359:1489  function _checkOwner() internal view virtual {... */\n      jump\t// out\n        /* \"@openzeppelin/contracts/access/Ownable.sol\":2433:2620  function _transferOwnership(address newOwner) internal virtual {... */\n    tag_45:\n        /* \"@openzeppelin/contracts/access/Ownable.sol\":2506:2522  address oldOwner */\n      0x00\n        /* \"@openzeppelin/contracts/access/Ownable.sol\":2525:2531  _owner */\n      dup1\n      0x00\n      swap1\n      sload\n      swap1\n      0x0100\n      exp\n      swap1\n      div\n      0xffffffffffffffffffffffffffffffffffffffff\n      and\n        /* \"@openzeppelin/contracts/access/Ownable.sol\":2506:2531  address oldOwner = _owner */\n      swap1\n      pop\n        /* \"@openzeppelin/contracts/access/Ownable.sol\":2550:2558  newOwner */\n      dup2\n        /* \"@openzeppelin/contracts/access/Ownable.sol\":2541:2547  _owner */\n      0x00\n      dup1\n        /* \"@openzeppelin/contracts/access/Ownable.sol\":2541:2558  _owner = newOwner */\n      0x0100\n      exp\n      dup2\n      sload\n      dup2\n      0xffffffffffffffffffffffffffffffffffffffff\n      mul\n      not\n      and\n      swap1\n      dup4\n      0xffffffffffffffffffffffffffffffffffffffff\n      and\n      mul\n      or\n      swap1\n      sstore\n      pop\n        /* \"@openzeppelin/contracts/access/Ownable.sol\":2604:2612  newOwner */\n      dup2\n        /* \"@openzeppelin/contracts/access/Ownable.sol\":2573:2613  OwnershipTransferred(oldOwner, newOwner) */\n      0xffffffffffffffffffffffffffffffffffffffff\n      and\n        /* \"@openzeppelin/contracts/access/Ownable.sol\":2594:2602  oldOwner */\n      dup2\n        /* \"@openzeppelin/contracts/access/Ownable.sol\":2573:2613  OwnershipTransferred(oldOwner, newOwner) */\n      0xffffffffffffffffffffffffffffffffffffffff\n      and\n      0x8be0079c531659141344cd1fd0a4f28419497f9722a3daafe3b4186f6b6457e0\n      mload(0x40)\n      mload(0x40)\n      dup1\n      swap2\n      sub\n      swap1\n      log3\n        /* \"@openzeppelin/contracts/access/Ownable.sol\":2433:2620  function _transferOwnership(address newOwner) internal virtual {... */\n      pop\n      pop\n      jump\t// out\n        /* \"@openzeppelin/contracts/utils/Context.sol\":640:736  function _msgSender() internal view virtual returns (address) {... */\n    tag_72:\n        /* \"@openzeppelin/contracts/utils/Context.sol\":693:700  address */\n      0x00\n        /* \"@openzeppelin/contracts/utils/Context.sol\":719:729  msg.sender */\n      caller\n        /* \"@openzeppelin/contracts/utils/Context.sol\":712:729  return msg.sender */\n      swap1\n      pop\n        /* \"@openzeppelin/contracts/utils/Context.sol\":640:736  function _msgSender() internal view virtual returns (address) {... */\n      swap1\n      jump\t// out\n        /* \"#utility.yul\":7:146   */\n    tag_80:\n      0x00\n        /* \"#utility.yul\":91:97   */\n      dup2\n        /* \"#utility.yul\":78:98   */\n      calldataload\n        /* \"#utility.yul\":69:98   */\n      swap1\n      pop\n        /* \"#utility.yul\":107:140   */\n      tag_82\n        /* \"#utility.yul\":134:139   */\n      dup2\n        /* \"#utility.yul\":107:140   */\n      tag_83\n      jump\t// in\n    tag_82:\n        /* \"#utility.yul\":59:146   */\n      swap3\n      swap2\n      pop\n      pop\n      jump\t// out\n        /* \"#utility.yul\":152:291   */\n    tag_84:\n      0x00\n        /* \"#utility.yul\":236:242   */\n      dup2\n        /* \"#utility.yul\":223:243   */\n      calldataload\n        /* \"#utility.yul\":214:243   */\n      swap1\n      pop\n        /* \"#utility.yul\":252:285   */\n      tag_86\n        /* \"#utility.yul\":279:284   */\n      dup2\n        /* \"#utility.yul\":252:285   */\n      tag_87\n      jump\t// in\n    tag_86:\n        /* \"#utility.yul\":204:291   */\n      swap3\n      swap2\n      pop\n      pop\n      jump\t// out\n        /* \"#utility.yul\":297:559   */\n    tag_29:\n      0x00\n        /* \"#utility.yul\":405:407   */\n      0x20\n        /* \"#utility.yul\":393:402   */\n      dup3\n        /* \"#utility.yul\":384:391   */\n      dup5\n        /* \"#utility.yul\":380:403   */\n      sub\n        /* \"#utility.yul\":376:408   */\n      slt\n        /* \"#utility.yul\":373:375   */\n      iszero\n      tag_89\n      jumpi\n        /* \"#utility.yul\":421:422   */\n      0x00\n        /* \"#utility.yul\":418:419   */\n      dup1\n        /* \"#utility.yul\":411:423   */\n      revert\n        /* \"#utility.yul\":373:375   */\n    tag_89:\n        /* \"#utility.yul\":464:465   */\n      0x00\n        /* \"#utility.yul\":489:542   */\n      tag_90\n        /* \"#utility.yul\":534:541   */\n      dup5\n        /* \"#utility.yul\":525:531   */\n      dup3\n        /* \"#utility.yul\":514:523   */\n      dup6\n        /* \"#utility.yul\":510:532   */\n      add\n        /* \"#utility.yul\":489:542   */\n      tag_80\n      jump\t// in\n    tag_90:\n        /* \"#utility.yul\":479:542   */\n      swap2\n      pop\n        /* \"#utility.yul\":435:552   */\n      pop\n        /* \"#utility.yul\":363:559   */\n      swap3\n      swap2\n      pop\n      pop\n      jump\t// out\n        /* \"#utility.yul\":565:827   */\n    tag_18:\n      0x00\n        /* \"#utility.yul\":673:675   */\n      0x20\n        /* \"#utility.yul\":661:670   */\n      dup3\n        /* \"#utility.yul\":652:659   */\n      dup5\n        /* \"#utility.yul\":648:671   */\n      sub\n        /* \"#utility.yul\":644:676   */\n      slt\n        /* \"#utility.yul\":641:643   */\n      iszero\n      tag_92\n      jumpi\n        /* \"#utility.yul\":689:690   */\n      0x00\n        /* \"#utility.yul\":686:687   */\n      dup1\n        /* \"#utility.yul\":679:691   */\n      revert\n        /* \"#utility.yul\":641:643   */\n    tag_92:\n        /* \"#utility.yul\":732:733   */\n      0x00\n        /* \"#utility.yul\":757:810   */\n      tag_93\n        /* \"#utility.yul\":802:809   */\n      dup5\n        /* \"#utility.yul\":793:799   */\n      dup3\n        /* \"#utility.yul\":782:791   */\n      dup6\n        /* \"#utility.yul\":778:800   */\n      add\n        /* \"#utility.yul\":757:810   */\n      tag_84\n      jump\t// in\n    tag_93:\n        /* \"#utility.yul\":747:810   */\n      swap2\n      pop\n        /* \"#utility.yul\":703:820   */\n      pop\n        /* \"#utility.yul\":631:827   */\n      swap3\n      swap2\n      pop\n      pop\n      jump\t// out\n        /* \"#utility.yul\":833:951   */\n    tag_94:\n        /* \"#utility.yul\":920:944   */\n      tag_96\n        /* \"#utility.yul\":938:943   */\n      dup2\n        /* \"#utility.yul\":920:944   */\n      tag_97\n      jump\t// in\n    tag_96:\n        /* \"#utility.yul\":915:918   */\n      dup3\n        /* \"#utility.yul\":908:945   */\n      mstore\n        /* \"#utility.yul\":898:951   */\n      pop\n      pop\n      jump\t// out\n        /* \"#utility.yul\":957:1066   */\n    tag_98:\n        /* \"#utility.yul\":1038:1059   */\n      tag_100\n        /* \"#utility.yul\":1053:1058   */\n      dup2\n        /* \"#utility.yul\":1038:1059   */\n      tag_101\n      jump\t// in\n    tag_100:\n        /* \"#utility.yul\":1033:1036   */\n      dup3\n        /* \"#utility.yul\":1026:1060   */\n      mstore\n        /* \"#utility.yul\":1016:1066   */\n      pop\n      pop\n      jump\t// out\n        /* \"#utility.yul\":1072:1388   */\n    tag_102:\n      0x00\n        /* \"#utility.yul\":1235:1302   */\n      tag_104\n        /* \"#utility.yul\":1299:1301   */\n      0x12\n        /* \"#utility.yul\":1294:1297   */\n      dup4\n        /* \"#utility.yul\":1235:1302   */\n      tag_105\n      jump\t// in\n    tag_104:\n        /* \"#utility.yul\":1228:1302   */\n      swap2\n      pop\n        /* \"#utility.yul\":1332:1352   */\n      0x62616c616e6365206e6f7420656e6f7567680000000000000000000000000000\n        /* \"#utility.yul\":1328:1329   */\n      0x00\n        /* \"#utility.yul\":1323:1326   */\n      dup4\n        /* \"#utility.yul\":1319:1330   */\n      add\n        /* \"#utility.yul\":1312:1353   */\n      mstore\n        /* \"#utility.yul\":1379:1381   */\n      0x20\n        /* \"#utility.yul\":1374:1377   */\n      dup3\n        /* \"#utility.yul\":1370:1382   */\n      add\n        /* \"#utility.yul\":1363:1382   */\n      swap1\n      pop\n        /* \"#utility.yul\":1218:1388   */\n      swap2\n      swap1\n      pop\n      jump\t// out\n        /* \"#utility.yul\":1394:1764   */\n    tag_106:\n      0x00\n        /* \"#utility.yul\":1557:1624   */\n      tag_108\n        /* \"#utility.yul\":1621:1623   */\n      0x26\n        /* \"#utility.yul\":1616:1619   */\n      dup4\n        /* \"#utility.yul\":1557:1624   */\n      tag_105\n      jump\t// in\n    tag_108:\n        /* \"#utility.yul\":1550:1624   */\n      swap2\n      pop\n        /* \"#utility.yul\":1654:1688   */\n      0x4f776e61626c653a206e6577206f776e657220697320746865207a65726f2061\n        /* \"#utility.yul\":1650:1651   */\n      0x00\n        /* \"#utility.yul\":1645:1648   */\n      dup4\n        /* \"#utility.yul\":1641:1652   */\n      add\n        /* \"#utility.yul\":1634:1689   */\n      mstore\n        /* \"#utility.yul\":1720:1728   */\n      0x6464726573730000000000000000000000000000000000000000000000000000\n        /* \"#utility.yul\":1715:1717   */\n      0x20\n        /* \"#utility.yul\":1710:1713   */\n      dup4\n        /* \"#utility.yul\":1706:1718   */\n      add\n        /* \"#utility.yul\":1699:1729   */\n      mstore\n        /* \"#utility.yul\":1755:1757   */\n      0x40\n        /* \"#utility.yul\":1750:1753   */\n      dup3\n        /* \"#utility.yul\":1746:1758   */\n      add\n        /* \"#utility.yul\":1739:1758   */\n      swap1\n      pop\n        /* \"#utility.yul\":1540:1764   */\n      swap2\n      swap1\n      pop\n      jump\t// out\n        /* \"#utility.yul\":1770:2100   */\n    tag_109:\n      0x00\n        /* \"#utility.yul\":1933:2000   */\n      tag_111\n        /* \"#utility.yul\":1997:1999   */\n      0x20\n        /* \"#utility.yul\":1992:1995   */\n      dup4\n        /* \"#utility.yul\":1933:2000   */\n      tag_105\n      jump\t// in\n    tag_111:\n        /* \"#utility.yul\":1926:2000   */\n      swap2\n      pop\n        /* \"#utility.yul\":2030:2064   */\n      0x4f776e61626c653a2063616c6c6572206973206e6f7420746865206f776e6572\n        /* \"#utility.yul\":2026:2027   */\n      0x00\n        /* \"#utility.yul\":2021:2024   */\n      dup4\n        /* \"#utility.yul\":2017:2028   */\n      add\n        /* \"#utility.yul\":2010:2065   */\n      mstore\n        /* \"#utility.yul\":2091:2093   */\n      0x20\n        /* \"#utility.yul\":2086:2089   */\n      dup3\n        /* \"#utility.yul\":2082:2094   */\n      add\n        /* \"#utility.yul\":2075:2094   */\n      swap1\n      pop\n        /* \"#utility.yul\":1916:2100   */\n      swap2\n      swap1\n      pop\n      jump\t// out\n        /* \"#utility.yul\":2106:2403   */\n    tag_112:\n      0x00\n        /* \"#utility.yul\":2286:2369   */\n      tag_114\n        /* \"#utility.yul\":2367:2368   */\n      0x00\n        /* \"#utility.yul\":2362:2365   */\n      dup4\n        /* \"#utility.yul\":2286:2369   */\n      tag_115\n      jump\t// in\n    tag_114:\n        /* \"#utility.yul\":2279:2369   */\n      swap2\n      pop\n        /* \"#utility.yul\":2395:2396   */\n      0x00\n        /* \"#utility.yul\":2390:2393   */\n      dup3\n        /* \"#utility.yul\":2386:2397   */\n      add\n        /* \"#utility.yul\":2379:2397   */\n      swap1\n      pop\n        /* \"#utility.yul\":2269:2403   */\n      swap2\n      swap1\n      pop\n      jump\t// out\n        /* \"#utility.yul\":2409:2527   */\n    tag_116:\n        /* \"#utility.yul\":2496:2520   */\n      tag_118\n        /* \"#utility.yul\":2514:2519   */\n      dup2\n        /* \"#utility.yul\":2496:2520   */\n      tag_119\n      jump\t// in\n    tag_118:\n        /* \"#utility.yul\":2491:2494   */\n      dup3\n        /* \"#utility.yul\":2484:2521   */\n      mstore\n        /* \"#utility.yul\":2474:2527   */\n      pop\n      pop\n      jump\t// out\n        /* \"#utility.yul\":2533:2912   */\n    tag_51:\n      0x00\n        /* \"#utility.yul\":2739:2886   */\n      tag_121\n        /* \"#utility.yul\":2882:2885   */\n      dup3\n        /* \"#utility.yul\":2739:2886   */\n      tag_112\n      jump\t// in\n    tag_121:\n        /* \"#utility.yul\":2732:2886   */\n      swap2\n      pop\n        /* \"#utility.yul\":2903:2906   */\n      dup2\n        /* \"#utility.yul\":2896:2906   */\n      swap1\n      pop\n        /* \"#utility.yul\":2721:2912   */\n      swap2\n      swap1\n      pop\n      jump\t// out\n        /* \"#utility.yul\":2918:3140   */\n    tag_25:\n      0x00\n        /* \"#utility.yul\":3049:3051   */\n      0x20\n        /* \"#utility.yul\":3038:3047   */\n      dup3\n        /* \"#utility.yul\":3034:3052   */\n      add\n        /* \"#utility.yul\":3026:3052   */\n      swap1\n      pop\n        /* \"#utility.yul\":3062:3133   */\n      tag_123\n        /* \"#utility.yul\":3130:3131   */\n      0x00\n        /* \"#utility.yul\":3119:3128   */\n      dup4\n        /* \"#utility.yul\":3115:3132   */\n      add\n        /* \"#utility.yul\":3106:3112   */\n      dup5\n        /* \"#utility.yul\":3062:3133   */\n      tag_94\n      jump\t// in\n    tag_123:\n        /* \"#utility.yul\":3016:3140   */\n      swap3\n      swap2\n      pop\n      pop\n      jump\t// out\n        /* \"#utility.yul\":3146:3356   */\n    tag_11:\n      0x00\n        /* \"#utility.yul\":3271:3273   */\n      0x20\n        /* \"#utility.yul\":3260:3269   */\n      dup3\n        /* \"#utility.yul\":3256:3274   */\n      add\n        /* \"#utility.yul\":3248:3274   */\n      swap1\n      pop\n        /* \"#utility.yul\":3284:3349   */\n      tag_125\n        /* \"#utility.yul\":3346:3347   */\n      0x00\n        /* \"#utility.yul\":3335:3344   */\n      dup4\n        /* \"#utility.yul\":3331:3348   */\n      add\n        /* \"#utility.yul\":3322:3328   */\n      dup5\n        /* \"#utility.yul\":3284:3349   */\n      tag_98\n      jump\t// in\n    tag_125:\n        /* \"#utility.yul\":3238:3356   */\n      swap3\n      swap2\n      pop\n      pop\n      jump\t// out\n        /* \"#utility.yul\":3362:3781   */\n    tag_49:\n      0x00\n        /* \"#utility.yul\":3566:3568   */\n      0x20\n        /* \"#utility.yul\":3555:3564   */\n      dup3\n        /* \"#utility.yul\":3551:3569   */\n      add\n        /* \"#utility.yul\":3543:3569   */\n      swap1\n      pop\n        /* \"#utility.yul\":3615:3624   */\n      dup2\n        /* \"#utility.yul\":3609:3613   */\n      dup2\n        /* \"#utility.yul\":3605:3625   */\n      sub\n        /* \"#utility.yul\":3601:3602   */\n      0x00\n        /* \"#utility.yul\":3590:3599   */\n      dup4\n        /* \"#utility.yul\":3586:3603   */\n      add\n        /* \"#utility.yul\":3579:3626   */\n      mstore\n        /* \"#utility.yul\":3643:3774   */\n      tag_127\n        /* \"#utility.yul\":3769:3773   */\n      dup2\n        /* \"#utility.yul\":3643:3774   */\n      tag_102\n      jump\t// in\n    tag_127:\n        /* \"#utility.yul\":3635:3774   */\n      swap1\n      pop\n        /* \"#utility.yul\":3533:3781   */\n      swap2\n      swap1\n      pop\n      jump\t// out\n        /* \"#utility.yul\":3787:4206   */\n    tag_68:\n      0x00\n        /* \"#utility.yul\":3991:3993   */\n      0x20\n        /* \"#utility.yul\":3980:3989   */\n      dup3\n        /* \"#utility.yul\":3976:3994   */\n      add\n        /* \"#utility.yul\":3968:3994   */\n      swap1\n      pop\n        /* \"#utility.yul\":4040:4049   */\n      dup2\n        /* \"#utility.yul\":4034:4038   */\n      dup2\n        /* \"#utility.yul\":4030:4050   */\n      sub\n        /* \"#utility.yul\":4026:4027   */\n      0x00\n        /* \"#utility.yul\":4015:4024   */\n      dup4\n        /* \"#utility.yul\":4011:4028   */\n      add\n        /* \"#utility.yul\":4004:4051   */\n      mstore\n        /* \"#utility.yul\":4068:4199   */\n      tag_129\n        /* \"#utility.yul\":4194:4198   */\n      dup2\n        /* \"#utility.yul\":4068:4199   */\n      tag_106\n      jump\t// in\n    tag_129:\n        /* \"#utility.yul\":4060:4199   */\n      swap1\n      pop\n        /* \"#utility.yul\":3958:4206   */\n      swap2\n      swap1\n      pop\n      jump\t// out\n        /* \"#utility.yul\":4212:4631   */\n    tag_76:\n      0x00\n        /* \"#utility.yul\":4416:4418   */\n      0x20\n        /* \"#utility.yul\":4405:4414   */\n      dup3\n        /* \"#utility.yul\":4401:4419   */\n      add\n        /* \"#utility.yul\":4393:4419   */\n      swap1\n      pop\n        /* \"#utility.yul\":4465:4474   */\n      dup2\n        /* \"#utility.yul\":4459:4463   */\n      dup2\n        /* \"#utility.yul\":4455:4475   */\n      sub\n        /* \"#utility.yul\":4451:4452   */\n      0x00\n        /* \"#utility.yul\":4440:4449   */\n      dup4\n        /* \"#utility.yul\":4436:4453   */\n      add\n        /* \"#utility.yul\":4429:4476   */\n      mstore\n        /* \"#utility.yul\":4493:4624   */\n      tag_131\n        /* \"#utility.yul\":4619:4623   */\n      dup2\n        /* \"#utility.yul\":4493:4624   */\n      tag_109\n      jump\t// in\n    tag_131:\n        /* \"#utility.yul\":4485:4624   */\n      swap1\n      pop\n        /* \"#utility.yul\":4383:4631   */\n      swap2\n      swap1\n      pop\n      jump\t// out\n        /* \"#utility.yul\":4637:4859   */\n    tag_32:\n      0x00\n        /* \"#utility.yul\":4768:4770   */\n      0x20\n        /* \"#utility.yul\":4757:4766   */\n      dup3\n        /* \"#utility.yul\":4753:4771   */\n      add\n        /* \"#utility.yul\":4745:4771   */\n      swap1\n      pop\n        /* \"#utility.yul\":4781:4852   */\n      tag_133\n        /* \"#utility.yul\":4849:4850   */\n      0x00\n        /* \"#utility.yul\":4838:4847   */\n      dup4\n        /* \"#utility.yul\":4834:4851   */\n      add\n        /* \"#utility.yul\":4825:4831   */\n      dup5\n        /* \"#utility.yul\":4781:4852   */\n      tag_116\n      jump\t// in\n    tag_133:\n        /* \"#utility.yul\":4735:4859   */\n      swap3\n      swap2\n      pop\n      pop\n      jump\t// out\n        /* \"#utility.yul\":4865:5012   */\n    tag_115:\n      0x00\n        /* \"#utility.yul\":5003:5006   */\n      dup2\n        /* \"#utility.yul\":4988:5006   */\n      swap1\n      pop\n        /* \"#utility.yul\":4978:5012   */\n      swap3\n      swap2\n      pop\n      pop\n      jump\t// out\n        /* \"#utility.yul\":5018:5187   */\n    tag_105:\n      0x00\n        /* \"#utility.yul\":5136:5142   */\n      dup3\n        /* \"#utility.yul\":5131:5134   */\n      dup3\n        /* \"#utility.yul\":5124:5143   */\n      mstore\n        /* \"#utility.yul\":5176:5180   */\n      0x20\n        /* \"#utility.yul\":5171:5174   */\n      dup3\n        /* \"#utility.yul\":5167:5181   */\n      add\n        /* \"#utility.yul\":5152:5181   */\n      swap1\n      pop\n        /* \"#utility.yul\":5114:5187   */\n      swap3\n      swap2\n      pop\n      pop\n      jump\t// out\n        /* \"#utility.yul\":5193:5498   */\n    tag_39:\n      0x00\n        /* \"#utility.yul\":5252:5272   */\n      tag_137\n        /* \"#utility.yul\":5270:5271   */\n      dup3\n        /* \"#utility.yul\":5252:5272   */\n      tag_119\n      jump\t// in\n    tag_137:\n        /* \"#utility.yul\":5247:5272   */\n      swap2\n      pop\n        /* \"#utility.yul\":5286:5306   */\n      tag_138\n        /* \"#utility.yul\":5304:5305   */\n      dup4\n        /* \"#utility.yul\":5286:5306   */\n      tag_119\n      jump\t// in\n    tag_138:\n        /* \"#utility.yul\":5281:5306   */\n      swap3\n      pop\n        /* \"#utility.yul\":5440:5441   */\n      dup3\n        /* \"#utility.yul\":5372:5438   */\n      0xffffffffffffffffffffffffffffffffffffffffffffffffffffffffffffffff\n        /* \"#utility.yul\":5368:5442   */\n      sub\n        /* \"#utility.yul\":5365:5366   */\n      dup3\n        /* \"#utility.yul\":5362:5443   */\n      gt\n        /* \"#utility.yul\":5359:5361   */\n      iszero\n      tag_139\n      jumpi\n        /* \"#utility.yul\":5446:5464   */\n      tag_140\n      tag_141\n      jump\t// in\n    tag_140:\n        /* \"#utility.yul\":5359:5361   */\n    tag_139:\n        /* \"#utility.yul\":5490:5491   */\n      dup3\n        /* \"#utility.yul\":5487:5488   */\n      dup3\n        /* \"#utility.yul\":5483:5492   */\n      add\n        /* \"#utility.yul\":5476:5492   */\n      swap1\n      pop\n        /* \"#utility.yul\":5237:5498   */\n      swap3\n      swap2\n      pop\n      pop\n      jump\t// out\n        /* \"#utility.yul\":5504:5695   */\n    tag_57:\n      0x00\n        /* \"#utility.yul\":5564:5584   */\n      tag_143\n        /* \"#utility.yul\":5582:5583   */\n      dup3\n        /* \"#utility.yul\":5564:5584   */\n      tag_119\n      jump\t// in\n    tag_143:\n        /* \"#utility.yul\":5559:5584   */\n      swap2\n      pop\n        /* \"#utility.yul\":5598:5618   */\n      tag_144\n        /* \"#utility.yul\":5616:5617   */\n      dup4\n        /* \"#utility.yul\":5598:5618   */\n      tag_119\n      jump\t// in\n    tag_144:\n        /* \"#utility.yul\":5593:5618   */\n      swap3\n      pop\n        /* \"#utility.yul\":5637:5638   */\n      dup3\n        /* \"#utility.yul\":5634:5635   */\n      dup3\n        /* \"#utility.yul\":5631:5639   */\n      lt\n        /* \"#utility.yul\":5628:5630   */\n      iszero\n      tag_145\n      jumpi\n        /* \"#utility.yul\":5642:5660   */\n      tag_146\n      tag_141\n      jump\t// in\n    tag_146:\n        /* \"#utility.yul\":5628:5630   */\n    tag_145:\n        /* \"#utility.yul\":5687:5688   */\n      dup3\n        /* \"#utility.yul\":5684:5685   */\n      dup3\n        /* \"#utility.yul\":5680:5689   */\n      sub\n        /* \"#utility.yul\":5672:5689   */\n      swap1\n      pop\n        /* \"#utility.yul\":5549:5695   */\n      swap3\n      swap2\n      pop\n      pop\n      jump\t// out\n        /* \"#utility.yul\":5701:5797   */\n    tag_97:\n      0x00\n        /* \"#utility.yul\":5767:5791   */\n      tag_148\n        /* \"#utility.yul\":5785:5790   */\n      dup3\n        /* \"#utility.yul\":5767:5791   */\n      tag_149\n      jump\t// in\n    tag_148:\n        /* \"#utility.yul\":5756:5791   */\n      swap1\n      pop\n        /* \"#utility.yul\":5746:5797   */\n      swap2\n      swap1\n      pop\n      jump\t// out\n        /* \"#utility.yul\":5803:5893   */\n    tag_101:\n      0x00\n        /* \"#utility.yul\":5880:5885   */\n      dup2\n        /* \"#utility.yul\":5873:5886   */\n      iszero\n        /* \"#utility.yul\":5866:5887   */\n      iszero\n        /* \"#utility.yul\":5855:5887   */\n      swap1\n      pop\n        /* \"#utility.yul\":5845:5893   */\n      swap2\n      swap1\n      pop\n      jump\t// out\n        /* \"#utility.yul\":5899:6025   */\n    tag_149:\n      0x00\n        /* \"#utility.yul\":5976:6018   */\n      0xffffffffffffffffffffffffffffffffffffffff\n        /* \"#utility.yul\":5969:5974   */\n      dup3\n        /* \"#utility.yul\":5965:6019   */\n      and\n        /* \"#utility.yul\":5954:6019   */\n      swap1\n      pop\n        /* \"#utility.yul\":5944:6025   */\n      swap2\n      swap1\n      pop\n      jump\t// out\n        /* \"#utility.yul\":6031:6108   */\n    tag_119:\n      0x00\n        /* \"#utility.yul\":6097:6102   */\n      dup2\n        /* \"#utility.yul\":6086:6102   */\n      swap1\n      pop\n        /* \"#utility.yul\":6076:6108   */\n      swap2\n      swap1\n      pop\n      jump\t// out\n        /* \"#utility.yul\":6114:6294   */\n    tag_141:\n        /* \"#utility.yul\":6162:6239   */\n      0x4e487b7100000000000000000000000000000000000000000000000000000000\n        /* \"#utility.yul\":6159:6160   */\n      0x00\n        /* \"#utility.yul\":6152:6240   */\n      mstore\n        /* \"#utility.yul\":6259:6263   */\n      0x11\n        /* \"#utility.yul\":6256:6257   */\n      0x04\n        /* \"#utility.yul\":6249:6264   */\n      mstore\n        /* \"#utility.yul\":6283:6287   */\n      0x24\n        /* \"#utility.yul\":6280:6281   */\n      0x00\n        /* \"#utility.yul\":6273:6288   */\n      revert\n        /* \"#utility.yul\":6300:6422   */\n    tag_83:\n        /* \"#utility.yul\":6373:6397   */\n      tag_155\n        /* \"#utility.yul\":6391:6396   */\n      dup2\n        /* \"#utility.yul\":6373:6397   */\n      tag_97\n      jump\t// in\n    tag_155:\n        /* \"#utility.yul\":6366:6371   */\n      dup2\n        /* \"#utility.yul\":6363:6398   */\n      eq\n        /* \"#utility.yul\":6353:6355   */\n      tag_156\n      jumpi\n        /* \"#utility.yul\":6412:6413   */\n      0x00\n        /* \"#utility.yul\":6409:6410   */\n      dup1\n        /* \"#utility.yul\":6402:6414   */\n      revert\n        /* \"#utility.yul\":6353:6355   */\n    tag_156:\n        /* \"#utility.yul\":6343:6422   */\n      pop\n      jump\t// out\n        /* \"#utility.yul\":6428:6550   */\n    tag_87:\n        /* \"#utility.yul\":6501:6525   */\n      tag_158\n        /* \"#utility.yul\":6519:6524   */\n      dup2\n        /* \"#utility.yul\":6501:6525   */\n      tag_119\n      jump\t// in\n    tag_158:\n        /* \"#utility.yul\":6494:6499   */\n      dup2\n        /* \"#utility.yul\":6491:6526   */\n      eq\n        /* \"#utility.yul\":6481:6483   */\n      tag_159\n      jumpi\n        /* \"#utility.yul\":6540:6541   */\n      0x00\n        /* \"#utility.yul\":6537:6538   */\n      dup1\n        /* \"#utility.yul\":6530:6542   */\n      revert\n        /* \"#utility.yul\":6481:6483   */\n    tag_159:\n        /* \"#utility.yul\":6471:6550   */\n      pop\n      jump\t// out\n\n    auxdata: 0xa2646970667358221220af6e2a252fa42b33244c84f12fc9617a08c2707349a50e12a95b36adf1f2ec5564736f6c63430008000033\n}\n",
				"bytecode": {
					"linkReferences": {},
					"object": "608060405234801561001057600080fd5b5061002d61002261003260201b60201c565b61003a60201b60201c565b6100fe565b600033905090565b60008060009054906101000a900473ffffffffffffffffffffffffffffffffffffffff169050816000806101000a81548173ffffffffffffffffffffffffffffffffffffffff021916908373ffffffffffffffffffffffffffffffffffffffff1602179055508173ffffffffffffffffffffffffffffffffffffffff168173ffffffffffffffffffffffffffffffffffffffff167f8be0079c531659141344cd1fd0a4f28419497f9722a3daafe3b4186f6b6457e060405160405180910390a35050565b6109a88061010d6000396000f3fe6080604052600436106100555760003560e01c806342dad49e1461005a578063715018a614610078578063835fc6ca1461008f5780638da5cb5b146100cc578063c23697a8146100f7578063f2fde38b14610134575b600080fd5b61006261015d565b60405161006f9190610791565b60405180910390f35b34801561008457600080fd5b5061008d6101fc565b005b34801561009b57600080fd5b506100b660048036038101906100b1919061060b565b610210565b6040516100c39190610791565b60405180910390f35b3480156100d857600080fd5b506100e1610370565b6040516100ee9190610776565b60405180910390f35b34801561010357600080fd5b5061011e600480360381019061011991906105e2565b610399565b60405161012b919061080c565b60405180910390f35b34801561014057600080fd5b5061015b600480360381019061015691906105e2565b6103ea565b005b600080600160003373ffffffffffffffffffffffffffffffffffffffff1673ffffffffffffffffffffffffffffffffffffffff16815260200190815260200160002054905034816101ae9190610843565b905080600160003373ffffffffffffffffffffffffffffffffffffffff1673ffffffffffffffffffffffffffffffffffffffff16815260200190815260200160002081905550600191505090565b61020461046e565b61020e60006104ec565b565b600080600160003373ffffffffffffffffffffffffffffffffffffffff1673ffffffffffffffffffffffffffffffffffffffff16815260200190815260200160002054905082811015610298576040517f08c379a000000000000000000000000000000000000000000000000000000000815260040161028f906107ac565b60405180910390fd5b60003373ffffffffffffffffffffffffffffffffffffffff16846040516102be90610761565b60006040518083038185875af1925050503d80600081146102fb576040519150601f19603f3d011682016040523d82523d6000602084013e610300565b606091505b5050905080156103645783826103169190610899565b600160003373ffffffffffffffffffffffffffffffffffffffff1673ffffffffffffffffffffffffffffffffffffffff1681526020019081526020016000208190555060019250505061036b565b6000925050505b919050565b60008060009054906101000a900473ffffffffffffffffffffffffffffffffffffffff16905090565b60006103a361046e565b600160008373ffffffffffffffffffffffffffffffffffffffff1673ffffffffffffffffffffffffffffffffffffffff168152602001908152602001600020549050919050565b6103f261046e565b600073ffffffffffffffffffffffffffffffffffffffff168173ffffffffffffffffffffffffffffffffffffffff161415610462576040517f08c379a0000000000000000000000000000000000000000000000000000000008152600401610459906107cc565b60405180910390fd5b61046b816104ec565b50565b6104766105b0565b73ffffffffffffffffffffffffffffffffffffffff16610494610370565b73ffffffffffffffffffffffffffffffffffffffff16146104ea576040517f08c379a00000000000000000000000000000000000000000000000000000000081526004016104e1906107ec565b60405180910390fd5b565b60008060009054906101000a900473ffffffffffffffffffffffffffffffffffffffff169050816000806101000a81548173ffffffffffffffffffffffffffffffffffffffff021916908373ffffffffffffffffffffffffffffffffffffffff1602179055508173ffffffffffffffffffffffffffffffffffffffff168173ffffffffffffffffffffffffffffffffffffffff167f8be0079c531659141344cd1fd0a4f28419497f9722a3daafe3b4186f6b6457e060405160405180910390a35050565b600033905090565b6000813590506105c781610944565b92915050565b6000813590506105dc8161095b565b92915050565b6000602082840312156105f457600080fd5b6000610602848285016105b8565b91505092915050565b60006020828403121561061d57600080fd5b600061062b848285016105cd565b91505092915050565b61063d816108cd565b82525050565b61064c816108df565b82525050565b600061065f601283610832565b91507f62616c616e6365206e6f7420656e6f75676800000000000000000000000000006000830152602082019050919050565b600061069f602683610832565b91507f4f776e61626c653a206e6577206f776e657220697320746865207a65726f206160008301527f64647265737300000000000000000000000000000000000000000000000000006020830152604082019050919050565b6000610705602083610832565b91507f4f776e61626c653a2063616c6c6572206973206e6f7420746865206f776e65726000830152602082019050919050565b6000610745600083610827565b9150600082019050919050565b61075b8161090b565b82525050565b600061076c82610738565b9150819050919050565b600060208201905061078b6000830184610634565b92915050565b60006020820190506107a66000830184610643565b92915050565b600060208201905081810360008301526107c581610652565b9050919050565b600060208201905081810360008301526107e581610692565b9050919050565b60006020820190508181036000830152610805816106f8565b9050919050565b60006020820190506108216000830184610752565b92915050565b600081905092915050565b600082825260208201905092915050565b600061084e8261090b565b91506108598361090b565b9250827fffffffffffffffffffffffffffffffffffffffffffffffffffffffffffffffff0382111561088e5761088d610915565b5b828201905092915050565b60006108a48261090b565b91506108af8361090b565b9250828210156108c2576108c1610915565b5b828203905092915050565b60006108d8826108eb565b9050919050565b60008115159050919050565b600073ffffffffffffffffffffffffffffffffffffffff82169050919050565b6000819050919050565b7f4e487b7100000000000000000000000000000000000000000000000000000000600052601160045260246000fd5b61094d816108cd565b811461095857600080fd5b50565b6109648161090b565b811461096f57600080fd5b5056fea2646970667358221220af6e2a252fa42b33244c84f12fc9617a08c2707349a50e12a95b36adf1f2ec5564736f6c63430008000033",
					"opcodes": "PUSH1 0x80 PUSH1 0x40 MSTORE CALLVALUE DUP1 ISZERO PUSH2 0x10 JUMPI PUSH1 0x0 DUP1 REVERT JUMPDEST POP PUSH2 0x2D PUSH2 0x22 PUSH2 0x32 PUSH1 0x20 SHL PUSH1 0x20 SHR JUMP JUMPDEST PUSH2 0x3A PUSH1 0x20 SHL PUSH1 0x20 SHR JUMP JUMPDEST PUSH2 0xFE JUMP JUMPDEST PUSH1 0x0 CALLER SWAP1 POP SWAP1 JUMP JUMPDEST PUSH1 0x0 DUP1 PUSH1 0x0 SWAP1 SLOAD SWAP1 PUSH2 0x100 EXP SWAP1 DIV PUSH20 0xFFFFFFFFFFFFFFFFFFFFFFFFFFFFFFFFFFFFFFFF AND SWAP1 POP DUP2 PUSH1 0x0 DUP1 PUSH2 0x100 EXP DUP2 SLOAD DUP2 PUSH20 0xFFFFFFFFFFFFFFFFFFFFFFFFFFFFFFFFFFFFFFFF MUL NOT AND SWAP1 DUP4 PUSH20 0xFFFFFFFFFFFFFFFFFFFFFFFFFFFFFFFFFFFFFFFF AND MUL OR SWAP1 SSTORE POP DUP2 PUSH20 0xFFFFFFFFFFFFFFFFFFFFFFFFFFFFFFFFFFFFFFFF AND DUP2 PUSH20 0xFFFFFFFFFFFFFFFFFFFFFFFFFFFFFFFFFFFFFFFF AND PUSH32 0x8BE0079C531659141344CD1FD0A4F28419497F9722A3DAAFE3B4186F6B6457E0 PUSH1 0x40 MLOAD PUSH1 0x40 MLOAD DUP1 SWAP2 SUB SWAP1 LOG3 POP POP JUMP JUMPDEST PUSH2 0x9A8 DUP1 PUSH2 0x10D PUSH1 0x0 CODECOPY PUSH1 0x0 RETURN INVALID PUSH1 0x80 PUSH1 0x40 MSTORE PUSH1 0x4 CALLDATASIZE LT PUSH2 0x55 JUMPI PUSH1 0x0 CALLDATALOAD PUSH1 0xE0 SHR DUP1 PUSH4 0x42DAD49E EQ PUSH2 0x5A JUMPI DUP1 PUSH4 0x715018A6 EQ PUSH2 0x78 JUMPI DUP1 PUSH4 0x835FC6CA EQ PUSH2 0x8F JUMPI DUP1 PUSH4 0x8DA5CB5B EQ PUSH2 0xCC JUMPI DUP1 PUSH4 0xC23697A8 EQ PUSH2 0xF7 JUMPI DUP1 PUSH4 0xF2FDE38B EQ PUSH2 0x134 JUMPI JUMPDEST PUSH1 0x0 DUP1 REVERT JUMPDEST PUSH2 0x62 PUSH2 0x15D JUMP JUMPDEST PUSH1 0x40 MLOAD PUSH2 0x6F SWAP2 SWAP1 PUSH2 0x791 JUMP JUMPDEST PUSH1 0x40 MLOAD DUP1 SWAP2 SUB SWAP1 RETURN JUMPDEST CALLVALUE DUP1 ISZERO PUSH2 0x84 JUMPI PUSH1 0x0 DUP1 REVERT JUMPDEST POP PUSH2 0x8D PUSH2 0x1FC JUMP JUMPDEST STOP JUMPDEST CALLVALUE DUP1 ISZERO PUSH2 0x9B JUMPI PUSH1 0x0 DUP1 REVERT JUMPDEST POP PUSH2 0xB6 PUSH1 0x4 DUP1 CALLDATASIZE SUB DUP2 ADD SWAP1 PUSH2 0xB1 SWAP2 SWAP1 PUSH2 0x60B JUMP JUMPDEST PUSH2 0x210 JUMP JUMPDEST PUSH1 0x40 MLOAD PUSH2 0xC3 SWAP2 SWAP1 PUSH2 0x791 JUMP JUMPDEST PUSH1 0x40 MLOAD DUP1 SWAP2 SUB SWAP1 RETURN JUMPDEST CALLVALUE DUP1 ISZERO PUSH2 0xD8 JUMPI PUSH1 0x0 DUP1 REVERT JUMPDEST POP PUSH2 0xE1 PUSH2 0x370 JUMP JUMPDEST PUSH1 0x40 MLOAD PUSH2 0xEE SWAP2 SWAP1 PUSH2 0x776 JUMP JUMPDEST PUSH1 0x40 MLOAD DUP1 SWAP2 SUB SWAP1 RETURN JUMPDEST CALLVALUE DUP1 ISZERO PUSH2 0x103 JUMPI PUSH1 0x0 DUP1 REVERT JUMPDEST POP PUSH2 0x11E PUSH1 0x4 DUP1 CALLDATASIZE SUB DUP2 ADD SWAP1 PUSH2 0x119 SWAP2 SWAP1 PUSH2 0x5E2 JUMP JUMPDEST PUSH2 0x399 JUMP JUMPDEST PUSH1 0x40 MLOAD PUSH2 0x12B SWAP2 SWAP1 PUSH2 0x80C JUMP JUMPDEST PUSH1 0x40 MLOAD DUP1 SWAP2 SUB SWAP1 RETURN JUMPDEST CALLVALUE DUP1 ISZERO PUSH2 0x140 JUMPI PUSH1 0x0 DUP1 REVERT JUMPDEST POP PUSH2 0x15B PUSH1 0x4 DUP1 CALLDATASIZE SUB DUP2 ADD SWAP1 PUSH2 0x156 SWAP2 SWAP1 PUSH2 0x5E2 JUMP JUMPDEST PUSH2 0x3EA JUMP JUMPDEST STOP JUMPDEST PUSH1 0x0 DUP1 PUSH1 0x1 PUSH1 0x0 CALLER PUSH20 0xFFFFFFFFFFFFFFFFFFFFFFFFFFFFFFFFFFFFFFFF AND PUSH20 0xFFFFFFFFFFFFFFFFFFFFFFFFFFFFFFFFFFFFFFFF AND DUP2 MSTORE PUSH1 0x20 ADD SWAP1 DUP2 MSTORE PUSH1 0x20 ADD PUSH1 0x0 KECCAK256 SLOAD SWAP1 POP CALLVALUE DUP2 PUSH2 0x1AE SWAP2 SWAP1 PUSH2 0x843 JUMP JUMPDEST SWAP1 POP DUP1 PUSH1 0x1 PUSH1 0x0 CALLER PUSH20 0xFFFFFFFFFFFFFFFFFFFFFFFFFFFFFFFFFFFFFFFF AND PUSH20 0xFFFFFFFFFFFFFFFFFFFFFFFFFFFFFFFFFFFFFFFF AND DUP2 MSTORE PUSH1 0x20 ADD SWAP1 DUP2 MSTORE PUSH1 0x20 ADD PUSH1 0x0 KECCAK256 DUP2 SWAP1 SSTORE POP PUSH1 0x1 SWAP2 POP POP SWAP1 JUMP JUMPDEST PUSH2 0x204 PUSH2 0x46E JUMP JUMPDEST PUSH2 0x20E PUSH1 0x0 PUSH2 0x4EC JUMP JUMPDEST JUMP JUMPDEST PUSH1 0x0 DUP1 PUSH1 0x1 PUSH1 0x0 CALLER PUSH20 0xFFFFFFFFFFFFFFFFFFFFFFFFFFFFFFFFFFFFFFFF AND PUSH20 0xFFFFFFFFFFFFFFFFFFFFFFFFFFFFFFFFFFFFFFFF AND DUP2 MSTORE PUSH1 0x20 ADD SWAP1 DUP2 MSTORE PUSH1 0x20 ADD PUSH1 0x0 KECCAK256 SLOAD SWAP1 POP DUP3 DUP2 LT ISZERO PUSH2 0x298 JUMPI PUSH1 0x40 MLOAD PUSH32 0x8C379A000000000000000000000000000000000000000000000000000000000 DUP2 MSTORE PUSH1 0x4 ADD PUSH2 0x28F SWAP1 PUSH2 0x7AC JUMP JUMPDEST PUSH1 0x40 MLOAD DUP1 SWAP2 SUB SWAP1 REVERT JUMPDEST PUSH1 0x0 CALLER PUSH20 0xFFFFFFFFFFFFFFFFFFFFFFFFFFFFFFFFFFFFFFFF AND DUP5 PUSH1 0x40 MLOAD PUSH2 0x2BE SWAP1 PUSH2 0x761 JUMP JUMPDEST PUSH1 0x0 PUSH1 0x40 MLOAD DUP1 DUP4 SUB DUP2 DUP6 DUP8 GAS CALL SWAP3 POP POP POP RETURNDATASIZE DUP1 PUSH1 0x0 DUP2 EQ PUSH2 0x2FB JUMPI PUSH1 0x40 MLOAD SWAP2 POP PUSH1 0x1F NOT PUSH1 0x3F RETURNDATASIZE ADD AND DUP3 ADD PUSH1 0x40 MSTORE RETURNDATASIZE DUP3 MSTORE RETURNDATASIZE PUSH1 0x0 PUSH1 0x20 DUP5 ADD RETURNDATACOPY PUSH2 0x300 JUMP JUMPDEST PUSH1 0x60 SWAP2 POP JUMPDEST POP POP SWAP1 POP DUP1 ISZERO PUSH2 0x364 JUMPI DUP4 DUP3 PUSH2 0x316 SWAP2 SWAP1 PUSH2 0x899 JUMP JUMPDEST PUSH1 0x1 PUSH1 0x0 CALLER PUSH20 0xFFFFFFFFFFFFFFFFFFFFFFFFFFFFFFFFFFFFFFFF AND PUSH20 0xFFFFFFFFFFFFFFFFFFFFFFFFFFFFFFFFFFFFFFFF AND DUP2 MSTORE PUSH1 0x20 ADD SWAP1 DUP2 MSTORE PUSH1 0x20 ADD PUSH1 0x0 KECCAK256 DUP2 SWAP1 SSTORE POP PUSH1 0x1 SWAP3 POP POP POP PUSH2 0x36B JUMP JUMPDEST PUSH1 0x0 SWAP3 POP POP POP JUMPDEST SWAP2 SWAP1 POP JUMP JUMPDEST PUSH1 0x0 DUP1 PUSH1 0x0 SWAP1 SLOAD SWAP1 PUSH2 0x100 EXP SWAP1 DIV PUSH20 0xFFFFFFFFFFFFFFFFFFFFFFFFFFFFFFFFFFFFFFFF AND SWAP1 POP SWAP1 JUMP JUMPDEST PUSH1 0x0 PUSH2 0x3A3 PUSH2 0x46E JUMP JUMPDEST PUSH1 0x1 PUSH1 0x0 DUP4 PUSH20 0xFFFFFFFFFFFFFFFFFFFFFFFFFFFFFFFFFFFFFFFF AND PUSH20 0xFFFFFFFFFFFFFFFFFFFFFFFFFFFFFFFFFFFFFFFF AND DUP2 MSTORE PUSH1 0x20 ADD SWAP1 DUP2 MSTORE PUSH1 0x20 ADD PUSH1 0x0 KECCAK256 SLOAD SWAP1 POP SWAP2 SWAP1 POP JUMP JUMPDEST PUSH2 0x3F2 PUSH2 0x46E JUMP JUMPDEST PUSH1 0x0 PUSH20 0xFFFFFFFFFFFFFFFFFFFFFFFFFFFFFFFFFFFFFFFF AND DUP2 PUSH20 0xFFFFFFFFFFFFFFFFFFFFFFFFFFFFFFFFFFFFFFFF AND EQ ISZERO PUSH2 0x462 JUMPI PUSH1 0x40 MLOAD PUSH32 0x8C379A000000000000000000000000000000000000000000000000000000000 DUP2 MSTORE PUSH1 0x4 ADD PUSH2 0x459 SWAP1 PUSH2 0x7CC JUMP JUMPDEST PUSH1 0x40 MLOAD DUP1 SWAP2 SUB SWAP1 REVERT JUMPDEST PUSH2 0x46B DUP2 PUSH2 0x4EC JUMP JUMPDEST POP JUMP JUMPDEST PUSH2 0x476 PUSH2 0x5B0 JUMP JUMPDEST PUSH20 0xFFFFFFFFFFFFFFFFFFFFFFFFFFFFFFFFFFFFFFFF AND PUSH2 0x494 PUSH2 0x370 JUMP JUMPDEST PUSH20 0xFFFFFFFFFFFFFFFFFFFFFFFFFFFFFFFFFFFFFFFF AND EQ PUSH2 0x4EA JUMPI PUSH1 0x40 MLOAD PUSH32 0x8C379A000000000000000000000000000000000000000000000000000000000 DUP2 MSTORE PUSH1 0x4 ADD PUSH2 0x4E1 SWAP1 PUSH2 0x7EC JUMP JUMPDEST PUSH1 0x40 MLOAD DUP1 SWAP2 SUB SWAP1 REVERT JUMPDEST JUMP JUMPDEST PUSH1 0x0 DUP1 PUSH1 0x0 SWAP1 SLOAD SWAP1 PUSH2 0x100 EXP SWAP1 DIV PUSH20 0xFFFFFFFFFFFFFFFFFFFFFFFFFFFFFFFFFFFFFFFF AND SWAP1 POP DUP2 PUSH1 0x0 DUP1 PUSH2 0x100 EXP DUP2 SLOAD DUP2 PUSH20 0xFFFFFFFFFFFFFFFFFFFFFFFFFFFFFFFFFFFFFFFF MUL NOT AND SWAP1 DUP4 PUSH20 0xFFFFFFFFFFFFFFFFFFFFFFFFFFFFFFFFFFFFFFFF AND MUL OR SWAP1 SSTORE POP DUP2 PUSH20 0xFFFFFFFFFFFFFFFFFFFFFFFFFFFFFFFFFFFFFFFF AND DUP2 PUSH20 0xFFFFFFFFFFFFFFFFFFFFFFFFFFFFFFFFFFFFFFFF AND PUSH32 0x8BE0079C531659141344CD1FD0A4F28419497F9722A3DAAFE3B4186F6B6457E0 PUSH1 0x40 MLOAD PUSH1 0x40 MLOAD DUP1 SWAP2 SUB SWAP1 LOG3 POP POP JUMP JUMPDEST PUSH1 0x0 CALLER SWAP1 POP SWAP1 JUMP JUMPDEST PUSH1 0x0 DUP2 CALLDATALOAD SWAP1 POP PUSH2 0x5C7 DUP2 PUSH2 0x944 JUMP JUMPDEST SWAP3 SWAP2 POP POP JUMP JUMPDEST PUSH1 0x0 DUP2 CALLDATALOAD SWAP1 POP PUSH2 0x5DC DUP2 PUSH2 0x95B JUMP JUMPDEST SWAP3 SWAP2 POP POP JUMP JUMPDEST PUSH1 0x0 PUSH1 0x20 DUP3 DUP5 SUB SLT ISZERO PUSH2 0x5F4 JUMPI PUSH1 0x0 DUP1 REVERT JUMPDEST PUSH1 0x0 PUSH2 0x602 DUP5 DUP3 DUP6 ADD PUSH2 0x5B8 JUMP JUMPDEST SWAP2 POP POP SWAP3 SWAP2 POP POP JUMP JUMPDEST PUSH1 0x0 PUSH1 0x20 DUP3 DUP5 SUB SLT ISZERO PUSH2 0x61D JUMPI PUSH1 0x0 DUP1 REVERT JUMPDEST PUSH1 0x0 PUSH2 0x62B DUP5 DUP3 DUP6 ADD PUSH2 0x5CD JUMP JUMPDEST SWAP2 POP POP SWAP3 SWAP2 POP POP JUMP JUMPDEST PUSH2 0x63D DUP2 PUSH2 0x8CD JUMP JUMPDEST DUP3 MSTORE POP POP JUMP JUMPDEST PUSH2 0x64C DUP2 PUSH2 0x8DF JUMP JUMPDEST DUP3 MSTORE POP POP JUMP JUMPDEST PUSH1 0x0 PUSH2 0x65F PUSH1 0x12 DUP4 PUSH2 0x832 JUMP JUMPDEST SWAP2 POP PUSH32 0x62616C616E6365206E6F7420656E6F7567680000000000000000000000000000 PUSH1 0x0 DUP4 ADD MSTORE PUSH1 0x20 DUP3 ADD SWAP1 POP SWAP2 SWAP1 POP JUMP JUMPDEST PUSH1 0x0 PUSH2 0x69F PUSH1 0x26 DUP4 PUSH2 0x832 JUMP JUMPDEST SWAP2 POP PUSH32 0x4F776E61626C653A206E6577206F776E657220697320746865207A65726F2061 PUSH1 0x0 DUP4 ADD MSTORE PUSH32 0x6464726573730000000000000000000000000000000000000000000000000000 PUSH1 0x20 DUP4 ADD MSTORE PUSH1 0x40 DUP3 ADD SWAP1 POP SWAP2 SWAP1 POP JUMP JUMPDEST PUSH1 0x0 PUSH2 0x705 PUSH1 0x20 DUP4 PUSH2 0x832 JUMP JUMPDEST SWAP2 POP PUSH32 0x4F776E61626C653A2063616C6C6572206973206E6F7420746865206F776E6572 PUSH1 0x0 DUP4 ADD MSTORE PUSH1 0x20 DUP3 ADD SWAP1 POP SWAP2 SWAP1 POP JUMP JUMPDEST PUSH1 0x0 PUSH2 0x745 PUSH1 0x0 DUP4 PUSH2 0x827 JUMP JUMPDEST SWAP2 POP PUSH1 0x0 DUP3 ADD SWAP1 POP SWAP2 SWAP1 POP JUMP JUMPDEST PUSH2 0x75B DUP2 PUSH2 0x90B JUMP JUMPDEST DUP3 MSTORE POP POP JUMP JUMPDEST PUSH1 0x0 PUSH2 0x76C DUP3 PUSH2 0x738 JUMP JUMPDEST SWAP2 POP DUP2 SWAP1 POP SWAP2 SWAP1 POP JUMP JUMPDEST PUSH1 0x0 PUSH1 0x20 DUP3 ADD SWAP1 POP PUSH2 0x78B PUSH1 0x0 DUP4 ADD DUP5 PUSH2 0x634 JUMP JUMPDEST SWAP3 SWAP2 POP POP JUMP JUMPDEST PUSH1 0x0 PUSH1 0x20 DUP3 ADD SWAP1 POP PUSH2 0x7A6 PUSH1 0x0 DUP4 ADD DUP5 PUSH2 0x643 JUMP JUMPDEST SWAP3 SWAP2 POP POP JUMP JUMPDEST PUSH1 0x0 PUSH1 0x20 DUP3 ADD SWAP1 POP DUP2 DUP2 SUB PUSH1 0x0 DUP4 ADD MSTORE PUSH2 0x7C5 DUP2 PUSH2 0x652 JUMP JUMPDEST SWAP1 POP SWAP2 SWAP1 POP JUMP JUMPDEST PUSH1 0x0 PUSH1 0x20 DUP3 ADD SWAP1 POP DUP2 DUP2 SUB PUSH1 0x0 DUP4 ADD MSTORE PUSH2 0x7E5 DUP2 PUSH2 0x692 JUMP JUMPDEST SWAP1 POP SWAP2 SWAP1 POP JUMP JUMPDEST PUSH1 0x0 PUSH1 0x20 DUP3 ADD SWAP1 POP DUP2 DUP2 SUB PUSH1 0x0 DUP4 ADD MSTORE PUSH2 0x805 DUP2 PUSH2 0x6F8 JUMP JUMPDEST SWAP1 POP SWAP2 SWAP1 POP JUMP JUMPDEST PUSH1 0x0 PUSH1 0x20 DUP3 ADD SWAP1 POP PUSH2 0x821 PUSH1 0x0 DUP4 ADD DUP5 PUSH2 0x752 JUMP JUMPDEST SWAP3 SWAP2 POP POP JUMP JUMPDEST PUSH1 0x0 DUP2 SWAP1 POP SWAP3 SWAP2 POP POP JUMP JUMPDEST PUSH1 0x0 DUP3 DUP3 MSTORE PUSH1 0x20 DUP3 ADD SWAP1 POP SWAP3 SWAP2 POP POP JUMP JUMPDEST PUSH1 0x0 PUSH2 0x84E DUP3 PUSH2 0x90B JUMP JUMPDEST SWAP2 POP PUSH2 0x859 DUP4 PUSH2 0x90B JUMP JUMPDEST SWAP3 POP DUP3 PUSH32 0xFFFFFFFFFFFFFFFFFFFFFFFFFFFFFFFFFFFFFFFFFFFFFFFFFFFFFFFFFFFFFFFF SUB DUP3 GT ISZERO PUSH2 0x88E JUMPI PUSH2 0x88D PUSH2 0x915 JUMP JUMPDEST JUMPDEST DUP3 DUP3 ADD SWAP1 POP SWAP3 SWAP2 POP POP JUMP JUMPDEST PUSH1 0x0 PUSH2 0x8A4 DUP3 PUSH2 0x90B JUMP JUMPDEST SWAP2 POP PUSH2 0x8AF DUP4 PUSH2 0x90B JUMP JUMPDEST SWAP3 POP DUP3 DUP3 LT ISZERO PUSH2 0x8C2 JUMPI PUSH2 0x8C1 PUSH2 0x915 JUMP JUMPDEST JUMPDEST DUP3 DUP3 SUB SWAP1 POP SWAP3 SWAP2 POP POP JUMP JUMPDEST PUSH1 0x0 PUSH2 0x8D8 DUP3 PUSH2 0x8EB JUMP JUMPDEST SWAP1 POP SWAP2 SWAP1 POP JUMP JUMPDEST PUSH1 0x0 DUP2 ISZERO ISZERO SWAP1 POP SWAP2 SWAP1 POP JUMP JUMPDEST PUSH1 0x0 PUSH20 0xFFFFFFFFFFFFFFFFFFFFFFFFFFFFFFFFFFFFFFFF DUP3 AND SWAP1 POP SWAP2 SWAP1 POP JUMP JUMPDEST PUSH1 0x0 DUP2 SWAP1 POP SWAP2 SWAP1 POP JUMP JUMPDEST PUSH32 0x4E487B7100000000000000000000000000000000000000000000000000000000 PUSH1 0x0 MSTORE PUSH1 0x11 PUSH1 0x4 MSTORE PUSH1 0x24 PUSH1 0x0 REVERT JUMPDEST PUSH2 0x94D DUP2 PUSH2 0x8CD JUMP JUMPDEST DUP2 EQ PUSH2 0x958 JUMPI PUSH1 0x0 DUP1 REVERT JUMPDEST POP JUMP JUMPDEST PUSH2 0x964 DUP2 PUSH2 0x90B JUMP JUMPDEST DUP2 EQ PUSH2 0x96F JUMPI PUSH1 0x0 DUP1 REVERT JUMPDEST POP JUMP INVALID LOG2 PUSH5 0x6970667358 0x22 SLT KECCAK256 0xAF PUSH15 0x2A252FA42B33244C84F12FC9617A08 0xC2 PUSH17 0x7349A50E12A95B36ADF1F2EC5564736F6C PUSH4 0x43000800 STOP CALLER "
				},
				"gasEstimates": {
					"creation": {
						"codeDepositCost": "494400",
						"executionCost": "infinite",
						"totalCost": "infinite"
					},
					"external": {
						"check(address)": "2571",
						"owner()": "1266",
						"renounceOwnership()": "24398",
						"save()": "infinite",
						"transferOwnership(address)": "24835",
						"withdrawal(uint256)": "infinite"
					}
				},
				"methodIdentifiers": {
					"check(address)": "c23697a8",
					"owner()": "8da5cb5b",
					"renounceOwnership()": "715018a6",
					"save()": "42dad49e",
					"transferOwnership(address)": "f2fde38b",
					"withdrawal(uint256)": "835fc6ca"
				}
			},
			"storageLayout": {
				"storage": [
					{
						"astId": 7,
						"contract": "contracts/Bank.sol:Bank",
						"label": "_owner",
						"offset": 0,
						"slot": "0",
						"type": "t_address"
					},
					{
						"astId": 143,
						"contract": "contracts/Bank.sol:Bank",
						"label": "funds",
						"offset": 0,
						"slot": "1",
						"type": "t_mapping(t_address,t_uint256)"
					}
				],
				"types": {
					"t_address": {
						"encoding": "inplace",
						"label": "address",
						"numberOfBytes": "20"
					},
					"t_mapping(t_address,t_uint256)": {
						"encoding": "mapping",
						"key": "t_address",
						"label": "mapping(address => uint256)",
						"numberOfBytes": "32",
						"value": "t_uint256"
					},
					"t_uint256": {
						"encoding": "inplace",
						"label": "uint256",
						"numberOfBytes": "32"
					}
				}
			},
			"userdoc": {
				"kind": "user",
				"methods": {},
				"version": 1
			}
		}
	}
}