{
	"contracts/MyErc20.sol": {
		"MyErc20": {
			"abi": [
				{
					"inputs": [
						{
							"internalType": "string",
							"name": "name_",
							"type": "string"
						},
						{
							"internalType": "string",
							"name": "symbol_",
							"type": "string"
						}
					],
					"stateMutability": "nonpayable",
					"type": "constructor"
				},
				{
					"anonymous": false,
					"inputs": [
						{
							"indexed": true,
							"internalType": "address",
							"name": "owner",
							"type": "address"
						},
						{
							"indexed": true,
							"internalType": "address",
							"name": "spender",
							"type": "address"
						},
						{
							"indexed": false,
							"internalType": "uint256",
							"name": "value",
							"type": "uint256"
						}
					],
					"name": "Approval",
					"type": "event"
				},
				{
					"anonymous": false,
					"inputs": [
						{
							"indexed": true,
							"internalType": "address",
							"name": "previousOwner",
							"type": "address"
						},
						{
							"indexed": true,
							"internalType": "address",
							"name": "newOwner",
							"type": "address"
						}
					],
					"name": "OwnershipTransferred",
					"type": "event"
				},
				{
					"anonymous": false,
					"inputs": [
						{
							"indexed": true,
							"internalType": "address",
							"name": "from",
							"type": "address"
						},
						{
							"indexed": true,
							"internalType": "address",
							"name": "to",
							"type": "address"
						},
						{
							"indexed": false,
							"internalType": "uint256",
							"name": "value",
							"type": "uint256"
						}
					],
					"name": "Transfer",
					"type": "event"
				},
				{
					"inputs": [
						{
							"internalType": "address",
							"name": "owner",
							"type": "address"
						},
						{
							"internalType": "address",
							"name": "spender",
							"type": "address"
						}
					],
					"name": "allowance",
					"outputs": [
						{
							"internalType": "uint256",
							"name": "",
							"type": "uint256"
						}
					],
					"stateMutability": "view",
					"type": "function"
				},
				{
					"inputs": [
						{
							"internalType": "address",
							"name": "spender",
							"type": "address"
						},
						{
							"internalType": "uint256",
							"name": "amount",
							"type": "uint256"
						}
					],
					"name": "approve",
					"outputs": [
						{
							"internalType": "bool",
							"name": "",
							"type": "bool"
						}
					],
					"stateMutability": "nonpayable",
					"type": "function"
				},
				{
					"inputs": [
						{
							"internalType": "address",
							"name": "account",
							"type": "address"
						}
					],
					"name": "balanceOf",
					"outputs": [
						{
							"internalType": "uint256",
							"name": "",
							"type": "uint256"
						}
					],
					"stateMutability": "view",
					"type": "function"
				},
				{
					"inputs": [],
					"name": "decimals",
					"outputs": [
						{
							"internalType": "uint8",
							"name": "",
							"type": "uint8"
						}
					],
					"stateMutability": "view",
					"type": "function"
				},
				{
					"inputs": [
						{
							"internalType": "address",
							"name": "spender",
							"type": "address"
						},
						{
							"internalType": "uint256",
							"name": "subtractedValue",
							"type": "uint256"
						}
					],
					"name": "decreaseAllowance",
					"outputs": [
						{
							"internalType": "bool",
							"name": "",
							"type": "bool"
						}
					],
					"stateMutability": "nonpayable",
					"type": "function"
				},
				{
					"inputs": [
						{
							"internalType": "address",
							"name": "spender",
							"type": "address"
						},
						{
							"internalType": "uint256",
							"name": "addedValue",
							"type": "uint256"
						}
					],
					"name": "increaseAllowance",
					"outputs": [
						{
							"internalType": "bool",
							"name": "",
							"type": "bool"
						}
					],
					"stateMutability": "nonpayable",
					"type": "function"
				},
				{
					"inputs": [
						{
							"internalType": "address",
							"name": "account",
							"type": "address"
						},
						{
							"internalType": "uint256",
							"name": "amount",
							"type": "uint256"
						}
					],
					"name": "mintTo",
					"outputs": [
						{
							"internalType": "bool",
							"name": "",
							"type": "bool"
						}
					],
					"stateMutability": "nonpayable",
					"type": "function"
				},
				{
					"inputs": [],
					"name": "name",
					"outputs": [
						{
							"internalType": "string",
							"name": "",
							"type": "string"
						}
					],
					"stateMutability": "view",
					"type": "function"
				},
				{
					"inputs": [],
					"name": "owner",
					"outputs": [
						{
							"internalType": "address",
							"name": "",
							"type": "address"
						}
					],
					"stateMutability": "view",
					"type": "function"
				},
				{
					"inputs": [],
					"name": "renounceOwnership",
					"outputs": [],
					"stateMutability": "nonpayable",
					"type": "function"
				},
				{
					"inputs": [],
					"name": "symbol",
					"outputs": [
						{
							"internalType": "string",
							"name": "",
							"type": "string"
						}
					],
					"stateMutability": "view",
					"type": "function"
				},
				{
					"inputs": [],
					"name": "totalSupply",
					"outputs": [
						{
							"internalType": "uint256",
							"name": "",
							"type": "uint256"
						}
					],
					"stateMutability": "view",
					"type": "function"
				},
				{
					"inputs": [
						{
							"internalType": "address",
							"name": "to",
							"type": "address"
						},
						{
							"internalType": "uint256",
							"name": "amount",
							"type": "uint256"
						}
					],
					"name": "transfer",
					"outputs": [
						{
							"internalType": "bool",
							"name": "",
							"type": "bool"
						}
					],
					"stateMutability": "nonpayable",
					"type": "function"
				},
				{
					"inputs": [
						{
							"internalType": "address",
							"name": "from",
							"type": "address"
						},
						{
							"internalType": "address",
							"name": "to",
							"type": "address"
						},
						{
							"internalType": "uint256",
							"name": "amount",
							"type": "uint256"
						}
					],
					"name": "transferFrom",
					"outputs": [
						{
							"internalType": "bool",
							"name": "",
							"type": "bool"
						}
					],
					"stateMutability": "nonpayable",
					"type": "function"
				},
				{
					"inputs": [
						{
							"internalType": "address",
							"name": "newOwner",
							"type": "address"
						}
					],
					"name": "transferOwnership",
					"outputs": [],
					"stateMutability": "nonpayable",
					"type": "function"
				}
			],
			"devdoc": {
				"kind": "dev",
				"methods": {
					"allowance(address,address)": {
						"details": "See {IERC20-allowance}."
					},
					"approve(address,uint256)": {
						"details": "See {IERC20-approve}. NOTE: If `amount` is the maximum `uint256`, the allowance is not updated on `transferFrom`. This is semantically equivalent to an infinite approval. Requirements: - `spender` cannot be the zero address."
					},
					"balanceOf(address)": {
						"details": "See {IERC20-balanceOf}."
					},
					"decimals()": {
						"details": "Returns the number of decimals used to get its user representation. For example, if `decimals` equals `2`, a balance of `505` tokens should be displayed to a user as `5.05` (`505 / 10 ** 2`). Tokens usually opt for a value of 18, imitating the relationship between Ether and Wei. This is the value {ERC20} uses, unless this function is overridden; NOTE: This information is only used for _display_ purposes: it in no way affects any of the arithmetic of the contract, including {IERC20-balanceOf} and {IERC20-transfer}."
					},
					"decreaseAllowance(address,uint256)": {
						"details": "Atomically decreases the allowance granted to `spender` by the caller. This is an alternative to {approve} that can be used as a mitigation for problems described in {IERC20-approve}. Emits an {Approval} event indicating the updated allowance. Requirements: - `spender` cannot be the zero address. - `spender` must have allowance for the caller of at least `subtractedValue`."
					},
					"increaseAllowance(address,uint256)": {
						"details": "Atomically increases the allowance granted to `spender` by the caller. This is an alternative to {approve} that can be used as a mitigation for problems described in {IERC20-approve}. Emits an {Approval} event indicating the updated allowance. Requirements: - `spender` cannot be the zero address."
					},
					"name()": {
						"details": "Returns the name of the token."
					},
					"owner()": {
						"details": "Returns the address of the current owner."
					},
					"renounceOwnership()": {
						"details": "Leaves the contract without owner. It will not be possible to call `onlyOwner` functions anymore. Can only be called by the current owner. NOTE: Renouncing ownership will leave the contract without an owner, thereby removing any functionality that is only available to the owner."
					},
					"symbol()": {
						"details": "Returns the symbol of the token, usually a shorter version of the name."
					},
					"totalSupply()": {
						"details": "See {IERC20-totalSupply}."
					},
					"transfer(address,uint256)": {
						"details": "See {IERC20-transfer}. Requirements: - `to` cannot be the zero address. - the caller must have a balance of at least `amount`."
					},
					"transferFrom(address,address,uint256)": {
						"details": "See {IERC20-transferFrom}. Emits an {Approval} event indicating the updated allowance. This is not required by the EIP. See the note at the beginning of {ERC20}. NOTE: Does not update the allowance if the current allowance is the maximum `uint256`. Requirements: - `from` and `to` cannot be the zero address. - `from` must have a balance of at least `amount`. - the caller must have allowance for ``from``'s tokens of at least `amount`."
					},
					"transferOwnership(address)": {
						"details": "Transfers ownership of the contract to a new account (`newOwner`). Can only be called by the current owner."
					}
				},
				"version": 1
			},
			"evm": {
				"assembly": "    /* \"contracts/MyErc20.sol\":166:507  contract MyErc20 is ERC20,Ownable {... */\n  mstore(0x40, 0x80)\n    /* \"contracts/MyErc20.sol\":207:286  constructor(string memory name_, string memory symbol_) ERC20(name_, symbol_){} */\n  callvalue\n  dup1\n  iszero\n  tag_1\n  jumpi\n  0x00\n  dup1\n  revert\ntag_1:\n  pop\n  mload(0x40)\n  sub(codesize, bytecodeSize)\n  dup1\n  bytecodeSize\n  dup4\n  codecopy\n  dup2\n  dup2\n  add\n  0x40\n  mstore\n  dup2\n  add\n  swap1\n  tag_2\n  swap2\n  swap1\n  tag_3\n  jump\t// in\ntag_2:\n    /* \"contracts/MyErc20.sol\":269:274  name_ */\n  dup2\n    /* \"contracts/MyErc20.sol\":276:283  symbol_ */\n  dup2\n    /* \"@openzeppelin/contracts/token/ERC20/ERC20.sol\":2050:2055  name_ */\n  dup2\n    /* \"@openzeppelin/contracts/token/ERC20/ERC20.sol\":2042:2047  _name */\n  0x03\n    /* \"@openzeppelin/contracts/token/ERC20/ERC20.sol\":2042:2055  _name = name_ */\n  swap1\n  dup1\n  mload\n  swap1\n  0x20\n  add\n  swap1\n  tag_8\n  swap3\n  swap2\n  swap1\n  tag_9\n  jump\t// in\ntag_8:\n  pop\n    /* \"@openzeppelin/contracts/token/ERC20/ERC20.sol\":2075:2082  symbol_ */\n  dup1\n    /* \"@openzeppelin/contracts/token/ERC20/ERC20.sol\":2065:2072  _symbol */\n  0x04\n    /* \"@openzeppelin/contracts/token/ERC20/ERC20.sol\":2065:2082  _symbol = symbol_ */\n  swap1\n  dup1\n  mload\n  swap1\n  0x20\n  add\n  swap1\n  tag_10\n  swap3\n  swap2\n  swap1\n  tag_9\n  jump\t// in\ntag_10:\n  pop\n    /* \"@openzeppelin/contracts/token/ERC20/ERC20.sol\":1976:2089  constructor(string memory name_, string memory symbol_) {... */\n  pop\n  pop\n    /* \"@openzeppelin/contracts/access/Ownable.sol\":936:968  _transferOwnership(_msgSender()) */\n  tag_12\n    /* \"@openzeppelin/contracts/access/Ownable.sol\":955:967  _msgSender() */\n  tag_13\n    /* \"@openzeppelin/contracts/access/Ownable.sol\":955:965  _msgSender */\n  shl(0x20, tag_14)\n    /* \"@openzeppelin/contracts/access/Ownable.sol\":955:967  _msgSender() */\n  0x20\n  shr\n  jump\t// in\ntag_13:\n    /* \"@openzeppelin/contracts/access/Ownable.sol\":936:954  _transferOwnership */\n  shl(0x20, tag_15)\n    /* \"@openzeppelin/contracts/access/Ownable.sol\":936:968  _transferOwnership(_msgSender()) */\n  0x20\n  shr\n  jump\t// in\ntag_12:\n    /* \"contracts/MyErc20.sol\":207:286  constructor(string memory name_, string memory symbol_) ERC20(name_, symbol_){} */\n  pop\n  pop\n    /* \"contracts/MyErc20.sol\":166:507  contract MyErc20 is ERC20,Ownable {... */\n  jump(tag_17)\n    /* \"@openzeppelin/contracts/utils/Context.sol\":640:736  function _msgSender() internal view virtual returns (address) {... */\ntag_14:\n    /* \"@openzeppelin/contracts/utils/Context.sol\":693:700  address */\n  0x00\n    /* \"@openzeppelin/contracts/utils/Context.sol\":719:729  msg.sender */\n  caller\n    /* \"@openzeppelin/contracts/utils/Context.sol\":712:729  return msg.sender */\n  swap1\n  pop\n    /* \"@openzeppelin/contracts/utils/Context.sol\":640:736  function _msgSender() internal view virtual returns (address) {... */\n  swap1\n  jump\t// out\n    /* \"@openzeppelin/contracts/access/Ownable.sol\":2433:2620  function _transferOwnership(address newOwner) internal virtual {... */\ntag_15:\n    /* \"@openzeppelin/contracts/access/Ownable.sol\":2506:2522  address oldOwner */\n  0x00\n    /* \"@openzeppelin/contracts/access/Ownable.sol\":2525:2531  _owner */\n  0x05\n  0x00\n  swap1\n  sload\n  swap1\n  0x0100\n  exp\n  swap1\n  div\n  0xffffffffffffffffffffffffffffffffffffffff\n  and\n    /* \"@openzeppelin/contracts/access/Ownable.sol\":2506:2531  address oldOwner = _owner */\n  swap1\n  pop\n    /* \"@openzeppelin/contracts/access/Ownable.sol\":2550:2558  newOwner */\n  dup2\n    /* \"@openzeppelin/contracts/access/Ownable.sol\":2541:2547  _owner */\n  0x05\n  0x00\n    /* \"@openzeppelin/contracts/access/Ownable.sol\":2541:2558  _owner = newOwner */\n  0x0100\n  exp\n  dup2\n  sload\n  dup2\n  0xffffffffffffffffffffffffffffffffffffffff\n  mul\n  not\n  and\n  swap1\n  dup4\n  0xffffffffffffffffffffffffffffffffffffffff\n  and\n  mul\n  or\n  swap1\n  sstore\n  pop\n    /* \"@openzeppelin/contracts/access/Ownable.sol\":2604:2612  newOwner */\n  dup2\n    /* \"@openzeppelin/contracts/access/Ownable.sol\":2573:2613  OwnershipTransferred(oldOwner, newOwner) */\n  0xffffffffffffffffffffffffffffffffffffffff\n  and\n    /* \"@openzeppelin/contracts/access/Ownable.sol\":2594:2602  oldOwner */\n  dup2\n    /* \"@openzeppelin/contracts/access/Ownable.sol\":2573:2613  OwnershipTransferred(oldOwner, newOwner) */\n  0xffffffffffffffffffffffffffffffffffffffff\n  and\n  0x8be0079c531659141344cd1fd0a4f28419497f9722a3daafe3b4186f6b6457e0\n  mload(0x40)\n  mload(0x40)\n  dup1\n  swap2\n  sub\n  swap1\n  log3\n    /* \"@openzeppelin/contracts/access/Ownable.sol\":2433:2620  function _transferOwnership(address newOwner) internal virtual {... */\n  pop\n  pop\n  jump\t// out\n    /* \"contracts/MyErc20.sol\":166:507  contract MyErc20 is ERC20,Ownable {... */\ntag_9:\n  dup3\n  dup1\n  sload\n  tag_20\n  swap1\n  tag_21\n  jump\t// in\ntag_20:\n  swap1\n  0x00\n  mstore\n  keccak256(0x00, 0x20)\n  swap1\n  0x1f\n  add\n  0x20\n  swap1\n  div\n  dup2\n  add\n  swap3\n  dup3\n  tag_23\n  jumpi\n  0x00\n  dup6\n  sstore\n  jump(tag_22)\ntag_23:\n  dup3\n  0x1f\n  lt\n  tag_24\n  jumpi\n  dup1\n  mload\n  not(0xff)\n  and\n  dup4\n  dup1\n  add\n  or\n  dup6\n  sstore\n  jump(tag_22)\ntag_24:\n  dup3\n  dup1\n  add\n  0x01\n  add\n  dup6\n  sstore\n  dup3\n  iszero\n  tag_22\n  jumpi\n  swap2\n  dup3\n  add\ntag_25:\n  dup3\n  dup2\n  gt\n  iszero\n  tag_26\n  jumpi\n  dup3\n  mload\n  dup3\n  sstore\n  swap2\n  0x20\n  add\n  swap2\n  swap1\n  0x01\n  add\n  swap1\n  jump(tag_25)\ntag_26:\ntag_22:\n  pop\n  swap1\n  pop\n  tag_27\n  swap2\n  swap1\n  tag_28\n  jump\t// in\ntag_27:\n  pop\n  swap1\n  jump\t// out\ntag_28:\ntag_29:\n  dup1\n  dup3\n  gt\n  iszero\n  tag_30\n  jumpi\n  0x00\n  dup2\n  0x00\n  swap1\n  sstore\n  pop\n  0x01\n  add\n  jump(tag_29)\ntag_30:\n  pop\n  swap1\n  jump\t// out\n    /* \"#utility.yul\":7:360   */\ntag_32:\n  0x00\n    /* \"#utility.yul\":121:186   */\n  tag_34\n    /* \"#utility.yul\":136:185   */\n  tag_35\n    /* \"#utility.yul\":178:184   */\n  dup5\n    /* \"#utility.yul\":136:185   */\n  tag_36\n  jump\t// in\ntag_35:\n    /* \"#utility.yul\":121:186   */\n  tag_37\n  jump\t// in\ntag_34:\n    /* \"#utility.yul\":112:186   */\n  swap1\n  pop\n    /* \"#utility.yul\":209:215   */\n  dup3\n    /* \"#utility.yul\":202:207   */\n  dup2\n    /* \"#utility.yul\":195:216   */\n  mstore\n    /* \"#utility.yul\":247:251   */\n  0x20\n    /* \"#utility.yul\":240:245   */\n  dup2\n    /* \"#utility.yul\":236:252   */\n  add\n    /* \"#utility.yul\":285:288   */\n  dup5\n    /* \"#utility.yul\":276:282   */\n  dup5\n    /* \"#utility.yul\":271:274   */\n  dup5\n    /* \"#utility.yul\":267:283   */\n  add\n    /* \"#utility.yul\":264:289   */\n  gt\n    /* \"#utility.yul\":261:263   */\n  iszero\n  tag_38\n  jumpi\n    /* \"#utility.yul\":302:303   */\n  0x00\n    /* \"#utility.yul\":299:300   */\n  dup1\n    /* \"#utility.yul\":292:304   */\n  revert\n    /* \"#utility.yul\":261:263   */\ntag_38:\n    /* \"#utility.yul\":315:354   */\n  tag_39\n    /* \"#utility.yul\":347:353   */\n  dup5\n    /* \"#utility.yul\":342:345   */\n  dup3\n    /* \"#utility.yul\":337:340   */\n  dup6\n    /* \"#utility.yul\":315:354   */\n  tag_40\n  jump\t// in\ntag_39:\n    /* \"#utility.yul\":102:360   */\n  pop\n  swap4\n  swap3\n  pop\n  pop\n  pop\n  jump\t// out\n    /* \"#utility.yul\":380:668   */\ntag_41:\n  0x00\n    /* \"#utility.yul\":496:499   */\n  dup3\n    /* \"#utility.yul\":489:493   */\n  0x1f\n    /* \"#utility.yul\":481:487   */\n  dup4\n    /* \"#utility.yul\":477:494   */\n  add\n    /* \"#utility.yul\":473:500   */\n  slt\n    /* \"#utility.yul\":463:465   */\n  tag_43\n  jumpi\n    /* \"#utility.yul\":514:515   */\n  0x00\n    /* \"#utility.yul\":511:512   */\n  dup1\n    /* \"#utility.yul\":504:516   */\n  revert\n    /* \"#utility.yul\":463:465   */\ntag_43:\n    /* \"#utility.yul\":547:553   */\n  dup2\n    /* \"#utility.yul\":541:554   */\n  mload\n    /* \"#utility.yul\":572:662   */\n  tag_44\n    /* \"#utility.yul\":658:661   */\n  dup5\n    /* \"#utility.yul\":650:656   */\n  dup3\n    /* \"#utility.yul\":643:647   */\n  0x20\n    /* \"#utility.yul\":635:641   */\n  dup7\n    /* \"#utility.yul\":631:648   */\n  add\n    /* \"#utility.yul\":572:662   */\n  tag_32\n  jump\t// in\ntag_44:\n    /* \"#utility.yul\":563:662   */\n  swap2\n  pop\n    /* \"#utility.yul\":453:668   */\n  pop\n  swap3\n  swap2\n  pop\n  pop\n  jump\t// out\n    /* \"#utility.yul\":674:1326   */\ntag_3:\n  0x00\n  dup1\n    /* \"#utility.yul\":830:832   */\n  0x40\n    /* \"#utility.yul\":818:827   */\n  dup4\n    /* \"#utility.yul\":809:816   */\n  dup6\n    /* \"#utility.yul\":805:828   */\n  sub\n    /* \"#utility.yul\":801:833   */\n  slt\n    /* \"#utility.yul\":798:800   */\n  iszero\n  tag_46\n  jumpi\n    /* \"#utility.yul\":846:847   */\n  0x00\n    /* \"#utility.yul\":843:844   */\n  dup1\n    /* \"#utility.yul\":836:848   */\n  revert\n    /* \"#utility.yul\":798:800   */\ntag_46:\n    /* \"#utility.yul\":910:911   */\n  0x00\n    /* \"#utility.yul\":899:908   */\n  dup4\n    /* \"#utility.yul\":895:912   */\n  add\n    /* \"#utility.yul\":889:913   */\n  mload\n    /* \"#utility.yul\":940:958   */\n  0xffffffffffffffff\n    /* \"#utility.yul\":932:938   */\n  dup2\n    /* \"#utility.yul\":929:959   */\n  gt\n    /* \"#utility.yul\":926:928   */\n  iszero\n  tag_47\n  jumpi\n    /* \"#utility.yul\":972:973   */\n  0x00\n    /* \"#utility.yul\":969:970   */\n  dup1\n    /* \"#utility.yul\":962:974   */\n  revert\n    /* \"#utility.yul\":926:928   */\ntag_47:\n    /* \"#utility.yul\":1000:1074   */\n  tag_48\n    /* \"#utility.yul\":1066:1073   */\n  dup6\n    /* \"#utility.yul\":1057:1063   */\n  dup3\n    /* \"#utility.yul\":1046:1055   */\n  dup7\n    /* \"#utility.yul\":1042:1064   */\n  add\n    /* \"#utility.yul\":1000:1074   */\n  tag_41\n  jump\t// in\ntag_48:\n    /* \"#utility.yul\":990:1074   */\n  swap3\n  pop\n    /* \"#utility.yul\":860:1084   */\n  pop\n    /* \"#utility.yul\":1144:1146   */\n  0x20\n    /* \"#utility.yul\":1133:1142   */\n  dup4\n    /* \"#utility.yul\":1129:1147   */\n  add\n    /* \"#utility.yul\":1123:1148   */\n  mload\n    /* \"#utility.yul\":1175:1193   */\n  0xffffffffffffffff\n    /* \"#utility.yul\":1167:1173   */\n  dup2\n    /* \"#utility.yul\":1164:1194   */\n  gt\n    /* \"#utility.yul\":1161:1163   */\n  iszero\n  tag_49\n  jumpi\n    /* \"#utility.yul\":1207:1208   */\n  0x00\n    /* \"#utility.yul\":1204:1205   */\n  dup1\n    /* \"#utility.yul\":1197:1209   */\n  revert\n    /* \"#utility.yul\":1161:1163   */\ntag_49:\n    /* \"#utility.yul\":1235:1309   */\n  tag_50\n    /* \"#utility.yul\":1301:1308   */\n  dup6\n    /* \"#utility.yul\":1292:1298   */\n  dup3\n    /* \"#utility.yul\":1281:1290   */\n  dup7\n    /* \"#utility.yul\":1277:1299   */\n  add\n    /* \"#utility.yul\":1235:1309   */\n  tag_41\n  jump\t// in\ntag_50:\n    /* \"#utility.yul\":1225:1309   */\n  swap2\n  pop\n    /* \"#utility.yul\":1094:1319   */\n  pop\n    /* \"#utility.yul\":788:1326   */\n  swap3\n  pop\n  swap3\n  swap1\n  pop\n  jump\t// out\n    /* \"#utility.yul\":1332:1615   */\ntag_37:\n  0x00\n    /* \"#utility.yul\":1398:1400   */\n  0x40\n    /* \"#utility.yul\":1392:1401   */\n  mload\n    /* \"#utility.yul\":1382:1401   */\n  swap1\n  pop\n    /* \"#utility.yul\":1440:1444   */\n  dup2\n    /* \"#utility.yul\":1432:1438   */\n  dup2\n    /* \"#utility.yul\":1428:1445   */\n  add\n    /* \"#utility.yul\":1547:1553   */\n  dup2\n    /* \"#utility.yul\":1535:1545   */\n  dup2\n    /* \"#utility.yul\":1532:1554   */\n  lt\n    /* \"#utility.yul\":1511:1529   */\n  0xffffffffffffffff\n    /* \"#utility.yul\":1499:1509   */\n  dup3\n    /* \"#utility.yul\":1496:1530   */\n  gt\n    /* \"#utility.yul\":1493:1555   */\n  or\n    /* \"#utility.yul\":1490:1492   */\n  iszero\n  tag_52\n  jumpi\n    /* \"#utility.yul\":1558:1576   */\n  tag_53\n  tag_54\n  jump\t// in\ntag_53:\n    /* \"#utility.yul\":1490:1492   */\ntag_52:\n    /* \"#utility.yul\":1598:1608   */\n  dup1\n    /* \"#utility.yul\":1594:1596   */\n  0x40\n    /* \"#utility.yul\":1587:1609   */\n  mstore\n    /* \"#utility.yul\":1372:1615   */\n  pop\n  swap2\n  swap1\n  pop\n  jump\t// out\n    /* \"#utility.yul\":1621:1953   */\ntag_36:\n  0x00\n    /* \"#utility.yul\":1773:1791   */\n  0xffffffffffffffff\n    /* \"#utility.yul\":1765:1771   */\n  dup3\n    /* \"#utility.yul\":1762:1792   */\n  gt\n    /* \"#utility.yul\":1759:1761   */\n  iszero\n  tag_56\n  jumpi\n    /* \"#utility.yul\":1795:1813   */\n  tag_57\n  tag_54\n  jump\t// in\ntag_57:\n    /* \"#utility.yul\":1759:1761   */\ntag_56:\n    /* \"#utility.yul\":1880:1884   */\n  0x1f\n    /* \"#utility.yul\":1876:1885   */\n  not\n    /* \"#utility.yul\":1869:1873   */\n  0x1f\n    /* \"#utility.yul\":1861:1867   */\n  dup4\n    /* \"#utility.yul\":1857:1874   */\n  add\n    /* \"#utility.yul\":1853:1886   */\n  and\n    /* \"#utility.yul\":1845:1886   */\n  swap1\n  pop\n    /* \"#utility.yul\":1941:1945   */\n  0x20\n    /* \"#utility.yul\":1935:1939   */\n  dup2\n    /* \"#utility.yul\":1931:1946   */\n  add\n    /* \"#utility.yul\":1923:1946   */\n  swap1\n  pop\n    /* \"#utility.yul\":1688:1953   */\n  swap2\n  swap1\n  pop\n  jump\t// out\n    /* \"#utility.yul\":1959:2266   */\ntag_40:\n    /* \"#utility.yul\":2027:2028   */\n  0x00\n    /* \"#utility.yul\":2037:2150   */\ntag_59:\n    /* \"#utility.yul\":2051:2057   */\n  dup4\n    /* \"#utility.yul\":2048:2049   */\n  dup2\n    /* \"#utility.yul\":2045:2058   */\n  lt\n    /* \"#utility.yul\":2037:2150   */\n  iszero\n  tag_61\n  jumpi\n    /* \"#utility.yul\":2136:2137   */\n  dup1\n    /* \"#utility.yul\":2131:2134   */\n  dup3\n    /* \"#utility.yul\":2127:2138   */\n  add\n    /* \"#utility.yul\":2121:2139   */\n  mload\n    /* \"#utility.yul\":2117:2118   */\n  dup2\n    /* \"#utility.yul\":2112:2115   */\n  dup5\n    /* \"#utility.yul\":2108:2119   */\n  add\n    /* \"#utility.yul\":2101:2140   */\n  mstore\n    /* \"#utility.yul\":2073:2075   */\n  0x20\n    /* \"#utility.yul\":2070:2071   */\n  dup2\n    /* \"#utility.yul\":2066:2076   */\n  add\n    /* \"#utility.yul\":2061:2076   */\n  swap1\n  pop\n    /* \"#utility.yul\":2037:2150   */\n  jump(tag_59)\ntag_61:\n    /* \"#utility.yul\":2168:2174   */\n  dup4\n    /* \"#utility.yul\":2165:2166   */\n  dup2\n    /* \"#utility.yul\":2162:2175   */\n  gt\n    /* \"#utility.yul\":2159:2161   */\n  iszero\n  tag_62\n  jumpi\n    /* \"#utility.yul\":2248:2249   */\n  0x00\n    /* \"#utility.yul\":2239:2245   */\n  dup5\n    /* \"#utility.yul\":2234:2237   */\n  dup5\n    /* \"#utility.yul\":2230:2246   */\n  add\n    /* \"#utility.yul\":2223:2250   */\n  mstore\n    /* \"#utility.yul\":2159:2161   */\ntag_62:\n    /* \"#utility.yul\":2008:2266   */\n  pop\n  pop\n  pop\n  pop\n  jump\t// out\n    /* \"#utility.yul\":2272:2592   */\ntag_21:\n  0x00\n    /* \"#utility.yul\":2353:2354   */\n  0x02\n    /* \"#utility.yul\":2347:2351   */\n  dup3\n    /* \"#utility.yul\":2343:2355   */\n  div\n    /* \"#utility.yul\":2333:2355   */\n  swap1\n  pop\n    /* \"#utility.yul\":2400:2401   */\n  0x01\n    /* \"#utility.yul\":2394:2398   */\n  dup3\n    /* \"#utility.yul\":2390:2402   */\n  and\n    /* \"#utility.yul\":2421:2439   */\n  dup1\n    /* \"#utility.yul\":2411:2413   */\n  tag_64\n  jumpi\n    /* \"#utility.yul\":2477:2481   */\n  0x7f\n    /* \"#utility.yul\":2469:2475   */\n  dup3\n    /* \"#utility.yul\":2465:2482   */\n  and\n    /* \"#utility.yul\":2455:2482   */\n  swap2\n  pop\n    /* \"#utility.yul\":2411:2413   */\ntag_64:\n    /* \"#utility.yul\":2539:2541   */\n  0x20\n    /* \"#utility.yul\":2531:2537   */\n  dup3\n    /* \"#utility.yul\":2528:2542   */\n  lt\n    /* \"#utility.yul\":2508:2526   */\n  dup2\n    /* \"#utility.yul\":2505:2543   */\n  eq\n    /* \"#utility.yul\":2502:2504   */\n  iszero\n  tag_65\n  jumpi\n    /* \"#utility.yul\":2558:2576   */\n  tag_66\n  tag_67\n  jump\t// in\ntag_66:\n    /* \"#utility.yul\":2502:2504   */\ntag_65:\n    /* \"#utility.yul\":2323:2592   */\n  pop\n  swap2\n  swap1\n  pop\n  jump\t// out\n    /* \"#utility.yul\":2598:2778   */\ntag_67:\n    /* \"#utility.yul\":2646:2723   */\n  0x4e487b7100000000000000000000000000000000000000000000000000000000\n    /* \"#utility.yul\":2643:2644   */\n  0x00\n    /* \"#utility.yul\":2636:2724   */\n  mstore\n    /* \"#utility.yul\":2743:2747   */\n  0x22\n    /* \"#utility.yul\":2740:2741   */\n  0x04\n    /* \"#utility.yul\":2733:2748   */\n  mstore\n    /* \"#utility.yul\":2767:2771   */\n  0x24\n    /* \"#utility.yul\":2764:2765   */\n  0x00\n    /* \"#utility.yul\":2757:2772   */\n  revert\n    /* \"#utility.yul\":2784:2964   */\ntag_54:\n    /* \"#utility.yul\":2832:2909   */\n  0x4e487b7100000000000000000000000000000000000000000000000000000000\n    /* \"#utility.yul\":2829:2830   */\n  0x00\n    /* \"#utility.yul\":2822:2910   */\n  mstore\n    /* \"#utility.yul\":2929:2933   */\n  0x41\n    /* \"#utility.yul\":2926:2927   */\n  0x04\n    /* \"#utility.yul\":2919:2934   */\n  mstore\n    /* \"#utility.yul\":2953:2957   */\n  0x24\n    /* \"#utility.yul\":2950:2951   */\n  0x00\n    /* \"#utility.yul\":2943:2958   */\n  revert\n    /* \"contracts/MyErc20.sol\":166:507  contract MyErc20 is ERC20,Ownable {... */\ntag_17:\n  dataSize(sub_0)\n  dup1\n  dataOffset(sub_0)\n  0x00\n  codecopy\n  0x00\n  return\nstop\n\nsub_0: assembly {\n        /* \"contracts/MyErc20.sol\":166:507  contract MyErc20 is ERC20,Ownable {... */\n      mstore(0x40, 0x80)\n      callvalue\n      dup1\n      iszero\n      tag_1\n      jumpi\n      0x00\n      dup1\n      revert\n    tag_1:\n      pop\n      jumpi(tag_2, lt(calldatasize, 0x04))\n      shr(0xe0, calldataload(0x00))\n      dup1\n      0x70a08231\n      gt\n      tag_18\n      jumpi\n      dup1\n      0xa457c2d7\n      gt\n      tag_19\n      jumpi\n      dup1\n      0xa457c2d7\n      eq\n      tag_14\n      jumpi\n      dup1\n      0xa9059cbb\n      eq\n      tag_15\n      jumpi\n      dup1\n      0xdd62ed3e\n      eq\n      tag_16\n      jumpi\n      dup1\n      0xf2fde38b\n      eq\n      tag_17\n      jumpi\n      jump(tag_2)\n    tag_19:\n      dup1\n      0x70a08231\n      eq\n      tag_10\n      jumpi\n      dup1\n      0x715018a6\n      eq\n      tag_11\n      jumpi\n      dup1\n      0x8da5cb5b\n      eq\n      tag_12\n      jumpi\n      dup1\n      0x95d89b41\n      eq\n      tag_13\n      jumpi\n      jump(tag_2)\n    tag_18:\n      dup1\n      0x23b872dd\n      gt\n      tag_20\n      jumpi\n      dup1\n      0x23b872dd\n      eq\n      tag_6\n      jumpi\n      dup1\n      0x313ce567\n      eq\n      tag_7\n      jumpi\n      dup1\n      0x39509351\n      eq\n      tag_8\n      jumpi\n      dup1\n      0x449a52f8\n      eq\n      tag_9\n      jumpi\n      jump(tag_2)\n    tag_20:\n      dup1\n      0x06fdde03\n      eq\n      tag_3\n      jumpi\n      dup1\n      0x095ea7b3\n      eq\n      tag_4\n      jumpi\n      dup1\n      0x18160ddd\n      eq\n      tag_5\n      jumpi\n    tag_2:\n      0x00\n      dup1\n      revert\n        /* \"@openzeppelin/contracts/token/ERC20/ERC20.sol\":2154:2252  function name() public view virtual override returns (string memory) {... */\n    tag_3:\n      tag_21\n      tag_22\n      jump\t// in\n    tag_21:\n      mload(0x40)\n      tag_23\n      swap2\n      swap1\n      tag_24\n      jump\t// in\n    tag_23:\n      mload(0x40)\n      dup1\n      swap2\n      sub\n      swap1\n      return\n        /* \"@openzeppelin/contracts/token/ERC20/ERC20.sol\":4431:4628  function approve(address spender, uint256 amount) public virtual override returns (bool) {... */\n    tag_4:\n      tag_25\n      0x04\n      dup1\n      calldatasize\n      sub\n      dup2\n      add\n      swap1\n      tag_26\n      swap2\n      swap1\n      tag_27\n      jump\t// in\n    tag_26:\n      tag_28\n      jump\t// in\n    tag_25:\n      mload(0x40)\n      tag_29\n      swap2\n      swap1\n      tag_30\n      jump\t// in\n    tag_29:\n      mload(0x40)\n      dup1\n      swap2\n      sub\n      swap1\n      return\n        /* \"@openzeppelin/contracts/token/ERC20/ERC20.sol\":3242:3348  function totalSupply() public view virtual override returns (uint256) {... */\n    tag_5:\n      tag_31\n      tag_32\n      jump\t// in\n    tag_31:\n      mload(0x40)\n      tag_33\n      swap2\n      swap1\n      tag_34\n      jump\t// in\n    tag_33:\n      mload(0x40)\n      dup1\n      swap2\n      sub\n      swap1\n      return\n        /* \"@openzeppelin/contracts/token/ERC20/ERC20.sol\":5190:5476  function transferFrom(... */\n    tag_6:\n      tag_35\n      0x04\n      dup1\n      calldatasize\n      sub\n      dup2\n      add\n      swap1\n      tag_36\n      swap2\n      swap1\n      tag_37\n      jump\t// in\n    tag_36:\n      tag_38\n      jump\t// in\n    tag_35:\n      mload(0x40)\n      tag_39\n      swap2\n      swap1\n      tag_30\n      jump\t// in\n    tag_39:\n      mload(0x40)\n      dup1\n      swap2\n      sub\n      swap1\n      return\n        /* \"@openzeppelin/contracts/token/ERC20/ERC20.sol\":3091:3182  function decimals() public view virtual override returns (uint8) {... */\n    tag_7:\n      tag_40\n      tag_41\n      jump\t// in\n    tag_40:\n      mload(0x40)\n      tag_42\n      swap2\n      swap1\n      tag_43\n      jump\t// in\n    tag_42:\n      mload(0x40)\n      dup1\n      swap2\n      sub\n      swap1\n      return\n        /* \"@openzeppelin/contracts/token/ERC20/ERC20.sol\":5871:6105  function increaseAllowance(address spender, uint256 addedValue) public virtual returns (bool) {... */\n    tag_8:\n      tag_44\n      0x04\n      dup1\n      calldatasize\n      sub\n      dup2\n      add\n      swap1\n      tag_45\n      swap2\n      swap1\n      tag_27\n      jump\t// in\n    tag_45:\n      tag_46\n      jump\t// in\n    tag_44:\n      mload(0x40)\n      tag_47\n      swap2\n      swap1\n      tag_30\n      jump\t// in\n    tag_47:\n      mload(0x40)\n      dup1\n      swap2\n      sub\n      swap1\n      return\n        /* \"contracts/MyErc20.sol\":292:504  function mintTo(address account, uint256 amount) public onlyOwner returns (bool){... */\n    tag_9:\n      tag_48\n      0x04\n      dup1\n      calldatasize\n      sub\n      dup2\n      add\n      swap1\n      tag_49\n      swap2\n      swap1\n      tag_27\n      jump\t// in\n    tag_49:\n      tag_50\n      jump\t// in\n    tag_48:\n      mload(0x40)\n      tag_51\n      swap2\n      swap1\n      tag_30\n      jump\t// in\n    tag_51:\n      mload(0x40)\n      dup1\n      swap2\n      sub\n      swap1\n      return\n        /* \"@openzeppelin/contracts/token/ERC20/ERC20.sol\":3406:3531  function balanceOf(address account) public view virtual override returns (uint256) {... */\n    tag_10:\n      tag_52\n      0x04\n      dup1\n      calldatasize\n      sub\n      dup2\n      add\n      swap1\n      tag_53\n      swap2\n      swap1\n      tag_54\n      jump\t// in\n    tag_53:\n      tag_55\n      jump\t// in\n    tag_52:\n      mload(0x40)\n      tag_56\n      swap2\n      swap1\n      tag_34\n      jump\t// in\n    tag_56:\n      mload(0x40)\n      dup1\n      swap2\n      sub\n      swap1\n      return\n        /* \"@openzeppelin/contracts/access/Ownable.sol\":1831:1932  function renounceOwnership() public virtual onlyOwner {... */\n    tag_11:\n      tag_57\n      tag_58\n      jump\t// in\n    tag_57:\n      stop\n        /* \"@openzeppelin/contracts/access/Ownable.sol\":1201:1286  function owner() public view virtual returns (address) {... */\n    tag_12:\n      tag_59\n      tag_60\n      jump\t// in\n    tag_59:\n      mload(0x40)\n      tag_61\n      swap2\n      swap1\n      tag_62\n      jump\t// in\n    tag_61:\n      mload(0x40)\n      dup1\n      swap2\n      sub\n      swap1\n      return\n        /* \"@openzeppelin/contracts/token/ERC20/ERC20.sol\":2365:2467  function symbol() public view virtual override returns (string memory) {... */\n    tag_13:\n      tag_63\n      tag_64\n      jump\t// in\n    tag_63:\n      mload(0x40)\n      tag_65\n      swap2\n      swap1\n      tag_24\n      jump\t// in\n    tag_65:\n      mload(0x40)\n      dup1\n      swap2\n      sub\n      swap1\n      return\n        /* \"@openzeppelin/contracts/token/ERC20/ERC20.sol\":6592:7019  function decreaseAllowance(address spender, uint256 subtractedValue) public virtual returns (bool) {... */\n    tag_14:\n      tag_66\n      0x04\n      dup1\n      calldatasize\n      sub\n      dup2\n      add\n      swap1\n      tag_67\n      swap2\n      swap1\n      tag_27\n      jump\t// in\n    tag_67:\n      tag_68\n      jump\t// in\n    tag_66:\n      mload(0x40)\n      tag_69\n      swap2\n      swap1\n      tag_30\n      jump\t// in\n    tag_69:\n      mload(0x40)\n      dup1\n      swap2\n      sub\n      swap1\n      return\n        /* \"@openzeppelin/contracts/token/ERC20/ERC20.sol\":3727:3916  function transfer(address to, uint256 amount) public virtual override returns (bool) {... */\n    tag_15:\n      tag_70\n      0x04\n      dup1\n      calldatasize\n      sub\n      dup2\n      add\n      swap1\n      tag_71\n      swap2\n      swap1\n      tag_27\n      jump\t// in\n    tag_71:\n      tag_72\n      jump\t// in\n    tag_70:\n      mload(0x40)\n      tag_73\n      swap2\n      swap1\n      tag_30\n      jump\t// in\n    tag_73:\n      mload(0x40)\n      dup1\n      swap2\n      sub\n      swap1\n      return\n        /* \"@openzeppelin/contracts/token/ERC20/ERC20.sol\":3974:4123  function allowance(address owner, address spender) public view virtual override returns (uint256) {... */\n    tag_16:\n      tag_74\n      0x04\n      dup1\n      calldatasize\n      sub\n      dup2\n      add\n      swap1\n      tag_75\n      swap2\n      swap1\n      tag_76\n      jump\t// in\n    tag_75:\n      tag_77\n      jump\t// in\n    tag_74:\n      mload(0x40)\n      tag_78\n      swap2\n      swap1\n      tag_34\n      jump\t// in\n    tag_78:\n      mload(0x40)\n      dup1\n      swap2\n      sub\n      swap1\n      return\n        /* \"@openzeppelin/contracts/access/Ownable.sol\":2081:2279  function transferOwnership(address newOwner) public virtual onlyOwner {... */\n    tag_17:\n      tag_79\n      0x04\n      dup1\n      calldatasize\n      sub\n      dup2\n      add\n      swap1\n      tag_80\n      swap2\n      swap1\n      tag_54\n      jump\t// in\n    tag_80:\n      tag_81\n      jump\t// in\n    tag_79:\n      stop\n        /* \"@openzeppelin/contracts/token/ERC20/ERC20.sol\":2154:2252  function name() public view virtual override returns (string memory) {... */\n    tag_22:\n        /* \"@openzeppelin/contracts/token/ERC20/ERC20.sol\":2208:2221  string memory */\n      0x60\n        /* \"@openzeppelin/contracts/token/ERC20/ERC20.sol\":2240:2245  _name */\n      0x03\n        /* \"@openzeppelin/contracts/token/ERC20/ERC20.sol\":2233:2245  return _name */\n      dup1\n      sload\n      tag_83\n      swap1\n      tag_84\n      jump\t// in\n    tag_83:\n      dup1\n      0x1f\n      add\n      0x20\n      dup1\n      swap2\n      div\n      mul\n      0x20\n      add\n      mload(0x40)\n      swap1\n      dup2\n      add\n      0x40\n      mstore\n      dup1\n      swap3\n      swap2\n      swap1\n      dup2\n      dup2\n      mstore\n      0x20\n      add\n      dup3\n      dup1\n      sload\n      tag_85\n      swap1\n      tag_84\n      jump\t// in\n    tag_85:\n      dup1\n      iszero\n      tag_86\n      jumpi\n      dup1\n      0x1f\n      lt\n      tag_87\n      jumpi\n      0x0100\n      dup1\n      dup4\n      sload\n      div\n      mul\n      dup4\n      mstore\n      swap2\n      0x20\n      add\n      swap2\n      jump(tag_86)\n    tag_87:\n      dup3\n      add\n      swap2\n      swap1\n      0x00\n      mstore\n      keccak256(0x00, 0x20)\n      swap1\n    tag_88:\n      dup2\n      sload\n      dup2\n      mstore\n      swap1\n      0x01\n      add\n      swap1\n      0x20\n      add\n      dup1\n      dup4\n      gt\n      tag_88\n      jumpi\n      dup3\n      swap1\n      sub\n      0x1f\n      and\n      dup3\n      add\n      swap2\n    tag_86:\n      pop\n      pop\n      pop\n      pop\n      pop\n      swap1\n      pop\n        /* \"@openzeppelin/contracts/token/ERC20/ERC20.sol\":2154:2252  function name() public view virtual override returns (string memory) {... */\n      swap1\n      jump\t// out\n        /* \"@openzeppelin/contracts/token/ERC20/ERC20.sol\":4431:4628  function approve(address spender, uint256 amount) public virtual override returns (bool) {... */\n    tag_28:\n        /* \"@openzeppelin/contracts/token/ERC20/ERC20.sol\":4514:4518  bool */\n      0x00\n        /* \"@openzeppelin/contracts/token/ERC20/ERC20.sol\":4530:4543  address owner */\n      dup1\n        /* \"@openzeppelin/contracts/token/ERC20/ERC20.sol\":4546:4558  _msgSender() */\n      tag_90\n        /* \"@openzeppelin/contracts/token/ERC20/ERC20.sol\":4546:4556  _msgSender */\n      tag_91\n        /* \"@openzeppelin/contracts/token/ERC20/ERC20.sol\":4546:4558  _msgSender() */\n      jump\t// in\n    tag_90:\n        /* \"@openzeppelin/contracts/token/ERC20/ERC20.sol\":4530:4558  address owner = _msgSender() */\n      swap1\n      pop\n        /* \"@openzeppelin/contracts/token/ERC20/ERC20.sol\":4568:4600  _approve(owner, spender, amount) */\n      tag_92\n        /* \"@openzeppelin/contracts/token/ERC20/ERC20.sol\":4577:4582  owner */\n      dup2\n        /* \"@openzeppelin/contracts/token/ERC20/ERC20.sol\":4584:4591  spender */\n      dup6\n        /* \"@openzeppelin/contracts/token/ERC20/ERC20.sol\":4593:4599  amount */\n      dup6\n        /* \"@openzeppelin/contracts/token/ERC20/ERC20.sol\":4568:4576  _approve */\n      tag_93\n        /* \"@openzeppelin/contracts/token/ERC20/ERC20.sol\":4568:4600  _approve(owner, spender, amount) */\n      jump\t// in\n    tag_92:\n        /* \"@openzeppelin/contracts/token/ERC20/ERC20.sol\":4617:4621  true */\n      0x01\n        /* \"@openzeppelin/contracts/token/ERC20/ERC20.sol\":4610:4621  return true */\n      swap2\n      pop\n      pop\n        /* \"@openzeppelin/contracts/token/ERC20/ERC20.sol\":4431:4628  function approve(address spender, uint256 amount) public virtual override returns (bool) {... */\n      swap3\n      swap2\n      pop\n      pop\n      jump\t// out\n        /* \"@openzeppelin/contracts/token/ERC20/ERC20.sol\":3242:3348  function totalSupply() public view virtual override returns (uint256) {... */\n    tag_32:\n        /* \"@openzeppelin/contracts/token/ERC20/ERC20.sol\":3303:3310  uint256 */\n      0x00\n        /* \"@openzeppelin/contracts/token/ERC20/ERC20.sol\":3329:3341  _totalSupply */\n      sload(0x02)\n        /* \"@openzeppelin/contracts/token/ERC20/ERC20.sol\":3322:3341  return _totalSupply */\n      swap1\n      pop\n        /* \"@openzeppelin/contracts/token/ERC20/ERC20.sol\":3242:3348  function totalSupply() public view virtual override returns (uint256) {... */\n      swap1\n      jump\t// out\n        /* \"@openzeppelin/contracts/token/ERC20/ERC20.sol\":5190:5476  function transferFrom(... */\n    tag_38:\n        /* \"@openzeppelin/contracts/token/ERC20/ERC20.sol\":5317:5321  bool */\n      0x00\n        /* \"@openzeppelin/contracts/token/ERC20/ERC20.sol\":5333:5348  address spender */\n      dup1\n        /* \"@openzeppelin/contracts/token/ERC20/ERC20.sol\":5351:5363  _msgSender() */\n      tag_96\n        /* \"@openzeppelin/contracts/token/ERC20/ERC20.sol\":5351:5361  _msgSender */\n      tag_91\n        /* \"@openzeppelin/contracts/token/ERC20/ERC20.sol\":5351:5363  _msgSender() */\n      jump\t// in\n    tag_96:\n        /* \"@openzeppelin/contracts/token/ERC20/ERC20.sol\":5333:5363  address spender = _msgSender() */\n      swap1\n      pop\n        /* \"@openzeppelin/contracts/token/ERC20/ERC20.sol\":5373:5411  _spendAllowance(from, spender, amount) */\n      tag_97\n        /* \"@openzeppelin/contracts/token/ERC20/ERC20.sol\":5389:5393  from */\n      dup6\n        /* \"@openzeppelin/contracts/token/ERC20/ERC20.sol\":5395:5402  spender */\n      dup3\n        /* \"@openzeppelin/contracts/token/ERC20/ERC20.sol\":5404:5410  amount */\n      dup6\n        /* \"@openzeppelin/contracts/token/ERC20/ERC20.sol\":5373:5388  _spendAllowance */\n      tag_98\n        /* \"@openzeppelin/contracts/token/ERC20/ERC20.sol\":5373:5411  _spendAllowance(from, spender, amount) */\n      jump\t// in\n    tag_97:\n        /* \"@openzeppelin/contracts/token/ERC20/ERC20.sol\":5421:5448  _transfer(from, to, amount) */\n      tag_99\n        /* \"@openzeppelin/contracts/token/ERC20/ERC20.sol\":5431:5435  from */\n      dup6\n        /* \"@openzeppelin/contracts/token/ERC20/ERC20.sol\":5437:5439  to */\n      dup6\n        /* \"@openzeppelin/contracts/token/ERC20/ERC20.sol\":5441:5447  amount */\n      dup6\n        /* \"@openzeppelin/contracts/token/ERC20/ERC20.sol\":5421:5430  _transfer */\n      tag_100\n        /* \"@openzeppelin/contracts/token/ERC20/ERC20.sol\":5421:5448  _transfer(from, to, amount) */\n      jump\t// in\n    tag_99:\n        /* \"@openzeppelin/contracts/token/ERC20/ERC20.sol\":5465:5469  true */\n      0x01\n        /* \"@openzeppelin/contracts/token/ERC20/ERC20.sol\":5458:5469  return true */\n      swap2\n      pop\n      pop\n        /* \"@openzeppelin/contracts/token/ERC20/ERC20.sol\":5190:5476  function transferFrom(... */\n      swap4\n      swap3\n      pop\n      pop\n      pop\n      jump\t// out\n        /* \"@openzeppelin/contracts/token/ERC20/ERC20.sol\":3091:3182  function decimals() public view virtual override returns (uint8) {... */\n    tag_41:\n        /* \"@openzeppelin/contracts/token/ERC20/ERC20.sol\":3149:3154  uint8 */\n      0x00\n        /* \"@openzeppelin/contracts/token/ERC20/ERC20.sol\":3173:3175  18 */\n      0x12\n        /* \"@openzeppelin/contracts/token/ERC20/ERC20.sol\":3166:3175  return 18 */\n      swap1\n      pop\n        /* \"@openzeppelin/contracts/token/ERC20/ERC20.sol\":3091:3182  function decimals() public view virtual override returns (uint8) {... */\n      swap1\n      jump\t// out\n        /* \"@openzeppelin/contracts/token/ERC20/ERC20.sol\":5871:6105  function increaseAllowance(address spender, uint256 addedValue) public virtual returns (bool) {... */\n    tag_46:\n        /* \"@openzeppelin/contracts/token/ERC20/ERC20.sol\":5959:5963  bool */\n      0x00\n        /* \"@openzeppelin/contracts/token/ERC20/ERC20.sol\":5975:5988  address owner */\n      dup1\n        /* \"@openzeppelin/contracts/token/ERC20/ERC20.sol\":5991:6003  _msgSender() */\n      tag_103\n        /* \"@openzeppelin/contracts/token/ERC20/ERC20.sol\":5991:6001  _msgSender */\n      tag_91\n        /* \"@openzeppelin/contracts/token/ERC20/ERC20.sol\":5991:6003  _msgSender() */\n      jump\t// in\n    tag_103:\n        /* \"@openzeppelin/contracts/token/ERC20/ERC20.sol\":5975:6003  address owner = _msgSender() */\n      swap1\n      pop\n        /* \"@openzeppelin/contracts/token/ERC20/ERC20.sol\":6013:6077  _approve(owner, spender, allowance(owner, spender) + addedValue) */\n      tag_104\n        /* \"@openzeppelin/contracts/token/ERC20/ERC20.sol\":6022:6027  owner */\n      dup2\n        /* \"@openzeppelin/contracts/token/ERC20/ERC20.sol\":6029:6036  spender */\n      dup6\n        /* \"@openzeppelin/contracts/token/ERC20/ERC20.sol\":6066:6076  addedValue */\n      dup6\n        /* \"@openzeppelin/contracts/token/ERC20/ERC20.sol\":6038:6063  allowance(owner, spender) */\n      tag_105\n        /* \"@openzeppelin/contracts/token/ERC20/ERC20.sol\":6048:6053  owner */\n      dup6\n        /* \"@openzeppelin/contracts/token/ERC20/ERC20.sol\":6055:6062  spender */\n      dup10\n        /* \"@openzeppelin/contracts/token/ERC20/ERC20.sol\":6038:6047  allowance */\n      tag_77\n        /* \"@openzeppelin/contracts/token/ERC20/ERC20.sol\":6038:6063  allowance(owner, spender) */\n      jump\t// in\n    tag_105:\n        /* \"@openzeppelin/contracts/token/ERC20/ERC20.sol\":6038:6076  allowance(owner, spender) + addedValue */\n      tag_106\n      swap2\n      swap1\n      tag_107\n      jump\t// in\n    tag_106:\n        /* \"@openzeppelin/contracts/token/ERC20/ERC20.sol\":6013:6021  _approve */\n      tag_93\n        /* \"@openzeppelin/contracts/token/ERC20/ERC20.sol\":6013:6077  _approve(owner, spender, allowance(owner, spender) + addedValue) */\n      jump\t// in\n    tag_104:\n        /* \"@openzeppelin/contracts/token/ERC20/ERC20.sol\":6094:6098  true */\n      0x01\n        /* \"@openzeppelin/contracts/token/ERC20/ERC20.sol\":6087:6098  return true */\n      swap2\n      pop\n      pop\n        /* \"@openzeppelin/contracts/token/ERC20/ERC20.sol\":5871:6105  function increaseAllowance(address spender, uint256 addedValue) public virtual returns (bool) {... */\n      swap3\n      swap2\n      pop\n      pop\n      jump\t// out\n        /* \"contracts/MyErc20.sol\":292:504  function mintTo(address account, uint256 amount) public onlyOwner returns (bool){... */\n    tag_50:\n        /* \"contracts/MyErc20.sol\":367:371  bool */\n      0x00\n        /* \"@openzeppelin/contracts/access/Ownable.sol\":1094:1107  _checkOwner() */\n      tag_109\n        /* \"@openzeppelin/contracts/access/Ownable.sol\":1094:1105  _checkOwner */\n      tag_110\n        /* \"@openzeppelin/contracts/access/Ownable.sol\":1094:1107  _checkOwner() */\n      jump\t// in\n    tag_109:\n        /* \"contracts/MyErc20.sol\":409:410  0 */\n      0x00\n        /* \"contracts/MyErc20.sol\":390:411  account != address(0) */\n      0xffffffffffffffffffffffffffffffffffffffff\n      and\n        /* \"contracts/MyErc20.sol\":390:397  account */\n      dup4\n        /* \"contracts/MyErc20.sol\":390:411  account != address(0) */\n      0xffffffffffffffffffffffffffffffffffffffff\n      and\n      eq\n      iszero\n        /* \"contracts/MyErc20.sol\":382:444  require(account != address(0), 'can not mint to zero address') */\n      tag_112\n      jumpi\n      mload(0x40)\n      0x08c379a000000000000000000000000000000000000000000000000000000000\n      dup2\n      mstore\n      0x04\n      add\n      tag_113\n      swap1\n      tag_114\n      jump\t// in\n    tag_113:\n      mload(0x40)\n      dup1\n      swap2\n      sub\n      swap1\n      revert\n    tag_112:\n        /* \"contracts/MyErc20.sol\":454:476  _mint(account, amount) */\n      tag_115\n        /* \"contracts/MyErc20.sol\":460:467  account */\n      dup4\n        /* \"contracts/MyErc20.sol\":469:475  amount */\n      dup4\n        /* \"contracts/MyErc20.sol\":454:459  _mint */\n      tag_116\n        /* \"contracts/MyErc20.sol\":454:476  _mint(account, amount) */\n      jump\t// in\n    tag_115:\n        /* \"contracts/MyErc20.sol\":493:497  true */\n      0x01\n        /* \"contracts/MyErc20.sol\":486:497  return true */\n      swap1\n      pop\n        /* \"contracts/MyErc20.sol\":292:504  function mintTo(address account, uint256 amount) public onlyOwner returns (bool){... */\n      swap3\n      swap2\n      pop\n      pop\n      jump\t// out\n        /* \"@openzeppelin/contracts/token/ERC20/ERC20.sol\":3406:3531  function balanceOf(address account) public view virtual override returns (uint256) {... */\n    tag_55:\n        /* \"@openzeppelin/contracts/token/ERC20/ERC20.sol\":3480:3487  uint256 */\n      0x00\n        /* \"@openzeppelin/contracts/token/ERC20/ERC20.sol\":3506:3515  _balances */\n      dup1\n        /* \"@openzeppelin/contracts/token/ERC20/ERC20.sol\":3506:3524  _balances[account] */\n      0x00\n        /* \"@openzeppelin/contracts/token/ERC20/ERC20.sol\":3516:3523  account */\n      dup4\n        /* \"@openzeppelin/contracts/token/ERC20/ERC20.sol\":3506:3524  _balances[account] */\n      0xffffffffffffffffffffffffffffffffffffffff\n      and\n      0xffffffffffffffffffffffffffffffffffffffff\n      and\n      dup2\n      mstore\n      0x20\n      add\n      swap1\n      dup2\n      mstore\n      0x20\n      add\n      0x00\n      keccak256\n      sload\n        /* \"@openzeppelin/contracts/token/ERC20/ERC20.sol\":3499:3524  return _balances[account] */\n      swap1\n      pop\n        /* \"@openzeppelin/contracts/token/ERC20/ERC20.sol\":3406:3531  function balanceOf(address account) public view virtual override returns (uint256) {... */\n      swap2\n      swap1\n      pop\n      jump\t// out\n        /* \"@openzeppelin/contracts/access/Ownable.sol\":1831:1932  function renounceOwnership() public virtual onlyOwner {... */\n    tag_58:\n        /* \"@openzeppelin/contracts/access/Ownable.sol\":1094:1107  _checkOwner() */\n      tag_119\n        /* \"@openzeppelin/contracts/access/Ownable.sol\":1094:1105  _checkOwner */\n      tag_110\n        /* \"@openzeppelin/contracts/access/Ownable.sol\":1094:1107  _checkOwner() */\n      jump\t// in\n    tag_119:\n        /* \"@openzeppelin/contracts/access/Ownable.sol\":1895:1925  _transferOwnership(address(0)) */\n      tag_121\n        /* \"@openzeppelin/contracts/access/Ownable.sol\":1922:1923  0 */\n      0x00\n        /* \"@openzeppelin/contracts/access/Ownable.sol\":1895:1913  _transferOwnership */\n      tag_122\n        /* \"@openzeppelin/contracts/access/Ownable.sol\":1895:1925  _transferOwnership(address(0)) */\n      jump\t// in\n    tag_121:\n        /* \"@openzeppelin/contracts/access/Ownable.sol\":1831:1932  function renounceOwnership() public virtual onlyOwner {... */\n      jump\t// out\n        /* \"@openzeppelin/contracts/access/Ownable.sol\":1201:1286  function owner() public view virtual returns (address) {... */\n    tag_60:\n        /* \"@openzeppelin/contracts/access/Ownable.sol\":1247:1254  address */\n      0x00\n        /* \"@openzeppelin/contracts/access/Ownable.sol\":1273:1279  _owner */\n      0x05\n      0x00\n      swap1\n      sload\n      swap1\n      0x0100\n      exp\n      swap1\n      div\n      0xffffffffffffffffffffffffffffffffffffffff\n      and\n        /* \"@openzeppelin/contracts/access/Ownable.sol\":1266:1279  return _owner */\n      swap1\n      pop\n        /* \"@openzeppelin/contracts/access/Ownable.sol\":1201:1286  function owner() public view virtual returns (address) {... */\n      swap1\n      jump\t// out\n        /* \"@openzeppelin/contracts/token/ERC20/ERC20.sol\":2365:2467  function symbol() public view virtual override returns (string memory) {... */\n    tag_64:\n        /* \"@openzeppelin/contracts/token/ERC20/ERC20.sol\":2421:2434  string memory */\n      0x60\n        /* \"@openzeppelin/contracts/token/ERC20/ERC20.sol\":2453:2460  _symbol */\n      0x04\n        /* \"@openzeppelin/contracts/token/ERC20/ERC20.sol\":2446:2460  return _symbol */\n      dup1\n      sload\n      tag_125\n      swap1\n      tag_84\n      jump\t// in\n    tag_125:\n      dup1\n      0x1f\n      add\n      0x20\n      dup1\n      swap2\n      div\n      mul\n      0x20\n      add\n      mload(0x40)\n      swap1\n      dup2\n      add\n      0x40\n      mstore\n      dup1\n      swap3\n      swap2\n      swap1\n      dup2\n      dup2\n      mstore\n      0x20\n      add\n      dup3\n      dup1\n      sload\n      tag_126\n      swap1\n      tag_84\n      jump\t// in\n    tag_126:\n      dup1\n      iszero\n      tag_127\n      jumpi\n      dup1\n      0x1f\n      lt\n      tag_128\n      jumpi\n      0x0100\n      dup1\n      dup4\n      sload\n      div\n      mul\n      dup4\n      mstore\n      swap2\n      0x20\n      add\n      swap2\n      jump(tag_127)\n    tag_128:\n      dup3\n      add\n      swap2\n      swap1\n      0x00\n      mstore\n      keccak256(0x00, 0x20)\n      swap1\n    tag_129:\n      dup2\n      sload\n      dup2\n      mstore\n      swap1\n      0x01\n      add\n      swap1\n      0x20\n      add\n      dup1\n      dup4\n      gt\n      tag_129\n      jumpi\n      dup3\n      swap1\n      sub\n      0x1f\n      and\n      dup3\n      add\n      swap2\n    tag_127:\n      pop\n      pop\n      pop\n      pop\n      pop\n      swap1\n      pop\n        /* \"@openzeppelin/contracts/token/ERC20/ERC20.sol\":2365:2467  function symbol() public view virtual override returns (string memory) {... */\n      swap1\n      jump\t// out\n        /* \"@openzeppelin/contracts/token/ERC20/ERC20.sol\":6592:7019  function decreaseAllowance(address spender, uint256 subtractedValue) public virtual returns (bool) {... */\n    tag_68:\n        /* \"@openzeppelin/contracts/token/ERC20/ERC20.sol\":6685:6689  bool */\n      0x00\n        /* \"@openzeppelin/contracts/token/ERC20/ERC20.sol\":6701:6714  address owner */\n      dup1\n        /* \"@openzeppelin/contracts/token/ERC20/ERC20.sol\":6717:6729  _msgSender() */\n      tag_131\n        /* \"@openzeppelin/contracts/token/ERC20/ERC20.sol\":6717:6727  _msgSender */\n      tag_91\n        /* \"@openzeppelin/contracts/token/ERC20/ERC20.sol\":6717:6729  _msgSender() */\n      jump\t// in\n    tag_131:\n        /* \"@openzeppelin/contracts/token/ERC20/ERC20.sol\":6701:6729  address owner = _msgSender() */\n      swap1\n      pop\n        /* \"@openzeppelin/contracts/token/ERC20/ERC20.sol\":6739:6763  uint256 currentAllowance */\n      0x00\n        /* \"@openzeppelin/contracts/token/ERC20/ERC20.sol\":6766:6791  allowance(owner, spender) */\n      tag_132\n        /* \"@openzeppelin/contracts/token/ERC20/ERC20.sol\":6776:6781  owner */\n      dup3\n        /* \"@openzeppelin/contracts/token/ERC20/ERC20.sol\":6783:6790  spender */\n      dup7\n        /* \"@openzeppelin/contracts/token/ERC20/ERC20.sol\":6766:6775  allowance */\n      tag_77\n        /* \"@openzeppelin/contracts/token/ERC20/ERC20.sol\":6766:6791  allowance(owner, spender) */\n      jump\t// in\n    tag_132:\n        /* \"@openzeppelin/contracts/token/ERC20/ERC20.sol\":6739:6791  uint256 currentAllowance = allowance(owner, spender) */\n      swap1\n      pop\n        /* \"@openzeppelin/contracts/token/ERC20/ERC20.sol\":6829:6844  subtractedValue */\n      dup4\n        /* \"@openzeppelin/contracts/token/ERC20/ERC20.sol\":6809:6825  currentAllowance */\n      dup2\n        /* \"@openzeppelin/contracts/token/ERC20/ERC20.sol\":6809:6844  currentAllowance >= subtractedValue */\n      lt\n      iszero\n        /* \"@openzeppelin/contracts/token/ERC20/ERC20.sol\":6801:6886  require(currentAllowance >= subtractedValue, \"ERC20: decreased allowance below zero\") */\n      tag_133\n      jumpi\n      mload(0x40)\n      0x08c379a000000000000000000000000000000000000000000000000000000000\n      dup2\n      mstore\n      0x04\n      add\n      tag_134\n      swap1\n      tag_135\n      jump\t// in\n    tag_134:\n      mload(0x40)\n      dup1\n      swap2\n      sub\n      swap1\n      revert\n    tag_133:\n        /* \"@openzeppelin/contracts/token/ERC20/ERC20.sol\":6920:6980  _approve(owner, spender, currentAllowance - subtractedValue) */\n      tag_136\n        /* \"@openzeppelin/contracts/token/ERC20/ERC20.sol\":6929:6934  owner */\n      dup3\n        /* \"@openzeppelin/contracts/token/ERC20/ERC20.sol\":6936:6943  spender */\n      dup7\n        /* \"@openzeppelin/contracts/token/ERC20/ERC20.sol\":6964:6979  subtractedValue */\n      dup7\n        /* \"@openzeppelin/contracts/token/ERC20/ERC20.sol\":6945:6961  currentAllowance */\n      dup5\n        /* \"@openzeppelin/contracts/token/ERC20/ERC20.sol\":6945:6979  currentAllowance - subtractedValue */\n      sub\n        /* \"@openzeppelin/contracts/token/ERC20/ERC20.sol\":6920:6928  _approve */\n      tag_93\n        /* \"@openzeppelin/contracts/token/ERC20/ERC20.sol\":6920:6980  _approve(owner, spender, currentAllowance - subtractedValue) */\n      jump\t// in\n    tag_136:\n        /* \"@openzeppelin/contracts/token/ERC20/ERC20.sol\":7008:7012  true */\n      0x01\n        /* \"@openzeppelin/contracts/token/ERC20/ERC20.sol\":7001:7012  return true */\n      swap3\n      pop\n      pop\n      pop\n        /* \"@openzeppelin/contracts/token/ERC20/ERC20.sol\":6592:7019  function decreaseAllowance(address spender, uint256 subtractedValue) public virtual returns (bool) {... */\n      swap3\n      swap2\n      pop\n      pop\n      jump\t// out\n        /* \"@openzeppelin/contracts/token/ERC20/ERC20.sol\":3727:3916  function transfer(address to, uint256 amount) public virtual override returns (bool) {... */\n    tag_72:\n        /* \"@openzeppelin/contracts/token/ERC20/ERC20.sol\":3806:3810  bool */\n      0x00\n        /* \"@openzeppelin/contracts/token/ERC20/ERC20.sol\":3822:3835  address owner */\n      dup1\n        /* \"@openzeppelin/contracts/token/ERC20/ERC20.sol\":3838:3850  _msgSender() */\n      tag_138\n        /* \"@openzeppelin/contracts/token/ERC20/ERC20.sol\":3838:3848  _msgSender */\n      tag_91\n        /* \"@openzeppelin/contracts/token/ERC20/ERC20.sol\":3838:3850  _msgSender() */\n      jump\t// in\n    tag_138:\n        /* \"@openzeppelin/contracts/token/ERC20/ERC20.sol\":3822:3850  address owner = _msgSender() */\n      swap1\n      pop\n        /* \"@openzeppelin/contracts/token/ERC20/ERC20.sol\":3860:3888  _transfer(owner, to, amount) */\n      tag_139\n        /* \"@openzeppelin/contracts/token/ERC20/ERC20.sol\":3870:3875  owner */\n      dup2\n        /* \"@openzeppelin/contracts/token/ERC20/ERC20.sol\":3877:3879  to */\n      dup6\n        /* \"@openzeppelin/contracts/token/ERC20/ERC20.sol\":3881:3887  amount */\n      dup6\n        /* \"@openzeppelin/contracts/token/ERC20/ERC20.sol\":3860:3869  _transfer */\n      tag_100\n        /* \"@openzeppelin/contracts/token/ERC20/ERC20.sol\":3860:3888  _transfer(owner, to, amount) */\n      jump\t// in\n    tag_139:\n        /* \"@openzeppelin/contracts/token/ERC20/ERC20.sol\":3905:3909  true */\n      0x01\n        /* \"@openzeppelin/contracts/token/ERC20/ERC20.sol\":3898:3909  return true */\n      swap2\n      pop\n      pop\n        /* \"@openzeppelin/contracts/token/ERC20/ERC20.sol\":3727:3916  function transfer(address to, uint256 amount) public virtual override returns (bool) {... */\n      swap3\n      swap2\n      pop\n      pop\n      jump\t// out\n        /* \"@openzeppelin/contracts/token/ERC20/ERC20.sol\":3974:4123  function allowance(address owner, address spender) public view virtual override returns (uint256) {... */\n    tag_77:\n        /* \"@openzeppelin/contracts/token/ERC20/ERC20.sol\":4063:4070  uint256 */\n      0x00\n        /* \"@openzeppelin/contracts/token/ERC20/ERC20.sol\":4089:4100  _allowances */\n      0x01\n        /* \"@openzeppelin/contracts/token/ERC20/ERC20.sol\":4089:4107  _allowances[owner] */\n      0x00\n        /* \"@openzeppelin/contracts/token/ERC20/ERC20.sol\":4101:4106  owner */\n      dup5\n        /* \"@openzeppelin/contracts/token/ERC20/ERC20.sol\":4089:4107  _allowances[owner] */\n      0xffffffffffffffffffffffffffffffffffffffff\n      and\n      0xffffffffffffffffffffffffffffffffffffffff\n      and\n      dup2\n      mstore\n      0x20\n      add\n      swap1\n      dup2\n      mstore\n      0x20\n      add\n      0x00\n      keccak256\n        /* \"@openzeppelin/contracts/token/ERC20/ERC20.sol\":4089:4116  _allowances[owner][spender] */\n      0x00\n        /* \"@openzeppelin/contracts/token/ERC20/ERC20.sol\":4108:4115  spender */\n      dup4\n        /* \"@openzeppelin/contracts/token/ERC20/ERC20.sol\":4089:4116  _allowances[owner][spender] */\n      0xffffffffffffffffffffffffffffffffffffffff\n      and\n      0xffffffffffffffffffffffffffffffffffffffff\n      and\n      dup2\n      mstore\n      0x20\n      add\n      swap1\n      dup2\n      mstore\n      0x20\n      add\n      0x00\n      keccak256\n      sload\n        /* \"@openzeppelin/contracts/token/ERC20/ERC20.sol\":4082:4116  return _allowances[owner][spender] */\n      swap1\n      pop\n        /* \"@openzeppelin/contracts/token/ERC20/ERC20.sol\":3974:4123  function allowance(address owner, address spender) public view virtual override returns (uint256) {... */\n      swap3\n      swap2\n      pop\n      pop\n      jump\t// out\n        /* \"@openzeppelin/contracts/access/Ownable.sol\":2081:2279  function transferOwnership(address newOwner) public virtual onlyOwner {... */\n    tag_81:\n        /* \"@openzeppelin/contracts/access/Ownable.sol\":1094:1107  _checkOwner() */\n      tag_142\n        /* \"@openzeppelin/contracts/access/Ownable.sol\":1094:1105  _checkOwner */\n      tag_110\n        /* \"@openzeppelin/contracts/access/Ownable.sol\":1094:1107  _checkOwner() */\n      jump\t// in\n    tag_142:\n        /* \"@openzeppelin/contracts/access/Ownable.sol\":2189:2190  0 */\n      0x00\n        /* \"@openzeppelin/contracts/access/Ownable.sol\":2169:2191  newOwner != address(0) */\n      0xffffffffffffffffffffffffffffffffffffffff\n      and\n        /* \"@openzeppelin/contracts/access/Ownable.sol\":2169:2177  newOwner */\n      dup2\n        /* \"@openzeppelin/contracts/access/Ownable.sol\":2169:2191  newOwner != address(0) */\n      0xffffffffffffffffffffffffffffffffffffffff\n      and\n      eq\n      iszero\n        /* \"@openzeppelin/contracts/access/Ownable.sol\":2161:2234  require(newOwner != address(0), \"Ownable: new owner is the zero address\") */\n      tag_144\n      jumpi\n      mload(0x40)\n      0x08c379a000000000000000000000000000000000000000000000000000000000\n      dup2\n      mstore\n      0x04\n      add\n      tag_145\n      swap1\n      tag_146\n      jump\t// in\n    tag_145:\n      mload(0x40)\n      dup1\n      swap2\n      sub\n      swap1\n      revert\n    tag_144:\n        /* \"@openzeppelin/contracts/access/Ownable.sol\":2244:2272  _transferOwnership(newOwner) */\n      tag_147\n        /* \"@openzeppelin/contracts/access/Ownable.sol\":2263:2271  newOwner */\n      dup2\n        /* \"@openzeppelin/contracts/access/Ownable.sol\":2244:2262  _transferOwnership */\n      tag_122\n        /* \"@openzeppelin/contracts/access/Ownable.sol\":2244:2272  _transferOwnership(newOwner) */\n      jump\t// in\n    tag_147:\n        /* \"@openzeppelin/contracts/access/Ownable.sol\":2081:2279  function transferOwnership(address newOwner) public virtual onlyOwner {... */\n      pop\n      jump\t// out\n        /* \"@openzeppelin/contracts/utils/Context.sol\":640:736  function _msgSender() internal view virtual returns (address) {... */\n    tag_91:\n        /* \"@openzeppelin/contracts/utils/Context.sol\":693:700  address */\n      0x00\n        /* \"@openzeppelin/contracts/utils/Context.sol\":719:729  msg.sender */\n      caller\n        /* \"@openzeppelin/contracts/utils/Context.sol\":712:729  return msg.sender */\n      swap1\n      pop\n        /* \"@openzeppelin/contracts/utils/Context.sol\":640:736  function _msgSender() internal view virtual returns (address) {... */\n      swap1\n      jump\t// out\n        /* \"@openzeppelin/contracts/token/ERC20/ERC20.sol\":10504:10874  function _approve(... */\n    tag_93:\n        /* \"@openzeppelin/contracts/token/ERC20/ERC20.sol\":10652:10653  0 */\n      0x00\n        /* \"@openzeppelin/contracts/token/ERC20/ERC20.sol\":10635:10654  owner != address(0) */\n      0xffffffffffffffffffffffffffffffffffffffff\n      and\n        /* \"@openzeppelin/contracts/token/ERC20/ERC20.sol\":10635:10640  owner */\n      dup4\n        /* \"@openzeppelin/contracts/token/ERC20/ERC20.sol\":10635:10654  owner != address(0) */\n      0xffffffffffffffffffffffffffffffffffffffff\n      and\n      eq\n      iszero\n        /* \"@openzeppelin/contracts/token/ERC20/ERC20.sol\":10627:10695  require(owner != address(0), \"ERC20: approve from the zero address\") */\n      tag_150\n      jumpi\n      mload(0x40)\n      0x08c379a000000000000000000000000000000000000000000000000000000000\n      dup2\n      mstore\n      0x04\n      add\n      tag_151\n      swap1\n      tag_152\n      jump\t// in\n    tag_151:\n      mload(0x40)\n      dup1\n      swap2\n      sub\n      swap1\n      revert\n    tag_150:\n        /* \"@openzeppelin/contracts/token/ERC20/ERC20.sol\":10732:10733  0 */\n      0x00\n        /* \"@openzeppelin/contracts/token/ERC20/ERC20.sol\":10713:10734  spender != address(0) */\n      0xffffffffffffffffffffffffffffffffffffffff\n      and\n        /* \"@openzeppelin/contracts/token/ERC20/ERC20.sol\":10713:10720  spender */\n      dup3\n        /* \"@openzeppelin/contracts/token/ERC20/ERC20.sol\":10713:10734  spender != address(0) */\n      0xffffffffffffffffffffffffffffffffffffffff\n      and\n      eq\n      iszero\n        /* \"@openzeppelin/contracts/token/ERC20/ERC20.sol\":10705:10773  require(spender != address(0), \"ERC20: approve to the zero address\") */\n      tag_153\n      jumpi\n      mload(0x40)\n      0x08c379a000000000000000000000000000000000000000000000000000000000\n      dup2\n      mstore\n      0x04\n      add\n      tag_154\n      swap1\n      tag_155\n      jump\t// in\n    tag_154:\n      mload(0x40)\n      dup1\n      swap2\n      sub\n      swap1\n      revert\n    tag_153:\n        /* \"@openzeppelin/contracts/token/ERC20/ERC20.sol\":10814:10820  amount */\n      dup1\n        /* \"@openzeppelin/contracts/token/ERC20/ERC20.sol\":10784:10795  _allowances */\n      0x01\n        /* \"@openzeppelin/contracts/token/ERC20/ERC20.sol\":10784:10802  _allowances[owner] */\n      0x00\n        /* \"@openzeppelin/contracts/token/ERC20/ERC20.sol\":10796:10801  owner */\n      dup6\n        /* \"@openzeppelin/contracts/token/ERC20/ERC20.sol\":10784:10802  _allowances[owner] */\n      0xffffffffffffffffffffffffffffffffffffffff\n      and\n      0xffffffffffffffffffffffffffffffffffffffff\n      and\n      dup2\n      mstore\n      0x20\n      add\n      swap1\n      dup2\n      mstore\n      0x20\n      add\n      0x00\n      keccak256\n        /* \"@openzeppelin/contracts/token/ERC20/ERC20.sol\":10784:10811  _allowances[owner][spender] */\n      0x00\n        /* \"@openzeppelin/contracts/token/ERC20/ERC20.sol\":10803:10810  spender */\n      dup5\n        /* \"@openzeppelin/contracts/token/ERC20/ERC20.sol\":10784:10811  _allowances[owner][spender] */\n      0xffffffffffffffffffffffffffffffffffffffff\n      and\n      0xffffffffffffffffffffffffffffffffffffffff\n      and\n      dup2\n      mstore\n      0x20\n      add\n      swap1\n      dup2\n      mstore\n      0x20\n      add\n      0x00\n      keccak256\n        /* \"@openzeppelin/contracts/token/ERC20/ERC20.sol\":10784:10820  _allowances[owner][spender] = amount */\n      dup2\n      swap1\n      sstore\n      pop\n        /* \"@openzeppelin/contracts/token/ERC20/ERC20.sol\":10851:10858  spender */\n      dup2\n        /* \"@openzeppelin/contracts/token/ERC20/ERC20.sol\":10835:10867  Approval(owner, spender, amount) */\n      0xffffffffffffffffffffffffffffffffffffffff\n      and\n        /* \"@openzeppelin/contracts/token/ERC20/ERC20.sol\":10844:10849  owner */\n      dup4\n        /* \"@openzeppelin/contracts/token/ERC20/ERC20.sol\":10835:10867  Approval(owner, spender, amount) */\n      0xffffffffffffffffffffffffffffffffffffffff\n      and\n      0x8c5be1e5ebec7d5bd14f71427d1e84f3dd0314c0f7b2291e5b200ac8c7c3b925\n        /* \"@openzeppelin/contracts/token/ERC20/ERC20.sol\":10860:10866  amount */\n      dup4\n        /* \"@openzeppelin/contracts/token/ERC20/ERC20.sol\":10835:10867  Approval(owner, spender, amount) */\n      mload(0x40)\n      tag_156\n      swap2\n      swap1\n      tag_34\n      jump\t// in\n    tag_156:\n      mload(0x40)\n      dup1\n      swap2\n      sub\n      swap1\n      log3\n        /* \"@openzeppelin/contracts/token/ERC20/ERC20.sol\":10504:10874  function _approve(... */\n      pop\n      pop\n      pop\n      jump\t// out\n        /* \"@openzeppelin/contracts/token/ERC20/ERC20.sol\":11155:11596  function _spendAllowance(... */\n    tag_98:\n        /* \"@openzeppelin/contracts/token/ERC20/ERC20.sol\":11285:11309  uint256 currentAllowance */\n      0x00\n        /* \"@openzeppelin/contracts/token/ERC20/ERC20.sol\":11312:11337  allowance(owner, spender) */\n      tag_158\n        /* \"@openzeppelin/contracts/token/ERC20/ERC20.sol\":11322:11327  owner */\n      dup5\n        /* \"@openzeppelin/contracts/token/ERC20/ERC20.sol\":11329:11336  spender */\n      dup5\n        /* \"@openzeppelin/contracts/token/ERC20/ERC20.sol\":11312:11321  allowance */\n      tag_77\n        /* \"@openzeppelin/contracts/token/ERC20/ERC20.sol\":11312:11337  allowance(owner, spender) */\n      jump\t// in\n    tag_158:\n        /* \"@openzeppelin/contracts/token/ERC20/ERC20.sol\":11285:11337  uint256 currentAllowance = allowance(owner, spender) */\n      swap1\n      pop\n        /* \"@openzeppelin/contracts/token/ERC20/ERC20.sol\":11371:11388  type(uint256).max */\n      0xffffffffffffffffffffffffffffffffffffffffffffffffffffffffffffffff\n        /* \"@openzeppelin/contracts/token/ERC20/ERC20.sol\":11351:11367  currentAllowance */\n      dup2\n        /* \"@openzeppelin/contracts/token/ERC20/ERC20.sol\":11351:11388  currentAllowance != type(uint256).max */\n      eq\n        /* \"@openzeppelin/contracts/token/ERC20/ERC20.sol\":11347:11590  if (currentAllowance != type(uint256).max) {... */\n      tag_159\n      jumpi\n        /* \"@openzeppelin/contracts/token/ERC20/ERC20.sol\":11432:11438  amount */\n      dup2\n        /* \"@openzeppelin/contracts/token/ERC20/ERC20.sol\":11412:11428  currentAllowance */\n      dup2\n        /* \"@openzeppelin/contracts/token/ERC20/ERC20.sol\":11412:11438  currentAllowance >= amount */\n      lt\n      iszero\n        /* \"@openzeppelin/contracts/token/ERC20/ERC20.sol\":11404:11472  require(currentAllowance >= amount, \"ERC20: insufficient allowance\") */\n      tag_160\n      jumpi\n      mload(0x40)\n      0x08c379a000000000000000000000000000000000000000000000000000000000\n      dup2\n      mstore\n      0x04\n      add\n      tag_161\n      swap1\n      tag_162\n      jump\t// in\n    tag_161:\n      mload(0x40)\n      dup1\n      swap2\n      sub\n      swap1\n      revert\n    tag_160:\n        /* \"@openzeppelin/contracts/token/ERC20/ERC20.sol\":11514:11565  _approve(owner, spender, currentAllowance - amount) */\n      tag_163\n        /* \"@openzeppelin/contracts/token/ERC20/ERC20.sol\":11523:11528  owner */\n      dup5\n        /* \"@openzeppelin/contracts/token/ERC20/ERC20.sol\":11530:11537  spender */\n      dup5\n        /* \"@openzeppelin/contracts/token/ERC20/ERC20.sol\":11558:11564  amount */\n      dup5\n        /* \"@openzeppelin/contracts/token/ERC20/ERC20.sol\":11539:11555  currentAllowance */\n      dup5\n        /* \"@openzeppelin/contracts/token/ERC20/ERC20.sol\":11539:11564  currentAllowance - amount */\n      sub\n        /* \"@openzeppelin/contracts/token/ERC20/ERC20.sol\":11514:11522  _approve */\n      tag_93\n        /* \"@openzeppelin/contracts/token/ERC20/ERC20.sol\":11514:11565  _approve(owner, spender, currentAllowance - amount) */\n      jump\t// in\n    tag_163:\n        /* \"@openzeppelin/contracts/token/ERC20/ERC20.sol\":11347:11590  if (currentAllowance != type(uint256).max) {... */\n    tag_159:\n        /* \"@openzeppelin/contracts/token/ERC20/ERC20.sol\":11155:11596  function _spendAllowance(... */\n      pop\n      pop\n      pop\n      pop\n      jump\t// out\n        /* \"@openzeppelin/contracts/token/ERC20/ERC20.sol\":7473:8291  function _transfer(... */\n    tag_100:\n        /* \"@openzeppelin/contracts/token/ERC20/ERC20.sol\":7615:7616  0 */\n      0x00\n        /* \"@openzeppelin/contracts/token/ERC20/ERC20.sol\":7599:7617  from != address(0) */\n      0xffffffffffffffffffffffffffffffffffffffff\n      and\n        /* \"@openzeppelin/contracts/token/ERC20/ERC20.sol\":7599:7603  from */\n      dup4\n        /* \"@openzeppelin/contracts/token/ERC20/ERC20.sol\":7599:7617  from != address(0) */\n      0xffffffffffffffffffffffffffffffffffffffff\n      and\n      eq\n      iszero\n        /* \"@openzeppelin/contracts/token/ERC20/ERC20.sol\":7591:7659  require(from != address(0), \"ERC20: transfer from the zero address\") */\n      tag_165\n      jumpi\n      mload(0x40)\n      0x08c379a000000000000000000000000000000000000000000000000000000000\n      dup2\n      mstore\n      0x04\n      add\n      tag_166\n      swap1\n      tag_167\n      jump\t// in\n    tag_166:\n      mload(0x40)\n      dup1\n      swap2\n      sub\n      swap1\n      revert\n    tag_165:\n        /* \"@openzeppelin/contracts/token/ERC20/ERC20.sol\":7691:7692  0 */\n      0x00\n        /* \"@openzeppelin/contracts/token/ERC20/ERC20.sol\":7677:7693  to != address(0) */\n      0xffffffffffffffffffffffffffffffffffffffff\n      and\n        /* \"@openzeppelin/contracts/token/ERC20/ERC20.sol\":7677:7679  to */\n      dup3\n        /* \"@openzeppelin/contracts/token/ERC20/ERC20.sol\":7677:7693  to != address(0) */\n      0xffffffffffffffffffffffffffffffffffffffff\n      and\n      eq\n      iszero\n        /* \"@openzeppelin/contracts/token/ERC20/ERC20.sol\":7669:7733  require(to != address(0), \"ERC20: transfer to the zero address\") */\n      tag_168\n      jumpi\n      mload(0x40)\n      0x08c379a000000000000000000000000000000000000000000000000000000000\n      dup2\n      mstore\n      0x04\n      add\n      tag_169\n      swap1\n      tag_170\n      jump\t// in\n    tag_169:\n      mload(0x40)\n      dup1\n      swap2\n      sub\n      swap1\n      revert\n    tag_168:\n        /* \"@openzeppelin/contracts/token/ERC20/ERC20.sol\":7744:7782  _beforeTokenTransfer(from, to, amount) */\n      tag_171\n        /* \"@openzeppelin/contracts/token/ERC20/ERC20.sol\":7765:7769  from */\n      dup4\n        /* \"@openzeppelin/contracts/token/ERC20/ERC20.sol\":7771:7773  to */\n      dup4\n        /* \"@openzeppelin/contracts/token/ERC20/ERC20.sol\":7775:7781  amount */\n      dup4\n        /* \"@openzeppelin/contracts/token/ERC20/ERC20.sol\":7744:7764  _beforeTokenTransfer */\n      tag_172\n        /* \"@openzeppelin/contracts/token/ERC20/ERC20.sol\":7744:7782  _beforeTokenTransfer(from, to, amount) */\n      jump\t// in\n    tag_171:\n        /* \"@openzeppelin/contracts/token/ERC20/ERC20.sol\":7793:7812  uint256 fromBalance */\n      0x00\n        /* \"@openzeppelin/contracts/token/ERC20/ERC20.sol\":7815:7824  _balances */\n      dup1\n        /* \"@openzeppelin/contracts/token/ERC20/ERC20.sol\":7815:7830  _balances[from] */\n      0x00\n        /* \"@openzeppelin/contracts/token/ERC20/ERC20.sol\":7825:7829  from */\n      dup6\n        /* \"@openzeppelin/contracts/token/ERC20/ERC20.sol\":7815:7830  _balances[from] */\n      0xffffffffffffffffffffffffffffffffffffffff\n      and\n      0xffffffffffffffffffffffffffffffffffffffff\n      and\n      dup2\n      mstore\n      0x20\n      add\n      swap1\n      dup2\n      mstore\n      0x20\n      add\n      0x00\n      keccak256\n      sload\n        /* \"@openzeppelin/contracts/token/ERC20/ERC20.sol\":7793:7830  uint256 fromBalance = _balances[from] */\n      swap1\n      pop\n        /* \"@openzeppelin/contracts/token/ERC20/ERC20.sol\":7863:7869  amount */\n      dup2\n        /* \"@openzeppelin/contracts/token/ERC20/ERC20.sol\":7848:7859  fromBalance */\n      dup2\n        /* \"@openzeppelin/contracts/token/ERC20/ERC20.sol\":7848:7869  fromBalance >= amount */\n      lt\n      iszero\n        /* \"@openzeppelin/contracts/token/ERC20/ERC20.sol\":7840:7912  require(fromBalance >= amount, \"ERC20: transfer amount exceeds balance\") */\n      tag_173\n      jumpi\n      mload(0x40)\n      0x08c379a000000000000000000000000000000000000000000000000000000000\n      dup2\n      mstore\n      0x04\n      add\n      tag_174\n      swap1\n      tag_175\n      jump\t// in\n    tag_174:\n      mload(0x40)\n      dup1\n      swap2\n      sub\n      swap1\n      revert\n    tag_173:\n        /* \"@openzeppelin/contracts/token/ERC20/ERC20.sol\":7978:7984  amount */\n      dup2\n        /* \"@openzeppelin/contracts/token/ERC20/ERC20.sol\":7964:7975  fromBalance */\n      dup2\n        /* \"@openzeppelin/contracts/token/ERC20/ERC20.sol\":7964:7984  fromBalance - amount */\n      sub\n        /* \"@openzeppelin/contracts/token/ERC20/ERC20.sol\":7946:7955  _balances */\n      0x00\n        /* \"@openzeppelin/contracts/token/ERC20/ERC20.sol\":7946:7961  _balances[from] */\n      dup1\n        /* \"@openzeppelin/contracts/token/ERC20/ERC20.sol\":7956:7960  from */\n      dup7\n        /* \"@openzeppelin/contracts/token/ERC20/ERC20.sol\":7946:7961  _balances[from] */\n      0xffffffffffffffffffffffffffffffffffffffff\n      and\n      0xffffffffffffffffffffffffffffffffffffffff\n      and\n      dup2\n      mstore\n      0x20\n      add\n      swap1\n      dup2\n      mstore\n      0x20\n      add\n      0x00\n      keccak256\n        /* \"@openzeppelin/contracts/token/ERC20/ERC20.sol\":7946:7984  _balances[from] = fromBalance - amount */\n      dup2\n      swap1\n      sstore\n      pop\n        /* \"@openzeppelin/contracts/token/ERC20/ERC20.sol\":8178:8184  amount */\n      dup2\n        /* \"@openzeppelin/contracts/token/ERC20/ERC20.sol\":8161:8170  _balances */\n      0x00\n        /* \"@openzeppelin/contracts/token/ERC20/ERC20.sol\":8161:8174  _balances[to] */\n      dup1\n        /* \"@openzeppelin/contracts/token/ERC20/ERC20.sol\":8171:8173  to */\n      dup6\n        /* \"@openzeppelin/contracts/token/ERC20/ERC20.sol\":8161:8174  _balances[to] */\n      0xffffffffffffffffffffffffffffffffffffffff\n      and\n      0xffffffffffffffffffffffffffffffffffffffff\n      and\n      dup2\n      mstore\n      0x20\n      add\n      swap1\n      dup2\n      mstore\n      0x20\n      add\n      0x00\n      keccak256\n      0x00\n        /* \"@openzeppelin/contracts/token/ERC20/ERC20.sol\":8161:8184  _balances[to] += amount */\n      dup3\n      dup3\n      sload\n      add\n      swap3\n      pop\n      pop\n      dup2\n      swap1\n      sstore\n      pop\n        /* \"@openzeppelin/contracts/token/ERC20/ERC20.sol\":8225:8227  to */\n      dup3\n        /* \"@openzeppelin/contracts/token/ERC20/ERC20.sol\":8210:8236  Transfer(from, to, amount) */\n      0xffffffffffffffffffffffffffffffffffffffff\n      and\n        /* \"@openzeppelin/contracts/token/ERC20/ERC20.sol\":8219:8223  from */\n      dup5\n        /* \"@openzeppelin/contracts/token/ERC20/ERC20.sol\":8210:8236  Transfer(from, to, amount) */\n      0xffffffffffffffffffffffffffffffffffffffff\n      and\n      0xddf252ad1be2c89b69c2b068fc378daa952ba7f163c4a11628f55a4df523b3ef\n        /* \"@openzeppelin/contracts/token/ERC20/ERC20.sol\":8229:8235  amount */\n      dup5\n        /* \"@openzeppelin/contracts/token/ERC20/ERC20.sol\":8210:8236  Transfer(from, to, amount) */\n      mload(0x40)\n      tag_176\n      swap2\n      swap1\n      tag_34\n      jump\t// in\n    tag_176:\n      mload(0x40)\n      dup1\n      swap2\n      sub\n      swap1\n      log3\n        /* \"@openzeppelin/contracts/token/ERC20/ERC20.sol\":8247:8284  _afterTokenTransfer(from, to, amount) */\n      tag_177\n        /* \"@openzeppelin/contracts/token/ERC20/ERC20.sol\":8267:8271  from */\n      dup5\n        /* \"@openzeppelin/contracts/token/ERC20/ERC20.sol\":8273:8275  to */\n      dup5\n        /* \"@openzeppelin/contracts/token/ERC20/ERC20.sol\":8277:8283  amount */\n      dup5\n        /* \"@openzeppelin/contracts/token/ERC20/ERC20.sol\":8247:8266  _afterTokenTransfer */\n      tag_178\n        /* \"@openzeppelin/contracts/token/ERC20/ERC20.sol\":8247:8284  _afterTokenTransfer(from, to, amount) */\n      jump\t// in\n    tag_177:\n        /* \"@openzeppelin/contracts/token/ERC20/ERC20.sol\":7473:8291  function _transfer(... */\n      pop\n      pop\n      pop\n      pop\n      jump\t// out\n        /* \"@openzeppelin/contracts/access/Ownable.sol\":1359:1489  function _checkOwner() internal view virtual {... */\n    tag_110:\n        /* \"@openzeppelin/contracts/access/Ownable.sol\":1433:1445  _msgSender() */\n      tag_180\n        /* \"@openzeppelin/contracts/access/Ownable.sol\":1433:1443  _msgSender */\n      tag_91\n        /* \"@openzeppelin/contracts/access/Ownable.sol\":1433:1445  _msgSender() */\n      jump\t// in\n    tag_180:\n        /* \"@openzeppelin/contracts/access/Ownable.sol\":1422:1445  owner() == _msgSender() */\n      0xffffffffffffffffffffffffffffffffffffffff\n      and\n        /* \"@openzeppelin/contracts/access/Ownable.sol\":1422:1429  owner() */\n      tag_181\n        /* \"@openzeppelin/contracts/access/Ownable.sol\":1422:1427  owner */\n      tag_60\n        /* \"@openzeppelin/contracts/access/Ownable.sol\":1422:1429  owner() */\n      jump\t// in\n    tag_181:\n        /* \"@openzeppelin/contracts/access/Ownable.sol\":1422:1445  owner() == _msgSender() */\n      0xffffffffffffffffffffffffffffffffffffffff\n      and\n      eq\n        /* \"@openzeppelin/contracts/access/Ownable.sol\":1414:1482  require(owner() == _msgSender(), \"Ownable: caller is not the owner\") */\n      tag_182\n      jumpi\n      mload(0x40)\n      0x08c379a000000000000000000000000000000000000000000000000000000000\n      dup2\n      mstore\n      0x04\n      add\n      tag_183\n      swap1\n      tag_184\n      jump\t// in\n    tag_183:\n      mload(0x40)\n      dup1\n      swap2\n      sub\n      swap1\n      revert\n    tag_182:\n        /* \"@openzeppelin/contracts/access/Ownable.sol\":1359:1489  function _checkOwner() internal view virtual {... */\n      jump\t// out\n        /* \"@openzeppelin/contracts/token/ERC20/ERC20.sol\":8567:9102  function _mint(address account, uint256 amount) internal virtual {... */\n    tag_116:\n        /* \"@openzeppelin/contracts/token/ERC20/ERC20.sol\":8669:8670  0 */\n      0x00\n        /* \"@openzeppelin/contracts/token/ERC20/ERC20.sol\":8650:8671  account != address(0) */\n      0xffffffffffffffffffffffffffffffffffffffff\n      and\n        /* \"@openzeppelin/contracts/token/ERC20/ERC20.sol\":8650:8657  account */\n      dup3\n        /* \"@openzeppelin/contracts/token/ERC20/ERC20.sol\":8650:8671  account != address(0) */\n      0xffffffffffffffffffffffffffffffffffffffff\n      and\n      eq\n      iszero\n        /* \"@openzeppelin/contracts/token/ERC20/ERC20.sol\":8642:8707  require(account != address(0), \"ERC20: mint to the zero address\") */\n      tag_186\n      jumpi\n      mload(0x40)\n      0x08c379a000000000000000000000000000000000000000000000000000000000\n      dup2\n      mstore\n      0x04\n      add\n      tag_187\n      swap1\n      tag_188\n      jump\t// in\n    tag_187:\n      mload(0x40)\n      dup1\n      swap2\n      sub\n      swap1\n      revert\n    tag_186:\n        /* \"@openzeppelin/contracts/token/ERC20/ERC20.sol\":8718:8767  _beforeTokenTransfer(address(0), account, amount) */\n      tag_189\n        /* \"@openzeppelin/contracts/token/ERC20/ERC20.sol\":8747:8748  0 */\n      0x00\n        /* \"@openzeppelin/contracts/token/ERC20/ERC20.sol\":8751:8758  account */\n      dup4\n        /* \"@openzeppelin/contracts/token/ERC20/ERC20.sol\":8760:8766  amount */\n      dup4\n        /* \"@openzeppelin/contracts/token/ERC20/ERC20.sol\":8718:8738  _beforeTokenTransfer */\n      tag_172\n        /* \"@openzeppelin/contracts/token/ERC20/ERC20.sol\":8718:8767  _beforeTokenTransfer(address(0), account, amount) */\n      jump\t// in\n    tag_189:\n        /* \"@openzeppelin/contracts/token/ERC20/ERC20.sol\":8794:8800  amount */\n      dup1\n        /* \"@openzeppelin/contracts/token/ERC20/ERC20.sol\":8778:8790  _totalSupply */\n      0x02\n      0x00\n        /* \"@openzeppelin/contracts/token/ERC20/ERC20.sol\":8778:8800  _totalSupply += amount */\n      dup3\n      dup3\n      sload\n      tag_190\n      swap2\n      swap1\n      tag_107\n      jump\t// in\n    tag_190:\n      swap3\n      pop\n      pop\n      dup2\n      swap1\n      sstore\n      pop\n        /* \"@openzeppelin/contracts/token/ERC20/ERC20.sol\":8968:8974  amount */\n      dup1\n        /* \"@openzeppelin/contracts/token/ERC20/ERC20.sol\":8946:8955  _balances */\n      0x00\n        /* \"@openzeppelin/contracts/token/ERC20/ERC20.sol\":8946:8964  _balances[account] */\n      dup1\n        /* \"@openzeppelin/contracts/token/ERC20/ERC20.sol\":8956:8963  account */\n      dup5\n        /* \"@openzeppelin/contracts/token/ERC20/ERC20.sol\":8946:8964  _balances[account] */\n      0xffffffffffffffffffffffffffffffffffffffff\n      and\n      0xffffffffffffffffffffffffffffffffffffffff\n      and\n      dup2\n      mstore\n      0x20\n      add\n      swap1\n      dup2\n      mstore\n      0x20\n      add\n      0x00\n      keccak256\n      0x00\n        /* \"@openzeppelin/contracts/token/ERC20/ERC20.sol\":8946:8974  _balances[account] += amount */\n      dup3\n      dup3\n      sload\n      add\n      swap3\n      pop\n      pop\n      dup2\n      swap1\n      sstore\n      pop\n        /* \"@openzeppelin/contracts/token/ERC20/ERC20.sol\":9020:9027  account */\n      dup2\n        /* \"@openzeppelin/contracts/token/ERC20/ERC20.sol\":8999:9036  Transfer(address(0), account, amount) */\n      0xffffffffffffffffffffffffffffffffffffffff\n      and\n        /* \"@openzeppelin/contracts/token/ERC20/ERC20.sol\":9016:9017  0 */\n      0x00\n        /* \"@openzeppelin/contracts/token/ERC20/ERC20.sol\":8999:9036  Transfer(address(0), account, amount) */\n      0xffffffffffffffffffffffffffffffffffffffff\n      and\n      0xddf252ad1be2c89b69c2b068fc378daa952ba7f163c4a11628f55a4df523b3ef\n        /* \"@openzeppelin/contracts/token/ERC20/ERC20.sol\":9029:9035  amount */\n      dup4\n        /* \"@openzeppelin/contracts/token/ERC20/ERC20.sol\":8999:9036  Transfer(address(0), account, amount) */\n      mload(0x40)\n      tag_191\n      swap2\n      swap1\n      tag_34\n      jump\t// in\n    tag_191:\n      mload(0x40)\n      dup1\n      swap2\n      sub\n      swap1\n      log3\n        /* \"@openzeppelin/contracts/token/ERC20/ERC20.sol\":9047:9095  _afterTokenTransfer(address(0), account, amount) */\n      tag_192\n        /* \"@openzeppelin/contracts/token/ERC20/ERC20.sol\":9075:9076  0 */\n      0x00\n        /* \"@openzeppelin/contracts/token/ERC20/ERC20.sol\":9079:9086  account */\n      dup4\n        /* \"@openzeppelin/contracts/token/ERC20/ERC20.sol\":9088:9094  amount */\n      dup4\n        /* \"@openzeppelin/contracts/token/ERC20/ERC20.sol\":9047:9066  _afterTokenTransfer */\n      tag_178\n        /* \"@openzeppelin/contracts/token/ERC20/ERC20.sol\":9047:9095  _afterTokenTransfer(address(0), account, amount) */\n      jump\t// in\n    tag_192:\n        /* \"@openzeppelin/contracts/token/ERC20/ERC20.sol\":8567:9102  function _mint(address account, uint256 amount) internal virtual {... */\n      pop\n      pop\n      jump\t// out\n        /* \"@openzeppelin/contracts/access/Ownable.sol\":2433:2620  function _transferOwnership(address newOwner) internal virtual {... */\n    tag_122:\n        /* \"@openzeppelin/contracts/access/Ownable.sol\":2506:2522  address oldOwner */\n      0x00\n        /* \"@openzeppelin/contracts/access/Ownable.sol\":2525:2531  _owner */\n      0x05\n      0x00\n      swap1\n      sload\n      swap1\n      0x0100\n      exp\n      swap1\n      div\n      0xffffffffffffffffffffffffffffffffffffffff\n      and\n        /* \"@openzeppelin/contracts/access/Ownable.sol\":2506:2531  address oldOwner = _owner */\n      swap1\n      pop\n        /* \"@openzeppelin/contracts/access/Ownable.sol\":2550:2558  newOwner */\n      dup2\n        /* \"@openzeppelin/contracts/access/Ownable.sol\":2541:2547  _owner */\n      0x05\n      0x00\n        /* \"@openzeppelin/contracts/access/Ownable.sol\":2541:2558  _owner = newOwner */\n      0x0100\n      exp\n      dup2\n      sload\n      dup2\n      0xffffffffffffffffffffffffffffffffffffffff\n      mul\n      not\n      and\n      swap1\n      dup4\n      0xffffffffffffffffffffffffffffffffffffffff\n      and\n      mul\n      or\n      swap1\n      sstore\n      pop\n        /* \"@openzeppelin/contracts/access/Ownable.sol\":2604:2612  newOwner */\n      dup2\n        /* \"@openzeppelin/contracts/access/Ownable.sol\":2573:2613  OwnershipTransferred(oldOwner, newOwner) */\n      0xffffffffffffffffffffffffffffffffffffffff\n      and\n        /* \"@openzeppelin/contracts/access/Ownable.sol\":2594:2602  oldOwner */\n      dup2\n        /* \"@openzeppelin/contracts/access/Ownable.sol\":2573:2613  OwnershipTransferred(oldOwner, newOwner) */\n      0xffffffffffffffffffffffffffffffffffffffff\n      and\n      0x8be0079c531659141344cd1fd0a4f28419497f9722a3daafe3b4186f6b6457e0\n      mload(0x40)\n      mload(0x40)\n      dup1\n      swap2\n      sub\n      swap1\n      log3\n        /* \"@openzeppelin/contracts/access/Ownable.sol\":2433:2620  function _transferOwnership(address newOwner) internal virtual {... */\n      pop\n      pop\n      jump\t// out\n        /* \"@openzeppelin/contracts/token/ERC20/ERC20.sol\":12180:12301  function _beforeTokenTransfer(... */\n    tag_172:\n      pop\n      pop\n      pop\n      jump\t// out\n        /* \"@openzeppelin/contracts/token/ERC20/ERC20.sol\":12889:13009  function _afterTokenTransfer(... */\n    tag_178:\n      pop\n      pop\n      pop\n      jump\t// out\n        /* \"#utility.yul\":7:146   */\n    tag_197:\n      0x00\n        /* \"#utility.yul\":91:97   */\n      dup2\n        /* \"#utility.yul\":78:98   */\n      calldataload\n        /* \"#utility.yul\":69:98   */\n      swap1\n      pop\n        /* \"#utility.yul\":107:140   */\n      tag_199\n        /* \"#utility.yul\":134:139   */\n      dup2\n        /* \"#utility.yul\":107:140   */\n      tag_200\n      jump\t// in\n    tag_199:\n        /* \"#utility.yul\":59:146   */\n      swap3\n      swap2\n      pop\n      pop\n      jump\t// out\n        /* \"#utility.yul\":152:291   */\n    tag_201:\n      0x00\n        /* \"#utility.yul\":236:242   */\n      dup2\n        /* \"#utility.yul\":223:243   */\n      calldataload\n        /* \"#utility.yul\":214:243   */\n      swap1\n      pop\n        /* \"#utility.yul\":252:285   */\n      tag_203\n        /* \"#utility.yul\":279:284   */\n      dup2\n        /* \"#utility.yul\":252:285   */\n      tag_204\n      jump\t// in\n    tag_203:\n        /* \"#utility.yul\":204:291   */\n      swap3\n      swap2\n      pop\n      pop\n      jump\t// out\n        /* \"#utility.yul\":297:559   */\n    tag_54:\n      0x00\n        /* \"#utility.yul\":405:407   */\n      0x20\n        /* \"#utility.yul\":393:402   */\n      dup3\n        /* \"#utility.yul\":384:391   */\n      dup5\n        /* \"#utility.yul\":380:403   */\n      sub\n        /* \"#utility.yul\":376:408   */\n      slt\n        /* \"#utility.yul\":373:375   */\n      iszero\n      tag_206\n      jumpi\n        /* \"#utility.yul\":421:422   */\n      0x00\n        /* \"#utility.yul\":418:419   */\n      dup1\n        /* \"#utility.yul\":411:423   */\n      revert\n        /* \"#utility.yul\":373:375   */\n    tag_206:\n        /* \"#utility.yul\":464:465   */\n      0x00\n        /* \"#utility.yul\":489:542   */\n      tag_207\n        /* \"#utility.yul\":534:541   */\n      dup5\n        /* \"#utility.yul\":525:531   */\n      dup3\n        /* \"#utility.yul\":514:523   */\n      dup6\n        /* \"#utility.yul\":510:532   */\n      add\n        /* \"#utility.yul\":489:542   */\n      tag_197\n      jump\t// in\n    tag_207:\n        /* \"#utility.yul\":479:542   */\n      swap2\n      pop\n        /* \"#utility.yul\":435:552   */\n      pop\n        /* \"#utility.yul\":363:559   */\n      swap3\n      swap2\n      pop\n      pop\n      jump\t// out\n        /* \"#utility.yul\":565:972   */\n    tag_76:\n      0x00\n      dup1\n        /* \"#utility.yul\":690:692   */\n      0x40\n        /* \"#utility.yul\":678:687   */\n      dup4\n        /* \"#utility.yul\":669:676   */\n      dup6\n        /* \"#utility.yul\":665:688   */\n      sub\n        /* \"#utility.yul\":661:693   */\n      slt\n        /* \"#utility.yul\":658:660   */\n      iszero\n      tag_209\n      jumpi\n        /* \"#utility.yul\":706:707   */\n      0x00\n        /* \"#utility.yul\":703:704   */\n      dup1\n        /* \"#utility.yul\":696:708   */\n      revert\n        /* \"#utility.yul\":658:660   */\n    tag_209:\n        /* \"#utility.yul\":749:750   */\n      0x00\n        /* \"#utility.yul\":774:827   */\n      tag_210\n        /* \"#utility.yul\":819:826   */\n      dup6\n        /* \"#utility.yul\":810:816   */\n      dup3\n        /* \"#utility.yul\":799:808   */\n      dup7\n        /* \"#utility.yul\":795:817   */\n      add\n        /* \"#utility.yul\":774:827   */\n      tag_197\n      jump\t// in\n    tag_210:\n        /* \"#utility.yul\":764:827   */\n      swap3\n      pop\n        /* \"#utility.yul\":720:837   */\n      pop\n        /* \"#utility.yul\":876:878   */\n      0x20\n        /* \"#utility.yul\":902:955   */\n      tag_211\n        /* \"#utility.yul\":947:954   */\n      dup6\n        /* \"#utility.yul\":938:944   */\n      dup3\n        /* \"#utility.yul\":927:936   */\n      dup7\n        /* \"#utility.yul\":923:945   */\n      add\n        /* \"#utility.yul\":902:955   */\n      tag_197\n      jump\t// in\n    tag_211:\n        /* \"#utility.yul\":892:955   */\n      swap2\n      pop\n        /* \"#utility.yul\":847:965   */\n      pop\n        /* \"#utility.yul\":648:972   */\n      swap3\n      pop\n      swap3\n      swap1\n      pop\n      jump\t// out\n        /* \"#utility.yul\":978:1530   */\n    tag_37:\n      0x00\n      dup1\n      0x00\n        /* \"#utility.yul\":1120:1122   */\n      0x60\n        /* \"#utility.yul\":1108:1117   */\n      dup5\n        /* \"#utility.yul\":1099:1106   */\n      dup7\n        /* \"#utility.yul\":1095:1118   */\n      sub\n        /* \"#utility.yul\":1091:1123   */\n      slt\n        /* \"#utility.yul\":1088:1090   */\n      iszero\n      tag_213\n      jumpi\n        /* \"#utility.yul\":1136:1137   */\n      0x00\n        /* \"#utility.yul\":1133:1134   */\n      dup1\n        /* \"#utility.yul\":1126:1138   */\n      revert\n        /* \"#utility.yul\":1088:1090   */\n    tag_213:\n        /* \"#utility.yul\":1179:1180   */\n      0x00\n        /* \"#utility.yul\":1204:1257   */\n      tag_214\n        /* \"#utility.yul\":1249:1256   */\n      dup7\n        /* \"#utility.yul\":1240:1246   */\n      dup3\n        /* \"#utility.yul\":1229:1238   */\n      dup8\n        /* \"#utility.yul\":1225:1247   */\n      add\n        /* \"#utility.yul\":1204:1257   */\n      tag_197\n      jump\t// in\n    tag_214:\n        /* \"#utility.yul\":1194:1257   */\n      swap4\n      pop\n        /* \"#utility.yul\":1150:1267   */\n      pop\n        /* \"#utility.yul\":1306:1308   */\n      0x20\n        /* \"#utility.yul\":1332:1385   */\n      tag_215\n        /* \"#utility.yul\":1377:1384   */\n      dup7\n        /* \"#utility.yul\":1368:1374   */\n      dup3\n        /* \"#utility.yul\":1357:1366   */\n      dup8\n        /* \"#utility.yul\":1353:1375   */\n      add\n        /* \"#utility.yul\":1332:1385   */\n      tag_197\n      jump\t// in\n    tag_215:\n        /* \"#utility.yul\":1322:1385   */\n      swap3\n      pop\n        /* \"#utility.yul\":1277:1395   */\n      pop\n        /* \"#utility.yul\":1434:1436   */\n      0x40\n        /* \"#utility.yul\":1460:1513   */\n      tag_216\n        /* \"#utility.yul\":1505:1512   */\n      dup7\n        /* \"#utility.yul\":1496:1502   */\n      dup3\n        /* \"#utility.yul\":1485:1494   */\n      dup8\n        /* \"#utility.yul\":1481:1503   */\n      add\n        /* \"#utility.yul\":1460:1513   */\n      tag_201\n      jump\t// in\n    tag_216:\n        /* \"#utility.yul\":1450:1513   */\n      swap2\n      pop\n        /* \"#utility.yul\":1405:1523   */\n      pop\n        /* \"#utility.yul\":1078:1530   */\n      swap3\n      pop\n      swap3\n      pop\n      swap3\n      jump\t// out\n        /* \"#utility.yul\":1536:1943   */\n    tag_27:\n      0x00\n      dup1\n        /* \"#utility.yul\":1661:1663   */\n      0x40\n        /* \"#utility.yul\":1649:1658   */\n      dup4\n        /* \"#utility.yul\":1640:1647   */\n      dup6\n        /* \"#utility.yul\":1636:1659   */\n      sub\n        /* \"#utility.yul\":1632:1664   */\n      slt\n        /* \"#utility.yul\":1629:1631   */\n      iszero\n      tag_218\n      jumpi\n        /* \"#utility.yul\":1677:1678   */\n      0x00\n        /* \"#utility.yul\":1674:1675   */\n      dup1\n        /* \"#utility.yul\":1667:1679   */\n      revert\n        /* \"#utility.yul\":1629:1631   */\n    tag_218:\n        /* \"#utility.yul\":1720:1721   */\n      0x00\n        /* \"#utility.yul\":1745:1798   */\n      tag_219\n        /* \"#utility.yul\":1790:1797   */\n      dup6\n        /* \"#utility.yul\":1781:1787   */\n      dup3\n        /* \"#utility.yul\":1770:1779   */\n      dup7\n        /* \"#utility.yul\":1766:1788   */\n      add\n        /* \"#utility.yul\":1745:1798   */\n      tag_197\n      jump\t// in\n    tag_219:\n        /* \"#utility.yul\":1735:1798   */\n      swap3\n      pop\n        /* \"#utility.yul\":1691:1808   */\n      pop\n        /* \"#utility.yul\":1847:1849   */\n      0x20\n        /* \"#utility.yul\":1873:1926   */\n      tag_220\n        /* \"#utility.yul\":1918:1925   */\n      dup6\n        /* \"#utility.yul\":1909:1915   */\n      dup3\n        /* \"#utility.yul\":1898:1907   */\n      dup7\n        /* \"#utility.yul\":1894:1916   */\n      add\n        /* \"#utility.yul\":1873:1926   */\n      tag_201\n      jump\t// in\n    tag_220:\n        /* \"#utility.yul\":1863:1926   */\n      swap2\n      pop\n        /* \"#utility.yul\":1818:1936   */\n      pop\n        /* \"#utility.yul\":1619:1943   */\n      swap3\n      pop\n      swap3\n      swap1\n      pop\n      jump\t// out\n        /* \"#utility.yul\":1949:2067   */\n    tag_221:\n        /* \"#utility.yul\":2036:2060   */\n      tag_223\n        /* \"#utility.yul\":2054:2059   */\n      dup2\n        /* \"#utility.yul\":2036:2060   */\n      tag_224\n      jump\t// in\n    tag_223:\n        /* \"#utility.yul\":2031:2034   */\n      dup3\n        /* \"#utility.yul\":2024:2061   */\n      mstore\n        /* \"#utility.yul\":2014:2067   */\n      pop\n      pop\n      jump\t// out\n        /* \"#utility.yul\":2073:2182   */\n    tag_225:\n        /* \"#utility.yul\":2154:2175   */\n      tag_227\n        /* \"#utility.yul\":2169:2174   */\n      dup2\n        /* \"#utility.yul\":2154:2175   */\n      tag_228\n      jump\t// in\n    tag_227:\n        /* \"#utility.yul\":2149:2152   */\n      dup3\n        /* \"#utility.yul\":2142:2176   */\n      mstore\n        /* \"#utility.yul\":2132:2182   */\n      pop\n      pop\n      jump\t// out\n        /* \"#utility.yul\":2188:2552   */\n    tag_229:\n      0x00\n        /* \"#utility.yul\":2304:2343   */\n      tag_231\n        /* \"#utility.yul\":2337:2342   */\n      dup3\n        /* \"#utility.yul\":2304:2343   */\n      tag_232\n      jump\t// in\n    tag_231:\n        /* \"#utility.yul\":2359:2430   */\n      tag_233\n        /* \"#utility.yul\":2423:2429   */\n      dup2\n        /* \"#utility.yul\":2418:2421   */\n      dup6\n        /* \"#utility.yul\":2359:2430   */\n      tag_234\n      jump\t// in\n    tag_233:\n        /* \"#utility.yul\":2352:2430   */\n      swap4\n      pop\n        /* \"#utility.yul\":2439:2491   */\n      tag_235\n        /* \"#utility.yul\":2484:2490   */\n      dup2\n        /* \"#utility.yul\":2479:2482   */\n      dup6\n        /* \"#utility.yul\":2472:2476   */\n      0x20\n        /* \"#utility.yul\":2465:2470   */\n      dup7\n        /* \"#utility.yul\":2461:2477   */\n      add\n        /* \"#utility.yul\":2439:2491   */\n      tag_236\n      jump\t// in\n    tag_235:\n        /* \"#utility.yul\":2516:2545   */\n      tag_237\n        /* \"#utility.yul\":2538:2544   */\n      dup2\n        /* \"#utility.yul\":2516:2545   */\n      tag_238\n      jump\t// in\n    tag_237:\n        /* \"#utility.yul\":2511:2514   */\n      dup5\n        /* \"#utility.yul\":2507:2546   */\n      add\n        /* \"#utility.yul\":2500:2546   */\n      swap2\n      pop\n        /* \"#utility.yul\":2280:2552   */\n      pop\n      swap3\n      swap2\n      pop\n      pop\n      jump\t// out\n        /* \"#utility.yul\":2558:2925   */\n    tag_239:\n      0x00\n        /* \"#utility.yul\":2721:2788   */\n      tag_241\n        /* \"#utility.yul\":2785:2787   */\n      0x23\n        /* \"#utility.yul\":2780:2783   */\n      dup4\n        /* \"#utility.yul\":2721:2788   */\n      tag_234\n      jump\t// in\n    tag_241:\n        /* \"#utility.yul\":2714:2788   */\n      swap2\n      pop\n        /* \"#utility.yul\":2818:2852   */\n      0x45524332303a207472616e7366657220746f20746865207a65726f2061646472\n        /* \"#utility.yul\":2814:2815   */\n      0x00\n        /* \"#utility.yul\":2809:2812   */\n      dup4\n        /* \"#utility.yul\":2805:2816   */\n      add\n        /* \"#utility.yul\":2798:2853   */\n      mstore\n        /* \"#utility.yul\":2884:2889   */\n      0x6573730000000000000000000000000000000000000000000000000000000000\n        /* \"#utility.yul\":2879:2881   */\n      0x20\n        /* \"#utility.yul\":2874:2877   */\n      dup4\n        /* \"#utility.yul\":2870:2882   */\n      add\n        /* \"#utility.yul\":2863:2890   */\n      mstore\n        /* \"#utility.yul\":2916:2918   */\n      0x40\n        /* \"#utility.yul\":2911:2914   */\n      dup3\n        /* \"#utility.yul\":2907:2919   */\n      add\n        /* \"#utility.yul\":2900:2919   */\n      swap1\n      pop\n        /* \"#utility.yul\":2704:2925   */\n      swap2\n      swap1\n      pop\n      jump\t// out\n        /* \"#utility.yul\":2931:3301   */\n    tag_242:\n      0x00\n        /* \"#utility.yul\":3094:3161   */\n      tag_244\n        /* \"#utility.yul\":3158:3160   */\n      0x26\n        /* \"#utility.yul\":3153:3156   */\n      dup4\n        /* \"#utility.yul\":3094:3161   */\n      tag_234\n      jump\t// in\n    tag_244:\n        /* \"#utility.yul\":3087:3161   */\n      swap2\n      pop\n        /* \"#utility.yul\":3191:3225   */\n      0x4f776e61626c653a206e6577206f776e657220697320746865207a65726f2061\n        /* \"#utility.yul\":3187:3188   */\n      0x00\n        /* \"#utility.yul\":3182:3185   */\n      dup4\n        /* \"#utility.yul\":3178:3189   */\n      add\n        /* \"#utility.yul\":3171:3226   */\n      mstore\n        /* \"#utility.yul\":3257:3265   */\n      0x6464726573730000000000000000000000000000000000000000000000000000\n        /* \"#utility.yul\":3252:3254   */\n      0x20\n        /* \"#utility.yul\":3247:3250   */\n      dup4\n        /* \"#utility.yul\":3243:3255   */\n      add\n        /* \"#utility.yul\":3236:3266   */\n      mstore\n        /* \"#utility.yul\":3292:3294   */\n      0x40\n        /* \"#utility.yul\":3287:3290   */\n      dup3\n        /* \"#utility.yul\":3283:3295   */\n      add\n        /* \"#utility.yul\":3276:3295   */\n      swap1\n      pop\n        /* \"#utility.yul\":3077:3301   */\n      swap2\n      swap1\n      pop\n      jump\t// out\n        /* \"#utility.yul\":3307:3673   */\n    tag_245:\n      0x00\n        /* \"#utility.yul\":3470:3537   */\n      tag_247\n        /* \"#utility.yul\":3534:3536   */\n      0x22\n        /* \"#utility.yul\":3529:3532   */\n      dup4\n        /* \"#utility.yul\":3470:3537   */\n      tag_234\n      jump\t// in\n    tag_247:\n        /* \"#utility.yul\":3463:3537   */\n      swap2\n      pop\n        /* \"#utility.yul\":3567:3601   */\n      0x45524332303a20617070726f766520746f20746865207a65726f206164647265\n        /* \"#utility.yul\":3563:3564   */\n      0x00\n        /* \"#utility.yul\":3558:3561   */\n      dup4\n        /* \"#utility.yul\":3554:3565   */\n      add\n        /* \"#utility.yul\":3547:3602   */\n      mstore\n        /* \"#utility.yul\":3633:3637   */\n      0x7373000000000000000000000000000000000000000000000000000000000000\n        /* \"#utility.yul\":3628:3630   */\n      0x20\n        /* \"#utility.yul\":3623:3626   */\n      dup4\n        /* \"#utility.yul\":3619:3631   */\n      add\n        /* \"#utility.yul\":3612:3638   */\n      mstore\n        /* \"#utility.yul\":3664:3666   */\n      0x40\n        /* \"#utility.yul\":3659:3662   */\n      dup3\n        /* \"#utility.yul\":3655:3667   */\n      add\n        /* \"#utility.yul\":3648:3667   */\n      swap1\n      pop\n        /* \"#utility.yul\":3453:3673   */\n      swap2\n      swap1\n      pop\n      jump\t// out\n        /* \"#utility.yul\":3679:4006   */\n    tag_248:\n      0x00\n        /* \"#utility.yul\":3842:3909   */\n      tag_250\n        /* \"#utility.yul\":3906:3908   */\n      0x1d\n        /* \"#utility.yul\":3901:3904   */\n      dup4\n        /* \"#utility.yul\":3842:3909   */\n      tag_234\n      jump\t// in\n    tag_250:\n        /* \"#utility.yul\":3835:3909   */\n      swap2\n      pop\n        /* \"#utility.yul\":3939:3970   */\n      0x45524332303a20696e73756666696369656e7420616c6c6f77616e6365000000\n        /* \"#utility.yul\":3935:3936   */\n      0x00\n        /* \"#utility.yul\":3930:3933   */\n      dup4\n        /* \"#utility.yul\":3926:3937   */\n      add\n        /* \"#utility.yul\":3919:3971   */\n      mstore\n        /* \"#utility.yul\":3997:3999   */\n      0x20\n        /* \"#utility.yul\":3992:3995   */\n      dup3\n        /* \"#utility.yul\":3988:4000   */\n      add\n        /* \"#utility.yul\":3981:4000   */\n      swap1\n      pop\n        /* \"#utility.yul\":3825:4006   */\n      swap2\n      swap1\n      pop\n      jump\t// out\n        /* \"#utility.yul\":4012:4382   */\n    tag_251:\n      0x00\n        /* \"#utility.yul\":4175:4242   */\n      tag_253\n        /* \"#utility.yul\":4239:4241   */\n      0x26\n        /* \"#utility.yul\":4234:4237   */\n      dup4\n        /* \"#utility.yul\":4175:4242   */\n      tag_234\n      jump\t// in\n    tag_253:\n        /* \"#utility.yul\":4168:4242   */\n      swap2\n      pop\n        /* \"#utility.yul\":4272:4306   */\n      0x45524332303a207472616e7366657220616d6f756e7420657863656564732062\n        /* \"#utility.yul\":4268:4269   */\n      0x00\n        /* \"#utility.yul\":4263:4266   */\n      dup4\n        /* \"#utility.yul\":4259:4270   */\n      add\n        /* \"#utility.yul\":4252:4307   */\n      mstore\n        /* \"#utility.yul\":4338:4346   */\n      0x616c616e63650000000000000000000000000000000000000000000000000000\n        /* \"#utility.yul\":4333:4335   */\n      0x20\n        /* \"#utility.yul\":4328:4331   */\n      dup4\n        /* \"#utility.yul\":4324:4336   */\n      add\n        /* \"#utility.yul\":4317:4347   */\n      mstore\n        /* \"#utility.yul\":4373:4375   */\n      0x40\n        /* \"#utility.yul\":4368:4371   */\n      dup3\n        /* \"#utility.yul\":4364:4376   */\n      add\n        /* \"#utility.yul\":4357:4376   */\n      swap1\n      pop\n        /* \"#utility.yul\":4158:4382   */\n      swap2\n      swap1\n      pop\n      jump\t// out\n        /* \"#utility.yul\":4388:4718   */\n    tag_254:\n      0x00\n        /* \"#utility.yul\":4551:4618   */\n      tag_256\n        /* \"#utility.yul\":4615:4617   */\n      0x20\n        /* \"#utility.yul\":4610:4613   */\n      dup4\n        /* \"#utility.yul\":4551:4618   */\n      tag_234\n      jump\t// in\n    tag_256:\n        /* \"#utility.yul\":4544:4618   */\n      swap2\n      pop\n        /* \"#utility.yul\":4648:4682   */\n      0x4f776e61626c653a2063616c6c6572206973206e6f7420746865206f776e6572\n        /* \"#utility.yul\":4644:4645   */\n      0x00\n        /* \"#utility.yul\":4639:4642   */\n      dup4\n        /* \"#utility.yul\":4635:4646   */\n      add\n        /* \"#utility.yul\":4628:4683   */\n      mstore\n        /* \"#utility.yul\":4709:4711   */\n      0x20\n        /* \"#utility.yul\":4704:4707   */\n      dup3\n        /* \"#utility.yul\":4700:4712   */\n      add\n        /* \"#utility.yul\":4693:4712   */\n      swap1\n      pop\n        /* \"#utility.yul\":4534:4718   */\n      swap2\n      swap1\n      pop\n      jump\t// out\n        /* \"#utility.yul\":4724:5093   */\n    tag_257:\n      0x00\n        /* \"#utility.yul\":4887:4954   */\n      tag_259\n        /* \"#utility.yul\":4951:4953   */\n      0x25\n        /* \"#utility.yul\":4946:4949   */\n      dup4\n        /* \"#utility.yul\":4887:4954   */\n      tag_234\n      jump\t// in\n    tag_259:\n        /* \"#utility.yul\":4880:4954   */\n      swap2\n      pop\n        /* \"#utility.yul\":4984:5018   */\n      0x45524332303a207472616e736665722066726f6d20746865207a65726f206164\n        /* \"#utility.yul\":4980:4981   */\n      0x00\n        /* \"#utility.yul\":4975:4978   */\n      dup4\n        /* \"#utility.yul\":4971:4982   */\n      add\n        /* \"#utility.yul\":4964:5019   */\n      mstore\n        /* \"#utility.yul\":5050:5057   */\n      0x6472657373000000000000000000000000000000000000000000000000000000\n        /* \"#utility.yul\":5045:5047   */\n      0x20\n        /* \"#utility.yul\":5040:5043   */\n      dup4\n        /* \"#utility.yul\":5036:5048   */\n      add\n        /* \"#utility.yul\":5029:5058   */\n      mstore\n        /* \"#utility.yul\":5084:5086   */\n      0x40\n        /* \"#utility.yul\":5079:5082   */\n      dup3\n        /* \"#utility.yul\":5075:5087   */\n      add\n        /* \"#utility.yul\":5068:5087   */\n      swap1\n      pop\n        /* \"#utility.yul\":4870:5093   */\n      swap2\n      swap1\n      pop\n      jump\t// out\n        /* \"#utility.yul\":5099:5467   */\n    tag_260:\n      0x00\n        /* \"#utility.yul\":5262:5329   */\n      tag_262\n        /* \"#utility.yul\":5326:5328   */\n      0x24\n        /* \"#utility.yul\":5321:5324   */\n      dup4\n        /* \"#utility.yul\":5262:5329   */\n      tag_234\n      jump\t// in\n    tag_262:\n        /* \"#utility.yul\":5255:5329   */\n      swap2\n      pop\n        /* \"#utility.yul\":5359:5393   */\n      0x45524332303a20617070726f76652066726f6d20746865207a65726f20616464\n        /* \"#utility.yul\":5355:5356   */\n      0x00\n        /* \"#utility.yul\":5350:5353   */\n      dup4\n        /* \"#utility.yul\":5346:5357   */\n      add\n        /* \"#utility.yul\":5339:5394   */\n      mstore\n        /* \"#utility.yul\":5425:5431   */\n      0x7265737300000000000000000000000000000000000000000000000000000000\n        /* \"#utility.yul\":5420:5422   */\n      0x20\n        /* \"#utility.yul\":5415:5418   */\n      dup4\n        /* \"#utility.yul\":5411:5423   */\n      add\n        /* \"#utility.yul\":5404:5432   */\n      mstore\n        /* \"#utility.yul\":5458:5460   */\n      0x40\n        /* \"#utility.yul\":5453:5456   */\n      dup3\n        /* \"#utility.yul\":5449:5461   */\n      add\n        /* \"#utility.yul\":5442:5461   */\n      swap1\n      pop\n        /* \"#utility.yul\":5245:5467   */\n      swap2\n      swap1\n      pop\n      jump\t// out\n        /* \"#utility.yul\":5473:5799   */\n    tag_263:\n      0x00\n        /* \"#utility.yul\":5636:5703   */\n      tag_265\n        /* \"#utility.yul\":5700:5702   */\n      0x1c\n        /* \"#utility.yul\":5695:5698   */\n      dup4\n        /* \"#utility.yul\":5636:5703   */\n      tag_234\n      jump\t// in\n    tag_265:\n        /* \"#utility.yul\":5629:5703   */\n      swap2\n      pop\n        /* \"#utility.yul\":5733:5763   */\n      0x63616e206e6f74206d696e7420746f207a65726f206164647265737300000000\n        /* \"#utility.yul\":5729:5730   */\n      0x00\n        /* \"#utility.yul\":5724:5727   */\n      dup4\n        /* \"#utility.yul\":5720:5731   */\n      add\n        /* \"#utility.yul\":5713:5764   */\n      mstore\n        /* \"#utility.yul\":5790:5792   */\n      0x20\n        /* \"#utility.yul\":5785:5788   */\n      dup3\n        /* \"#utility.yul\":5781:5793   */\n      add\n        /* \"#utility.yul\":5774:5793   */\n      swap1\n      pop\n        /* \"#utility.yul\":5619:5799   */\n      swap2\n      swap1\n      pop\n      jump\t// out\n        /* \"#utility.yul\":5805:6174   */\n    tag_266:\n      0x00\n        /* \"#utility.yul\":5968:6035   */\n      tag_268\n        /* \"#utility.yul\":6032:6034   */\n      0x25\n        /* \"#utility.yul\":6027:6030   */\n      dup4\n        /* \"#utility.yul\":5968:6035   */\n      tag_234\n      jump\t// in\n    tag_268:\n        /* \"#utility.yul\":5961:6035   */\n      swap2\n      pop\n        /* \"#utility.yul\":6065:6099   */\n      0x45524332303a2064656372656173656420616c6c6f77616e63652062656c6f77\n        /* \"#utility.yul\":6061:6062   */\n      0x00\n        /* \"#utility.yul\":6056:6059   */\n      dup4\n        /* \"#utility.yul\":6052:6063   */\n      add\n        /* \"#utility.yul\":6045:6100   */\n      mstore\n        /* \"#utility.yul\":6131:6138   */\n      0x207a65726f000000000000000000000000000000000000000000000000000000\n        /* \"#utility.yul\":6126:6128   */\n      0x20\n        /* \"#utility.yul\":6121:6124   */\n      dup4\n        /* \"#utility.yul\":6117:6129   */\n      add\n        /* \"#utility.yul\":6110:6139   */\n      mstore\n        /* \"#utility.yul\":6165:6167   */\n      0x40\n        /* \"#utility.yul\":6160:6163   */\n      dup3\n        /* \"#utility.yul\":6156:6168   */\n      add\n        /* \"#utility.yul\":6149:6168   */\n      swap1\n      pop\n        /* \"#utility.yul\":5951:6174   */\n      swap2\n      swap1\n      pop\n      jump\t// out\n        /* \"#utility.yul\":6180:6509   */\n    tag_269:\n      0x00\n        /* \"#utility.yul\":6343:6410   */\n      tag_271\n        /* \"#utility.yul\":6407:6409   */\n      0x1f\n        /* \"#utility.yul\":6402:6405   */\n      dup4\n        /* \"#utility.yul\":6343:6410   */\n      tag_234\n      jump\t// in\n    tag_271:\n        /* \"#utility.yul\":6336:6410   */\n      swap2\n      pop\n        /* \"#utility.yul\":6440:6473   */\n      0x45524332303a206d696e7420746f20746865207a65726f206164647265737300\n        /* \"#utility.yul\":6436:6437   */\n      0x00\n        /* \"#utility.yul\":6431:6434   */\n      dup4\n        /* \"#utility.yul\":6427:6438   */\n      add\n        /* \"#utility.yul\":6420:6474   */\n      mstore\n        /* \"#utility.yul\":6500:6502   */\n      0x20\n        /* \"#utility.yul\":6495:6498   */\n      dup3\n        /* \"#utility.yul\":6491:6503   */\n      add\n        /* \"#utility.yul\":6484:6503   */\n      swap1\n      pop\n        /* \"#utility.yul\":6326:6509   */\n      swap2\n      swap1\n      pop\n      jump\t// out\n        /* \"#utility.yul\":6515:6633   */\n    tag_272:\n        /* \"#utility.yul\":6602:6626   */\n      tag_274\n        /* \"#utility.yul\":6620:6625   */\n      dup2\n        /* \"#utility.yul\":6602:6626   */\n      tag_275\n      jump\t// in\n    tag_274:\n        /* \"#utility.yul\":6597:6600   */\n      dup3\n        /* \"#utility.yul\":6590:6627   */\n      mstore\n        /* \"#utility.yul\":6580:6633   */\n      pop\n      pop\n      jump\t// out\n        /* \"#utility.yul\":6639:6751   */\n    tag_276:\n        /* \"#utility.yul\":6722:6744   */\n      tag_278\n        /* \"#utility.yul\":6738:6743   */\n      dup2\n        /* \"#utility.yul\":6722:6744   */\n      tag_279\n      jump\t// in\n    tag_278:\n        /* \"#utility.yul\":6717:6720   */\n      dup3\n        /* \"#utility.yul\":6710:6745   */\n      mstore\n        /* \"#utility.yul\":6700:6751   */\n      pop\n      pop\n      jump\t// out\n        /* \"#utility.yul\":6757:6979   */\n    tag_62:\n      0x00\n        /* \"#utility.yul\":6888:6890   */\n      0x20\n        /* \"#utility.yul\":6877:6886   */\n      dup3\n        /* \"#utility.yul\":6873:6891   */\n      add\n        /* \"#utility.yul\":6865:6891   */\n      swap1\n      pop\n        /* \"#utility.yul\":6901:6972   */\n      tag_281\n        /* \"#utility.yul\":6969:6970   */\n      0x00\n        /* \"#utility.yul\":6958:6967   */\n      dup4\n        /* \"#utility.yul\":6954:6971   */\n      add\n        /* \"#utility.yul\":6945:6951   */\n      dup5\n        /* \"#utility.yul\":6901:6972   */\n      tag_221\n      jump\t// in\n    tag_281:\n        /* \"#utility.yul\":6855:6979   */\n      swap3\n      swap2\n      pop\n      pop\n      jump\t// out\n        /* \"#utility.yul\":6985:7195   */\n    tag_30:\n      0x00\n        /* \"#utility.yul\":7110:7112   */\n      0x20\n        /* \"#utility.yul\":7099:7108   */\n      dup3\n        /* \"#utility.yul\":7095:7113   */\n      add\n        /* \"#utility.yul\":7087:7113   */\n      swap1\n      pop\n        /* \"#utility.yul\":7123:7188   */\n      tag_283\n        /* \"#utility.yul\":7185:7186   */\n      0x00\n        /* \"#utility.yul\":7174:7183   */\n      dup4\n        /* \"#utility.yul\":7170:7187   */\n      add\n        /* \"#utility.yul\":7161:7167   */\n      dup5\n        /* \"#utility.yul\":7123:7188   */\n      tag_225\n      jump\t// in\n    tag_283:\n        /* \"#utility.yul\":7077:7195   */\n      swap3\n      swap2\n      pop\n      pop\n      jump\t// out\n        /* \"#utility.yul\":7201:7514   */\n    tag_24:\n      0x00\n        /* \"#utility.yul\":7352:7354   */\n      0x20\n        /* \"#utility.yul\":7341:7350   */\n      dup3\n        /* \"#utility.yul\":7337:7355   */\n      add\n        /* \"#utility.yul\":7329:7355   */\n      swap1\n      pop\n        /* \"#utility.yul\":7401:7410   */\n      dup2\n        /* \"#utility.yul\":7395:7399   */\n      dup2\n        /* \"#utility.yul\":7391:7411   */\n      sub\n        /* \"#utility.yul\":7387:7388   */\n      0x00\n        /* \"#utility.yul\":7376:7385   */\n      dup4\n        /* \"#utility.yul\":7372:7389   */\n      add\n        /* \"#utility.yul\":7365:7412   */\n      mstore\n        /* \"#utility.yul\":7429:7507   */\n      tag_285\n        /* \"#utility.yul\":7502:7506   */\n      dup2\n        /* \"#utility.yul\":7493:7499   */\n      dup5\n        /* \"#utility.yul\":7429:7507   */\n      tag_229\n      jump\t// in\n    tag_285:\n        /* \"#utility.yul\":7421:7507   */\n      swap1\n      pop\n        /* \"#utility.yul\":7319:7514   */\n      swap3\n      swap2\n      pop\n      pop\n      jump\t// out\n        /* \"#utility.yul\":7520:7939   */\n    tag_170:\n      0x00\n        /* \"#utility.yul\":7724:7726   */\n      0x20\n        /* \"#utility.yul\":7713:7722   */\n      dup3\n        /* \"#utility.yul\":7709:7727   */\n      add\n        /* \"#utility.yul\":7701:7727   */\n      swap1\n      pop\n        /* \"#utility.yul\":7773:7782   */\n      dup2\n        /* \"#utility.yul\":7767:7771   */\n      dup2\n        /* \"#utility.yul\":7763:7783   */\n      sub\n        /* \"#utility.yul\":7759:7760   */\n      0x00\n        /* \"#utility.yul\":7748:7757   */\n      dup4\n        /* \"#utility.yul\":7744:7761   */\n      add\n        /* \"#utility.yul\":7737:7784   */\n      mstore\n        /* \"#utility.yul\":7801:7932   */\n      tag_287\n        /* \"#utility.yul\":7927:7931   */\n      dup2\n        /* \"#utility.yul\":7801:7932   */\n      tag_239\n      jump\t// in\n    tag_287:\n        /* \"#utility.yul\":7793:7932   */\n      swap1\n      pop\n        /* \"#utility.yul\":7691:7939   */\n      swap2\n      swap1\n      pop\n      jump\t// out\n        /* \"#utility.yul\":7945:8364   */\n    tag_146:\n      0x00\n        /* \"#utility.yul\":8149:8151   */\n      0x20\n        /* \"#utility.yul\":8138:8147   */\n      dup3\n        /* \"#utility.yul\":8134:8152   */\n      add\n        /* \"#utility.yul\":8126:8152   */\n      swap1\n      pop\n        /* \"#utility.yul\":8198:8207   */\n      dup2\n        /* \"#utility.yul\":8192:8196   */\n      dup2\n        /* \"#utility.yul\":8188:8208   */\n      sub\n        /* \"#utility.yul\":8184:8185   */\n      0x00\n        /* \"#utility.yul\":8173:8182   */\n      dup4\n        /* \"#utility.yul\":8169:8186   */\n      add\n        /* \"#utility.yul\":8162:8209   */\n      mstore\n        /* \"#utility.yul\":8226:8357   */\n      tag_289\n        /* \"#utility.yul\":8352:8356   */\n      dup2\n        /* \"#utility.yul\":8226:8357   */\n      tag_242\n      jump\t// in\n    tag_289:\n        /* \"#utility.yul\":8218:8357   */\n      swap1\n      pop\n        /* \"#utility.yul\":8116:8364   */\n      swap2\n      swap1\n      pop\n      jump\t// out\n        /* \"#utility.yul\":8370:8789   */\n    tag_155:\n      0x00\n        /* \"#utility.yul\":8574:8576   */\n      0x20\n        /* \"#utility.yul\":8563:8572   */\n      dup3\n        /* \"#utility.yul\":8559:8577   */\n      add\n        /* \"#utility.yul\":8551:8577   */\n      swap1\n      pop\n        /* \"#utility.yul\":8623:8632   */\n      dup2\n        /* \"#utility.yul\":8617:8621   */\n      dup2\n        /* \"#utility.yul\":8613:8633   */\n      sub\n        /* \"#utility.yul\":8609:8610   */\n      0x00\n        /* \"#utility.yul\":8598:8607   */\n      dup4\n        /* \"#utility.yul\":8594:8611   */\n      add\n        /* \"#utility.yul\":8587:8634   */\n      mstore\n        /* \"#utility.yul\":8651:8782   */\n      tag_291\n        /* \"#utility.yul\":8777:8781   */\n      dup2\n        /* \"#utility.yul\":8651:8782   */\n      tag_245\n      jump\t// in\n    tag_291:\n        /* \"#utility.yul\":8643:8782   */\n      swap1\n      pop\n        /* \"#utility.yul\":8541:8789   */\n      swap2\n      swap1\n      pop\n      jump\t// out\n        /* \"#utility.yul\":8795:9214   */\n    tag_162:\n      0x00\n        /* \"#utility.yul\":8999:9001   */\n      0x20\n        /* \"#utility.yul\":8988:8997   */\n      dup3\n        /* \"#utility.yul\":8984:9002   */\n      add\n        /* \"#utility.yul\":8976:9002   */\n      swap1\n      pop\n        /* \"#utility.yul\":9048:9057   */\n      dup2\n        /* \"#utility.yul\":9042:9046   */\n      dup2\n        /* \"#utility.yul\":9038:9058   */\n      sub\n        /* \"#utility.yul\":9034:9035   */\n      0x00\n        /* \"#utility.yul\":9023:9032   */\n      dup4\n        /* \"#utility.yul\":9019:9036   */\n      add\n        /* \"#utility.yul\":9012:9059   */\n      mstore\n        /* \"#utility.yul\":9076:9207   */\n      tag_293\n        /* \"#utility.yul\":9202:9206   */\n      dup2\n        /* \"#utility.yul\":9076:9207   */\n      tag_248\n      jump\t// in\n    tag_293:\n        /* \"#utility.yul\":9068:9207   */\n      swap1\n      pop\n        /* \"#utility.yul\":8966:9214   */\n      swap2\n      swap1\n      pop\n      jump\t// out\n        /* \"#utility.yul\":9220:9639   */\n    tag_175:\n      0x00\n        /* \"#utility.yul\":9424:9426   */\n      0x20\n        /* \"#utility.yul\":9413:9422   */\n      dup3\n        /* \"#utility.yul\":9409:9427   */\n      add\n        /* \"#utility.yul\":9401:9427   */\n      swap1\n      pop\n        /* \"#utility.yul\":9473:9482   */\n      dup2\n        /* \"#utility.yul\":9467:9471   */\n      dup2\n        /* \"#utility.yul\":9463:9483   */\n      sub\n        /* \"#utility.yul\":9459:9460   */\n      0x00\n        /* \"#utility.yul\":9448:9457   */\n      dup4\n        /* \"#utility.yul\":9444:9461   */\n      add\n        /* \"#utility.yul\":9437:9484   */\n      mstore\n        /* \"#utility.yul\":9501:9632   */\n      tag_295\n        /* \"#utility.yul\":9627:9631   */\n      dup2\n        /* \"#utility.yul\":9501:9632   */\n      tag_251\n      jump\t// in\n    tag_295:\n        /* \"#utility.yul\":9493:9632   */\n      swap1\n      pop\n        /* \"#utility.yul\":9391:9639   */\n      swap2\n      swap1\n      pop\n      jump\t// out\n        /* \"#utility.yul\":9645:10064   */\n    tag_184:\n      0x00\n        /* \"#utility.yul\":9849:9851   */\n      0x20\n        /* \"#utility.yul\":9838:9847   */\n      dup3\n        /* \"#utility.yul\":9834:9852   */\n      add\n        /* \"#utility.yul\":9826:9852   */\n      swap1\n      pop\n        /* \"#utility.yul\":9898:9907   */\n      dup2\n        /* \"#utility.yul\":9892:9896   */\n      dup2\n        /* \"#utility.yul\":9888:9908   */\n      sub\n        /* \"#utility.yul\":9884:9885   */\n      0x00\n        /* \"#utility.yul\":9873:9882   */\n      dup4\n        /* \"#utility.yul\":9869:9886   */\n      add\n        /* \"#utility.yul\":9862:9909   */\n      mstore\n        /* \"#utility.yul\":9926:10057   */\n      tag_297\n        /* \"#utility.yul\":10052:10056   */\n      dup2\n        /* \"#utility.yul\":9926:10057   */\n      tag_254\n      jump\t// in\n    tag_297:\n        /* \"#utility.yul\":9918:10057   */\n      swap1\n      pop\n        /* \"#utility.yul\":9816:10064   */\n      swap2\n      swap1\n      pop\n      jump\t// out\n        /* \"#utility.yul\":10070:10489   */\n    tag_167:\n      0x00\n        /* \"#utility.yul\":10274:10276   */\n      0x20\n        /* \"#utility.yul\":10263:10272   */\n      dup3\n        /* \"#utility.yul\":10259:10277   */\n      add\n        /* \"#utility.yul\":10251:10277   */\n      swap1\n      pop\n        /* \"#utility.yul\":10323:10332   */\n      dup2\n        /* \"#utility.yul\":10317:10321   */\n      dup2\n        /* \"#utility.yul\":10313:10333   */\n      sub\n        /* \"#utility.yul\":10309:10310   */\n      0x00\n        /* \"#utility.yul\":10298:10307   */\n      dup4\n        /* \"#utility.yul\":10294:10311   */\n      add\n        /* \"#utility.yul\":10287:10334   */\n      mstore\n        /* \"#utility.yul\":10351:10482   */\n      tag_299\n        /* \"#utility.yul\":10477:10481   */\n      dup2\n        /* \"#utility.yul\":10351:10482   */\n      tag_257\n      jump\t// in\n    tag_299:\n        /* \"#utility.yul\":10343:10482   */\n      swap1\n      pop\n        /* \"#utility.yul\":10241:10489   */\n      swap2\n      swap1\n      pop\n      jump\t// out\n        /* \"#utility.yul\":10495:10914   */\n    tag_152:\n      0x00\n        /* \"#utility.yul\":10699:10701   */\n      0x20\n        /* \"#utility.yul\":10688:10697   */\n      dup3\n        /* \"#utility.yul\":10684:10702   */\n      add\n        /* \"#utility.yul\":10676:10702   */\n      swap1\n      pop\n        /* \"#utility.yul\":10748:10757   */\n      dup2\n        /* \"#utility.yul\":10742:10746   */\n      dup2\n        /* \"#utility.yul\":10738:10758   */\n      sub\n        /* \"#utility.yul\":10734:10735   */\n      0x00\n        /* \"#utility.yul\":10723:10732   */\n      dup4\n        /* \"#utility.yul\":10719:10736   */\n      add\n        /* \"#utility.yul\":10712:10759   */\n      mstore\n        /* \"#utility.yul\":10776:10907   */\n      tag_301\n        /* \"#utility.yul\":10902:10906   */\n      dup2\n        /* \"#utility.yul\":10776:10907   */\n      tag_260\n      jump\t// in\n    tag_301:\n        /* \"#utility.yul\":10768:10907   */\n      swap1\n      pop\n        /* \"#utility.yul\":10666:10914   */\n      swap2\n      swap1\n      pop\n      jump\t// out\n        /* \"#utility.yul\":10920:11339   */\n    tag_114:\n      0x00\n        /* \"#utility.yul\":11124:11126   */\n      0x20\n        /* \"#utility.yul\":11113:11122   */\n      dup3\n        /* \"#utility.yul\":11109:11127   */\n      add\n        /* \"#utility.yul\":11101:11127   */\n      swap1\n      pop\n        /* \"#utility.yul\":11173:11182   */\n      dup2\n        /* \"#utility.yul\":11167:11171   */\n      dup2\n        /* \"#utility.yul\":11163:11183   */\n      sub\n        /* \"#utility.yul\":11159:11160   */\n      0x00\n        /* \"#utility.yul\":11148:11157   */\n      dup4\n        /* \"#utility.yul\":11144:11161   */\n      add\n        /* \"#utility.yul\":11137:11184   */\n      mstore\n        /* \"#utility.yul\":11201:11332   */\n      tag_303\n        /* \"#utility.yul\":11327:11331   */\n      dup2\n        /* \"#utility.yul\":11201:11332   */\n      tag_263\n      jump\t// in\n    tag_303:\n        /* \"#utility.yul\":11193:11332   */\n      swap1\n      pop\n        /* \"#utility.yul\":11091:11339   */\n      swap2\n      swap1\n      pop\n      jump\t// out\n        /* \"#utility.yul\":11345:11764   */\n    tag_135:\n      0x00\n        /* \"#utility.yul\":11549:11551   */\n      0x20\n        /* \"#utility.yul\":11538:11547   */\n      dup3\n        /* \"#utility.yul\":11534:11552   */\n      add\n        /* \"#utility.yul\":11526:11552   */\n      swap1\n      pop\n        /* \"#utility.yul\":11598:11607   */\n      dup2\n        /* \"#utility.yul\":11592:11596   */\n      dup2\n        /* \"#utility.yul\":11588:11608   */\n      sub\n        /* \"#utility.yul\":11584:11585   */\n      0x00\n        /* \"#utility.yul\":11573:11582   */\n      dup4\n        /* \"#utility.yul\":11569:11586   */\n      add\n        /* \"#utility.yul\":11562:11609   */\n      mstore\n        /* \"#utility.yul\":11626:11757   */\n      tag_305\n        /* \"#utility.yul\":11752:11756   */\n      dup2\n        /* \"#utility.yul\":11626:11757   */\n      tag_266\n      jump\t// in\n    tag_305:\n        /* \"#utility.yul\":11618:11757   */\n      swap1\n      pop\n        /* \"#utility.yul\":11516:11764   */\n      swap2\n      swap1\n      pop\n      jump\t// out\n        /* \"#utility.yul\":11770:12189   */\n    tag_188:\n      0x00\n        /* \"#utility.yul\":11974:11976   */\n      0x20\n        /* \"#utility.yul\":11963:11972   */\n      dup3\n        /* \"#utility.yul\":11959:11977   */\n      add\n        /* \"#utility.yul\":11951:11977   */\n      swap1\n      pop\n        /* \"#utility.yul\":12023:12032   */\n      dup2\n        /* \"#utility.yul\":12017:12021   */\n      dup2\n        /* \"#utility.yul\":12013:12033   */\n      sub\n        /* \"#utility.yul\":12009:12010   */\n      0x00\n        /* \"#utility.yul\":11998:12007   */\n      dup4\n        /* \"#utility.yul\":11994:12011   */\n      add\n        /* \"#utility.yul\":11987:12034   */\n      mstore\n        /* \"#utility.yul\":12051:12182   */\n      tag_307\n        /* \"#utility.yul\":12177:12181   */\n      dup2\n        /* \"#utility.yul\":12051:12182   */\n      tag_269\n      jump\t// in\n    tag_307:\n        /* \"#utility.yul\":12043:12182   */\n      swap1\n      pop\n        /* \"#utility.yul\":11941:12189   */\n      swap2\n      swap1\n      pop\n      jump\t// out\n        /* \"#utility.yul\":12195:12417   */\n    tag_34:\n      0x00\n        /* \"#utility.yul\":12326:12328   */\n      0x20\n        /* \"#utility.yul\":12315:12324   */\n      dup3\n        /* \"#utility.yul\":12311:12329   */\n      add\n        /* \"#utility.yul\":12303:12329   */\n      swap1\n      pop\n        /* \"#utility.yul\":12339:12410   */\n      tag_309\n        /* \"#utility.yul\":12407:12408   */\n      0x00\n        /* \"#utility.yul\":12396:12405   */\n      dup4\n        /* \"#utility.yul\":12392:12409   */\n      add\n        /* \"#utility.yul\":12383:12389   */\n      dup5\n        /* \"#utility.yul\":12339:12410   */\n      tag_272\n      jump\t// in\n    tag_309:\n        /* \"#utility.yul\":12293:12417   */\n      swap3\n      swap2\n      pop\n      pop\n      jump\t// out\n        /* \"#utility.yul\":12423:12637   */\n    tag_43:\n      0x00\n        /* \"#utility.yul\":12550:12552   */\n      0x20\n        /* \"#utility.yul\":12539:12548   */\n      dup3\n        /* \"#utility.yul\":12535:12553   */\n      add\n        /* \"#utility.yul\":12527:12553   */\n      swap1\n      pop\n        /* \"#utility.yul\":12563:12630   */\n      tag_311\n        /* \"#utility.yul\":12627:12628   */\n      0x00\n        /* \"#utility.yul\":12616:12625   */\n      dup4\n        /* \"#utility.yul\":12612:12629   */\n      add\n        /* \"#utility.yul\":12603:12609   */\n      dup5\n        /* \"#utility.yul\":12563:12630   */\n      tag_276\n      jump\t// in\n    tag_311:\n        /* \"#utility.yul\":12517:12637   */\n      swap3\n      swap2\n      pop\n      pop\n      jump\t// out\n        /* \"#utility.yul\":12643:12742   */\n    tag_232:\n      0x00\n        /* \"#utility.yul\":12729:12734   */\n      dup2\n        /* \"#utility.yul\":12723:12735   */\n      mload\n        /* \"#utility.yul\":12713:12735   */\n      swap1\n      pop\n        /* \"#utility.yul\":12702:12742   */\n      swap2\n      swap1\n      pop\n      jump\t// out\n        /* \"#utility.yul\":12748:12917   */\n    tag_234:\n      0x00\n        /* \"#utility.yul\":12866:12872   */\n      dup3\n        /* \"#utility.yul\":12861:12864   */\n      dup3\n        /* \"#utility.yul\":12854:12873   */\n      mstore\n        /* \"#utility.yul\":12906:12910   */\n      0x20\n        /* \"#utility.yul\":12901:12904   */\n      dup3\n        /* \"#utility.yul\":12897:12911   */\n      add\n        /* \"#utility.yul\":12882:12911   */\n      swap1\n      pop\n        /* \"#utility.yul\":12844:12917   */\n      swap3\n      swap2\n      pop\n      pop\n      jump\t// out\n        /* \"#utility.yul\":12923:13228   */\n    tag_107:\n      0x00\n        /* \"#utility.yul\":12982:13002   */\n      tag_315\n        /* \"#utility.yul\":13000:13001   */\n      dup3\n        /* \"#utility.yul\":12982:13002   */\n      tag_275\n      jump\t// in\n    tag_315:\n        /* \"#utility.yul\":12977:13002   */\n      swap2\n      pop\n        /* \"#utility.yul\":13016:13036   */\n      tag_316\n        /* \"#utility.yul\":13034:13035   */\n      dup4\n        /* \"#utility.yul\":13016:13036   */\n      tag_275\n      jump\t// in\n    tag_316:\n        /* \"#utility.yul\":13011:13036   */\n      swap3\n      pop\n        /* \"#utility.yul\":13170:13171   */\n      dup3\n        /* \"#utility.yul\":13102:13168   */\n      0xffffffffffffffffffffffffffffffffffffffffffffffffffffffffffffffff\n        /* \"#utility.yul\":13098:13172   */\n      sub\n        /* \"#utility.yul\":13095:13096   */\n      dup3\n        /* \"#utility.yul\":13092:13173   */\n      gt\n        /* \"#utility.yul\":13089:13091   */\n      iszero\n      tag_317\n      jumpi\n        /* \"#utility.yul\":13176:13194   */\n      tag_318\n      tag_319\n      jump\t// in\n    tag_318:\n        /* \"#utility.yul\":13089:13091   */\n    tag_317:\n        /* \"#utility.yul\":13220:13221   */\n      dup3\n        /* \"#utility.yul\":13217:13218   */\n      dup3\n        /* \"#utility.yul\":13213:13222   */\n      add\n        /* \"#utility.yul\":13206:13222   */\n      swap1\n      pop\n        /* \"#utility.yul\":12967:13228   */\n      swap3\n      swap2\n      pop\n      pop\n      jump\t// out\n        /* \"#utility.yul\":13234:13330   */\n    tag_224:\n      0x00\n        /* \"#utility.yul\":13300:13324   */\n      tag_321\n        /* \"#utility.yul\":13318:13323   */\n      dup3\n        /* \"#utility.yul\":13300:13324   */\n      tag_322\n      jump\t// in\n    tag_321:\n        /* \"#utility.yul\":13289:13324   */\n      swap1\n      pop\n        /* \"#utility.yul\":13279:13330   */\n      swap2\n      swap1\n      pop\n      jump\t// out\n        /* \"#utility.yul\":13336:13426   */\n    tag_228:\n      0x00\n        /* \"#utility.yul\":13413:13418   */\n      dup2\n        /* \"#utility.yul\":13406:13419   */\n      iszero\n        /* \"#utility.yul\":13399:13420   */\n      iszero\n        /* \"#utility.yul\":13388:13420   */\n      swap1\n      pop\n        /* \"#utility.yul\":13378:13426   */\n      swap2\n      swap1\n      pop\n      jump\t// out\n        /* \"#utility.yul\":13432:13558   */\n    tag_322:\n      0x00\n        /* \"#utility.yul\":13509:13551   */\n      0xffffffffffffffffffffffffffffffffffffffff\n        /* \"#utility.yul\":13502:13507   */\n      dup3\n        /* \"#utility.yul\":13498:13552   */\n      and\n        /* \"#utility.yul\":13487:13552   */\n      swap1\n      pop\n        /* \"#utility.yul\":13477:13558   */\n      swap2\n      swap1\n      pop\n      jump\t// out\n        /* \"#utility.yul\":13564:13641   */\n    tag_275:\n      0x00\n        /* \"#utility.yul\":13630:13635   */\n      dup2\n        /* \"#utility.yul\":13619:13635   */\n      swap1\n      pop\n        /* \"#utility.yul\":13609:13641   */\n      swap2\n      swap1\n      pop\n      jump\t// out\n        /* \"#utility.yul\":13647:13733   */\n    tag_279:\n      0x00\n        /* \"#utility.yul\":13722:13726   */\n      0xff\n        /* \"#utility.yul\":13715:13720   */\n      dup3\n        /* \"#utility.yul\":13711:13727   */\n      and\n        /* \"#utility.yul\":13700:13727   */\n      swap1\n      pop\n        /* \"#utility.yul\":13690:13733   */\n      swap2\n      swap1\n      pop\n      jump\t// out\n        /* \"#utility.yul\":13739:14046   */\n    tag_236:\n        /* \"#utility.yul\":13807:13808   */\n      0x00\n        /* \"#utility.yul\":13817:13930   */\n    tag_328:\n        /* \"#utility.yul\":13831:13837   */\n      dup4\n        /* \"#utility.yul\":13828:13829   */\n      dup2\n        /* \"#utility.yul\":13825:13838   */\n      lt\n        /* \"#utility.yul\":13817:13930   */\n      iszero\n      tag_330\n      jumpi\n        /* \"#utility.yul\":13916:13917   */\n      dup1\n        /* \"#utility.yul\":13911:13914   */\n      dup3\n        /* \"#utility.yul\":13907:13918   */\n      add\n        /* \"#utility.yul\":13901:13919   */\n      mload\n        /* \"#utility.yul\":13897:13898   */\n      dup2\n        /* \"#utility.yul\":13892:13895   */\n      dup5\n        /* \"#utility.yul\":13888:13899   */\n      add\n        /* \"#utility.yul\":13881:13920   */\n      mstore\n        /* \"#utility.yul\":13853:13855   */\n      0x20\n        /* \"#utility.yul\":13850:13851   */\n      dup2\n        /* \"#utility.yul\":13846:13856   */\n      add\n        /* \"#utility.yul\":13841:13856   */\n      swap1\n      pop\n        /* \"#utility.yul\":13817:13930   */\n      jump(tag_328)\n    tag_330:\n        /* \"#utility.yul\":13948:13954   */\n      dup4\n        /* \"#utility.yul\":13945:13946   */\n      dup2\n        /* \"#utility.yul\":13942:13955   */\n      gt\n        /* \"#utility.yul\":13939:13941   */\n      iszero\n      tag_331\n      jumpi\n        /* \"#utility.yul\":14028:14029   */\n      0x00\n        /* \"#utility.yul\":14019:14025   */\n      dup5\n        /* \"#utility.yul\":14014:14017   */\n      dup5\n        /* \"#utility.yul\":14010:14026   */\n      add\n        /* \"#utility.yul\":14003:14030   */\n      mstore\n        /* \"#utility.yul\":13939:13941   */\n    tag_331:\n        /* \"#utility.yul\":13788:14046   */\n      pop\n      pop\n      pop\n      pop\n      jump\t// out\n        /* \"#utility.yul\":14052:14372   */\n    tag_84:\n      0x00\n        /* \"#utility.yul\":14133:14134   */\n      0x02\n        /* \"#utility.yul\":14127:14131   */\n      dup3\n        /* \"#utility.yul\":14123:14135   */\n      div\n        /* \"#utility.yul\":14113:14135   */\n      swap1\n      pop\n        /* \"#utility.yul\":14180:14181   */\n      0x01\n        /* \"#utility.yul\":14174:14178   */\n      dup3\n        /* \"#utility.yul\":14170:14182   */\n      and\n        /* \"#utility.yul\":14201:14219   */\n      dup1\n        /* \"#utility.yul\":14191:14193   */\n      tag_333\n      jumpi\n        /* \"#utility.yul\":14257:14261   */\n      0x7f\n        /* \"#utility.yul\":14249:14255   */\n      dup3\n        /* \"#utility.yul\":14245:14262   */\n      and\n        /* \"#utility.yul\":14235:14262   */\n      swap2\n      pop\n        /* \"#utility.yul\":14191:14193   */\n    tag_333:\n        /* \"#utility.yul\":14319:14321   */\n      0x20\n        /* \"#utility.yul\":14311:14317   */\n      dup3\n        /* \"#utility.yul\":14308:14322   */\n      lt\n        /* \"#utility.yul\":14288:14306   */\n      dup2\n        /* \"#utility.yul\":14285:14323   */\n      eq\n        /* \"#utility.yul\":14282:14284   */\n      iszero\n      tag_334\n      jumpi\n        /* \"#utility.yul\":14338:14356   */\n      tag_335\n      tag_336\n      jump\t// in\n    tag_335:\n        /* \"#utility.yul\":14282:14284   */\n    tag_334:\n        /* \"#utility.yul\":14103:14372   */\n      pop\n      swap2\n      swap1\n      pop\n      jump\t// out\n        /* \"#utility.yul\":14378:14558   */\n    tag_319:\n        /* \"#utility.yul\":14426:14503   */\n      0x4e487b7100000000000000000000000000000000000000000000000000000000\n        /* \"#utility.yul\":14423:14424   */\n      0x00\n        /* \"#utility.yul\":14416:14504   */\n      mstore\n        /* \"#utility.yul\":14523:14527   */\n      0x11\n        /* \"#utility.yul\":14520:14521   */\n      0x04\n        /* \"#utility.yul\":14513:14528   */\n      mstore\n        /* \"#utility.yul\":14547:14551   */\n      0x24\n        /* \"#utility.yul\":14544:14545   */\n      0x00\n        /* \"#utility.yul\":14537:14552   */\n      revert\n        /* \"#utility.yul\":14564:14744   */\n    tag_336:\n        /* \"#utility.yul\":14612:14689   */\n      0x4e487b7100000000000000000000000000000000000000000000000000000000\n        /* \"#utility.yul\":14609:14610   */\n      0x00\n        /* \"#utility.yul\":14602:14690   */\n      mstore\n        /* \"#utility.yul\":14709:14713   */\n      0x22\n        /* \"#utility.yul\":14706:14707   */\n      0x04\n        /* \"#utility.yul\":14699:14714   */\n      mstore\n        /* \"#utility.yul\":14733:14737   */\n      0x24\n        /* \"#utility.yul\":14730:14731   */\n      0x00\n        /* \"#utility.yul\":14723:14738   */\n      revert\n        /* \"#utility.yul\":14750:14852   */\n    tag_238:\n      0x00\n        /* \"#utility.yul\":14842:14844   */\n      0x1f\n        /* \"#utility.yul\":14838:14845   */\n      not\n        /* \"#utility.yul\":14833:14835   */\n      0x1f\n        /* \"#utility.yul\":14826:14831   */\n      dup4\n        /* \"#utility.yul\":14822:14836   */\n      add\n        /* \"#utility.yul\":14818:14846   */\n      and\n        /* \"#utility.yul\":14808:14846   */\n      swap1\n      pop\n        /* \"#utility.yul\":14798:14852   */\n      swap2\n      swap1\n      pop\n      jump\t// out\n        /* \"#utility.yul\":14858:14980   */\n    tag_200:\n        /* \"#utility.yul\":14931:14955   */\n      tag_341\n        /* \"#utility.yul\":14949:14954   */\n      dup2\n        /* \"#utility.yul\":14931:14955   */\n      tag_224\n      jump\t// in\n    tag_341:\n        /* \"#utility.yul\":14924:14929   */\n      dup2\n        /* \"#utility.yul\":14921:14956   */\n      eq\n        /* \"#utility.yul\":14911:14913   */\n      tag_342\n      jumpi\n        /* \"#utility.yul\":14970:14971   */\n      0x00\n        /* \"#utility.yul\":14967:14968   */\n      dup1\n        /* \"#utility.yul\":14960:14972   */\n      revert\n        /* \"#utility.yul\":14911:14913   */\n    tag_342:\n        /* \"#utility.yul\":14901:14980   */\n      pop\n      jump\t// out\n        /* \"#utility.yul\":14986:15108   */\n    tag_204:\n        /* \"#utility.yul\":15059:15083   */\n      tag_344\n        /* \"#utility.yul\":15077:15082   */\n      dup2\n        /* \"#utility.yul\":15059:15083   */\n      tag_275\n      jump\t// in\n    tag_344:\n        /* \"#utility.yul\":15052:15057   */\n      dup2\n        /* \"#utility.yul\":15049:15084   */\n      eq\n        /* \"#utility.yul\":15039:15041   */\n      tag_345\n      jumpi\n        /* \"#utility.yul\":15098:15099   */\n      0x00\n        /* \"#utility.yul\":15095:15096   */\n      dup1\n        /* \"#utility.yul\":15088:15100   */\n      revert\n        /* \"#utility.yul\":15039:15041   */\n    tag_345:\n        /* \"#utility.yul\":15029:15108   */\n      pop\n      jump\t// out\n\n    auxdata: 0xa2646970667358221220ff1ab43496e1461200305d74fb7e93f175254748f33d0dc325ecebe203c3a33d64736f6c63430008000033\n}\n",
				"bytecode": {
					"linkReferences": {},
					"object": "60806040523480156200001157600080fd5b5060405162001caa38038062001caa833981810160405281019062000037919062000285565b818181600390805190602001906200005192919062000163565b5080600490805190602001906200006a92919062000163565b5050506200008d620000816200009560201b60201c565b6200009d60201b60201c565b505062000429565b600033905090565b6000600560009054906101000a900473ffffffffffffffffffffffffffffffffffffffff16905081600560006101000a81548173ffffffffffffffffffffffffffffffffffffffff021916908373ffffffffffffffffffffffffffffffffffffffff1602179055508173ffffffffffffffffffffffffffffffffffffffff168173ffffffffffffffffffffffffffffffffffffffff167f8be0079c531659141344cd1fd0a4f28419497f9722a3daafe3b4186f6b6457e060405160405180910390a35050565b828054620001719062000395565b90600052602060002090601f016020900481019282620001955760008555620001e1565b82601f10620001b057805160ff1916838001178555620001e1565b82800160010185558215620001e1579182015b82811115620001e0578251825591602001919060010190620001c3565b5b509050620001f09190620001f4565b5090565b5b808211156200020f576000816000905550600101620001f5565b5090565b60006200022a62000224846200032c565b620002f8565b9050828152602081018484840111156200024357600080fd5b620002508482856200035f565b509392505050565b600082601f8301126200026a57600080fd5b81516200027c84826020860162000213565b91505092915050565b600080604083850312156200029957600080fd5b600083015167ffffffffffffffff811115620002b457600080fd5b620002c28582860162000258565b925050602083015167ffffffffffffffff811115620002e057600080fd5b620002ee8582860162000258565b9150509250929050565b6000604051905081810181811067ffffffffffffffff82111715620003225762000321620003fa565b5b8060405250919050565b600067ffffffffffffffff8211156200034a5762000349620003fa565b5b601f19601f8301169050602081019050919050565b60005b838110156200037f57808201518184015260208101905062000362565b838111156200038f576000848401525b50505050565b60006002820490506001821680620003ae57607f821691505b60208210811415620003c557620003c4620003cb565b5b50919050565b7f4e487b7100000000000000000000000000000000000000000000000000000000600052602260045260246000fd5b7f4e487b7100000000000000000000000000000000000000000000000000000000600052604160045260246000fd5b61187180620004396000396000f3fe608060405234801561001057600080fd5b50600436106100f55760003560e01c806370a0823111610097578063a457c2d711610066578063a457c2d71461028a578063a9059cbb146102ba578063dd62ed3e146102ea578063f2fde38b1461031a576100f5565b806370a0823114610214578063715018a6146102445780638da5cb5b1461024e57806395d89b411461026c576100f5565b806323b872dd116100d357806323b872dd14610166578063313ce5671461019657806339509351146101b4578063449a52f8146101e4576100f5565b806306fdde03146100fa578063095ea7b31461011857806318160ddd14610148575b600080fd5b610102610336565b60405161010f91906114ba565b60405180910390f35b610132600480360381019061012d9190611009565b6103c8565b60405161013f919061149f565b60405180910390f35b6101506103eb565b60405161015d919061163c565b60405180910390f35b610180600480360381019061017b9190610fba565b6103f5565b60405161018d919061149f565b60405180910390f35b61019e610424565b6040516101ab9190611657565b60405180910390f35b6101ce60048036038101906101c99190611009565b61042d565b6040516101db919061149f565b60405180910390f35b6101fe60048036038101906101f99190611009565b610464565b60405161020b919061149f565b60405180910390f35b61022e60048036038101906102299190610f55565b6104f2565b60405161023b919061163c565b60405180910390f35b61024c61053a565b005b61025661054e565b6040516102639190611484565b60405180910390f35b610274610578565b60405161028191906114ba565b60405180910390f35b6102a4600480360381019061029f9190611009565b61060a565b6040516102b1919061149f565b60405180910390f35b6102d460048036038101906102cf9190611009565b610681565b6040516102e1919061149f565b60405180910390f35b61030460048036038101906102ff9190610f7e565b6106a4565b604051610311919061163c565b60405180910390f35b610334600480360381019061032f9190610f55565b61072b565b005b6060600380546103459061176c565b80601f01602080910402602001604051908101604052809291908181526020018280546103719061176c565b80156103be5780601f10610393576101008083540402835291602001916103be565b820191906000526020600020905b8154815290600101906020018083116103a157829003601f168201915b5050505050905090565b6000806103d36107af565b90506103e08185856107b7565b600191505092915050565b6000600254905090565b6000806104006107af565b905061040d858285610982565b610418858585610a0e565b60019150509392505050565b60006012905090565b6000806104386107af565b905061045981858561044a85896106a4565b610454919061168e565b6107b7565b600191505092915050565b600061046e610c86565b600073ffffffffffffffffffffffffffffffffffffffff168373ffffffffffffffffffffffffffffffffffffffff1614156104de576040517f08c379a00000000000000000000000000000000000000000000000000000000081526004016104d5906115dc565b60405180910390fd5b6104e88383610d04565b6001905092915050565b60008060008373ffffffffffffffffffffffffffffffffffffffff1673ffffffffffffffffffffffffffffffffffffffff168152602001908152602001600020549050919050565b610542610c86565b61054c6000610e5b565b565b6000600560009054906101000a900473ffffffffffffffffffffffffffffffffffffffff16905090565b6060600480546105879061176c565b80601f01602080910402602001604051908101604052809291908181526020018280546105b39061176c565b80156106005780601f106105d557610100808354040283529160200191610600565b820191906000526020600020905b8154815290600101906020018083116105e357829003601f168201915b5050505050905090565b6000806106156107af565b9050600061062382866106a4565b905083811015610668576040517f08c379a000000000000000000000000000000000000000000000000000000000815260040161065f906115fc565b60405180910390fd5b61067582868684036107b7565b60019250505092915050565b60008061068c6107af565b9050610699818585610a0e565b600191505092915050565b6000600160008473ffffffffffffffffffffffffffffffffffffffff1673ffffffffffffffffffffffffffffffffffffffff16815260200190815260200160002060008373ffffffffffffffffffffffffffffffffffffffff1673ffffffffffffffffffffffffffffffffffffffff16815260200190815260200160002054905092915050565b610733610c86565b600073ffffffffffffffffffffffffffffffffffffffff168173ffffffffffffffffffffffffffffffffffffffff1614156107a3576040517f08c379a000000000000000000000000000000000000000000000000000000000815260040161079a906114fc565b60405180910390fd5b6107ac81610e5b565b50565b600033905090565b600073ffffffffffffffffffffffffffffffffffffffff168373ffffffffffffffffffffffffffffffffffffffff161415610827576040517f08c379a000000000000000000000000000000000000000000000000000000000815260040161081e906115bc565b60405180910390fd5b600073ffffffffffffffffffffffffffffffffffffffff168273ffffffffffffffffffffffffffffffffffffffff161415610897576040517f08c379a000000000000000000000000000000000000000000000000000000000815260040161088e9061151c565b60405180910390fd5b80600160008573ffffffffffffffffffffffffffffffffffffffff1673ffffffffffffffffffffffffffffffffffffffff16815260200190815260200160002060008473ffffffffffffffffffffffffffffffffffffffff1673ffffffffffffffffffffffffffffffffffffffff168152602001908152602001600020819055508173ffffffffffffffffffffffffffffffffffffffff168373ffffffffffffffffffffffffffffffffffffffff167f8c5be1e5ebec7d5bd14f71427d1e84f3dd0314c0f7b2291e5b200ac8c7c3b92583604051610975919061163c565b60405180910390a3505050565b600061098e84846106a4565b90507fffffffffffffffffffffffffffffffffffffffffffffffffffffffffffffffff8114610a0857818110156109fa576040517f08c379a00000000000000000000000000000000000000000000000000000000081526004016109f19061153c565b60405180910390fd5b610a0784848484036107b7565b5b50505050565b600073ffffffffffffffffffffffffffffffffffffffff168373ffffffffffffffffffffffffffffffffffffffff161415610a7e576040517f08c379a0000000000000000000000000000000000000000000000000000000008152600401610a759061159c565b60405180910390fd5b600073ffffffffffffffffffffffffffffffffffffffff168273ffffffffffffffffffffffffffffffffffffffff161415610aee576040517f08c379a0000000000000000000000000000000000000000000000000000000008152600401610ae5906114dc565b60405180910390fd5b610af9838383610f21565b60008060008573ffffffffffffffffffffffffffffffffffffffff1673ffffffffffffffffffffffffffffffffffffffff16815260200190815260200160002054905081811015610b7f576040517f08c379a0000000000000000000000000000000000000000000000000000000008152600401610b769061155c565b60405180910390fd5b8181036000808673ffffffffffffffffffffffffffffffffffffffff1673ffffffffffffffffffffffffffffffffffffffff16815260200190815260200160002081905550816000808573ffffffffffffffffffffffffffffffffffffffff1673ffffffffffffffffffffffffffffffffffffffff168152602001908152602001600020600082825401925050819055508273ffffffffffffffffffffffffffffffffffffffff168473ffffffffffffffffffffffffffffffffffffffff167fddf252ad1be2c89b69c2b068fc378daa952ba7f163c4a11628f55a4df523b3ef84604051610c6d919061163c565b60405180910390a3610c80848484610f26565b50505050565b610c8e6107af565b73ffffffffffffffffffffffffffffffffffffffff16610cac61054e565b73ffffffffffffffffffffffffffffffffffffffff1614610d02576040517f08c379a0000000000000000000000000000000000000000000000000000000008152600401610cf99061157c565b60405180910390fd5b565b600073ffffffffffffffffffffffffffffffffffffffff168273ffffffffffffffffffffffffffffffffffffffff161415610d74576040517f08c379a0000000000000000000000000000000000000000000000000000000008152600401610d6b9061161c565b60405180910390fd5b610d8060008383610f21565b8060026000828254610d92919061168e565b92505081905550806000808473ffffffffffffffffffffffffffffffffffffffff1673ffffffffffffffffffffffffffffffffffffffff168152602001908152602001600020600082825401925050819055508173ffffffffffffffffffffffffffffffffffffffff16600073ffffffffffffffffffffffffffffffffffffffff167fddf252ad1be2c89b69c2b068fc378daa952ba7f163c4a11628f55a4df523b3ef83604051610e43919061163c565b60405180910390a3610e5760008383610f26565b5050565b6000600560009054906101000a900473ffffffffffffffffffffffffffffffffffffffff16905081600560006101000a81548173ffffffffffffffffffffffffffffffffffffffff021916908373ffffffffffffffffffffffffffffffffffffffff1602179055508173ffffffffffffffffffffffffffffffffffffffff168173ffffffffffffffffffffffffffffffffffffffff167f8be0079c531659141344cd1fd0a4f28419497f9722a3daafe3b4186f6b6457e060405160405180910390a35050565b505050565b505050565b600081359050610f3a8161180d565b92915050565b600081359050610f4f81611824565b92915050565b600060208284031215610f6757600080fd5b6000610f7584828501610f2b565b91505092915050565b60008060408385031215610f9157600080fd5b6000610f9f85828601610f2b565b9250506020610fb085828601610f2b565b9150509250929050565b600080600060608486031215610fcf57600080fd5b6000610fdd86828701610f2b565b9350506020610fee86828701610f2b565b9250506040610fff86828701610f40565b9150509250925092565b6000806040838503121561101c57600080fd5b600061102a85828601610f2b565b925050602061103b85828601610f40565b9150509250929050565b61104e816116e4565b82525050565b61105d816116f6565b82525050565b600061106e82611672565b611078818561167d565b9350611088818560208601611739565b611091816117fc565b840191505092915050565b60006110a960238361167d565b91507f45524332303a207472616e7366657220746f20746865207a65726f206164647260008301527f65737300000000000000000000000000000000000000000000000000000000006020830152604082019050919050565b600061110f60268361167d565b91507f4f776e61626c653a206e6577206f776e657220697320746865207a65726f206160008301527f64647265737300000000000000000000000000000000000000000000000000006020830152604082019050919050565b600061117560228361167d565b91507f45524332303a20617070726f766520746f20746865207a65726f20616464726560008301527f73730000000000000000000000000000000000000000000000000000000000006020830152604082019050919050565b60006111db601d8361167d565b91507f45524332303a20696e73756666696369656e7420616c6c6f77616e63650000006000830152602082019050919050565b600061121b60268361167d565b91507f45524332303a207472616e7366657220616d6f756e742065786365656473206260008301527f616c616e636500000000000000000000000000000000000000000000000000006020830152604082019050919050565b600061128160208361167d565b91507f4f776e61626c653a2063616c6c6572206973206e6f7420746865206f776e65726000830152602082019050919050565b60006112c160258361167d565b91507f45524332303a207472616e736665722066726f6d20746865207a65726f20616460008301527f64726573730000000000000000000000000000000000000000000000000000006020830152604082019050919050565b600061132760248361167d565b91507f45524332303a20617070726f76652066726f6d20746865207a65726f2061646460008301527f72657373000000000000000000000000000000000000000000000000000000006020830152604082019050919050565b600061138d601c8361167d565b91507f63616e206e6f74206d696e7420746f207a65726f2061646472657373000000006000830152602082019050919050565b60006113cd60258361167d565b91507f45524332303a2064656372656173656420616c6c6f77616e63652062656c6f7760008301527f207a65726f0000000000000000000000000000000000000000000000000000006020830152604082019050919050565b6000611433601f8361167d565b91507f45524332303a206d696e7420746f20746865207a65726f2061646472657373006000830152602082019050919050565b61146f81611722565b82525050565b61147e8161172c565b82525050565b60006020820190506114996000830184611045565b92915050565b60006020820190506114b46000830184611054565b92915050565b600060208201905081810360008301526114d48184611063565b905092915050565b600060208201905081810360008301526114f58161109c565b9050919050565b6000602082019050818103600083015261151581611102565b9050919050565b6000602082019050818103600083015261153581611168565b9050919050565b60006020820190508181036000830152611555816111ce565b9050919050565b600060208201905081810360008301526115758161120e565b9050919050565b6000602082019050818103600083015261159581611274565b9050919050565b600060208201905081810360008301526115b5816112b4565b9050919050565b600060208201905081810360008301526115d58161131a565b9050919050565b600060208201905081810360008301526115f581611380565b9050919050565b60006020820190508181036000830152611615816113c0565b9050919050565b6000602082019050818103600083015261163581611426565b9050919050565b60006020820190506116516000830184611466565b92915050565b600060208201905061166c6000830184611475565b92915050565b600081519050919050565b600082825260208201905092915050565b600061169982611722565b91506116a483611722565b9250827fffffffffffffffffffffffffffffffffffffffffffffffffffffffffffffffff038211156116d9576116d861179e565b5b828201905092915050565b60006116ef82611702565b9050919050565b60008115159050919050565b600073ffffffffffffffffffffffffffffffffffffffff82169050919050565b6000819050919050565b600060ff82169050919050565b60005b8381101561175757808201518184015260208101905061173c565b83811115611766576000848401525b50505050565b6000600282049050600182168061178457607f821691505b60208210811415611798576117976117cd565b5b50919050565b7f4e487b7100000000000000000000000000000000000000000000000000000000600052601160045260246000fd5b7f4e487b7100000000000000000000000000000000000000000000000000000000600052602260045260246000fd5b6000601f19601f8301169050919050565b611816816116e4565b811461182157600080fd5b50565b61182d81611722565b811461183857600080fd5b5056fea2646970667358221220ff1ab43496e1461200305d74fb7e93f175254748f33d0dc325ecebe203c3a33d64736f6c63430008000033",
					"opcodes": "PUSH1 0x80 PUSH1 0x40 MSTORE CALLVALUE DUP1 ISZERO PUSH3 0x11 JUMPI PUSH1 0x0 DUP1 REVERT JUMPDEST POP PUSH1 0x40 MLOAD PUSH3 0x1CAA CODESIZE SUB DUP1 PUSH3 0x1CAA DUP4 CODECOPY DUP2 DUP2 ADD PUSH1 0x40 MSTORE DUP2 ADD SWAP1 PUSH3 0x37 SWAP2 SWAP1 PUSH3 0x285 JUMP JUMPDEST DUP2 DUP2 DUP2 PUSH1 0x3 SWAP1 DUP1 MLOAD SWAP1 PUSH1 0x20 ADD SWAP1 PUSH3 0x51 SWAP3 SWAP2 SWAP1 PUSH3 0x163 JUMP JUMPDEST POP DUP1 PUSH1 0x4 SWAP1 DUP1 MLOAD SWAP1 PUSH1 0x20 ADD SWAP1 PUSH3 0x6A SWAP3 SWAP2 SWAP1 PUSH3 0x163 JUMP JUMPDEST POP POP POP PUSH3 0x8D PUSH3 0x81 PUSH3 0x95 PUSH1 0x20 SHL PUSH1 0x20 SHR JUMP JUMPDEST PUSH3 0x9D PUSH1 0x20 SHL PUSH1 0x20 SHR JUMP JUMPDEST POP POP PUSH3 0x429 JUMP JUMPDEST PUSH1 0x0 CALLER SWAP1 POP SWAP1 JUMP JUMPDEST PUSH1 0x0 PUSH1 0x5 PUSH1 0x0 SWAP1 SLOAD SWAP1 PUSH2 0x100 EXP SWAP1 DIV PUSH20 0xFFFFFFFFFFFFFFFFFFFFFFFFFFFFFFFFFFFFFFFF AND SWAP1 POP DUP2 PUSH1 0x5 PUSH1 0x0 PUSH2 0x100 EXP DUP2 SLOAD DUP2 PUSH20 0xFFFFFFFFFFFFFFFFFFFFFFFFFFFFFFFFFFFFFFFF MUL NOT AND SWAP1 DUP4 PUSH20 0xFFFFFFFFFFFFFFFFFFFFFFFFFFFFFFFFFFFFFFFF AND MUL OR SWAP1 SSTORE POP DUP2 PUSH20 0xFFFFFFFFFFFFFFFFFFFFFFFFFFFFFFFFFFFFFFFF AND DUP2 PUSH20 0xFFFFFFFFFFFFFFFFFFFFFFFFFFFFFFFFFFFFFFFF AND PUSH32 0x8BE0079C531659141344CD1FD0A4F28419497F9722A3DAAFE3B4186F6B6457E0 PUSH1 0x40 MLOAD PUSH1 0x40 MLOAD DUP1 SWAP2 SUB SWAP1 LOG3 POP POP JUMP JUMPDEST DUP3 DUP1 SLOAD PUSH3 0x171 SWAP1 PUSH3 0x395 JUMP JUMPDEST SWAP1 PUSH1 0x0 MSTORE PUSH1 0x20 PUSH1 0x0 KECCAK256 SWAP1 PUSH1 0x1F ADD PUSH1 0x20 SWAP1 DIV DUP2 ADD SWAP3 DUP3 PUSH3 0x195 JUMPI PUSH1 0x0 DUP6 SSTORE PUSH3 0x1E1 JUMP JUMPDEST DUP3 PUSH1 0x1F LT PUSH3 0x1B0 JUMPI DUP1 MLOAD PUSH1 0xFF NOT AND DUP4 DUP1 ADD OR DUP6 SSTORE PUSH3 0x1E1 JUMP JUMPDEST DUP3 DUP1 ADD PUSH1 0x1 ADD DUP6 SSTORE DUP3 ISZERO PUSH3 0x1E1 JUMPI SWAP2 DUP3 ADD JUMPDEST DUP3 DUP2 GT ISZERO PUSH3 0x1E0 JUMPI DUP3 MLOAD DUP3 SSTORE SWAP2 PUSH1 0x20 ADD SWAP2 SWAP1 PUSH1 0x1 ADD SWAP1 PUSH3 0x1C3 JUMP JUMPDEST JUMPDEST POP SWAP1 POP PUSH3 0x1F0 SWAP2 SWAP1 PUSH3 0x1F4 JUMP JUMPDEST POP SWAP1 JUMP JUMPDEST JUMPDEST DUP1 DUP3 GT ISZERO PUSH3 0x20F JUMPI PUSH1 0x0 DUP2 PUSH1 0x0 SWAP1 SSTORE POP PUSH1 0x1 ADD PUSH3 0x1F5 JUMP JUMPDEST POP SWAP1 JUMP JUMPDEST PUSH1 0x0 PUSH3 0x22A PUSH3 0x224 DUP5 PUSH3 0x32C JUMP JUMPDEST PUSH3 0x2F8 JUMP JUMPDEST SWAP1 POP DUP3 DUP2 MSTORE PUSH1 0x20 DUP2 ADD DUP5 DUP5 DUP5 ADD GT ISZERO PUSH3 0x243 JUMPI PUSH1 0x0 DUP1 REVERT JUMPDEST PUSH3 0x250 DUP5 DUP3 DUP6 PUSH3 0x35F JUMP JUMPDEST POP SWAP4 SWAP3 POP POP POP JUMP JUMPDEST PUSH1 0x0 DUP3 PUSH1 0x1F DUP4 ADD SLT PUSH3 0x26A JUMPI PUSH1 0x0 DUP1 REVERT JUMPDEST DUP2 MLOAD PUSH3 0x27C DUP5 DUP3 PUSH1 0x20 DUP7 ADD PUSH3 0x213 JUMP JUMPDEST SWAP2 POP POP SWAP3 SWAP2 POP POP JUMP JUMPDEST PUSH1 0x0 DUP1 PUSH1 0x40 DUP4 DUP6 SUB SLT ISZERO PUSH3 0x299 JUMPI PUSH1 0x0 DUP1 REVERT JUMPDEST PUSH1 0x0 DUP4 ADD MLOAD PUSH8 0xFFFFFFFFFFFFFFFF DUP2 GT ISZERO PUSH3 0x2B4 JUMPI PUSH1 0x0 DUP1 REVERT JUMPDEST PUSH3 0x2C2 DUP6 DUP3 DUP7 ADD PUSH3 0x258 JUMP JUMPDEST SWAP3 POP POP PUSH1 0x20 DUP4 ADD MLOAD PUSH8 0xFFFFFFFFFFFFFFFF DUP2 GT ISZERO PUSH3 0x2E0 JUMPI PUSH1 0x0 DUP1 REVERT JUMPDEST PUSH3 0x2EE DUP6 DUP3 DUP7 ADD PUSH3 0x258 JUMP JUMPDEST SWAP2 POP POP SWAP3 POP SWAP3 SWAP1 POP JUMP JUMPDEST PUSH1 0x0 PUSH1 0x40 MLOAD SWAP1 POP DUP2 DUP2 ADD DUP2 DUP2 LT PUSH8 0xFFFFFFFFFFFFFFFF DUP3 GT OR ISZERO PUSH3 0x322 JUMPI PUSH3 0x321 PUSH3 0x3FA JUMP JUMPDEST JUMPDEST DUP1 PUSH1 0x40 MSTORE POP SWAP2 SWAP1 POP JUMP JUMPDEST PUSH1 0x0 PUSH8 0xFFFFFFFFFFFFFFFF DUP3 GT ISZERO PUSH3 0x34A JUMPI PUSH3 0x349 PUSH3 0x3FA JUMP JUMPDEST JUMPDEST PUSH1 0x1F NOT PUSH1 0x1F DUP4 ADD AND SWAP1 POP PUSH1 0x20 DUP2 ADD SWAP1 POP SWAP2 SWAP1 POP JUMP JUMPDEST PUSH1 0x0 JUMPDEST DUP4 DUP2 LT ISZERO PUSH3 0x37F JUMPI DUP1 DUP3 ADD MLOAD DUP2 DUP5 ADD MSTORE PUSH1 0x20 DUP2 ADD SWAP1 POP PUSH3 0x362 JUMP JUMPDEST DUP4 DUP2 GT ISZERO PUSH3 0x38F JUMPI PUSH1 0x0 DUP5 DUP5 ADD MSTORE JUMPDEST POP POP POP POP JUMP JUMPDEST PUSH1 0x0 PUSH1 0x2 DUP3 DIV SWAP1 POP PUSH1 0x1 DUP3 AND DUP1 PUSH3 0x3AE JUMPI PUSH1 0x7F DUP3 AND SWAP2 POP JUMPDEST PUSH1 0x20 DUP3 LT DUP2 EQ ISZERO PUSH3 0x3C5 JUMPI PUSH3 0x3C4 PUSH3 0x3CB JUMP JUMPDEST JUMPDEST POP SWAP2 SWAP1 POP JUMP JUMPDEST PUSH32 0x4E487B7100000000000000000000000000000000000000000000000000000000 PUSH1 0x0 MSTORE PUSH1 0x22 PUSH1 0x4 MSTORE PUSH1 0x24 PUSH1 0x0 REVERT JUMPDEST PUSH32 0x4E487B7100000000000000000000000000000000000000000000000000000000 PUSH1 0x0 MSTORE PUSH1 0x41 PUSH1 0x4 MSTORE PUSH1 0x24 PUSH1 0x0 REVERT JUMPDEST PUSH2 0x1871 DUP1 PUSH3 0x439 PUSH1 0x0 CODECOPY PUSH1 0x0 RETURN INVALID PUSH1 0x80 PUSH1 0x40 MSTORE CALLVALUE DUP1 ISZERO PUSH2 0x10 JUMPI PUSH1 0x0 DUP1 REVERT JUMPDEST POP PUSH1 0x4 CALLDATASIZE LT PUSH2 0xF5 JUMPI PUSH1 0x0 CALLDATALOAD PUSH1 0xE0 SHR DUP1 PUSH4 0x70A08231 GT PUSH2 0x97 JUMPI DUP1 PUSH4 0xA457C2D7 GT PUSH2 0x66 JUMPI DUP1 PUSH4 0xA457C2D7 EQ PUSH2 0x28A JUMPI DUP1 PUSH4 0xA9059CBB EQ PUSH2 0x2BA JUMPI DUP1 PUSH4 0xDD62ED3E EQ PUSH2 0x2EA JUMPI DUP1 PUSH4 0xF2FDE38B EQ PUSH2 0x31A JUMPI PUSH2 0xF5 JUMP JUMPDEST DUP1 PUSH4 0x70A08231 EQ PUSH2 0x214 JUMPI DUP1 PUSH4 0x715018A6 EQ PUSH2 0x244 JUMPI DUP1 PUSH4 0x8DA5CB5B EQ PUSH2 0x24E JUMPI DUP1 PUSH4 0x95D89B41 EQ PUSH2 0x26C JUMPI PUSH2 0xF5 JUMP JUMPDEST DUP1 PUSH4 0x23B872DD GT PUSH2 0xD3 JUMPI DUP1 PUSH4 0x23B872DD EQ PUSH2 0x166 JUMPI DUP1 PUSH4 0x313CE567 EQ PUSH2 0x196 JUMPI DUP1 PUSH4 0x39509351 EQ PUSH2 0x1B4 JUMPI DUP1 PUSH4 0x449A52F8 EQ PUSH2 0x1E4 JUMPI PUSH2 0xF5 JUMP JUMPDEST DUP1 PUSH4 0x6FDDE03 EQ PUSH2 0xFA JUMPI DUP1 PUSH4 0x95EA7B3 EQ PUSH2 0x118 JUMPI DUP1 PUSH4 0x18160DDD EQ PUSH2 0x148 JUMPI JUMPDEST PUSH1 0x0 DUP1 REVERT JUMPDEST PUSH2 0x102 PUSH2 0x336 JUMP JUMPDEST PUSH1 0x40 MLOAD PUSH2 0x10F SWAP2 SWAP1 PUSH2 0x14BA JUMP JUMPDEST PUSH1 0x40 MLOAD DUP1 SWAP2 SUB SWAP1 RETURN JUMPDEST PUSH2 0x132 PUSH1 0x4 DUP1 CALLDATASIZE SUB DUP2 ADD SWAP1 PUSH2 0x12D SWAP2 SWAP1 PUSH2 0x1009 JUMP JUMPDEST PUSH2 0x3C8 JUMP JUMPDEST PUSH1 0x40 MLOAD PUSH2 0x13F SWAP2 SWAP1 PUSH2 0x149F JUMP JUMPDEST PUSH1 0x40 MLOAD DUP1 SWAP2 SUB SWAP1 RETURN JUMPDEST PUSH2 0x150 PUSH2 0x3EB JUMP JUMPDEST PUSH1 0x40 MLOAD PUSH2 0x15D SWAP2 SWAP1 PUSH2 0x163C JUMP JUMPDEST PUSH1 0x40 MLOAD DUP1 SWAP2 SUB SWAP1 RETURN JUMPDEST PUSH2 0x180 PUSH1 0x4 DUP1 CALLDATASIZE SUB DUP2 ADD SWAP1 PUSH2 0x17B SWAP2 SWAP1 PUSH2 0xFBA JUMP JUMPDEST PUSH2 0x3F5 JUMP JUMPDEST PUSH1 0x40 MLOAD PUSH2 0x18D SWAP2 SWAP1 PUSH2 0x149F JUMP JUMPDEST PUSH1 0x40 MLOAD DUP1 SWAP2 SUB SWAP1 RETURN JUMPDEST PUSH2 0x19E PUSH2 0x424 JUMP JUMPDEST PUSH1 0x40 MLOAD PUSH2 0x1AB SWAP2 SWAP1 PUSH2 0x1657 JUMP JUMPDEST PUSH1 0x40 MLOAD DUP1 SWAP2 SUB SWAP1 RETURN JUMPDEST PUSH2 0x1CE PUSH1 0x4 DUP1 CALLDATASIZE SUB DUP2 ADD SWAP1 PUSH2 0x1C9 SWAP2 SWAP1 PUSH2 0x1009 JUMP JUMPDEST PUSH2 0x42D JUMP JUMPDEST PUSH1 0x40 MLOAD PUSH2 0x1DB SWAP2 SWAP1 PUSH2 0x149F JUMP JUMPDEST PUSH1 0x40 MLOAD DUP1 SWAP2 SUB SWAP1 RETURN JUMPDEST PUSH2 0x1FE PUSH1 0x4 DUP1 CALLDATASIZE SUB DUP2 ADD SWAP1 PUSH2 0x1F9 SWAP2 SWAP1 PUSH2 0x1009 JUMP JUMPDEST PUSH2 0x464 JUMP JUMPDEST PUSH1 0x40 MLOAD PUSH2 0x20B SWAP2 SWAP1 PUSH2 0x149F JUMP JUMPDEST PUSH1 0x40 MLOAD DUP1 SWAP2 SUB SWAP1 RETURN JUMPDEST PUSH2 0x22E PUSH1 0x4 DUP1 CALLDATASIZE SUB DUP2 ADD SWAP1 PUSH2 0x229 SWAP2 SWAP1 PUSH2 0xF55 JUMP JUMPDEST PUSH2 0x4F2 JUMP JUMPDEST PUSH1 0x40 MLOAD PUSH2 0x23B SWAP2 SWAP1 PUSH2 0x163C JUMP JUMPDEST PUSH1 0x40 MLOAD DUP1 SWAP2 SUB SWAP1 RETURN JUMPDEST PUSH2 0x24C PUSH2 0x53A JUMP JUMPDEST STOP JUMPDEST PUSH2 0x256 PUSH2 0x54E JUMP JUMPDEST PUSH1 0x40 MLOAD PUSH2 0x263 SWAP2 SWAP1 PUSH2 0x1484 JUMP JUMPDEST PUSH1 0x40 MLOAD DUP1 SWAP2 SUB SWAP1 RETURN JUMPDEST PUSH2 0x274 PUSH2 0x578 JUMP JUMPDEST PUSH1 0x40 MLOAD PUSH2 0x281 SWAP2 SWAP1 PUSH2 0x14BA JUMP JUMPDEST PUSH1 0x40 MLOAD DUP1 SWAP2 SUB SWAP1 RETURN JUMPDEST PUSH2 0x2A4 PUSH1 0x4 DUP1 CALLDATASIZE SUB DUP2 ADD SWAP1 PUSH2 0x29F SWAP2 SWAP1 PUSH2 0x1009 JUMP JUMPDEST PUSH2 0x60A JUMP JUMPDEST PUSH1 0x40 MLOAD PUSH2 0x2B1 SWAP2 SWAP1 PUSH2 0x149F JUMP JUMPDEST PUSH1 0x40 MLOAD DUP1 SWAP2 SUB SWAP1 RETURN JUMPDEST PUSH2 0x2D4 PUSH1 0x4 DUP1 CALLDATASIZE SUB DUP2 ADD SWAP1 PUSH2 0x2CF SWAP2 SWAP1 PUSH2 0x1009 JUMP JUMPDEST PUSH2 0x681 JUMP JUMPDEST PUSH1 0x40 MLOAD PUSH2 0x2E1 SWAP2 SWAP1 PUSH2 0x149F JUMP JUMPDEST PUSH1 0x40 MLOAD DUP1 SWAP2 SUB SWAP1 RETURN JUMPDEST PUSH2 0x304 PUSH1 0x4 DUP1 CALLDATASIZE SUB DUP2 ADD SWAP1 PUSH2 0x2FF SWAP2 SWAP1 PUSH2 0xF7E JUMP JUMPDEST PUSH2 0x6A4 JUMP JUMPDEST PUSH1 0x40 MLOAD PUSH2 0x311 SWAP2 SWAP1 PUSH2 0x163C JUMP JUMPDEST PUSH1 0x40 MLOAD DUP1 SWAP2 SUB SWAP1 RETURN JUMPDEST PUSH2 0x334 PUSH1 0x4 DUP1 CALLDATASIZE SUB DUP2 ADD SWAP1 PUSH2 0x32F SWAP2 SWAP1 PUSH2 0xF55 JUMP JUMPDEST PUSH2 0x72B JUMP JUMPDEST STOP JUMPDEST PUSH1 0x60 PUSH1 0x3 DUP1 SLOAD PUSH2 0x345 SWAP1 PUSH2 0x176C JUMP JUMPDEST DUP1 PUSH1 0x1F ADD PUSH1 0x20 DUP1 SWAP2 DIV MUL PUSH1 0x20 ADD PUSH1 0x40 MLOAD SWAP1 DUP2 ADD PUSH1 0x40 MSTORE DUP1 SWAP3 SWAP2 SWAP1 DUP2 DUP2 MSTORE PUSH1 0x20 ADD DUP3 DUP1 SLOAD PUSH2 0x371 SWAP1 PUSH2 0x176C JUMP JUMPDEST DUP1 ISZERO PUSH2 0x3BE JUMPI DUP1 PUSH1 0x1F LT PUSH2 0x393 JUMPI PUSH2 0x100 DUP1 DUP4 SLOAD DIV MUL DUP4 MSTORE SWAP2 PUSH1 0x20 ADD SWAP2 PUSH2 0x3BE JUMP JUMPDEST DUP3 ADD SWAP2 SWAP1 PUSH1 0x0 MSTORE PUSH1 0x20 PUSH1 0x0 KECCAK256 SWAP1 JUMPDEST DUP2 SLOAD DUP2 MSTORE SWAP1 PUSH1 0x1 ADD SWAP1 PUSH1 0x20 ADD DUP1 DUP4 GT PUSH2 0x3A1 JUMPI DUP3 SWAP1 SUB PUSH1 0x1F AND DUP3 ADD SWAP2 JUMPDEST POP POP POP POP POP SWAP1 POP SWAP1 JUMP JUMPDEST PUSH1 0x0 DUP1 PUSH2 0x3D3 PUSH2 0x7AF JUMP JUMPDEST SWAP1 POP PUSH2 0x3E0 DUP2 DUP6 DUP6 PUSH2 0x7B7 JUMP JUMPDEST PUSH1 0x1 SWAP2 POP POP SWAP3 SWAP2 POP POP JUMP JUMPDEST PUSH1 0x0 PUSH1 0x2 SLOAD SWAP1 POP SWAP1 JUMP JUMPDEST PUSH1 0x0 DUP1 PUSH2 0x400 PUSH2 0x7AF JUMP JUMPDEST SWAP1 POP PUSH2 0x40D DUP6 DUP3 DUP6 PUSH2 0x982 JUMP JUMPDEST PUSH2 0x418 DUP6 DUP6 DUP6 PUSH2 0xA0E JUMP JUMPDEST PUSH1 0x1 SWAP2 POP POP SWAP4 SWAP3 POP POP POP JUMP JUMPDEST PUSH1 0x0 PUSH1 0x12 SWAP1 POP SWAP1 JUMP JUMPDEST PUSH1 0x0 DUP1 PUSH2 0x438 PUSH2 0x7AF JUMP JUMPDEST SWAP1 POP PUSH2 0x459 DUP2 DUP6 DUP6 PUSH2 0x44A DUP6 DUP10 PUSH2 0x6A4 JUMP JUMPDEST PUSH2 0x454 SWAP2 SWAP1 PUSH2 0x168E JUMP JUMPDEST PUSH2 0x7B7 JUMP JUMPDEST PUSH1 0x1 SWAP2 POP POP SWAP3 SWAP2 POP POP JUMP JUMPDEST PUSH1 0x0 PUSH2 0x46E PUSH2 0xC86 JUMP JUMPDEST PUSH1 0x0 PUSH20 0xFFFFFFFFFFFFFFFFFFFFFFFFFFFFFFFFFFFFFFFF AND DUP4 PUSH20 0xFFFFFFFFFFFFFFFFFFFFFFFFFFFFFFFFFFFFFFFF AND EQ ISZERO PUSH2 0x4DE JUMPI PUSH1 0x40 MLOAD PUSH32 0x8C379A000000000000000000000000000000000000000000000000000000000 DUP2 MSTORE PUSH1 0x4 ADD PUSH2 0x4D5 SWAP1 PUSH2 0x15DC JUMP JUMPDEST PUSH1 0x40 MLOAD DUP1 SWAP2 SUB SWAP1 REVERT JUMPDEST PUSH2 0x4E8 DUP4 DUP4 PUSH2 0xD04 JUMP JUMPDEST PUSH1 0x1 SWAP1 POP SWAP3 SWAP2 POP POP JUMP JUMPDEST PUSH1 0x0 DUP1 PUSH1 0x0 DUP4 PUSH20 0xFFFFFFFFFFFFFFFFFFFFFFFFFFFFFFFFFFFFFFFF AND PUSH20 0xFFFFFFFFFFFFFFFFFFFFFFFFFFFFFFFFFFFFFFFF AND DUP2 MSTORE PUSH1 0x20 ADD SWAP1 DUP2 MSTORE PUSH1 0x20 ADD PUSH1 0x0 KECCAK256 SLOAD SWAP1 POP SWAP2 SWAP1 POP JUMP JUMPDEST PUSH2 0x542 PUSH2 0xC86 JUMP JUMPDEST PUSH2 0x54C PUSH1 0x0 PUSH2 0xE5B JUMP JUMPDEST JUMP JUMPDEST PUSH1 0x0 PUSH1 0x5 PUSH1 0x0 SWAP1 SLOAD SWAP1 PUSH2 0x100 EXP SWAP1 DIV PUSH20 0xFFFFFFFFFFFFFFFFFFFFFFFFFFFFFFFFFFFFFFFF AND SWAP1 POP SWAP1 JUMP JUMPDEST PUSH1 0x60 PUSH1 0x4 DUP1 SLOAD PUSH2 0x587 SWAP1 PUSH2 0x176C JUMP JUMPDEST DUP1 PUSH1 0x1F ADD PUSH1 0x20 DUP1 SWAP2 DIV MUL PUSH1 0x20 ADD PUSH1 0x40 MLOAD SWAP1 DUP2 ADD PUSH1 0x40 MSTORE DUP1 SWAP3 SWAP2 SWAP1 DUP2 DUP2 MSTORE PUSH1 0x20 ADD DUP3 DUP1 SLOAD PUSH2 0x5B3 SWAP1 PUSH2 0x176C JUMP JUMPDEST DUP1 ISZERO PUSH2 0x600 JUMPI DUP1 PUSH1 0x1F LT PUSH2 0x5D5 JUMPI PUSH2 0x100 DUP1 DUP4 SLOAD DIV MUL DUP4 MSTORE SWAP2 PUSH1 0x20 ADD SWAP2 PUSH2 0x600 JUMP JUMPDEST DUP3 ADD SWAP2 SWAP1 PUSH1 0x0 MSTORE PUSH1 0x20 PUSH1 0x0 KECCAK256 SWAP1 JUMPDEST DUP2 SLOAD DUP2 MSTORE SWAP1 PUSH1 0x1 ADD SWAP1 PUSH1 0x20 ADD DUP1 DUP4 GT PUSH2 0x5E3 JUMPI DUP3 SWAP1 SUB PUSH1 0x1F AND DUP3 ADD SWAP2 JUMPDEST POP POP POP POP POP SWAP1 POP SWAP1 JUMP JUMPDEST PUSH1 0x0 DUP1 PUSH2 0x615 PUSH2 0x7AF JUMP JUMPDEST SWAP1 POP PUSH1 0x0 PUSH2 0x623 DUP3 DUP7 PUSH2 0x6A4 JUMP JUMPDEST SWAP1 POP DUP4 DUP2 LT ISZERO PUSH2 0x668 JUMPI PUSH1 0x40 MLOAD PUSH32 0x8C379A000000000000000000000000000000000000000000000000000000000 DUP2 MSTORE PUSH1 0x4 ADD PUSH2 0x65F SWAP1 PUSH2 0x15FC JUMP JUMPDEST PUSH1 0x40 MLOAD DUP1 SWAP2 SUB SWAP1 REVERT JUMPDEST PUSH2 0x675 DUP3 DUP7 DUP7 DUP5 SUB PUSH2 0x7B7 JUMP JUMPDEST PUSH1 0x1 SWAP3 POP POP POP SWAP3 SWAP2 POP POP JUMP JUMPDEST PUSH1 0x0 DUP1 PUSH2 0x68C PUSH2 0x7AF JUMP JUMPDEST SWAP1 POP PUSH2 0x699 DUP2 DUP6 DUP6 PUSH2 0xA0E JUMP JUMPDEST PUSH1 0x1 SWAP2 POP POP SWAP3 SWAP2 POP POP JUMP JUMPDEST PUSH1 0x0 PUSH1 0x1 PUSH1 0x0 DUP5 PUSH20 0xFFFFFFFFFFFFFFFFFFFFFFFFFFFFFFFFFFFFFFFF AND PUSH20 0xFFFFFFFFFFFFFFFFFFFFFFFFFFFFFFFFFFFFFFFF AND DUP2 MSTORE PUSH1 0x20 ADD SWAP1 DUP2 MSTORE PUSH1 0x20 ADD PUSH1 0x0 KECCAK256 PUSH1 0x0 DUP4 PUSH20 0xFFFFFFFFFFFFFFFFFFFFFFFFFFFFFFFFFFFFFFFF AND PUSH20 0xFFFFFFFFFFFFFFFFFFFFFFFFFFFFFFFFFFFFFFFF AND DUP2 MSTORE PUSH1 0x20 ADD SWAP1 DUP2 MSTORE PUSH1 0x20 ADD PUSH1 0x0 KECCAK256 SLOAD SWAP1 POP SWAP3 SWAP2 POP POP JUMP JUMPDEST PUSH2 0x733 PUSH2 0xC86 JUMP JUMPDEST PUSH1 0x0 PUSH20 0xFFFFFFFFFFFFFFFFFFFFFFFFFFFFFFFFFFFFFFFF AND DUP2 PUSH20 0xFFFFFFFFFFFFFFFFFFFFFFFFFFFFFFFFFFFFFFFF AND EQ ISZERO PUSH2 0x7A3 JUMPI PUSH1 0x40 MLOAD PUSH32 0x8C379A000000000000000000000000000000000000000000000000000000000 DUP2 MSTORE PUSH1 0x4 ADD PUSH2 0x79A SWAP1 PUSH2 0x14FC JUMP JUMPDEST PUSH1 0x40 MLOAD DUP1 SWAP2 SUB SWAP1 REVERT JUMPDEST PUSH2 0x7AC DUP2 PUSH2 0xE5B JUMP JUMPDEST POP JUMP JUMPDEST PUSH1 0x0 CALLER SWAP1 POP SWAP1 JUMP JUMPDEST PUSH1 0x0 PUSH20 0xFFFFFFFFFFFFFFFFFFFFFFFFFFFFFFFFFFFFFFFF AND DUP4 PUSH20 0xFFFFFFFFFFFFFFFFFFFFFFFFFFFFFFFFFFFFFFFF AND EQ ISZERO PUSH2 0x827 JUMPI PUSH1 0x40 MLOAD PUSH32 0x8C379A000000000000000000000000000000000000000000000000000000000 DUP2 MSTORE PUSH1 0x4 ADD PUSH2 0x81E SWAP1 PUSH2 0x15BC JUMP JUMPDEST PUSH1 0x40 MLOAD DUP1 SWAP2 SUB SWAP1 REVERT JUMPDEST PUSH1 0x0 PUSH20 0xFFFFFFFFFFFFFFFFFFFFFFFFFFFFFFFFFFFFFFFF AND DUP3 PUSH20 0xFFFFFFFFFFFFFFFFFFFFFFFFFFFFFFFFFFFFFFFF AND EQ ISZERO PUSH2 0x897 JUMPI PUSH1 0x40 MLOAD PUSH32 0x8C379A000000000000000000000000000000000000000000000000000000000 DUP2 MSTORE PUSH1 0x4 ADD PUSH2 0x88E SWAP1 PUSH2 0x151C JUMP JUMPDEST PUSH1 0x40 MLOAD DUP1 SWAP2 SUB SWAP1 REVERT JUMPDEST DUP1 PUSH1 0x1 PUSH1 0x0 DUP6 PUSH20 0xFFFFFFFFFFFFFFFFFFFFFFFFFFFFFFFFFFFFFFFF AND PUSH20 0xFFFFFFFFFFFFFFFFFFFFFFFFFFFFFFFFFFFFFFFF AND DUP2 MSTORE PUSH1 0x20 ADD SWAP1 DUP2 MSTORE PUSH1 0x20 ADD PUSH1 0x0 KECCAK256 PUSH1 0x0 DUP5 PUSH20 0xFFFFFFFFFFFFFFFFFFFFFFFFFFFFFFFFFFFFFFFF AND PUSH20 0xFFFFFFFFFFFFFFFFFFFFFFFFFFFFFFFFFFFFFFFF AND DUP2 MSTORE PUSH1 0x20 ADD SWAP1 DUP2 MSTORE PUSH1 0x20 ADD PUSH1 0x0 KECCAK256 DUP2 SWAP1 SSTORE POP DUP2 PUSH20 0xFFFFFFFFFFFFFFFFFFFFFFFFFFFFFFFFFFFFFFFF AND DUP4 PUSH20 0xFFFFFFFFFFFFFFFFFFFFFFFFFFFFFFFFFFFFFFFF AND PUSH32 0x8C5BE1E5EBEC7D5BD14F71427D1E84F3DD0314C0F7B2291E5B200AC8C7C3B925 DUP4 PUSH1 0x40 MLOAD PUSH2 0x975 SWAP2 SWAP1 PUSH2 0x163C JUMP JUMPDEST PUSH1 0x40 MLOAD DUP1 SWAP2 SUB SWAP1 LOG3 POP POP POP JUMP JUMPDEST PUSH1 0x0 PUSH2 0x98E DUP5 DUP5 PUSH2 0x6A4 JUMP JUMPDEST SWAP1 POP PUSH32 0xFFFFFFFFFFFFFFFFFFFFFFFFFFFFFFFFFFFFFFFFFFFFFFFFFFFFFFFFFFFFFFFF DUP2 EQ PUSH2 0xA08 JUMPI DUP2 DUP2 LT ISZERO PUSH2 0x9FA JUMPI PUSH1 0x40 MLOAD PUSH32 0x8C379A000000000000000000000000000000000000000000000000000000000 DUP2 MSTORE PUSH1 0x4 ADD PUSH2 0x9F1 SWAP1 PUSH2 0x153C JUMP JUMPDEST PUSH1 0x40 MLOAD DUP1 SWAP2 SUB SWAP1 REVERT JUMPDEST PUSH2 0xA07 DUP5 DUP5 DUP5 DUP5 SUB PUSH2 0x7B7 JUMP JUMPDEST JUMPDEST POP POP POP POP JUMP JUMPDEST PUSH1 0x0 PUSH20 0xFFFFFFFFFFFFFFFFFFFFFFFFFFFFFFFFFFFFFFFF AND DUP4 PUSH20 0xFFFFFFFFFFFFFFFFFFFFFFFFFFFFFFFFFFFFFFFF AND EQ ISZERO PUSH2 0xA7E JUMPI PUSH1 0x40 MLOAD PUSH32 0x8C379A000000000000000000000000000000000000000000000000000000000 DUP2 MSTORE PUSH1 0x4 ADD PUSH2 0xA75 SWAP1 PUSH2 0x159C JUMP JUMPDEST PUSH1 0x40 MLOAD DUP1 SWAP2 SUB SWAP1 REVERT JUMPDEST PUSH1 0x0 PUSH20 0xFFFFFFFFFFFFFFFFFFFFFFFFFFFFFFFFFFFFFFFF AND DUP3 PUSH20 0xFFFFFFFFFFFFFFFFFFFFFFFFFFFFFFFFFFFFFFFF AND EQ ISZERO PUSH2 0xAEE JUMPI PUSH1 0x40 MLOAD PUSH32 0x8C379A000000000000000000000000000000000000000000000000000000000 DUP2 MSTORE PUSH1 0x4 ADD PUSH2 0xAE5 SWAP1 PUSH2 0x14DC JUMP JUMPDEST PUSH1 0x40 MLOAD DUP1 SWAP2 SUB SWAP1 REVERT JUMPDEST PUSH2 0xAF9 DUP4 DUP4 DUP4 PUSH2 0xF21 JUMP JUMPDEST PUSH1 0x0 DUP1 PUSH1 0x0 DUP6 PUSH20 0xFFFFFFFFFFFFFFFFFFFFFFFFFFFFFFFFFFFFFFFF AND PUSH20 0xFFFFFFFFFFFFFFFFFFFFFFFFFFFFFFFFFFFFFFFF AND DUP2 MSTORE PUSH1 0x20 ADD SWAP1 DUP2 MSTORE PUSH1 0x20 ADD PUSH1 0x0 KECCAK256 SLOAD SWAP1 POP DUP2 DUP2 LT ISZERO PUSH2 0xB7F JUMPI PUSH1 0x40 MLOAD PUSH32 0x8C379A000000000000000000000000000000000000000000000000000000000 DUP2 MSTORE PUSH1 0x4 ADD PUSH2 0xB76 SWAP1 PUSH2 0x155C JUMP JUMPDEST PUSH1 0x40 MLOAD DUP1 SWAP2 SUB SWAP1 REVERT JUMPDEST DUP2 DUP2 SUB PUSH1 0x0 DUP1 DUP7 PUSH20 0xFFFFFFFFFFFFFFFFFFFFFFFFFFFFFFFFFFFFFFFF AND PUSH20 0xFFFFFFFFFFFFFFFFFFFFFFFFFFFFFFFFFFFFFFFF AND DUP2 MSTORE PUSH1 0x20 ADD SWAP1 DUP2 MSTORE PUSH1 0x20 ADD PUSH1 0x0 KECCAK256 DUP2 SWAP1 SSTORE POP DUP2 PUSH1 0x0 DUP1 DUP6 PUSH20 0xFFFFFFFFFFFFFFFFFFFFFFFFFFFFFFFFFFFFFFFF AND PUSH20 0xFFFFFFFFFFFFFFFFFFFFFFFFFFFFFFFFFFFFFFFF AND DUP2 MSTORE PUSH1 0x20 ADD SWAP1 DUP2 MSTORE PUSH1 0x20 ADD PUSH1 0x0 KECCAK256 PUSH1 0x0 DUP3 DUP3 SLOAD ADD SWAP3 POP POP DUP2 SWAP1 SSTORE POP DUP3 PUSH20 0xFFFFFFFFFFFFFFFFFFFFFFFFFFFFFFFFFFFFFFFF AND DUP5 PUSH20 0xFFFFFFFFFFFFFFFFFFFFFFFFFFFFFFFFFFFFFFFF AND PUSH32 0xDDF252AD1BE2C89B69C2B068FC378DAA952BA7F163C4A11628F55A4DF523B3EF DUP5 PUSH1 0x40 MLOAD PUSH2 0xC6D SWAP2 SWAP1 PUSH2 0x163C JUMP JUMPDEST PUSH1 0x40 MLOAD DUP1 SWAP2 SUB SWAP1 LOG3 PUSH2 0xC80 DUP5 DUP5 DUP5 PUSH2 0xF26 JUMP JUMPDEST POP POP POP POP JUMP JUMPDEST PUSH2 0xC8E PUSH2 0x7AF JUMP JUMPDEST PUSH20 0xFFFFFFFFFFFFFFFFFFFFFFFFFFFFFFFFFFFFFFFF AND PUSH2 0xCAC PUSH2 0x54E JUMP JUMPDEST PUSH20 0xFFFFFFFFFFFFFFFFFFFFFFFFFFFFFFFFFFFFFFFF AND EQ PUSH2 0xD02 JUMPI PUSH1 0x40 MLOAD PUSH32 0x8C379A000000000000000000000000000000000000000000000000000000000 DUP2 MSTORE PUSH1 0x4 ADD PUSH2 0xCF9 SWAP1 PUSH2 0x157C JUMP JUMPDEST PUSH1 0x40 MLOAD DUP1 SWAP2 SUB SWAP1 REVERT JUMPDEST JUMP JUMPDEST PUSH1 0x0 PUSH20 0xFFFFFFFFFFFFFFFFFFFFFFFFFFFFFFFFFFFFFFFF AND DUP3 PUSH20 0xFFFFFFFFFFFFFFFFFFFFFFFFFFFFFFFFFFFFFFFF AND EQ ISZERO PUSH2 0xD74 JUMPI PUSH1 0x40 MLOAD PUSH32 0x8C379A000000000000000000000000000000000000000000000000000000000 DUP2 MSTORE PUSH1 0x4 ADD PUSH2 0xD6B SWAP1 PUSH2 0x161C JUMP JUMPDEST PUSH1 0x40 MLOAD DUP1 SWAP2 SUB SWAP1 REVERT JUMPDEST PUSH2 0xD80 PUSH1 0x0 DUP4 DUP4 PUSH2 0xF21 JUMP JUMPDEST DUP1 PUSH1 0x2 PUSH1 0x0 DUP3 DUP3 SLOAD PUSH2 0xD92 SWAP2 SWAP1 PUSH2 0x168E JUMP JUMPDEST SWAP3 POP POP DUP2 SWAP1 SSTORE POP DUP1 PUSH1 0x0 DUP1 DUP5 PUSH20 0xFFFFFFFFFFFFFFFFFFFFFFFFFFFFFFFFFFFFFFFF AND PUSH20 0xFFFFFFFFFFFFFFFFFFFFFFFFFFFFFFFFFFFFFFFF AND DUP2 MSTORE PUSH1 0x20 ADD SWAP1 DUP2 MSTORE PUSH1 0x20 ADD PUSH1 0x0 KECCAK256 PUSH1 0x0 DUP3 DUP3 SLOAD ADD SWAP3 POP POP DUP2 SWAP1 SSTORE POP DUP2 PUSH20 0xFFFFFFFFFFFFFFFFFFFFFFFFFFFFFFFFFFFFFFFF AND PUSH1 0x0 PUSH20 0xFFFFFFFFFFFFFFFFFFFFFFFFFFFFFFFFFFFFFFFF AND PUSH32 0xDDF252AD1BE2C89B69C2B068FC378DAA952BA7F163C4A11628F55A4DF523B3EF DUP4 PUSH1 0x40 MLOAD PUSH2 0xE43 SWAP2 SWAP1 PUSH2 0x163C JUMP JUMPDEST PUSH1 0x40 MLOAD DUP1 SWAP2 SUB SWAP1 LOG3 PUSH2 0xE57 PUSH1 0x0 DUP4 DUP4 PUSH2 0xF26 JUMP JUMPDEST POP POP JUMP JUMPDEST PUSH1 0x0 PUSH1 0x5 PUSH1 0x0 SWAP1 SLOAD SWAP1 PUSH2 0x100 EXP SWAP1 DIV PUSH20 0xFFFFFFFFFFFFFFFFFFFFFFFFFFFFFFFFFFFFFFFF AND SWAP1 POP DUP2 PUSH1 0x5 PUSH1 0x0 PUSH2 0x100 EXP DUP2 SLOAD DUP2 PUSH20 0xFFFFFFFFFFFFFFFFFFFFFFFFFFFFFFFFFFFFFFFF MUL NOT AND SWAP1 DUP4 PUSH20 0xFFFFFFFFFFFFFFFFFFFFFFFFFFFFFFFFFFFFFFFF AND MUL OR SWAP1 SSTORE POP DUP2 PUSH20 0xFFFFFFFFFFFFFFFFFFFFFFFFFFFFFFFFFFFFFFFF AND DUP2 PUSH20 0xFFFFFFFFFFFFFFFFFFFFFFFFFFFFFFFFFFFFFFFF AND PUSH32 0x8BE0079C531659141344CD1FD0A4F28419497F9722A3DAAFE3B4186F6B6457E0 PUSH1 0x40 MLOAD PUSH1 0x40 MLOAD DUP1 SWAP2 SUB SWAP1 LOG3 POP POP JUMP JUMPDEST POP POP POP JUMP JUMPDEST POP POP POP JUMP JUMPDEST PUSH1 0x0 DUP2 CALLDATALOAD SWAP1 POP PUSH2 0xF3A DUP2 PUSH2 0x180D JUMP JUMPDEST SWAP3 SWAP2 POP POP JUMP JUMPDEST PUSH1 0x0 DUP2 CALLDATALOAD SWAP1 POP PUSH2 0xF4F DUP2 PUSH2 0x1824 JUMP JUMPDEST SWAP3 SWAP2 POP POP JUMP JUMPDEST PUSH1 0x0 PUSH1 0x20 DUP3 DUP5 SUB SLT ISZERO PUSH2 0xF67 JUMPI PUSH1 0x0 DUP1 REVERT JUMPDEST PUSH1 0x0 PUSH2 0xF75 DUP5 DUP3 DUP6 ADD PUSH2 0xF2B JUMP JUMPDEST SWAP2 POP POP SWAP3 SWAP2 POP POP JUMP JUMPDEST PUSH1 0x0 DUP1 PUSH1 0x40 DUP4 DUP6 SUB SLT ISZERO PUSH2 0xF91 JUMPI PUSH1 0x0 DUP1 REVERT JUMPDEST PUSH1 0x0 PUSH2 0xF9F DUP6 DUP3 DUP7 ADD PUSH2 0xF2B JUMP JUMPDEST SWAP3 POP POP PUSH1 0x20 PUSH2 0xFB0 DUP6 DUP3 DUP7 ADD PUSH2 0xF2B JUMP JUMPDEST SWAP2 POP POP SWAP3 POP SWAP3 SWAP1 POP JUMP JUMPDEST PUSH1 0x0 DUP1 PUSH1 0x0 PUSH1 0x60 DUP5 DUP7 SUB SLT ISZERO PUSH2 0xFCF JUMPI PUSH1 0x0 DUP1 REVERT JUMPDEST PUSH1 0x0 PUSH2 0xFDD DUP7 DUP3 DUP8 ADD PUSH2 0xF2B JUMP JUMPDEST SWAP4 POP POP PUSH1 0x20 PUSH2 0xFEE DUP7 DUP3 DUP8 ADD PUSH2 0xF2B JUMP JUMPDEST SWAP3 POP POP PUSH1 0x40 PUSH2 0xFFF DUP7 DUP3 DUP8 ADD PUSH2 0xF40 JUMP JUMPDEST SWAP2 POP POP SWAP3 POP SWAP3 POP SWAP3 JUMP JUMPDEST PUSH1 0x0 DUP1 PUSH1 0x40 DUP4 DUP6 SUB SLT ISZERO PUSH2 0x101C JUMPI PUSH1 0x0 DUP1 REVERT JUMPDEST PUSH1 0x0 PUSH2 0x102A DUP6 DUP3 DUP7 ADD PUSH2 0xF2B JUMP JUMPDEST SWAP3 POP POP PUSH1 0x20 PUSH2 0x103B DUP6 DUP3 DUP7 ADD PUSH2 0xF40 JUMP JUMPDEST SWAP2 POP POP SWAP3 POP SWAP3 SWAP1 POP JUMP JUMPDEST PUSH2 0x104E DUP2 PUSH2 0x16E4 JUMP JUMPDEST DUP3 MSTORE POP POP JUMP JUMPDEST PUSH2 0x105D DUP2 PUSH2 0x16F6 JUMP JUMPDEST DUP3 MSTORE POP POP JUMP JUMPDEST PUSH1 0x0 PUSH2 0x106E DUP3 PUSH2 0x1672 JUMP JUMPDEST PUSH2 0x1078 DUP2 DUP6 PUSH2 0x167D JUMP JUMPDEST SWAP4 POP PUSH2 0x1088 DUP2 DUP6 PUSH1 0x20 DUP7 ADD PUSH2 0x1739 JUMP JUMPDEST PUSH2 0x1091 DUP2 PUSH2 0x17FC JUMP JUMPDEST DUP5 ADD SWAP2 POP POP SWAP3 SWAP2 POP POP JUMP JUMPDEST PUSH1 0x0 PUSH2 0x10A9 PUSH1 0x23 DUP4 PUSH2 0x167D JUMP JUMPDEST SWAP2 POP PUSH32 0x45524332303A207472616E7366657220746F20746865207A65726F2061646472 PUSH1 0x0 DUP4 ADD MSTORE PUSH32 0x6573730000000000000000000000000000000000000000000000000000000000 PUSH1 0x20 DUP4 ADD MSTORE PUSH1 0x40 DUP3 ADD SWAP1 POP SWAP2 SWAP1 POP JUMP JUMPDEST PUSH1 0x0 PUSH2 0x110F PUSH1 0x26 DUP4 PUSH2 0x167D JUMP JUMPDEST SWAP2 POP PUSH32 0x4F776E61626C653A206E6577206F776E657220697320746865207A65726F2061 PUSH1 0x0 DUP4 ADD MSTORE PUSH32 0x6464726573730000000000000000000000000000000000000000000000000000 PUSH1 0x20 DUP4 ADD MSTORE PUSH1 0x40 DUP3 ADD SWAP1 POP SWAP2 SWAP1 POP JUMP JUMPDEST PUSH1 0x0 PUSH2 0x1175 PUSH1 0x22 DUP4 PUSH2 0x167D JUMP JUMPDEST SWAP2 POP PUSH32 0x45524332303A20617070726F766520746F20746865207A65726F206164647265 PUSH1 0x0 DUP4 ADD MSTORE PUSH32 0x7373000000000000000000000000000000000000000000000000000000000000 PUSH1 0x20 DUP4 ADD MSTORE PUSH1 0x40 DUP3 ADD SWAP1 POP SWAP2 SWAP1 POP JUMP JUMPDEST PUSH1 0x0 PUSH2 0x11DB PUSH1 0x1D DUP4 PUSH2 0x167D JUMP JUMPDEST SWAP2 POP PUSH32 0x45524332303A20696E73756666696369656E7420616C6C6F77616E6365000000 PUSH1 0x0 DUP4 ADD MSTORE PUSH1 0x20 DUP3 ADD SWAP1 POP SWAP2 SWAP1 POP JUMP JUMPDEST PUSH1 0x0 PUSH2 0x121B PUSH1 0x26 DUP4 PUSH2 0x167D JUMP JUMPDEST SWAP2 POP PUSH32 0x45524332303A207472616E7366657220616D6F756E7420657863656564732062 PUSH1 0x0 DUP4 ADD MSTORE PUSH32 0x616C616E63650000000000000000000000000000000000000000000000000000 PUSH1 0x20 DUP4 ADD MSTORE PUSH1 0x40 DUP3 ADD SWAP1 POP SWAP2 SWAP1 POP JUMP JUMPDEST PUSH1 0x0 PUSH2 0x1281 PUSH1 0x20 DUP4 PUSH2 0x167D JUMP JUMPDEST SWAP2 POP PUSH32 0x4F776E61626C653A2063616C6C6572206973206E6F7420746865206F776E6572 PUSH1 0x0 DUP4 ADD MSTORE PUSH1 0x20 DUP3 ADD SWAP1 POP SWAP2 SWAP1 POP JUMP JUMPDEST PUSH1 0x0 PUSH2 0x12C1 PUSH1 0x25 DUP4 PUSH2 0x167D JUMP JUMPDEST SWAP2 POP PUSH32 0x45524332303A207472616E736665722066726F6D20746865207A65726F206164 PUSH1 0x0 DUP4 ADD MSTORE PUSH32 0x6472657373000000000000000000000000000000000000000000000000000000 PUSH1 0x20 DUP4 ADD MSTORE PUSH1 0x40 DUP3 ADD SWAP1 POP SWAP2 SWAP1 POP JUMP JUMPDEST PUSH1 0x0 PUSH2 0x1327 PUSH1 0x24 DUP4 PUSH2 0x167D JUMP JUMPDEST SWAP2 POP PUSH32 0x45524332303A20617070726F76652066726F6D20746865207A65726F20616464 PUSH1 0x0 DUP4 ADD MSTORE PUSH32 0x7265737300000000000000000000000000000000000000000000000000000000 PUSH1 0x20 DUP4 ADD MSTORE PUSH1 0x40 DUP3 ADD SWAP1 POP SWAP2 SWAP1 POP JUMP JUMPDEST PUSH1 0x0 PUSH2 0x138D PUSH1 0x1C DUP4 PUSH2 0x167D JUMP JUMPDEST SWAP2 POP PUSH32 0x63616E206E6F74206D696E7420746F207A65726F206164647265737300000000 PUSH1 0x0 DUP4 ADD MSTORE PUSH1 0x20 DUP3 ADD SWAP1 POP SWAP2 SWAP1 POP JUMP JUMPDEST PUSH1 0x0 PUSH2 0x13CD PUSH1 0x25 DUP4 PUSH2 0x167D JUMP JUMPDEST SWAP2 POP PUSH32 0x45524332303A2064656372656173656420616C6C6F77616E63652062656C6F77 PUSH1 0x0 DUP4 ADD MSTORE PUSH32 0x207A65726F000000000000000000000000000000000000000000000000000000 PUSH1 0x20 DUP4 ADD MSTORE PUSH1 0x40 DUP3 ADD SWAP1 POP SWAP2 SWAP1 POP JUMP JUMPDEST PUSH1 0x0 PUSH2 0x1433 PUSH1 0x1F DUP4 PUSH2 0x167D JUMP JUMPDEST SWAP2 POP PUSH32 0x45524332303A206D696E7420746F20746865207A65726F206164647265737300 PUSH1 0x0 DUP4 ADD MSTORE PUSH1 0x20 DUP3 ADD SWAP1 POP SWAP2 SWAP1 POP JUMP JUMPDEST PUSH2 0x146F DUP2 PUSH2 0x1722 JUMP JUMPDEST DUP3 MSTORE POP POP JUMP JUMPDEST PUSH2 0x147E DUP2 PUSH2 0x172C JUMP JUMPDEST DUP3 MSTORE POP POP JUMP JUMPDEST PUSH1 0x0 PUSH1 0x20 DUP3 ADD SWAP1 POP PUSH2 0x1499 PUSH1 0x0 DUP4 ADD DUP5 PUSH2 0x1045 JUMP JUMPDEST SWAP3 SWAP2 POP POP JUMP JUMPDEST PUSH1 0x0 PUSH1 0x20 DUP3 ADD SWAP1 POP PUSH2 0x14B4 PUSH1 0x0 DUP4 ADD DUP5 PUSH2 0x1054 JUMP JUMPDEST SWAP3 SWAP2 POP POP JUMP JUMPDEST PUSH1 0x0 PUSH1 0x20 DUP3 ADD SWAP1 POP DUP2 DUP2 SUB PUSH1 0x0 DUP4 ADD MSTORE PUSH2 0x14D4 DUP2 DUP5 PUSH2 0x1063 JUMP JUMPDEST SWAP1 POP SWAP3 SWAP2 POP POP JUMP JUMPDEST PUSH1 0x0 PUSH1 0x20 DUP3 ADD SWAP1 POP DUP2 DUP2 SUB PUSH1 0x0 DUP4 ADD MSTORE PUSH2 0x14F5 DUP2 PUSH2 0x109C JUMP JUMPDEST SWAP1 POP SWAP2 SWAP1 POP JUMP JUMPDEST PUSH1 0x0 PUSH1 0x20 DUP3 ADD SWAP1 POP DUP2 DUP2 SUB PUSH1 0x0 DUP4 ADD MSTORE PUSH2 0x1515 DUP2 PUSH2 0x1102 JUMP JUMPDEST SWAP1 POP SWAP2 SWAP1 POP JUMP JUMPDEST PUSH1 0x0 PUSH1 0x20 DUP3 ADD SWAP1 POP DUP2 DUP2 SUB PUSH1 0x0 DUP4 ADD MSTORE PUSH2 0x1535 DUP2 PUSH2 0x1168 JUMP JUMPDEST SWAP1 POP SWAP2 SWAP1 POP JUMP JUMPDEST PUSH1 0x0 PUSH1 0x20 DUP3 ADD SWAP1 POP DUP2 DUP2 SUB PUSH1 0x0 DUP4 ADD MSTORE PUSH2 0x1555 DUP2 PUSH2 0x11CE JUMP JUMPDEST SWAP1 POP SWAP2 SWAP1 POP JUMP JUMPDEST PUSH1 0x0 PUSH1 0x20 DUP3 ADD SWAP1 POP DUP2 DUP2 SUB PUSH1 0x0 DUP4 ADD MSTORE PUSH2 0x1575 DUP2 PUSH2 0x120E JUMP JUMPDEST SWAP1 POP SWAP2 SWAP1 POP JUMP JUMPDEST PUSH1 0x0 PUSH1 0x20 DUP3 ADD SWAP1 POP DUP2 DUP2 SUB PUSH1 0x0 DUP4 ADD MSTORE PUSH2 0x1595 DUP2 PUSH2 0x1274 JUMP JUMPDEST SWAP1 POP SWAP2 SWAP1 POP JUMP JUMPDEST PUSH1 0x0 PUSH1 0x20 DUP3 ADD SWAP1 POP DUP2 DUP2 SUB PUSH1 0x0 DUP4 ADD MSTORE PUSH2 0x15B5 DUP2 PUSH2 0x12B4 JUMP JUMPDEST SWAP1 POP SWAP2 SWAP1 POP JUMP JUMPDEST PUSH1 0x0 PUSH1 0x20 DUP3 ADD SWAP1 POP DUP2 DUP2 SUB PUSH1 0x0 DUP4 ADD MSTORE PUSH2 0x15D5 DUP2 PUSH2 0x131A JUMP JUMPDEST SWAP1 POP SWAP2 SWAP1 POP JUMP JUMPDEST PUSH1 0x0 PUSH1 0x20 DUP3 ADD SWAP1 POP DUP2 DUP2 SUB PUSH1 0x0 DUP4 ADD MSTORE PUSH2 0x15F5 DUP2 PUSH2 0x1380 JUMP JUMPDEST SWAP1 POP SWAP2 SWAP1 POP JUMP JUMPDEST PUSH1 0x0 PUSH1 0x20 DUP3 ADD SWAP1 POP DUP2 DUP2 SUB PUSH1 0x0 DUP4 ADD MSTORE PUSH2 0x1615 DUP2 PUSH2 0x13C0 JUMP JUMPDEST SWAP1 POP SWAP2 SWAP1 POP JUMP JUMPDEST PUSH1 0x0 PUSH1 0x20 DUP3 ADD SWAP1 POP DUP2 DUP2 SUB PUSH1 0x0 DUP4 ADD MSTORE PUSH2 0x1635 DUP2 PUSH2 0x1426 JUMP JUMPDEST SWAP1 POP SWAP2 SWAP1 POP JUMP JUMPDEST PUSH1 0x0 PUSH1 0x20 DUP3 ADD SWAP1 POP PUSH2 0x1651 PUSH1 0x0 DUP4 ADD DUP5 PUSH2 0x1466 JUMP JUMPDEST SWAP3 SWAP2 POP POP JUMP JUMPDEST PUSH1 0x0 PUSH1 0x20 DUP3 ADD SWAP1 POP PUSH2 0x166C PUSH1 0x0 DUP4 ADD DUP5 PUSH2 0x1475 JUMP JUMPDEST SWAP3 SWAP2 POP POP JUMP JUMPDEST PUSH1 0x0 DUP2 MLOAD SWAP1 POP SWAP2 SWAP1 POP JUMP JUMPDEST PUSH1 0x0 DUP3 DUP3 MSTORE PUSH1 0x20 DUP3 ADD SWAP1 POP SWAP3 SWAP2 POP POP JUMP JUMPDEST PUSH1 0x0 PUSH2 0x1699 DUP3 PUSH2 0x1722 JUMP JUMPDEST SWAP2 POP PUSH2 0x16A4 DUP4 PUSH2 0x1722 JUMP JUMPDEST SWAP3 POP DUP3 PUSH32 0xFFFFFFFFFFFFFFFFFFFFFFFFFFFFFFFFFFFFFFFFFFFFFFFFFFFFFFFFFFFFFFFF SUB DUP3 GT ISZERO PUSH2 0x16D9 JUMPI PUSH2 0x16D8 PUSH2 0x179E JUMP JUMPDEST JUMPDEST DUP3 DUP3 ADD SWAP1 POP SWAP3 SWAP2 POP POP JUMP JUMPDEST PUSH1 0x0 PUSH2 0x16EF DUP3 PUSH2 0x1702 JUMP JUMPDEST SWAP1 POP SWAP2 SWAP1 POP JUMP JUMPDEST PUSH1 0x0 DUP2 ISZERO ISZERO SWAP1 POP SWAP2 SWAP1 POP JUMP JUMPDEST PUSH1 0x0 PUSH20 0xFFFFFFFFFFFFFFFFFFFFFFFFFFFFFFFFFFFFFFFF DUP3 AND SWAP1 POP SWAP2 SWAP1 POP JUMP JUMPDEST PUSH1 0x0 DUP2 SWAP1 POP SWAP2 SWAP1 POP JUMP JUMPDEST PUSH1 0x0 PUSH1 0xFF DUP3 AND SWAP1 POP SWAP2 SWAP1 POP JUMP JUMPDEST PUSH1 0x0 JUMPDEST DUP4 DUP2 LT ISZERO PUSH2 0x1757 JUMPI DUP1 DUP3 ADD MLOAD DUP2 DUP5 ADD MSTORE PUSH1 0x20 DUP2 ADD SWAP1 POP PUSH2 0x173C JUMP JUMPDEST DUP4 DUP2 GT ISZERO PUSH2 0x1766 JUMPI PUSH1 0x0 DUP5 DUP5 ADD MSTORE JUMPDEST POP POP POP POP JUMP JUMPDEST PUSH1 0x0 PUSH1 0x2 DUP3 DIV SWAP1 POP PUSH1 0x1 DUP3 AND DUP1 PUSH2 0x1784 JUMPI PUSH1 0x7F DUP3 AND SWAP2 POP JUMPDEST PUSH1 0x20 DUP3 LT DUP2 EQ ISZERO PUSH2 0x1798 JUMPI PUSH2 0x1797 PUSH2 0x17CD JUMP JUMPDEST JUMPDEST POP SWAP2 SWAP1 POP JUMP JUMPDEST PUSH32 0x4E487B7100000000000000000000000000000000000000000000000000000000 PUSH1 0x0 MSTORE PUSH1 0x11 PUSH1 0x4 MSTORE PUSH1 0x24 PUSH1 0x0 REVERT JUMPDEST PUSH32 0x4E487B7100000000000000000000000000000000000000000000000000000000 PUSH1 0x0 MSTORE PUSH1 0x22 PUSH1 0x4 MSTORE PUSH1 0x24 PUSH1 0x0 REVERT JUMPDEST PUSH1 0x0 PUSH1 0x1F NOT PUSH1 0x1F DUP4 ADD AND SWAP1 POP SWAP2 SWAP1 POP JUMP JUMPDEST PUSH2 0x1816 DUP2 PUSH2 0x16E4 JUMP JUMPDEST DUP2 EQ PUSH2 0x1821 JUMPI PUSH1 0x0 DUP1 REVERT JUMPDEST POP JUMP JUMPDEST PUSH2 0x182D DUP2 PUSH2 0x1722 JUMP JUMPDEST DUP2 EQ PUSH2 0x1838 JUMPI PUSH1 0x0 DUP1 REVERT JUMPDEST POP JUMP INVALID LOG2 PUSH5 0x6970667358 0x22 SLT KECCAK256 SELFDESTRUCT BYTE 0xB4 CALLVALUE SWAP7 0xE1 CHAINID SLT STOP ADDRESS 0x5D PUSH21 0xFB7E93F175254748F33D0DC325ECEBE203C3A33D64 PUSH20 0x6F6C634300080000330000000000000000000000 "
				},
				"gasEstimates": {
					"creation": {
						"codeDepositCost": "1251400",
						"executionCost": "infinite",
						"totalCost": "infinite"
					},
					"external": {
						"allowance(address,address)": "infinite",
						"approve(address,uint256)": "infinite",
						"balanceOf(address)": "1564",
						"decimals()": "388",
						"decreaseAllowance(address,uint256)": "infinite",
						"increaseAllowance(address,uint256)": "infinite",
						"mintTo(address,uint256)": "infinite",
						"name()": "infinite",
						"owner()": "1289",
						"renounceOwnership()": "24443",
						"symbol()": "infinite",
						"totalSupply()": "1205",
						"transfer(address,uint256)": "infinite",
						"transferFrom(address,address,uint256)": "infinite",
						"transferOwnership(address)": "24835"
					}
				},
				"methodIdentifiers": {
					"allowance(address,address)": "dd62ed3e",
					"approve(address,uint256)": "095ea7b3",
					"balanceOf(address)": "70a08231",
					"decimals()": "313ce567",
					"decreaseAllowance(address,uint256)": "a457c2d7",
					"increaseAllowance(address,uint256)": "39509351",
					"mintTo(address,uint256)": "449a52f8",
					"name()": "06fdde03",
					"owner()": "8da5cb5b",
					"renounceOwnership()": "715018a6",
					"symbol()": "95d89b41",
					"totalSupply()": "18160ddd",
					"transfer(address,uint256)": "a9059cbb",
					"transferFrom(address,address,uint256)": "23b872dd",
					"transferOwnership(address)": "f2fde38b"
				}
			},
			"storageLayout": {
				"storage": [
					{
						"astId": 128,
						"contract": "contracts/MyErc20.sol:MyErc20",
						"label": "_balances",
						"offset": 0,
						"slot": "0",
						"type": "t_mapping(t_address,t_uint256)"
					},
					{
						"astId": 134,
						"contract": "contracts/MyErc20.sol:MyErc20",
						"label": "_allowances",
						"offset": 0,
						"slot": "1",
						"type": "t_mapping(t_address,t_mapping(t_address,t_uint256))"
					},
					{
						"astId": 136,
						"contract": "contracts/MyErc20.sol:MyErc20",
						"label": "_totalSupply",
						"offset": 0,
						"slot": "2",
						"type": "t_uint256"
					},
					{
						"astId": 138,
						"contract": "contracts/MyErc20.sol:MyErc20",
						"label": "_name",
						"offset": 0,
						"slot": "3",
						"type": "t_string_storage"
					},
					{
						"astId": 140,
						"contract": "contracts/MyErc20.sol:MyErc20",
						"label": "_symbol",
						"offset": 0,
						"slot": "4",
						"type": "t_string_storage"
					},
					{
						"astId": 7,
						"contract": "contracts/MyErc20.sol:MyErc20",
						"label": "_owner",
						"offset": 0,
						"slot": "5",
						"type": "t_address"
					}
				],
				"types": {
					"t_address": {
						"encoding": "inplace",
						"label": "address",
						"numberOfBytes": "20"
					},
					"t_mapping(t_address,t_mapping(t_address,t_uint256))": {
						"encoding": "mapping",
						"key": "t_address",
						"label": "mapping(address => mapping(address => uint256))",
						"numberOfBytes": "32",
						"value": "t_mapping(t_address,t_uint256)"
					},
					"t_mapping(t_address,t_uint256)": {
						"encoding": "mapping",
						"key": "t_address",
						"label": "mapping(address => uint256)",
						"numberOfBytes": "32",
						"value": "t_uint256"
					},
					"t_string_storage": {
						"encoding": "bytes",
						"label": "string",
						"numberOfBytes": "32"
					},
					"t_uint256": {
						"encoding": "inplace",
						"label": "uint256",
						"numberOfBytes": "32"
					}
				}
			},
			"userdoc": {
				"kind": "user",
				"methods": {},
				"version": 1
			}
		}
	}
}