{
  "contractName": "Bank",
  "abi": [
    {
      "anonymous": false,
      "inputs": [
        {
          "indexed": true,
          "internalType": "address",
          "name": "previousOwner",
          "type": "address"
        },
        {
          "indexed": true,
          "internalType": "address",
          "name": "newOwner",
          "type": "address"
        }
      ],
      "name": "OwnershipTransferred",
      "type": "event"
    },
    {
      "inputs": [],
      "name": "owner",
      "outputs": [
        {
          "internalType": "address",
          "name": "",
          "type": "address"
        }
      ],
      "stateMutability": "view",
      "type": "function",
      "constant": true
    },
    {
      "inputs": [],
      "name": "renounceOwnership",
      "outputs": [],
      "stateMutability": "nonpayable",
      "type": "function"
    },
    {
      "inputs": [
        {
          "internalType": "address",
          "name": "newOwner",
          "type": "address"
        }
      ],
      "name": "transferOwnership",
      "outputs": [],
      "stateMutability": "nonpayable",
      "type": "function"
    },
    {
      "inputs": [],
      "name": "save",
      "outputs": [
        {
          "internalType": "bool",
          "name": "",
          "type": "bool"
        }
      ],
      "stateMutability": "payable",
      "type": "function",
      "payable": true
    },
    {
      "inputs": [
        {
          "internalType": "address",
          "name": "user",
          "type": "address"
        }
      ],
      "name": "check",
      "outputs": [
        {
          "internalType": "uint256",
          "name": "",
          "type": "uint256"
        }
      ],
      "stateMutability": "view",
      "type": "function",
      "constant": true
    }
  ],
  "bytecode": "0x608060405234801561001057600080fd5b5061002d61002261003260201b60201c565b61003a60201b60201c565b6100fe565b600033905090565b60008060009054906101000a900473ffffffffffffffffffffffffffffffffffffffff169050816000806101000a81548173ffffffffffffffffffffffffffffffffffffffff021916908373ffffffffffffffffffffffffffffffffffffffff1602179055508173ffffffffffffffffffffffffffffffffffffffff168173ffffffffffffffffffffffffffffffffffffffff167f8be0079c531659141344cd1fd0a4f28419497f9722a3daafe3b4186f6b6457e060405160405180910390a35050565b6106dd8061010d6000396000f3fe60806040526004361061004a5760003560e01c806342dad49e1461004f578063715018a61461006d5780638da5cb5b14610084578063c23697a8146100af578063f2fde38b146100ec575b600080fd5b610057610115565b604051610064919061053c565b60405180910390f35b34801561007957600080fd5b506100826101b4565b005b34801561009057600080fd5b506100996101c8565b6040516100a69190610521565b60405180910390f35b3480156100bb57600080fd5b506100d660048036038101906100d19190610425565b6101f1565b6040516100e39190610597565b60405180910390f35b3480156100f857600080fd5b50610113600480360381019061010e9190610425565b610242565b005b600080600160003373ffffffffffffffffffffffffffffffffffffffff1673ffffffffffffffffffffffffffffffffffffffff168152602001908152602001600020549050348161016691906105c3565b905080600160003373ffffffffffffffffffffffffffffffffffffffff1673ffffffffffffffffffffffffffffffffffffffff16815260200190815260200160002081905550600191505090565b6101bc6102c6565b6101c66000610344565b565b60008060009054906101000a900473ffffffffffffffffffffffffffffffffffffffff16905090565b60006101fb6102c6565b600160008373ffffffffffffffffffffffffffffffffffffffff1673ffffffffffffffffffffffffffffffffffffffff168152602001908152602001600020549050919050565b61024a6102c6565b600073ffffffffffffffffffffffffffffffffffffffff168173ffffffffffffffffffffffffffffffffffffffff1614156102ba576040517f08c379a00000000000000000000000000000000000000000000000000000000081526004016102b190610557565b60405180910390fd5b6102c381610344565b50565b6102ce610408565b73ffffffffffffffffffffffffffffffffffffffff166102ec6101c8565b73ffffffffffffffffffffffffffffffffffffffff1614610342576040517f08c379a000000000000000000000000000000000000000000000000000000000815260040161033990610577565b60405180910390fd5b565b60008060009054906101000a900473ffffffffffffffffffffffffffffffffffffffff169050816000806101000a81548173ffffffffffffffffffffffffffffffffffffffff021916908373ffffffffffffffffffffffffffffffffffffffff1602179055508173ffffffffffffffffffffffffffffffffffffffff168173ffffffffffffffffffffffffffffffffffffffff167f8be0079c531659141344cd1fd0a4f28419497f9722a3daafe3b4186f6b6457e060405160405180910390a35050565b600033905090565b60008135905061041f81610690565b92915050565b60006020828403121561043757600080fd5b600061044584828501610410565b91505092915050565b61045781610619565b82525050565b6104668161062b565b82525050565b60006104796026836105b2565b91507f4f776e61626c653a206e6577206f776e657220697320746865207a65726f206160008301527f64647265737300000000000000000000000000000000000000000000000000006020830152604082019050919050565b60006104df6020836105b2565b91507f4f776e61626c653a2063616c6c6572206973206e6f7420746865206f776e65726000830152602082019050919050565b61051b81610657565b82525050565b6000602082019050610536600083018461044e565b92915050565b6000602082019050610551600083018461045d565b92915050565b600060208201905081810360008301526105708161046c565b9050919050565b60006020820190508181036000830152610590816104d2565b9050919050565b60006020820190506105ac6000830184610512565b92915050565b600082825260208201905092915050565b60006105ce82610657565b91506105d983610657565b9250827fffffffffffffffffffffffffffffffffffffffffffffffffffffffffffffffff0382111561060e5761060d610661565b5b828201905092915050565b600061062482610637565b9050919050565b60008115159050919050565b600073ffffffffffffffffffffffffffffffffffffffff82169050919050565b6000819050919050565b7f4e487b7100000000000000000000000000000000000000000000000000000000600052601160045260246000fd5b61069981610619565b81146106a457600080fd5b5056fea26469706673582212205f23eda664c04c68ad3b19facb96b53a84d29db2a01a1b28e816c46c361484de64736f6c63430008000033",
  "immutableReferences": {},
  "source": "// SPDX-License-Identifier: MIT\npragma solidity 0.8.0;\n\nimport '@openzeppelin/contracts/access/Ownable.sol';\n\ncontract Bank is Ownable{\n    mapping(address => uint256) funds;\n\n\n    function save () external payable returns (bool) {\n        uint256 amount = funds[msg.sender];\n        amount += msg.value;\n        funds[msg.sender] = amount;\n        return true;\n    }\n\n    function check(address user) view external onlyOwner returns (uint256){\n        return funds[user];\n    }\n\n    \n}\n",
  "sourcePath": "/Users/yuzekai/code/solidity/truffle_study/tutorialtoken-box/contracts/Bank.sol",
  "compiler": {
    "name": "solc",
    "version": "0.8.0+commit.c7dfd78e.Emscripten.clang"
  },
  "schemaVersion": "3.4.13",
  "updatedAt": "2023-03-08T16:00:04.392Z",
  "networkType": "ethereum",
  "devdoc": {
    "kind": "dev",
    "methods": {
      "owner()": {
        "details": "Returns the address of the current owner."
      },
      "renounceOwnership()": {
        "details": "Leaves the contract without owner. It will not be possible to call `onlyOwner` functions anymore. Can only be called by the current owner. NOTE: Renouncing ownership will leave the contract without an owner, thereby removing any functionality that is only available to the owner."
      },
      "transferOwnership(address)": {
        "details": "Transfers ownership of the contract to a new account (`newOwner`). Can only be called by the current owner."
      }
    },
    "version": 1
  },
  "userdoc": {
    "kind": "user",
    "methods": {},
    "version": 1
  }
}